:020000040800F2
:10000000E806002039020008B9260008BB260008CF
:10001000BD260008BF260008C12600080000000019
:10002000000000000000000000000000C3260008DF
:10003000C526000800000000C7260008CB260008DF
:10004000530200085302000853020008530200083C
:10005000530200085302000853020008530200082C
:10006000530200085302000853020008530200081C
:10007000530200085302000853020008530200080C
:1000800053020008530200085302000853020008FC
:1000900053020008530200085302000853020008EC
:1000A00053020008530200085302000853020008DC
:1000B00053020008530200085302000853020008CC
:1000C00053020008530200085302000853020008BC
:1000D00053020008530200085302000853020008AC
:1000E000530200085302000853020008530200089C
:1000F000530200085302000853020008530200088C
:10010000530200085302000853020008530200087B
:10011000530200085302000853020008530200086B
:10012000530200085302000853020008530200085B
:10013000530200085302000853020008530200084B
:10014000530200085302000853020008530200083B
:10015000530200085302000853020008530200082B
:10016000530200085302000853020008530200081B
:10017000530200085302000853020008530200080B
:10018000530200085302000800F002F800F045F89E
:100190000AA090E8000C82448344AAF10107DA45E2
:1001A00001D100F03AF8AFF2090EBAE80F0013F0EF
:1001B000010F18BFFB1A43F0010318475441000018
:1001C00074410000103A24BF78C878C1FAD85207A9
:1001D00024BF30C830C144BF04680C6070470000C1
:1001E0000023002400250026103A28BF78C1FBD840
:1001F000520728BF30C148BF0B607047782902F012
:10020000BB83002070471FB502F0FBFD9DE8030093
:1002100002F09AFC1FBD10B510BD02F069FD114639
:10022000FFF7F1FF02F076F902F087FD03B4FFF764
:10023000F2FF03BC02F0B8FD0948804709480047B7
:10024000FEE7FEE7FEE7FEE7FEE7FEE7FEE7FEE786
:10025000FEE7FEE704480549054A064B70470000E3
:100260007727000889010008E8000020E806002040
:10027000E8020020E8020020F848016841F001018E
:100280000160F64A0021083211600268F44B1A40FE
:100290000260031DF34A1A60F04BF34A84331A607C
:1002A000F04A103A1B1D1A60026822F48022026094
:1002B000EA480C300160181D01607047E7490022D0
:1002C000891C0A70087070470246002051090129F4
:1002D0000CD002290CD0E1497431096802F01F02E8
:1002E000012393400B4200D001207047DB49F4E723
:1002F000DA497031F1E718B500204FF4A0440090BE
:100300003120FFF7E1FF0099491C0091A14201D083
:100310000028F5D03120FFF7D7FF002800D00120BA
:1003200018BDCE4A116821F0F80141EAC000106002
:100330007047CE4908607047C849002270310A7082
:100340000A70012802D0042801D1052008707047E6
:10035000C7490860704741EA82115A0810B5C54B79
:10036000029C03EB02421143014341EA0460BB4992
:10037000091D086010BDBD4908667047800140EA4C
:100380000170B649843108607047B8498866704783
:10039000800140EA0160B14940EA0270883108609A
:1003A0007047B24908677047B049C8647047AB4BA3
:1003B00008331A68084322F0EC6210431860704753
:1003C000A64B08331A68084322F07842104318609D
:1003D0007047A24A0832116821F0030101431160FD
:1003E00070479E480830006800F00C0070479B4A38
:1003F0000832116821F0F001014311607047974AFB
:100400000832116821F4E051014311607047934AAA
:100410000832116821F4604141EAC0001060704761
:1004200070B58E4B08331968934C11F00C0104D051
:10043000924E042903D0082903D004601BE0066013
:1004400019E0864A121D1168C1F38055116801F048
:100450003F0115B1B6FBF1F101E0B4FBF1F1146815
:100460001268C4F388146143C2F30142521C520063
:10047000B1FBF2F1016019680F2202EA1111804A02
:10048000545C0168E14041601C68072505EA94243A
:10049000145D21FA04F484601B6805EA5333D25CCE
:1004A000D140C16070BDC0F30121032908D16B4B5D
:1004B00008331968734A21F4F81102400A431A609C
:1004C000664970310A68C0F30B0002430A60704746
:1004D000674944390860704765494039086070478A
:1004E0006249C1F85C0170475C4A8C32116821F4A2
:1004F0004011014311607047584A8C32116821F451
:100500004001014311607047544A8C321168401E0B
:1005100021F01F01014311607047504A8C3211686D
:100520006FF0FF0321F4F85103EB00200843106043
:1005300070474A4A8C32116821F4403101431160FE
:1005400070475149C1F8E0017047444A30320029F0
:10055000116801D0014300E08143116070473F4AB8
:1005600034320029116801D0014300E08143116059
:1005700070473A4A38320029116801D0014300E03F
:10058000814311607047354A40320029116801D01B
:10059000014300E0814311607047304A4432002932
:1005A000116801D0014300E08143116070472B4A7C
:1005B00010320029116801D0014300E0814311602D
:1005C0007047264A14320029116801D0014300E027
:1005D000814311607047214A18320029116801D007
:1005E000014300E08143116070471C4A203200291A
:1005F000116801D0014300E0814311607047174A40
:1006000024320029116801D0014300E081431160C8
:100610007047124A50320029116801D0014300E0AE
:100620008143116070470D4A54320029116801D08E
:10063000014300E0814311607047084A58320029A5
:10064000116801D0014300E0814311607047034A03
:1006500060320029116819D0014318E000380240C7
:10066000FFFFF6EA1030002400300020000047426F
:10067000800E47420000FFFF0024F40040787D0117
:1006800000000020FFFCFF0F001047428143116073
:100690007047194A0029116801D0014300E08143E5
:1006A0001160704714490C310128086803D020F00C
:1006B00008000860704740F00800FAE70E4A573A11
:1006C0000029117801D0014300E081431170704787
:1006D00009481030016841F080710160704701469F
:1006E000054A0020583A12680A4200D0012070479B
:1006F000014956390870704764380240774910B58F
:10070000884206D101210846FFF751FF0021012050
:100710005BE07349884206D101210220FFF747FFC1
:100720000021022051E06F49884206D101210420B6
:10073000FFF73DFF0021042047E06B49884206D1C6
:1007400001210820FFF733FF002108203DE0674921
:10075000884206D101211020FFF729FF0021102037
:1007600033E06349884206D101212020FFF71FFFB3
:100770000021202029E05F49884206D10121402044
:10078000FFF715FF002140201FE05B49884206D19A
:1007900001218020FFF70BFF0021802015E0574941
:1007A000884202D1012184150AE05549884202D1CC
:1007B0000121441504E0534988420AD1012104155E
:1007C0002046FFF7F4FE00212046BDE81040FFF769
:1007D000EEBE10BDF0B5002201274FF0030C0B68F0
:1007E00007FA02F52B40AB422CD1066853000CFAF5
:1007F00003F4A64306600E79D0F800E09E4046EA76
:100800000E0606600E79012E01D0022E12D18668E6
:10081000A64386604E79D0F808E09E4046EA0E0670
:1008200086604668AE43466045688E799640B6B2AB
:1008300035434560C568A543C560CC799C40C36815
:100840001C43C460521C102AC9D3F0BD4FF6FF717F
:1008500001600021017141718171C171704708B55A
:1008600041F480320092C261C1610099C161C169E5
:10087000C069009008BD0246002012690A4200D0FB
:1008800001207047006980B270470246002052691B
:100890000A4200D001207047406980B2704701834E
:1008A0007047418370470AB10183704741837047A5
:1008B0004161704742694A40426170474B07DB0E15
:1008C0009A40C90810B500EB8100016A0F249C40D2
:1008D000A1430162016A1143016210BD00000240A0
:1008E0000004024000080240000C024000100240D8
:1008F0000014024000180240001C02400020024088
:100900000024024000280240C14910B5884202D1AB
:100910000121841424E0BF49884202D1012104143A
:1009200004E0BD4988420AD10121C4132046FFF7E3
:100930005CFE2046BDE810400021FFF756BEB749D7
:10094000884202D1012144140AE0B549884202D10B
:1009500001210C0504E0B34988420AD101214C056C
:100960002046FFF74CFE2046BDE810400021FFF76F
:1009700046BE10BD30B502884C8802F441530A8847
:10098000CD8822438C882C4322430C8922434C89F6
:1009900022438C892243CC8922431A430280828BD2
:1009A00022F400628283098A018230BDF0B50222FE
:1009B0000023858B01244FF2400635408583028455
:1009C000868B8D68022D3DD08A8802B10224964A1A
:1009D00013681B0203D5136823F400031360924AC3
:1009E0007C3213681268C3F388138F4FC2F302720C
:1009F0003F1F3D683F6805F03F057F0201D58B4FE3
:100A000000E08B4FB7FBF5F55D43B5FBF2F2CB8809
:100A1000B3F5007F2BD06301B2FBF3F202EB82024D
:100A20008B685200B2FBF3F2521D92B20A23B2FB62
:100A3000F3F202F00103D21A4FF6FF74C2F34F0231
:100A400004EA0323941EFE2C01D302220023CC8847
:100A50001A43144304840A884B881A438B88898973
:100A60000B431A43324342F400618183F0BD120A02
:100A7000D4E70021018041808180C18001814181D2
:100A80008181C1810721018270470021018041805D
:100A90008180C180022282608181704700290188A3
:100AA00002D041F0400101E021F040010180704797
:100AB0000029818B02D041F4806101E021F4806142
:100AC00081837047028822F40062028002880A4310
:100AD00002807047B1F5804F018803D021F4804136
:100AE0000180704741F48041FAE7A1F57E42018818
:100AF000FF3A02D041F4807101E021F4807101805D
:100B000070470029818802D041F0040101E021F002
:100B10000401818070470029818802D041F01001D2
:100B200001E021F010018180704730B5828B0023F5
:100B30004FF240042240828302220284848B0A887E
:100B40004FF48075B2F5007F00D002B92B464A8879
:100B50008D8889892A4319430A43224342F400615C
:100B6000818330BD80897047818170470029018869
:100B700002D041F4005101E021F40051018070479E
:100B8000018841F4805101807047012901D0008B18
:100B90007047808A7047008A7047002A828801D097
:100BA0000A4300E08A4382807047090901238B4091
:100BB000002A828899B201D00A4300E08A438280E9
:100BC00070470246002012890A4200D00120704777
:100BD000C9430181704730B501F00F03012502467A
:100BE00005FA03F40020A3B2090905FA01F491887B
:100BF000A4B2128921401A4202D0002900D001205B
:100C000030BD01F00F0201219140C94301817047BD
:100C10000030014000380040003C004000340140FA
:100C200000500140005401400838024040787D01E6
:100C30000024F40070B55A484168491C416081683D
:100C400011B18168491E8160AFF300800024554EC8
:100C500018E006EB8405686890B1017B81B1826879
:100C600072B1521E826069680AD148690969884771
:100C70006868016881606868416809B9002101738A
:100C8000641CE4B23078A042E3D870BD46480168E5
:100C90004FF47A70B1FBF0F0401EB0F1807F12D2B9
:100CA0004FF0E0225061414BF02083F8140D0020FA
:100CB0009061072010613E48B1FBF0F13848C160F7
:100CC000012101707047FEE735480078002805D003
:100CD0004FF0E020016941F00201016170474FF0DF
:100CE000E020016921F00201016170472DE9F04720
:100CF0002C4C0546DDF8209020781E461746884685
:100D0000052802D30020BDE8F087182001F0A2FDDD
:100D10000028F8D00560C0E901850773C0E90469BF
:100D2000217804EB810148602178491C2170EAE7B1
:100D30001C4B30B400211A7806E003EB8104646890
:100D4000844203D0491CC9B28A42F6D88A4218D0DC
:100D500003EB81004068EFF3108472B605E003EB0B
:100D60008102491C9568C9B255601A78521E8A42A0
:100D7000F5DC1978491E197004B962B630BC01F06F
:100D800098BD30BC70470021017370470121017389
:100D9000704701688160704741607047016070472B
:100DA0001000002054000020400000200FE000E070
:100DB000C0C62D001CB500200321CDE9000103466B
:100DC0004FF4704401222146184801F0A5FA174853
:100DD0001A3004801CBD1CB500210220CDE90001A1
:100DE0000B460A460121124801F096FA1CBD104834
:100DF0000069C1070F4805D0017829B901210170A8
:100E000008467047002101700020704708480069BB
:100E1000C107084803D00121017000207047017804
:100E20000029FAD00021017001207047000C024017
:100E300000000240200000200288520601D4002059
:100E4000704702899207FCD002891206F9D4818189
:100E500001898907FCD001890906F9D48089C0B2CB
:100E6000704770B5FE4904240C807E2101EA4000E1
:100E7000FC4D40F080012846FFF7DEFF00212846A8
:100E8000FFF7DAFFF649891E0C8070BD70B50D467C
:100E9000F34904240C807E21F24E01EA40013046E1
:100EA000FFF7CAFF29463046FFF7C6FFEC48801E11
:100EB000048070BD70B50D460446FFF7D2FF40EACE
:100EC00005012046BDE87040E0E710B51420FFF7AB
:100ED000C8FF800704D10321BDE810401420E9E7D2
:100EE00010BD0F210120D1E71CB501214020FFF7E3
:100EF0002CFB02208DF8050001208DF80400002055
:100F00008DF806008DF80700D548042469461A3884
:100F10000094FFF75FFCD248801E04801CBD10B512
:100F2000FFF7E2FF0121CF4800F059FBFFF7D9FF9F
:100F30008D212A20FFF7AAFF3E212B20FFF7A6FFD5
:100F40001E212D20FFF7A2FF00212C20FFF79EFF7E
:100F500070212620FFF79AFF40211520FFF796FF0A
:100F60003D211120FFF792FFBDE81040ADE770B5BD
:100F70000D460446FFF775FF20EA05012046BDE84F
:100F8000704083E72DE9FF5F0025DDF838B0174694
:100F90008A4681464FF002082E460C2805D0B9F14A
:100FA0000E0F04D11225102601E07725302645F0DA
:100FB00080010220FFF76AFF80210420FFF7D7FF9E
:100FC00080210A20FFF776FF00210120FFF75EFF56
:100FD000002406E01AF804100920FFF757FF641CEC
:100FE000A4B2BC42F6D349460120FFF74FFFB9F146
:100FF0000C0F03D180210D20FFF75CFF4FF4FA6442
:101000000420FFF72EFF641E24040746240C03D09F
:10101000F80701D13742F3D080210D20FFF7A7FF59
:101020003CB10620FFF71DFF10F01B0F05D04FF05D
:10103000020804B04046BDE8F09F2F404FF0000882
:10104000F80701D04FF00108B9F10C0FF1D10A20D7
:10105000FFF707FF05460C20FFF703FF10F007001E
:101060004FEAC50104D008390844ABF8000001E09C
:10107000ABF8001025B1102D00D91025002408E090
:101080000125FBE70920FFF7ECFE03990855641CD6
:10109000A4B2AC42F6D3CCE72DE9F0410E460746A8
:1010A000154604210520FFF762FF80210A20FFF783
:1010B00001FF002405E0395D0920FFF7E7FE641C0D
:1010C000E4B2B442F7D303210120FFF7DFFEFF248F
:1010D0000520FFF7C6FE641E14F0FF0401D0400790
:1010E000F6D52220FFF7BDFE28702120FFF7B9FEBC
:1010F0006870BDE8F0810EB550208DF80400002026
:101100008DF805000DF10602022101A8FFF7C4FFCA
:1011100002A801AB0090042219460C20FFF732FF11
:101120000EBD7CB50546002421460D20FFF7AEFE1E
:10113000932028702020687001A82B46009002227E
:1011400019460C20FFF71EFF00280AD10022A95CD7
:10115000521C4C40D2B2042AF9D3A95CA14200D05F
:1011600002207CBD7CB50C46054607210D20FFF70B
:101170008DFE257001A823460090012219460C20FF
:10118000FFF700FF18B9BDF80410102900D00220A5
:101190007CBD70B5054601462620FFF7E3FF04003D
:1011A00003D12846FFF7BDFF0446FFF7A4FF204602
:1011B00070BD10B50022835C8C5CA34201D002207C
:1011C00010BD521CD2B2052AF5D3002010BD032158
:1011D0001420CCE610B586B093218DF80410702150
:1011E0008DF80510002101AA435C5418491CC9B2AE
:1011F000A3700529F8D3072101A8D21DFFF74CFFE2
:1012000004A801AB0090092219460C20FFF7BAFE92
:1012100018B9BDF81000182802D0002006B010BD83
:101220009DF80400FAE730B585B08DF804008DF81C
:101230000510002001A9145C0D18401CC0B2AC7050
:101240000628F8D300200C181A5C401CC0B2227289
:101250000428F8D304A80C2200900B460E2003E0CB
:101260001A18024000300140FFF78CFE040004D140
:101270000820FFF7F6FD000700D4022405B0204641
:1012800030BD1CB50C46302121706070A21C0221BB
:101290002046FFF701FF01A82346009004221946CB
:1012A0000C20FFF76FFE18B9BDF80410902900D08C
:1012B00002201CBD70B588B00C46A0218DF804102A
:1012C00001AD8DF8050002212846AA1CFFF7E4FEB7
:1012D00006AE01AB042219460C200096FFF752FE21
:1012E00038BBBDF81800042823D19DF8040000F095
:1012F0000F000A281DD10020215C2954401CC0B2D7
:101300001028F9D305AA102101A8FFF7C5FE01ABEB
:10131000122219460C200096FFF734FE48B9BDF89A
:101320001810042905D19DF8041001F00F010A29B5
:1013300000D0022008B070BD70471CB530B1032842
:1013400003D10521FE48FFF7F7FF1CBD052103204F
:10135000CDE9000100231A464FF4E041F94800F0BE
:10136000ECFF1CBD7CB50525F74E032440B10128D8
:101370000CD0032803D10521F448FFF7DDFF7CBD25
:1013800000231A464FF4607130460CE000231A46E1
:101390004FF400613046CDE9004500F0CEFF002358
:1013A000EB481A46C021CDE9004500F0C6FF7CBDE0
:1013B0001CB50522E74C032140B101280CD00328BD
:1013C00003D10521E448FFF7B7FF1CBDCDE90012AA
:1013D00000231A46642105E0CDE9001200231A46D5
:1013E0004FF4E041204600F0A8FF1CBD1CB50622CA
:1013F000032140B101280DD0032803D10621D7488D
:10140000FFF79AFF1CBDCDE9001200231A463821D0
:10141000D34806E0CDE9001200231A464FF4E0510C
:10142000D04800F08AFF1CBD7CB50525CC4E0324B6
:1014300050B1012816D002281AD0032803D1052163
:10144000C948FFF779FF7CBD00231A464FF480613D
:101450003046CDE9004500F070FF00231A460C210C
:10146000C04809E000231A464FF46041304603E0CB
:101470000023BE481A460D21CDE9004500F05DFF6E
:101480007CBD1CB50522032140B101280DD00328E5
:1014900003D10521B648FFF74FFF1CBDCDE900126F
:1014A00000231A46E021B34805E0CDE900120023ED
:1014B0001A463821AA4800F040FF1CBD2DE9FF4F15
:1014C00085B00446DDE912BA994616466846FFF72C
:1014D000D0FAA748A84F0025844208D1386840F4C4
:1014E000805038600698FFF7CCFFADF804509E4856
:1014F000DFF884828442A8F104080AD1D8F80010E9
:1015000041F48041C8F800100698FFF78DFFADF850
:101510000450924884420AD1D8F8001041F40041A6
:10152000C8F800100698FFF761FFADF804508A482C
:10153000844208D1386840F4005038600698FFF7BC
:1015400037FFADF804508148844208D1386840F430
:10155000801038600698FFF705FFADF80450784812
:10156000844208D1386840F4001038600698FFF7CC
:10157000E4FEADF80450ADF80C90ADF800504FF417
:101580000070ADF80EA0ADF802B0ADF80A0046B19B
:101590000121012E08D00220022E08D0032E0BD0EC
:1015A0000EE0ADF8065004E0ADF8065006E0ADF8E8
:1015B0000600ADF8085003E0ADF80600ADF80810DD
:1015C000208820F04000208069462046FFF7D2F9AD
:1015D000208840F04000208009B0BDE8F08F2DE960
:1015E000FC410446624800250F464FF4827684424F
:1015F00005D1CDE9006520230022FFF75FFF5A489F
:10160000844206D1CDE90065202300223946FFF748
:1016100055FF5248844206D1CDE9006520230022BF
:101620003946FFF74BFF4C48844206D1CDE90065AF
:10163000202300223946FFF741FF4448844206D167
:10164000CDE9006500231A463946FFF737FF3C48CD
:10165000844206D1CDE90065202300223946FFF7F8
:101660002DFFBDE8FC812DE9FC41044640480025E2
:10167000174688464FF48276844204D1CDE900654E
:101680002023FFF71BFF3848844206D1CDE90065CF
:1016900020233A464146FFF711FF3048844206D1E5
:1016A000CDE9006520233A464146FFF707FF2A4867
:1016B000844206D1CDE9006520233A464146FFF732
:1016C000FDFE2248844206D1CDE9006500233A465A
:1016D0004146FFF7F3FE1A488442C2D1CDE90065C6
:1016E00020233A464146FFF7E9FEBAE72DE9FC47D9
:1016F0000446DDE90A651E481F4690468946844235
:1017000005D1CDE9006513463A46FFF7D7FE1648E6
:10171000844206D1CDE9006543463A464946FFF783
:10172000CDFE0E48844206D1CDE9006543463A46D7
:101730004946FFF7C3FE0848844225D143461DE0D1
:1017400000540140001802400014024000500140C3
:10175000001C02400010024000340140003C0040E8
:10176000000402400008024000380040002002400F
:10177000003001400000024044380240CDE90065DD
:101780003A464946FFF79AFE7748844206D1CDE9AA
:10179000006543463A464946FFF790FE7348844247
:1017A00006D1CDE9006543463A464946FFF786FE35
:1017B000BDE8FC877FB50D00044620D06846FEF7E3
:1017C0002FFE6B48844208D06A48844205D06648A0
:1017D000844202D06548844201D1039900E0029915
:1017E00000200124421C04FA02F3B1FBF3F3AB42E4
:1017F00002D8C00004B070BDD0B20828F2D338209F
:10180000F8E702880388C2F3C02223F04003038074
:101810000129018808D021F400610180018841F08C
:10182000400101801046704741F40061F5E730B592
:101830000488640614D50489A407FCD0048924060E
:10184000F9D400240AE00D5D85810589AD07FCD03F
:1018500005892D06F9D485891555641C9C42F2D35F
:1018600030BD10B503885B0613D503899B07FCD0F8
:1018700003891B06F9D4002309E0CC5C8481048928
:10188000A407FCD004892406F9D484895B1C934204
:10189000F3D310BD30B50488640613D50489A407BA
:1018A000FCD004892406F9D4002409E0828105894A
:1018B000AD07FCD005892D06F9D485890D55641C2A
:1018C0009C42F3D330BD30B50488640616D5048934
:1018D000A407FCD004892406F9D400240CE031F8D4
:1018E000145085810589AD07FCD005892D06F9D4F2
:1018F000858922F81450641C9C42F0D330BD10B589
:1019000003885B0614D503899B07FCD003891B065B
:10191000F9D400230AE031F8134084810489A40734
:10192000FCD004892406F9D484895B1C9342F2D349
:1019300010BD30B50488640614D50489A407FCD012
:1019400004892406F9D400240AE082810589AD07C0
:10195000FCD005892D06F9D4858921F81450641C22
:101960009C42F2D330BD00000050014000540140C1
:1019700000300140003401400288520601D40020AA
:10198000704702899207FCD002891206F9D481813E
:1019900001898907FCD001890906F9D48089C0B280
:1019A000704770B505464FF40051F748FEF779FFD0
:1019B000F64C04212046FEF774FF2946F448FFF751
:1019C000DBFF2046BDE870400421FEF768BF70B51C
:1019D00005464FF40051EC48FEF761FFEB4C042143
:1019E0002046FEF75EFF2946E948FFF7C5FF20467F
:1019F000BDE870400421FEF752BF2DE9F0410746D3
:101A00001C4615460E462A20FFF7CBFF380AFFF783
:101A1000DEFFF8B2FFF7DBFF280AFFF7D8FFE8B2D6
:101A2000FFF7D5FF2B20FFF7BCFF300AFFF7CFFFF2
:101A3000F0B2FFF7CCFF200AFFF7C9FFE0B2BDE824
:101A4000F041C4E770B5FFF7D8FF2C20FFF7A9FFDE
:101A5000CE4C04212046FEF724FF4FF40051CA4823
:101A6000FEF71DFFCA4D01212846FFF7CAFE0421DB
:101A70002046FEF714FF2846BDE870400021FFF71E
:101A8000C0BE08B580B20090C248002143880088DB
:101A9000401E82B20846FFF7D5FF08BD01B5009889
:101AA00001E0401E00900028FBD108BD70B5B64D86
:101AB0004FF4805421462846FEF7F3FE44F6206694
:101AC0003046FFF7EBFF21462846FEF7E8FE30469A
:101AD000FFF7E4FF0120FFF764FF4CF25030FFF7FF
:101AE000DDFFCB20FFF75DFF3920FFF770FF2C20D3
:101AF000FFF76DFF0020FFF76AFF3420FFF767FF55
:101B00000220FFF764FFCF20FFF74BFF0020FFF715
:101B10005EFFC120FFF75BFF3020FFF758FFE82092
:101B2000FFF73FFF8520FFF752FF0020FFF74FFF31
:101B30007820FFF74CFFEA20FFF733FF0020FFF784
:101B400046FF0020FFF743FFED20FFF72AFF642048
:101B5000FFF73DFF0320FFF73AFF1220FFF737FFA3
:101B60008120FFF734FFF720FFF71BFF2020FFF74E
:101B70002EFFC020FFF715FF2320FFF728FFC1200D
:101B8000FFF70FFF1020FFF722FFC520FFF709FF27
:101B90003E20FFF71CFF2820FFF719FFC720FFF7A3
:101BA00000FF8620FFF713FF3620FFF7FAFE4820DC
:101BB000FFF70DFF3A20FFF7F4FE5520FFF707FF70
:101BC000B120FFF7EEFE0020FFF701FF1820FFF71E
:101BD000FEFEB620FFF7E5FE0820FFF7F8FE8220A4
:101BE000FFF7F5FE2720FFF7F2FEF220FFF7D9FE00
:101BF0000020FFF7ECFE2A20FFF7D3FE0020FFF7BE
:101C0000E6FE0020FFF7E3FE0020FFF7E0FEEF20F6
:101C1000FFF7DDFE2B20FFF7C4FE0020FFF7D7FE05
:101C20000020FFF7D4FE0120FFF7D1FE3F20FFF791
:101C3000CEFE2620FFF7B5FE0120FFF7C8FEE0200C
:101C4000FFF7AFFE0F20FFF7C2FE3120FFF7BFFE08
:101C50002B20FFF7BCFE0C20FFF7B9FE0E20FFF78C
:101C6000B6FE0820FFF7B3FE4E20FFF7B0FEF120CE
:101C7000FFF7ADFE3720FFF7AAFE0720FFF7A7FE0C
:101C80001020FFF7A4FE0320FFF7A1FE0E20FFF7B0
:101C90009EFE0920FFF79BFE0020FFF798FEE12043
:101CA000FFF77FFE0020FFF792FE0E20FFF78FFE6A
:101CB0001420FFF78CFE0320FFF789FE1120FFF7A9
:101CC00086FE0720FFF783FE3120FFF780FEC1204C
:101CD000FFF77DFE4820FFF77AFE0820FFF777FE2A
:101CE0000F20FFF774FE0C20FFF771FE3120FFF785
:101CF0006EFE3620FFF76BFE0F20FFF768FE112007
:101D0000FFF74FFE2448FFF7C9FE2920FFF749FEE1
:101D1000BDE870402C2044E62DE9FC41012500245B
:101D2000194E23462A4669033046CDE9004500F0A6
:101D3000F3FA164F0023012204213846CDE900456D
:101D400000F0EAFACDE900540122002311033046E5
:101D500000F0E2FA04213846FEF7A1FD00210C480C
:101D6000FFF73DFCFFF7A2FE0A48F021001F448068
:101D70000480001D01804FF4A07141800571BDE811
:101D8000FC414FF6FF707CE6000C02400008024068
:101D9000005001403800002040420F00292000E69A
:101DA0002820FEE510B514460B460246FFF725FE37
:101DB0002C20FFF7F6FDC4F30720FFF708FEE0B282
:101DC000BDE8104003E62DE9F04104463620FFF758
:101DD000E8FDFF4DF0274FF4A07634B1012C06D07A
:101DE000022C0BD0032C0BD00DE0582000E08820F3
:101DF000FFF7EDFD2F806E80012007E0282000E036
:101E0000E820FFF7E4FD2E806F8000202871BDE8F8
:101E1000F0812DE9F84F91461D46ED4ADDE90AA310
:101E2000121F108051802C782044141D2488A04259
:101E300004D96878084450800020108098B200903F
:101E40006B7890465188B8F800005A1893B22A78F7
:101E5000024492B2FFF7F6FD00261CE0A9F1200132
:101E600011FB00606A68002432F810700FE007FA76
:101E700004F000040AD5B8F80210B8F800003144A4
:101E8000204489B280B25246FFF78CFF641C287848
:101E9000A042ECD8761C6878B042DFD82978B8F830
:101EA00000201144A8F80010BDE8F88F2DE9FC4788
:101EB000C74DDDE90A982D1F1F46288014460646A7
:101EC00069800BE00A2A0ED00D2A15D0CDE90098C2
:101ED0003B4669882888641CFFF79BFF2278002A0C
:101EE000F0D1BDE8FC8768887978401C0844688098
:101EF00060780D2802D02E80641CEFE70020288037
:101F0000641CF9E730B54D7800241D8002E00B78A1
:101F100023449CB210F8013B002BF8D1148030BD53
:101F20002DE9FC5F9046AA4A0C46054611881F46DB
:101F3000481EA94200D885B2414501D81FFA80F851
:101F40005188481EA14200D884B2B94200D887B255
:101F5000454502D9284645468046BC4202D920461E
:101F60003C460746A8EB050000B25FEA000AA7EB73
:101F700004000FFA80F908D0B9F1000F05D04FF036
:101F8000FF3045450CD201210BE00C983B4680B256
:101F90000090424621462846FFF754FDBDE8FC9FCD
:101FA00001460191BC4200D2012000905046CA4532
:101FB00001DCC9F1000000EBD070401006B2CAF19C
:101FC000000B214628460C9AFFF7ECFE454501D14F
:101FD000BC42E3D030465E4505DDA0EB09010EB200
:101FE000019929448DB24845EBDA06EB0A0006B2A6
:101FF0000098204484B2E4E72DE9F8431D46089C8C
:1020000016460F4680460B460094FFF789FF42466E
:102010002B46394610460094FFF782FF32462B4686
:10202000394610460094FFF77BFF2B46324619468F
:1020300040460094FFF774FFBDE8F88338B590423E
:10204000049D02D9044610462246994202D90C4604
:1020500019462346ACB20094FFF7F4FCBDE83840C3
:1020600004215C48FEF71BBC2DE9FF4F0746C2F177
:10207000010014460FFA80F8C2EBC43040000FFA9A
:1020800080F983B00E46081981B24FF0010A00258D
:10209000B8B2069AFFF786FE301B81B2B8B2069A34
:1020A000FFF780FE3819B1B280B2069AFFF77AFEC8
:1020B000B1B2381B56E0B8F1000F09DB09F102009C
:1020C0000FFA80F9641E08EB090024B20FFA80F8B9
:1020D0000AF102000FFA80FA6D1C08EB0A002DB21B
:1020E0000FFA80F87819019006EB040B1FFA8BF1B8
:1020F00080B2069AFFF756FE781B00901FFA8BF10C
:1021000080B2069AFFF74EFE0198A6EB040B1FFA69
:102110008BF180B2069AFFF745FE00981FFA8BF10B
:1021200080B2069AFFF73EFE3819019006EB050BC8
:102130001FFA8BF180B2069AFFF734FE381B00902D
:102140001FFA8BF180B2069AFFF72CFE0198A6EBDE
:10215000050B1FFA8BF180B2069AFFF723FE009859
:102160001FFA8BF180B2069AFFF71CFEA542A2DB94
:1021700007B0BDE8F08F2DE9FE4F0746C2F1010020
:1021800014460FFA80F8C2EBC43040000FFA80FA10
:102190000E46081981B299464FF0010B0025B8B2DE
:1021A0001A46FFF7FFFD301B81B2B8B24A46FFF76F
:1021B000F9FD38190290B1B280B24A46FFF7F2FD3C
:1021C000381B0190B1B280B24A46FFF7EBFD03E045
:1021D00038000020000802400298B3B2CDF8009009
:1021E00082B2B1B240E0B8F1000F09DB0AF102009F
:1021F0000FFA80FA641E08EB0A0024B20FFA80F886
:102200000BF102000FFA80FB6D1C08EB0B002DB2E6
:102210000FFA80F8781982B20290781BCDE900900D
:1022200031198BB289B280B2FFF77AFE0198311B67
:1022300082B202988BB2CDF8009089B280B2FFF7DB
:102240006FFE381B82B202903819CDE900907119E7
:102250008BB289B280B2FFF763FE711B02988BB21A
:10226000CDF8009082B289B2019880B2FFF758FE93
:10227000A542B8DBBDE8FE8FA3490844C0F38F2018
:1022800070472DE9F04F9A46DDE909B889460346C3
:10229000FFF7F2FFC5B200204FF0030E012181408D
:1022A00011EA090F28D0994E36F815400C4326F84C
:1022B0001540DF6844000EFA04F6B7430BFA04FC3D
:1022C00047EA0C07DF601F6802FA04FCB74347EADD
:1022D0000C071F60012A01D0022A0DD15F6889B264
:1022E0008F430AFA00F189B20F435F60996808FAD8
:1022F00004F4B14321439960401CC0B21028CDD3EF
:10230000BDE8F08F00B5FFF7B7FF0121814080489D
:1023100002681143016000BDFCB51646DDE907C542
:102320000C00074608D0FFF7EDFFCDE900C53246A7
:1023300021463846FFF7A5FFFCBD2DE9FC4F994625
:10234000DDE90BB792460D00064622D0FFF7DAFF13
:10235000002201214FF00F0C01FA02F028420DD0AB
:10236000D00806EB8003186A5407E40E0CFA04F850
:1023700020EA080007FA04F420431862521C102ACD
:10238000EAD3CDE9009B5346022229463046FFF7A7
:1023900078FFBDE8FC8FF0B50E460546FFF76CFFF1
:1023A00000225A49C4B24FF0010C03270CFA02F381
:1023B00033420CD028684FEA420E07FA0EFE40EA7C
:1023C0000E00286031F81400984321F81400521CC4
:1023D000D2B2102AEAD3F0BDF0B5002201250326BF
:1023E00005FA02F30B4205D00468570006FA07F31A
:1023F0009C430460521CD2B2102AF1D3F0BDF0B558
:1024000000220127032607FA02F33C460B4208D0BC
:102410000568530006FA03FC25EA0C059C40254399
:102420000560521CD2B2102AEDD3F0BDF0B50022E7
:102430000125032605FA02F30B4205D00468570074
:1024400006FA07F31C430460521CD2B2102AF1D3DF
:10245000F0BDF0B5002201260324022706FA02F39C
:102460000B4209D00568530004FA03FC25EA0C0569
:1024700007FA03F31D430560521CD2B2102AEDD3B4
:10248000F0BDF0B500230127032507FA03F40C4241
:1024900009D0C6685C0005FA04FC26EA0C0602FABC
:1024A00004F42643C6605B1CDBB2102BEDD3F0BDF9
:1024B00041F48032C261C161C261C169C0697047C3
:1024C000002102E0491C89B240080128FAD80846D8
:1024D000704700B5FFF7D0FE012181400C4802682B
:1024E0008A43026000BD00B5FFF7C6FE074931F818
:1024F000100000BD00B5FFF7BFFE044931F8100021
:10250000C04380B200BD00000000FEBF6C00002090
:102510003038024094B038A0D0E90010CDE9121054
:1025200000F029F9FEF7B2FBFEF744FCFFF7F4FBDD
:102530000120FFF748FCFEF7F2FC4FF6FF741F2066
:10254000CDE900042E4B2FA24FF49B715A20FFF7C8
:10255000ADFC00254FF4FC6610A8FEF71AFE90B102
:10256000CDE900540A212D4B2DA20846FFF79EFC11
:10257000CDE90064294B2FA296210A20FFF796FC93
:10258000264B30A229E012A910A8FEF712FE00285F
:102590002AD04FF47840CDE90005204B30A2962197
:1025A0000A20FFF783FCCDE900540A211B4B30A21F
:1025B0000846FFF77BFC9DF842009DF844209DF8FB
:1025C00043108DE807009DF841309DF840202DA173
:1025D00003A800F095F9114B03AACDE900541E2180
:1025E0000A20FFF763FCB7E7CDE9006596210B4BA6
:1025F0002DA20A20D5E7000043DC52B67B00000084
:102600002400002073746D333266342D6469736363
:102610006F766572792E6E65740000002C000020C4
:1026200043617264206E6F742064657465637465C1
:1026300064000000202020202020202020202020B6
:1026400020000000202020200A202020200A202016
:1026500020200A202020200A202020200000000026
:10266000476F6F6420627965206D616E2100000004
:10267000436172642064657465637465642020201E
:10268000200000003078253032780A30782530324A
:10269000780A3078253032780A3078253032780A56
:1026A000307825303278000048656C6C6F20746992
:1026B0006C7A3052210000007047FEE7FEE7FEE72B
:1026C000FEE7704770477047704710B5FEF7B2FAE3
:1026D00010BD00000CB50022544900920192086818
:1026E00040F4803008604FF4A043086800F40030E4
:1026F00001900098401C0090019810B900989842F1
:10270000F3D10868800334D5012001904748403058
:10271000026842F0805202604548026842F440423A
:1027200002604248083002680260026842F40042D7
:102730000260026842F4A0520260031F3D4A1A6020
:102740000A6842F080720A600A689201FCD53A4930
:1027500040F205720A60016821F00301016001681E
:1027600041F0020101600168C1F381010229FAD13F
:102770000CBD01920CBD314810B5016841F47001E7
:1027800001602A48016841F001010160274A0021E7
:102790000832116002682A4B1A400260031D294A60
:1027A0001A60026822F48022026020480C30016026
:1027B000FFF790FF21494FF000608039086010BD9D
:1027C00070B51A4D083528681F4B204910F00C00D1
:1027D00004D01F4E042803D0082803D00B601BE050
:1027E0000E6019E0114A121D1068C0F38054106881
:1027F00000F03F0014B1B6FBF0F001E0B3FBF0F0E5
:1028000013681268C3F388135843C2F30142521C81
:102810005200B0FBF2F0086028680C4AC0F30310C5
:10282000121D105C0A68C2400A6070BD0038024088
:102830000070004008544007003C024088ED00E072
:10284000FFFFF6FE103000240024F40040000020BA
:1028500040787D0170B5064600F05AF9056806F12A
:102860000B0020F00704B4429CBF002070BD2B4633
:102870006A68BAB11068A04210D304F10801884216
:102880003CBF5068586007D3516810194160116807
:10289000091B016058601460101D70BD134652681A
:1028A000002AE7D12146284600F03AF90028DED177
:1028B00070BD70B50446051F00F02AF90068002CB1
:1028C00014BF446870BD002C18BFAC423CBF20460A
:1028D0006468F8D301680A18AA4218BF456003D19A
:1028E0002A6805461144016028684119A1421CBFAD
:1028F0006C6070BD6168696021680844286070BDC3
:102900000FB41CB5074B06AA7B4469460090059896
:1029100000F0AFF90020694600F0BEF91CBC5DF87C
:1029200014FB00008D03000070B504468569006843
:10293000C10601D5302600E02026C00707D070BDB3
:10294000D4E9012130469047206A401C20626D1E68
:10295000F6D570BD70B5044685690078C00707D10B
:1029600070BDD4E9012120209047206A401C2062DC
:102970006D1EF6D570BD000070B504460D462146AB
:102980001068AFF300802188090502D50F4A7A4408
:1029900002E00E4A7A440E32002104F1240305E0DD
:1029A00000F00F060009965D5E54491C0028F7D11F
:1029B00020780023000704D5702D02D009B102232E
:1029C00011322046BDE8704000F0F4B84219000012
:1029D0002DE9F05F894604464FF0000ADFF824B184
:1029E000FB44C0F820A02046E168884700287DD03D
:1029F000252806D0D4E901219047206A401C206296
:102A0000F1E700255F462046E16888472028064612
:102A100007DB312E05D2B81910F8200C08B1054398
:102A2000F1E7A80701D525F00405C4F81CA000278C
:102A3000C4F818A02A2E09D0304600F0DBF938B3CC
:102A400004EB8708303EC8F8186019E059F8041BF9
:102A5000204604EB87029161E1688847012F064612
:102A600018D1E069002820DA25F020051DE0D8F80B
:102A7000180000EB800006EB40003038C8F8180062
:102A80002046E1688847064600F0B4F90028EED1F8
:102A9000012F0AD02E2E08D12046E16888477F1CDE
:102AA0000646022F45F02005C4DBA069002803DAA2
:102AB000404245F00105A061E80701D025F010056E
:102AC000A6B1A6F14100192802D8203645F40065C8
:102AD0004A463146204625604D46FDF78FFB60B1E2
:102AE000012807D0ED1D25F0070000E007E000F108
:102AF000080978E705F1040975E730467AE7206AA6
:102B0000BDE8F09F1819000070477047704700003B
:102B1000004870478C00002070477047704770472E
:102B200038B504460A4600206946AFF30080002805
:102B300008BF38BD02460099204600F0B7F80120D2
:102B400038BD012000F0CCB8F8B5AFF300800546E1
:102B500000200C46102000BF0646A819A0420DD93F
:102B6000324669460020AFF30080070008BF00F03E
:102B7000B7F80098A04218BF0546C419FFF7C8FF70
:102B800005600746F01D20F007004619284600F0B2
:102B90000AF8B44208BFF8BDA21B31463868BDE848
:102BA000F84000F083B800210160C0E901107047CF
:102BB000102070472DE9F0470D469946924604468D
:102BC00000F124080168880604D5E06921F01001AD
:102BD000216000E00120A84201DD471B00E0002742
:102BE000A1697A1902EB0900081AA0612078C006D1
:102BF00002D42046FFF798FE002608E0D4E9012120
:102C00001AF806009047206A401C761C20624E4548
:102C1000F4DB2078C0060AD52046FFF785FE06E0E3
:102C2000D4E9012130209047206A401C2062381EE0
:102C3000A7F10107F4DC07E0D4E9012118F8050049
:102C40009047206A401C2062281EA5F10105F3DC94
:102C50002046FFF77FFE2078000602D50220BDE85F
:102C6000F0870120FBE7000001694A1C0261087837
:102C7000704700B58FB0CDE90131002105910549BC
:102C80007944CDE9031011466846FFF7A1FE0FB065
:102C900000BD0000E5FFFFFF0A6802F8010B0A60B3
:102CA00070470000004870478400002003464068D9
:102CB0008C46002818BF88423CBF03464068F8D3C2
:102CC00018681844884207D00CF1030020F0070070
:102CD000001D411A521A0146081D0A60FFF7E9BD9E
:102CE00010B500F039F8BDE8104000F02FB870477B
:102CF0007546FFF7D7FFAE4605006946534620F0FC
:102D00000700854618B020B5FDF7A4FABDE82040BD
:102D10004FF000064FF000074FF000084FF0000B97
:102D200021F00701AC46ACE8C009ACE8C009ACE84A
:102D3000C009ACE8C0098D46704710B50446AFF332
:102D400000802046BDE81040FDF770BA002801D091
:102D500000F02AB87047000010B5012805D0002106
:102D600003A000F027F8012010BD09A1F8E700003A
:102D700053494752544D454D3A204F7574206F6664
:102D80002068656170206D656D6F727900000000CC
:102D90003A2048656170206D656D6F727920636FB0
:102DA000727275707465640001491820ABBEFEE74D
:102DB0002600020070B505460C460A2000E06D1C96
:102DC00000F011F835B128780028F8D102E0641C31
:102DD00000F009F814B120780028F8D1BDE870405F
:102DE0000A20AFF3008008B569468DF80000032083
:102DF000ABBE08BD30380A2801D201207047002040
:102E000070474FF04070E1EE100A7047000000007C
:102E100000000000000000000000000000000000B2
:102E20000010001000100010001000100000001032
:102E3000000000000028002800280000000000001A
:102E4000000000000000000000240024007C00249A
:102E50000048007C00480048000000000038005492
:102E600000500038001400540054003800100000D6
:102E700000200054005800300028005400140008BE
:102E80000000000000100028002800100034004856
:102E90000048003400000000001000100010000086
:102EA000000000000000000000000000000800100A
:102EB000002000200020002000200020001000083A
:102EC00000200010000800080008000800080008A2
:102ED0000010002000100038001000280000000042
:102EE00000000000000000000000000000100010C2
:102EF000007C001000100000000000000000000036
:102F00000000000000000000000000100010001091
:102F10000000000000000000000000380000000079
:102F200000000000000000000000000000000000A1
:102F30000000001000000000000800080010001051
:102F400000100010002000200000000000380044A5
:102F500000440054004400440044003800000000D5
:102F60000010003000500010001000100010001081
:102F70000000000000380044004400040008001075
:102F80000020007C0000000000380044000400180D
:102F9000000400040044003800000000000800188D
:102FA000002800280048007C0008000800000000FD
:102FB000007C004000400078000400040044003819
:102FC0000000000000380044004000780044004445
:102FD0000044003800000000007C000400080010DD
:102FE00000100020002000200000000000380044F5
:102FF0000044003800440044004400380000000051
:103000000038004400440044003C00040044003800
:1030100000000000000000000010000000000000A0
:103020000000001000000000000000000000001080
:103030000000000000000010001000100000000060
:10304000000C003000400030000C000000000000C8
:10305000000000000000007C0000007C0000000078
:1030600000000000000000000060001800040018CC
:103070000060000000000000003800440004000868
:103080000010001000000010000000000038004494
:10309000004C0054005C004000400038000000007C
:1030A00000100028002800280028007C004400446C
:1030B0000000000000780044004400780044004410
:1030C0000044007800000000003800440040004048
:1030D000004000400044003800000000007000483C
:1030E0000044004400440044004800700000000018
:1030F000007C00400040007C004000400040007C1C
:1031000000000000007C00400040007800400040CB
:103110000040004000000000003800440040004033
:10312000005C0044004400380000000000440044FB
:103130000044007C004400440044004400000000BF
:1031400000380010001000100010001000100038AF
:103150000000000000040004000400040004000457
:1031600000440038000000000044004800500060A7
:1031700000500048004800440000000000400040AB
:1031800000400040004000400040007C0000000083
:103190000044006C006C00540044004400440044AF
:1031A0000000000000440064006400540054004C1F
:1031B000004C00440000000000380044004400447B
:1031C000004400440044003800000000007800443F
:1031D000004400440078004000400040000000002F
:1031E00000380044004400440044004400540038C7
:1031F00000040000007800440044004400780048C7
:103200000048004400000000003800440040003046
:10321000000800040044003800000000007C00109A
:10322000001000100010001000100010000000003E
:10323000004400440044004400440044004400387A
:10324000000000000044004400440028002800283A
:10325000001000100000000000440044005400541E
:103260000054006C002800280000000000440028E2
:103270000028001000100028002800440000000072
:103280000044004400280028001000100010001026
:1032900000000000007C0004000800100010002066
:1032A0000040007C0000000000180010001000101A
:1032B0000010001000100010001000180020002066
:1032C00000100010001000100008000800000000AE
:1032D000003000100010001000100010001000104E
:1032E00000100030001000280028004400000000FA
:1032F00000000000000000000000000000000000CE
:103300000000000000000000000000FE002000108F
:1033100000000000000000000000000000000000AD
:103320000000000000380044003C0044004C003421
:1033300000000000004000400058006400440044C9
:103340000064005800000000000000000038004445
:103350000040004000440038000000000004000469
:103360000034004C00440044004C003400000000D5
:103370000000000000380044007C00400044003899
:1033800000000000000C0010007C00100010001075
:103390000010001000000000000000000034004C8D
:1033A00000440044004C0034000400780040004019
:1033B0000058006400440044004400440000000041
:1033C000001000000070001000100010001000102D
:1033D000000000000010000000700010001000103D
:1033E00000100010001000E00040004000480050B5
:1033F0000060005000480044000000000070001011
:10340000001000100010001000100010000000005C
:103410000000000000780054005400540054005490
:103420000000000000000000005800640044004458
:103430000044004400000000000000000038004488
:103440000044004400440038000000000000000078
:1034500000580064004400440064005800400040EC
:10346000000000000034004C00440044004C0034D4
:103470000004000400000000005800640040004008
:103480000040004000000000000000000038004440
:103490000030000800440038000000000020002038
:1034A000007800200020002000200018000000000C
:1034B000000000000044004400440044004C00347C
:1034C0000000000000000000004400440028002824
:1034D000002800100000000000000000005400540C
:1034E0000054006C002800280000000000000000CC
:1034F00000440028001000100028004400000000D4
:1035000000000000004400440028002800100010C3
:103510000010006000000000007C00080010002087
:103520000040007C00000000001800100010001097
:1035300000200020001000100010001800100010E3
:1035400000100010001000100010001000100010FB
:1035500000300010001000100008000800100010DB
:10356000001000300000000000000074004C00005B
:10357000000000000000000000000000000000004B
:10358000000000000000000000000000000000003B
:103590000000000000000000000000000000000C1F
:1035A000000C000C000C000C000C000C000C000CBB
:1035B000000C000C0000000C000C000000000000DB
:1035C0000000001B001B001B001B001B0000000074
:1035D00000000000000000000000000000000000EB
:1035E0000000000000008019801980198019C07F38
:1035F000C07F80190033C07FC07F003300330033A9
:1036000000330000000000000000001E003F807535
:1036100080650074003C001E0007800580658065A1
:103620008075003F001E00040004000000000070D0
:1036300000D840D8C0D880D900730006000C801B89
:10364000C036C066C046C00680030000000000000F
:103650000000001E003F003300330033001E000C4A
:10366000C03CC066806380618063C03E801C0000F7
:10367000000000000000000C000C000C000C000C0E
:10368000000000000000000000000000000000003A
:1036900000000000000000008000000100030006A0
:1036A00000060004000C000C000C000C000C000CC8
:1036B0000004000600060003000180000020001046
:1036C0000018000C000C00040006000600060006AE
:1036D000000600060004000C000C0018001000207A
:1036E0000000000C002D003F001E00330000000011
:1036F00000000000000000000000000000000000CA
:1037000000000000000000000000000C000C000C95
:10371000000CC0FFC0FF000C000C000C000C0000EF
:103720000000000000000000000000000000000099
:103730000000000000000000000000000000000089
:103740000000000C000C0004000400080000000051
:103750000000000000000000000000000000001E4B
:10376000001E00000000000000000000000000003B
:103770000000000000000000000000000000000049
:1037800000000000000000000000000C000C000021
:103790000000000000000003000300030006000614
:1037A00000060006000C000C000C000C00180018AD
:1037B00000180000000000000000001E003F003361
:1037C000806180618061806D806D806180618061D9
:1037D0000033003F001E0000000000000000000653
:1037E000000E001E00360026000600060006000639
:1037F00000060006000600060006000000000000AB
:103800000000001E003F8073806180618001000322
:103810000006000C001800300060807F807F0000F0
:10382000000000000000001C003E00630063000375
:10383000000E000E00038001800180618073003F54
:10384000001E00000000000000000006000E000E38
:10385000001E001E0016003600360066807F807F46
:103860000006000600060000000000000000007FC7
:10387000007F006000600060006E007F8063800158
:10388000800180618073003F001E00000000000086
:103890000000001E003F803380610060006E007FEA
:1038A00080738061806180618033003F001E000072
:1038B000000000000000807F807F80010003000383
:1038C00000060006000C000C000C00080018001890
:1038D00000180000000000000000001E003F806390
:1038E000806180610021001E003F806180618061F5
:1038F0008061003F001E0000000000000000001E6C
:10390000003F00738061806180618073803F801D13
:10391000800180610073003F001E00000000000075
:1039200000000000000000000000000C000C00007F
:1039300000000000000000000000000C000C00006F
:103940000000000000000000000000000000000077
:10395000000C000C00000000000000000000000C43
:10396000000C00040004000800000000000000003B
:1039700080008003000E003800600038000E8003D5
:1039800080000000000000000000000000000000B7
:10399000000000000000807F807F00000000807F2A
:1039A000807F000000000000000000000000000018
:1039B000000000000000000000400070001C000734
:1039C00080010007001C00700040000000000000A3
:1039D000000000000000001F803FC071C060C000F8
:1039E000C00180030007000E000C000C0000000C5A
:1039F000000C0000000000000000001E003F8031AD
:103A000080718063806F806D806D806F80670060E3
:103A10000032003E001C0000000000000000000E0C
:103A2000000E001B001B001B001B80318031803FFB
:103A3000803F8031C060C060C060000000000000B6
:103A40000000007C007E0063006300630063007E72
:103A5000007E0063806180618063007F007E0000E3
:103A6000000000000000001E003F80318061006007
:103A70000060006000600060006080618031003F95
:103A8000001E0000000000000000007C007F0063BA
:103A9000806380618061806180618061806100639A
:103AA0000063007E007C0000000000000000807FBA
:103AB000807F0060006000600060007F007F006029
:103AC000006000600060807F807F000000000000D8
:103AD0000000807F807F0060006000600060007FE9
:103AE000007F006000600060006000600060000017
:103AF000000000000000001E003F80318061006077
:103B00000060006080638063806180618031803FFD
:103B1000001E0000000000000000806180618061E4
:103B2000806180618061807F807F80618061806151
:103B30008061806180610000000000000000003FA3
:103B4000003F000C000C000C000C000C000C000CE2
:103B5000000C000C000C003F003F000000000000C3
:103B600000008001800180018001800180018001CE
:103B700080018001806180618073003F001E000031
:103B8000000000000000C060806100630066006605
:103B9000006C0078007C00660066006380618061D4
:103BA000C0600000000000000000006000600060D5
:103BB0000060006000600060006000600060006005
:103BC0000060807F807F0000000000000000C07166
:103BD000C071C07BC07AC06AC06AC06EC064C06079
:103BE000C060C060C060C060C06000000000000035
:103BF000000080718071807980798079806D806D1E
:103C0000806D806580678067806780638063000067
:103C1000000000000000001E003F00338061806152
:103C20008061806180618061806180610033003FDC
:103C3000001E0000000000000000007E007F806386
:103C40008061806180618063007F007E0060006031
:103C50000060006000600000000000000000001E26
:103C6000003F00338061806180618061806180619C
:103C7000806580670033803F401E00000000000028
:103C80000000007E007F8063806180618063007F30
:103C9000007E00660063006380618061C060000098
:103CA000000000000000000E001F80318031003055
:103CB0000038001E00078003806180618031003F72
:103CC000001E0000000000000000C0FFC0FF000C4C
:103CD000000C000C000C000C000C000C000C000C84
:103CE000000C000C000C00000000000000008061CF
:103CF00080618061806180618061806180618061BC
:103D0000806180618073003F001E000000000000A1
:103D10000000C060C060C060803180318031001B15
:103D2000001B001B001B000E000E000E0004000014
:103D3000000000000000C0C0C0C0C0C0C0C0C0C003
:103D4000C0CC804C804C805E8052805280738061F9
:103D500080610000000000000000C0C08060806141
:103D60000033003B001E000C000C001E001F003B37
:103D700080718061C0C00000000000000000C0C071
:103D80008061806100330033001E001E000C000CB7
:103D9000000C000C000C000C000C000000000000E7
:103DA0000000803F803F8001000300030006000CFC
:103DB000000C0018001800300060807F807F000039
:103DC00000000000000F000F000C000C000C000CA5
:103DD000000C000C000C000C000C000C000C000C83
:103DE000000C000C000F000F000000180018001855
:103DF000000C000C000C000C00060006000600067B
:103E0000000300030003000000000000001E001E6D
:103E10000006000600060006000600060006000672
:103E2000000600060006000600060006001E001E32
:103E30000000000C000C001E0012003300338061F3
:103E40008061000000000000000000000000000091
:103E50000000000000000000000000000000000062
:103E60000000000000000000000000000000000052
:103E700000000000E0FF0000000000380018000C07
:103E80000000000000000000000000000000000032
:103E90000000000000000000000000000000000022
:103EA000000000000000001F803F80618001801F33
:103EB000803F80618063807FC03800000000000088
:103EC00000000060006000600060006E007F807392
:103ED00080618061806180618073007F006E00007E
:103EE0000000000000000000000000000000001EB4
:103EF000003F807380610060006080618073003FDC
:103F0000001E000000000000000080018001800110
:103F10008001801D803F807380618061806180614D
:103F20008073803F801D0000000000000000000042
:103F3000000000000000001E003F00738061807FD1
:103F4000807F00608071003F001E000000000000C4
:103F50000000C007C00F000C000C807F807F000CA9
:103F6000000C000C000C000C000C000C000C0000FD
:103F7000000000000000000000000000801D803FE5
:103F8000807380618061806180618073803F801D6B
:103F900080018063007F003E0000006000600060E0
:103FA0000060006F807F80718061806180618061CE
:103FB0008061806180610000000000000000000658
:103FC000000600000000003E003E0006000600065D
:103FD00000060006000600060006000000000000C3
:103FE0000006000600000000003E003E000600063D
:103FF0000006000600060006000600060006004651
:10400000007E003C00000060006000600060806195
:1040100000630066006C007C0076006300638061D2
:10402000C0600000000000000000003E003E0006EE
:104030000006000600060006000600060006000650
:10404000000600060006000000000000000000005E
:1040500000000000000080DDC0FFC0CEC0CCC0CC9E
:10406000C0CCC0CCC0CCC0CCC0CC00000000000094
:1040700000000000000000000000006F807F8071E1
:104080008061806180618061806180618061000009
:104090000000000000000000000000000000001E02
:1040A000003F807380618061806180618073003F28
:1040B000001E0000000000000000000000000000E2
:1040C000006E007F80738061806180618061807399
:1040D000007F006E00600060006000600000000073
:1040E00000000000801D803F8073806180618061DE
:1040F00080618073803F801D80018001800180018C
:10410000000000000000000000000067803F003950
:10411000003000300030003000300030003000004F
:104120000000000000000000000000000000001E71
:10413000803F80610060007F803F80018061007F60
:10414000001E000000000000000000000008001831
:104150000018007F007F00180018001800180018D1
:104160000018801F800F0000000000000000000009
:1041700000000000000080618061806180618061DA
:10418000806180618063807F803D000000000000CE
:1041900000000000000000000000C060803180319D
:1041A0008031001B001B001B000E000E00060000EB
:1041B000000000000000000000000000000080DDA2
:1041C00080DD80DD00550055005500770077002226
:1041D00000220000000000000000000000000000BD
:1041E0000000806100330033001E000C000C001E34
:1041F0000033003380610000000000000000000078
:104200000000000080618061803100330033001BBA
:10421000001B001B000E000E000E001C007C007036
:1042200000000000000000000000C07FC07F80018F
:1042300000030006000C00180030C07FC07F0000A3
:10424000000000008003800700060006000600064C
:104250000006000E001C001C000E000600060006F2
:104260000006000680078003000600060006000620
:10427000000600060006000600060006000600060E
:104280000006000600060006000600060038003C96
:10429000000C000C000C000C000C000E00070007C6
:1042A000000E000C000C000C000C000C003C003850
:1042B0000000000000000000000000000000803846
:1042C000807F0047000000000000000000000000A8
:1042D000000000003031323334353637383941424E
:1042E0004344454640305800303132333435363758
:1042F0003839616263646566403078000400000804
:10430000000000000000000200010000100000009A
:10431000304300080000002054000000C4010008E1
:10432000844300085400002094060000E0010008C7
:10433000000000000102030401020304060708094B
:10434000000000000000000000000000000000006D
:1043500000000000070A00000C2E00080B120000ED
:104360007835000800000000000000000000000098
:10437000007A030A000000000000000001020304AC
:04438000060708091B
:040000050800018965
:00000001FF
