:020000040800F2
:1000000078070020AD010008BB1600083116000873
:10001000B9160008D70200085722000800000000A7
:10002000000000000000000000000000C91B0008E4
:10003000FD02000800000000DB1A0008CB1B0008CE
:10004000C7010008C7010008C7010008C701000870
:10005000C7010008C7010008C7010008C701000860
:10006000C7010008C7010008C7010008C701000850
:10007000C7010008C7010008C7010008C701000840
:10008000C7010008D9020008C701000800000000ED
:10009000000000000000000000000000C701000890
:1000A000C7010008C7010008C7010008C701000810
:1000B000C7010008C7010008C7010008C701000800
:1000C000C7010008C7010008C7010008C7010008F0
:1000D000C7010008C7010008291F00080000000030
:1000E000C7010008C7010008C701000800000000A0
:1000F000000000000000000000000000C701000830
:1001000000000000C7010008C7010008C70100087F
:1001100000000000000000000000000000000000DF
:10012000C7010008C7010008C7010008C70100088F
:10013000C7010008000000000000000000000000EF
:10014000000000000000000000000000BD160008D4
:10015000C7010008C7010008C7010008C70100085F
:10016000C7010008C70100080000000000000000EF
:10017000000000000000000000000000000000007F
:1001800000000000C701000800000000000000009F
:10019000C7010008C7010008DFF80CD000F07AF8AA
:1001A00000480047B9220008780700200648804729
:1001B00006480047FEE7FEE7FEE7FEE7FEE7FEE74C
:1001C000FEE7FEE7FEE7FEE7711C00089901000864
:1001D0002DE9F05F0546002092469B46884606467C
:1001E000814640241BE0284641464746224600F00F
:1001F00041F853465A46C01A914110D31146184649
:10020000224600F028F82D1A67EB01084F462246D7
:100210000120002100F01FF817EB00094E41201EBD
:10022000A4F10104DFDC484631462A464346BDE8D6
:10023000F09FD2B201E000F8012B491EFBD27047BB
:100240000022F6E710B513460A4604461946FFF7A2
:10025000F0FF204610BD202A04DB203A00FA02F10C
:10026000002070479140C2F1200320FA03F31943A4
:1002700090407047202A04DB203A21FA02F0002146
:10028000704721FA02F3D040C2F1200291400843A6
:1002900019467047064C074D06E0E06840F0010340
:1002A00094E8070098471034AC42F6D3FFF778FF84
:1002B000742300089423000810B5282001F0D6FA12
:1002C000C143890706D040F00301BDE81040282053
:1002D00001F058BB10BDFEE706484168890208D509
:1002E000C16841F40011C1600348016841F0400158
:1002F00001607047006002400C44004070470000FD
:1003000070B5044600F0D2F80546601C02D00448DF
:100310000078044400F0CAF8401BA042FAD370BD34
:10032000080000202DE9F84FDFF860B100224FF0FF
:1003300001084FF0030A4FF00F090BF1040E00BF44
:100340000B6808FA02F42340A3426ED14D68022DD7
:1003500001D0122D0ED1D50800EB850CDCF8205011
:100360005607F70E09FA07F6B5430E69BE402E434D
:10037000CCF82060066855000F790AFA05FC07F0F2
:10038000030726EA0C06AF40374307604E68012E8C
:1003900005D0022E03D0112E01D0122E0ED1866868
:1003A000CF6826EA0C06AF40374387604668A6430D
:1003B0000C79C4F30014944034434460C6688C68DC
:1003C00026EA0C06AC403443C4604C68E40056D5C1
:1003D0002F4C256845F480452560246822F00305EC
:1003E00004F4804400942B4C2E19D6F80848950745
:1003F0002F0F09FA07F5AC43274DA84201D100257C
:1004000015E0264DA84201D1012510E0244DA84257
:1004100001D102250BE0234DA84201D1032506E0BE
:10042000214DA84202D1042501E028E00725BD4066
:100430002543C6F80858DBF800405D464E689C43EB
:10044000F60300D51C432C60DEF8004075464E686C
:100450009C43B60300D51C432C600C4D08352C681A
:100460004E689C43F60200D51C432C60074D0C35AA
:100470002C684E689C43B60200D51C432C60521C6D
:10048000102AFFF45DAFBDE8F88F0000003C01408A
:1004900044380240003001400000024000040240A5
:1004A00000080240000C0240001002400148806831
:1004B0007047000008000020D0F8C00201F05EBDC7
:1004C000D0F8C00201F06FBD704700002DE9F04187
:1004D00004460068064601F0E9FD01286FD1206856
:1004E00001F068FE00286AD0206801F063FE8002F7
:1004F00003D521684FF400104861206801F05AFECE
:10050000C00203D521684FF480104861206801F0D3
:1005100051FE400103D521684FF08060486120689A
:1005200001F048FE800702D521680220486120685A
:1005300001F040FE800010D5D6F8400420F02E00D7
:10054000C6F840042046FFF7BBFF0121206801F0F8
:1005500016FE21684FF000504861206801F02AFE25
:10056000C00102D5204600F0CFFF206801F022FE36
:10057000000705D5204600F04AF8216808204861A8
:10058000206801F017FE800124D5206801F0F3FDFA
:10059000074600254FF0010815E000BF05F00F01E8
:1005A00008FA01F038420DD006EB4510D0F80005EE
:1005B000E9B20004204603D500F06EFD02E01CE025
:1005C00000F080FE6D1CA068A842E7D821684FF0BB
:1005D00000704861206801F0EDFDC043C0060CD4F6
:1005E0002068816921F010018161204600F0E8FF58
:1005F0002068816941F010018161BDE8F081D0F887
:10060000C00201F0FBBCD0F8C00201F0FBBCD0F886
:10061000C00201F0E4BC10B5044690F8B80201280D
:100620000DD0012084F8B802206801F017FD0121E7
:10063000206801F0FDFC002084F8B80210BD022003
:1006400010BD10B5044690F8B802012809D0012069
:1006500084F8B802206801F0BFFD002084F8B802D9
:1006600010BD022010BD00000248816802781144CC
:1006700081607047080000200B4810B5016841F404
:1006800000710160016841F480610160016841F41A
:1006900080710160032000F063F8002000F006F88C
:1006A00000F024F8002010BD003C024070B50D4D54
:1006B00004464FF47A712878B1FBF0F00A490968D2
:1006C000B1FBF0F000F05EFB48B9102C07D200221D
:1006D0002146501E00F024F800206C6070BD0120FF
:1006E00070BD000008000020140000200B4882B0FC
:1006F000016841F480410160006800F4804000908E
:100700000648001F016841F080510160006800F058
:1007100080500090072002B000F022B84438024018
:10072000F0B40E4B1B680C46C3F30223C3F107055C
:10073000042D00D90425191D072901D2002300E04A
:10074000DB1E012606FA05F1491E214099409E4014
:10075000761E16403143F0BC01F08EBD0CED00E07A
:10076000064900F0070208684FF6FF03184040EA08
:100770000220034A10430860704700000CED00E0BF
:100780000000FA052DE9F843044600684FF001091E
:10079000C1074FF0000601D1400729D5DFF82081BD
:1007A000C8F86860FFF782FE0746464D05E000BFC7
:1007B000FFF77CFEC01B022859D828680001F7D437
:1007C000A068217B800140EA0170616808433D49CF
:1007D00084310860C8F86890FFF768FE074604E0B7
:1007E000FFF764FEC01B022841D828680001F7D536
:1007F0002078800752D533484030016841F080515D
:1008000001600068304D00F080500090286840F48E
:1008100080702860FFF74AFE074604E0FFF746FEB7
:10082000C01B022823D82868C005F7D5254D703590
:10083000286810F4407020D0218A01F44071814270
:100840001BD02868214920F44070C1F800900E6048
:1008500028602868C00710D0FFF728FE064641F23E
:10086000883707E0FFF722FE801BB84202D9032039
:10087000BDE8F88328688007F4D521691148C1F3E1
:1008800001220830032A12D0016821F4F811016016
:100890002868218AC1F30B010843286020780007EB
:1008A00003D50B49207DC1F8E0010020E0E7026894
:1008B000084B22F4F81219400A430260E8E70000EE
:1008C000000047420038024000700040400E47429E
:1008D00000104742FFFCFF0F2DE9F0470E460500D0
:1008E00065D0DFF81481D8F80000F7B200F00F00EF
:1008F000B04207D288F80070D8F8000000F00F006E
:10090000B04254D128683D4C810712D5400703D529
:10091000206840F4E05020602878000703D5206864
:1009200040F4604020602068A96820F0F00008438F
:1009300020602878C0072DD0304968680839012820
:1009400012D0022813D0032811D009688907002982
:100950002DDA216821F0030101432160FFF7A6FD94
:10096000814641F2883A0EE009688903EFE7096899
:100970008901ECE7FFF79AFDA0EB0901514502D987
:100980000320BDE8F0872068696800F00C00B0EB38
:10099000810FEFD1D8F80010404601F00F01B142AD
:1009A00007D90770006800F00F00B04201D00120A5
:1009B000E7E72878400705D52068E96820F4E0508B
:1009C000084320602878000706D52068296920F4AC
:1009D000604040EAC100206000F016F82168084A33
:1009E000C1F30311515CC840064908600020FFF7BD
:1009F0005DFE0020C5E70000003C024008380240D0
:100A00006423000814000020154810B5006810F099
:100A10000C02144813D04110042A0FD0082A0ED11A
:100A20000F4C241F2268236802F03F025B0207D5A7
:100A30002068C0F38810A0FB010106E0084610BD45
:100A40002168C1F38811A1FB00010023FFF7C0FB5F
:100A50002168C1F30141491C4900B0FBF1F010BD10
:100A6000083802400024F4002DE9F84F050076D044
:100A70002878DFF8F8B2BE4CC00749D0DBF8001088
:100A80005846C1F38101012908D00068C0F38100F4
:100A900002280AD1201D0068400206D52068800384
:100AA00036D568680028E2D032E06868B0F5803F4B
:100AB00010D0B0F5A02F206810D020F48030206036
:100AC000206820F4802020606868A0B1FFF7EEFC69
:100AD00006460CE0206840F48030F4E740F48020C3
:100AE0002060F7E7FFF7E2FC801B642873D82068DA
:100AF0008003F7D50CE0FFF7D9FC064605E000BF00
:100B0000FFF7D4FC801B6428F0D820688003F7D45A
:100B10002878DFF8608280074FF000093ED5DBF8C7
:100B20000010584611F00C0F09D00068C0F3810086
:100B300002280BD18D48001F0068400206D42068AF
:100B4000800715D5E868012809D111E0E868B8B137
:100B50000120C8F80000FFF7A9FC064605E002E105
:100B6000FFF7A4FC801B0228C0D820688007F7D5B7
:100B70002068296920F0F80040EAC10020600DE0FB
:100B8000C8F80090FFF792FC064604E0FFF78EFCE1
:100B9000801B02281FD820688007F7D42878000718
:100BA00022D5724E744869696C3671B101210160B9
:100BB000FFF77CFC074604E0FFF778FCC01B022827
:100BC00009D830688007F7D50EE0C0F80090FFF72D
:100BD0006DFC074605E083E0FFF768FCC01B0228B8
:100BE0007ED830688007F7D42878400768D5DFF8CA
:100BF0007CA100270AF1380ADAF80000C0000BD403
:100C0000DAF8001041F08051CAF80010DAF800005C
:100C1000012700F080500090584E3068C00510D475
:100C2000306840F480703060FFF740FC009005E0D1
:100C3000FFF73CFC0099401A022851D83068C005E3
:100C4000F6D54A4EA868683601280FD005283068C6
:100C500010D020F001003060306820F004003060D7
:100C6000A868B8B1FFF722FC00900FE0306840F0B0
:100C70000100F4E740F004003060F7E7FFF716FCEE
:100C80000099411A41F28830814264D83068800767
:100C9000F4D50EE0FFF70AFC009007E0FFF706FC32
:100CA0000099411A41F28830814254D83068800757
:100CB000F4D42FB1DAF8001021F08051CAF80010F6
:100CC000A869C0B3DBF80010C1F3810102294AD042
:100CD0000228484607D0C8F86000FFF7E7FB00E0AD
:100CE00039E005463AE04746C8F86000FFF7DEFB0A
:100CF000064604E0FFF7DAFB801B02282BD82068A9
:100D00008001F7D4D5E907010843A96A1C4A4908BC
:100D100002EB01416A6A41EA8211084395F82C10FE
:100D200040EA01611148001F016001203866FFF7A9
:100D3000BDFB054605E014E0FFF7B8FB401B0228A9
:100D400009D820688001F7D50BE000BFFFF7AEFBA4
:100D5000401B022802D90320BDE8F88F20688001DB
:100D6000F4D40020F8E70120F6E70000083802403C
:100D70000038024000004742800E474200700040A9
:100D80000000FFFF10B5401EB0F1807F01D30120AD
:100D900010BD4FF0E02460610F21601701F06CFA84
:100DA0000020A06107202061002010BD70B590F8E0
:100DB0003C20012A19D0012400F83C4F0222427045
:100DC00050F83C3C5A689D6822F070060A684968F1
:100DD000324325F0800529435A6050F83C2C91603D
:100DE000447000210170084670BD022070BD10B52E
:100DF000040003D094F83D0010B107E0012010BDBD
:100E0000002084F83C00204600F00CF8022084F812
:100E10003D00211D206800F055FF012084F83D00B1
:100E2000002010BD08B500680649884208D1064870
:100E3000016841F004010160006800F004000090C6
:100E400008BD0000000800404038024070B504466C
:100E500090F83C00012817D0012584F83C5002206E
:100E600084F83D002068826822F0770222F47F42F5
:100E700082600868502830D00DDC20284DD005DC79
:100E800098B310283BD148E0022070BD302844D0F0
:100E9000402834D139E0602828D0702806D0B0F539
:100EA000805F2CD0B0F5005F29D10AE0CB68D1E992
:100EB0000121206800F05FFF2068816841F0770120
:100EC00009E0CB68D1E90121206800F054FF2068D7
:100ED000816841F48041816011E0CA6849682068F6
:100EE00000F0FEFF5021206807E016E0CA6849685C
:100EF000206801F006F86021206800F046FF84F8C1
:100F00003D50002084F83C0070BDCA6849682068E4
:100F100000F0E6FF40212068EFE722680146104616
:100F2000EBE7000000B50068094985B088420DD1A3
:100F30004FF47040009002200021CDE9010103210F
:100F4000CDE9031069460348FFF7ECF905B000BD91
:100F500000080040000C024070B5044690F83C00C8
:100F60000D4601280DD0012684F83C60022084F84B
:100F70003D0042B1042A18D0082A2AD00C2A4DD1AB
:100F800039E0022070BD206800F008FF2068816908
:100F900041F0080181612068816921F004018161CB
:100FA000206881692A69114311E0206800F01EFF62
:100FB0002068816941F4006181612068816921F4C0
:100FC00080618161206881692A6941EA0221816129
:100FD00024E0206800F036FF2068C16941F0080174
:100FE000C1612068C16921F00401C1612068C16943
:100FF0002A69114311E0206800F050FF2068C169A0
:1010000041F40061C1612068C16921F48061C1615E
:101010002068C1692A6941EA0221C16184F83D6002
:10102000002084F83C0070BD10B5040003D094F893
:101030003D0010B107E0012010BD002084F83C0005
:10104000204600F00CF8022084F83D00211D2068A5
:1010500000F038FE012084F83D00002010BD7047EC
:1010600010B504460068012200F078FE09492068A6
:10107000884203D1416C41F4004141642068816899
:1010800001F00701062903D0016841F00101016068
:10109000002010BD000001402DE9F05F0746006808
:1010A0000E4600EB4114D4F808054FF0040B42073C
:1010B00001EB86004FF0050A4FF0100807EBC00562
:1010C00008D5C4F808B5D4F80C0540F00200C4F8FF
:1010D0000C0530E0D4F80805800601D5202028E072
:1010E000D4F808054FF0080900070FD5D4F80C050F
:1010F00040F00200C4F80C0585F85DA0C4F808852E
:10110000C4F80895386800F0D5FF14E0D4F8080555
:10111000400510D5D4F80C0540F00200C4F80C05C9
:10112000386800F0C7FFC4F8088585F85D904FF473
:101130008060C4F80805D4F8080580050ED5D4F8F9
:101140000C0540F00200C4F80C05314604F5A1641A
:10115000386800F0AFFF4FF4007090E0D4F8080555
:101160004FF00001C0074FF0010237D0386930B1AD
:10117000A86CD4F81035C3F31203C01AE86485F8DC
:101180005D20A965C4F8082595F83F0020B1022824
:1011900002D003280FD01AE0D4F80C0540F002006A
:1011A000C4F80C05314604F5A164386800F082FFEC
:1011B000C4F800800BE0D4F8000540F00050C4F8FB
:1011C000000585F85C2031463846FFF77DF915F8B3
:1011D000500F80F001002870BDE8F09FD4F808059A
:1011E000800735D5D4F80C0520F00200C4F80C05B2
:1011F00095F85D000223012808D0052809D00628AB
:101200000AD0082808D003281FD015E085F85C20F4
:1012100012E085F85CA00FE0A86D401CA8650328CB
:1012200013D9A96585F85CB0D4F8000520F080409A
:1012300040F00040C4F80005C4F8083595F85C207B
:1012400031463846FFF740F9C6E785F85C30EBE7F2
:10125000D4F80805000614D5D4F80C0540F00200B7
:10126000C4F80C05A86D3146401CA865062085F819
:101270005D0004F5A164386800F01CFF8020206048
:10128000AAE7D4F80805C006A6D595F83F000328BC
:1012900003D020B1022802D011E0A96505E0A965BC
:1012A000386960B9032085F85D00D4F80C0540F07A
:1012B0000200C4F80C053146386800F0FBFEC4F8A3
:1012C000088589E72DE9F047026802EB4114D4F85C
:1012D00008254FF00403520709D5C4F80835D4F89F
:1012E0000C0540F00200C4F80C05BDE8F087D4F806
:1012F000082501EB810596064FF0000200EBC505BD
:101300004FF0020C15D52023C4F8083595F83D3070
:10131000012BEAD185F83D2085F85CC0D4F80C2576
:1013200042F00202C4F80C250068BDE8F04700F066
:10133000C1BED4F8086577064FF0010611D585F8CF
:101340005D3085F83D60AA65D4F80C2542F00202B4
:10135000C4F80C25006804F5A16400F0ABFE402041
:1013600010E0D4F80875BF050ED5D4F80C2542F06E
:101370000202C4F80C25006804F5A16400F09AFE8E
:101380004FF400702060B0E7D4F80875FF070FD065
:10139000AA65D4F80C2542F00202C4F80C250068B6
:1013A00004F5A16400F086FE266085F85D609CE788
:1013B000D4F808754FF005095FEA07784FF0080781
:1013C0000DD5C4F80875D4F80C2542F00202C4F813
:1013D0000C25006800F06EFE85F85D9085E7D4F876
:1013E00008854FF0100A5FEAC86818D5AA6503227D
:1013F00085F85D2095F83D2022B995F83C200AB982
:1014000085F83D60D4F80C2542F00202C4F80C25A2
:10141000006804F5A16400F04DFE5046B2E7D4F830
:1014200008855FEA08680FD5D4F80C2542F002025F
:10143000C4F80C25006804F5A16400F03BFE06200A
:1014400085F85D0080209DE7D4F808855FEA48585C
:1014500012D5D4F80C2542F00202C4F80C2500681D
:1014600004F5A16400F026FEC4F800A04FF48060EB
:10147000206085F85D7038E7D4F80875BF0796D509
:10148000D4F80C7527F00207C4F80C7595F85D7058
:10149000012F0AD0032F17D0042F15D0052F16D0F7
:1014A000062F17D0082F15D027E085F85C6095F837
:1014B0003F20022A01D0032A1FD195F8512082F043
:1014C000010285F8512018E085F85CC015E085F828
:1014D0005C9012E0AE6D761CAE65032E03D9AA6552
:1014E00085F85C3001E085F85CC0D4F8002522F076
:1014F000804242F00042C4F80025C4F808C595F8BF
:101500005C20FEF7E1FFF0E67CB504680546D4F800
:1015100040040190D4F8400420F02E00009001987F
:1015200080070DD50198C00706D0A06920F00051B2
:10153000A1612846FEF7C0FF009840F0020000902D
:101540000198000732D5009840F0080000900198FB
:1015500040071DD5A869022803D0E86801280CD0EF
:101560000FE00198C0F341400228286803D0012110
:1015700000F005FE05E00221FAE74EF66020C4F80F
:1015800004042846FFF73FF82846FEF795FF0DE0D4
:101590002846FFF734F8D4F8400420F02E00C4F8B1
:1015A00040042868816941F00051816101988006FA
:1015B000009802D540F020000090C4F840047CBDA3
:1015C0002DE9F041024600680646016AC1F3434333
:1015D00001F00F07C1F30A14022B25D1002C23D0F0
:1015E00007EB870102EBC105696C00291CD022467C
:1015F00000F0E4FD686C20446864E86C2044E86412
:1016000006EB4710D0F81015084A11420CD0D0F85C
:10161000001521F0804141F00041C0F8001515F897
:10162000500F80F001002870BDE8F0810000F81F25
:10163000FEE7000010B51F488EB01D49016015215E
:101640000024C0E901144FF4C871C0E90314FFF786
:10165000CEFB4FF48050079007A91648FFF7F6FB22
:101660001448FFF7E1FC0B940BA912480C94FFF708
:101670009DFB6020CDE900040294002269460D48DC
:101680000494FFF769FC042269460A48FFF764FCEA
:10169000082269460748FFF75FFC0C2269460548A7
:1016A000FFF75AFC0348FFF73DFC0EB010BD0000E9
:1016B0000008004018000020FEE770470148FEF7D0
:1016C00005BF00005800002070B50E4604461546C0
:1016D0000021022000F056F904210A2000F052F9FE
:1016E0008021142000F04EF922463146122000F0ED
:1016F00069F90321022000F045F941F288340A20FB
:1017000000F0B4F840070DD50021022000F03AF9AE
:10171000442000F0ABF82870422000F0A7F8687071
:10172000002070BD641E2404240CE8D1032070BD89
:1017300070B50C46054600F099F820EA04012846E9
:10174000BDE8704000F01EB92DE9FF4F81B0814621
:101750000EA8934690E8B00488460FB1387800E0B0
:10176000002000EB0A10C6B20021022000F00AF9A6
:101770007F21082000F006F98021142000F002F9F2
:101780005A461220049900F01DF931461A2000F043
:10179000F9F84946022000F0F5F8B9F10C0F03D131
:1017A00080211A2000F0D2F84FF4FA66082000F0E9
:1017B0005DF810EA080F0BD086B10C2000F056F847
:1017C000064610F0130F0BD0012005B0BDE8F08FD6
:1017D000C00703D1761E3604360CE7D10320F4E7A8
:1017E0000020B4B1ADB1142000F040F801462878D3
:1017F000884201D20420E8E729705346224612208D
:1018000000F056F8182000F031F800F0070007B19A
:101810003870310701D50220D7E724B31DB31299E0
:1018200009B32978012903D002291AD3C8B903E0E2
:10183000042816D1FF20C8E7891EC9B26A4620468F
:10184000FFF742FF0028C0D12878A11E9DF8002094
:10185000415C914205D1641E9DF80110005D8842F3
:1018600001D00720B1E70020AFE70000F8B50E4C2B
:101870000646A06940F48020A06100F0F5FC0B4D05
:10188000EE6000F0E9FCE86800F0EEFCFF20E860A4
:1018900000F0E2FCE8688DF80000A06940F0040068
:1018A000A0619DF80000F8BD00100240003001402A
:1018B0002DE9F84F99461646002940D0DFF884A05C
:1018C00005460024DAF8182042F48022CAF81820CD
:1018D000DFF87480491ECFB2C8F80C0000F0BCFCE1
:1018E000B9F1000F1DD0FF2404FA09F4C8F80C5018
:1018F00000F0B2FCD8F80C008DF8000000F0B4FC49
:1019000030789DF80010A043214008433070012436
:1019100007E000BFC8F80C50355500F09DFC641C72
:10192000E4B2BC42F6D30021C8F80C10315500F0E7
:101930009BFCDAF8181041F00401CAF81810BDE851
:10194000F88F0000001002400030014070B50C46D6
:101950000546FFF78BFF40EA04012846BDE87040CA
:1019600000F010B8F0B585B00C460AA991E8E00087
:101970008DE8EC000246302123460C20FFF7E4FE00
:1019800005B0F0BD2DE9F0410C4C07460E46A069AC
:1019900040F48020A06100F067FC094DEF6000F08A
:1019A0005BFCE86800F060FCEE6000F055FCE86865
:1019B000A06940F00400A061BDE8F0810010024081
:1019C000003001402DE9F0410F4D04469046A869D2
:1019D0000F4640F48020A86100F046FC0B4EF460F6
:1019E000002406E000F040FC18F80400F060641CDD
:1019F000E4B2BC42F6D300F02FFCF068A86940F0D6
:101A00000400A861BDE8F0810010024000300140F0
:101A10007CB502208DF8040000212420FFF7B2FFDE
:101A200000212620FFF7AEFF26214820FFF7AAFF5E
:101A300001A9684600F04CF818B1022801D0002036
:101A40007CBD0E4CBDF8000000252080A573202031
:101A5000E07325746574A574E57425756575A575C1
:101A6000E5750120207665763E2104F11A00FEF727
:101A7000E7FB84F8585001207CBD00001C030020C7
:101A800037B584B014460D0002D02078022802D267
:101A9000042007B030BD80211C20FFF749FE07203D
:101AA0008DF80C00002003A9CDE900100290234618
:101AB0002A46012104A8FFF755FF0028E9D1207824
:101AC000022803D19DF80C000028E2D00120E0E7B5
:101AD0000A4601462620FFF7D3BF70471A4810B5C3
:101AE000816941F004018161816941F400318161C2
:101AF000816941F00201816100212420FFF742FF4A
:101B000000212620FFF73EFF26214820FFF73AFF5D
:101B100080215420FFF736FFA9215620FFF732FF1E
:101B200003215820FFF72EFFE8215A20FFF72AFF54
:101B300040212A20FFF726FF3D212220FFF722FF28
:101B4000BDE81040FEF7B8BB00100240194801681C
:101B500041F001010160016841F010010160164986
:101B6000086840F4284008601448026842F05402B3
:101B700002600A6A124B1A430A628A6842F42842D7
:101B80008A60816841F0A80181600A4914310A68BD
:101B900042F480520A600B490A6840F217331A4334
:101BA0000A600A6842F040020A60816941F00E0151
:101BB000816170473038024000000240001002404E
:101BC00000005055003001407047FEF74DBD000049
:101BD00070B598B030216846FEF732FB14210CA88E
:101BE000FEF72EFB182111A8FEF72AFB1E48002540
:101BF000016841F080510160006800F0805017904A
:101C00001A48016841F4404101600068012600F46F
:101C1000404017904FF4A020CDE9006002246005F9
:101C2000CDE906400420C021CDE908010A90082032
:101C30000B906846FEF718FF0CA90F2081E83100D1
:101C40004FF4A050CDE90F0503210CA8FEF744FE88
:101C5000C820139005201494CDE9116011A8FEF757
:101C600091FD18B070BD0000403802400070004087
:101C70001048016841F4700101600F48016841F0AB
:101C8000010101600C4A00210832116002680B4B0F
:101C90001A400260031D0A4A1A60026822F4802278
:101CA000026005480C30016002495806803908601E
:101CB0007047000088ED00E000380240FFFFF6FEAC
:101CC00010300024F0B502681D4B1E4C9F031E4DC2
:101CD0001E4E984207D0B84205D0A04203D0A84279
:101CE00001D0B04204D122F0700C4A6842EA0C02E2
:101CF000984210D0B8420ED0A0420CD0A8420AD0D0
:101D0000B04208D0124CA04205D0124CA04202D0E2
:101D1000114CA04203D122F44074CA6822434C699A
:101D200022F08002224302608A68C2620A688262EC
:101D3000984201D10969016301214161F0BD0000B0
:101D4000000001400004004000080040000C00407A
:101D500000400140004401400048014010B501F03E
:101D60001F030121046A99408C430462016A9A406E
:101D70001143016210BD10B5846842EA032224F4C5
:101D80007F440A432243826010BD826822F07002C1
:101D90000A4342F0070181607047000030B5026AD3
:101DA00022F001020262026A4368846924F073052A
:101DB0000C682C4322F002058A682A430A4DA84287
:101DC0000BD122F00805CA6823F440732A434D69F9
:101DD00022F004021D438B692B43436084614968F0
:101DE0004163026230BD00000000014030B5026A6C
:101DF00022F010020262026A436884690D6824F4CA
:101E0000E64444EA05248D6822F0200242EA0512E5
:101E10000B4DA8420ED1CD6822F0800242EA051295
:101E20004D6923F4406343EA85038D6922F0400243
:101E300043EA85034360846149688163026230BD7F
:101E40000000014030B5026A22F480720262036A27
:101E50004268C46923F4007324F073050C682C43B2
:101E60008D6843EA05230C4DA8420ED1CD6823F4BA
:101E7000006343EA05234D6922F4405242EA051209
:101E80008D6923F4806342EA05124260C4614968A7
:101E9000C163036230BD00000000014030B5026A3A
:101EA00022F480520262046A4268C3690D6823F416
:101EB000E64343EA05238D6824F4005444EA0534DC
:101EC000064DA84204D14D6922F4804242EA8512AF
:101ED0004260C36149680164046230BD0000014092
:101EE00010B5036A046A24F001040462846924F0D2
:101EF000F00444EA021423F00A020A4384610262F5
:101F000010BD10B5036A23F0100303628369046AED
:101F100023F4704343EA023224F0A00343EA0111A0
:101F20008261016210BD000006480068400608D5C5
:101F300004480C30016821F0400101600249002092
:101F40000860704700440040040000200B2907D2BD
:101F500000EB8100B0F88013C1F30E01C0F88013CC
:101F60000020704701004FF0000004D0012901D08B
:101F7000022901D0022070470120704710B5017876
:101F800021B190F81F13012909D00AE0012180F83E
:101F90001E13D0F8C82322B10421904701E002218A
:101FA0000170002010BD10B5044600F038F821790A
:101FB0002046FFF7CBFF61792046FFF7C7FF0020DF
:101FC00084F81E03D4F8C82312B105212046904797
:101FD000204600F01BF803202070002010BDD0F830
:101FE000BC13491CC0F8BC1301780B2905D1D0F8EB
:101FF0007813002901D0896908477047002180F8CB
:102000001F137047012180F81F13704710B5D0F8D7
:10201000C403FEF700FBBDE81040FFF7A3BF10B5F7
:10202000D0F8C403FEF70DFBBDE81040FFF79ABFE0
:1020300008B5D0F8402422F02E020092D20405D434
:10204000012909D1009941F4805103E021B9009997
:1020500021F48051C0F84014002008BD816841F08F
:102060000101816000207047002110220261054AB1
:10207000491C914201D9032070470369DB06F7D45C
:1020800000207047400D03000022202343EA811105
:1020900001610549521C8A4201D903207047036936
:1020A0009B06F7D400207047400D0300406900F004
:1020B0000100704700EB4111D1F800254FF47A730D
:1020C000C2F381426AB1022A0BD0D1F8002542F056
:1020D0008042C1F80025D0F8100410F47F0F2ED0F4
:1020E00009E0D1F8002542F08042C1F80025C06A1D
:1020F00010F47F0F07D0D1F8000540F00040C1F880
:10210000000500207047D1F8000520F00040C1F81C
:102110000005D1F8000540F00040C1F80005D1F8F5
:10212000000520F40040C1F80005012002E0401C39
:102130009842E6D8D1F80025002AF8DBE1E7D1F88B
:10214000000520F00040C1F80005D1F8000540F07E
:102150000040C1F80005D1F8000520F40040C1F8A6
:102160000005012002E0401C9842CAD8D1F80025A1
:10217000002AF8DBC5E7D0F8140480B27047D0F825
:10218000002422F00302C0F80024D0F8002401F05B
:1021900003031A43C0F80024012902D0022903D006
:1021A00006E04BF6803101E041F27071C0F8041492
:1021B000002070474169806908407047D21C10B503
:1021C0009308002200F5805002E00468521C10C100
:1021D0009A42FAD3084610BD30B5044680680025FF
:1021E00020F00100A06010212046FFF74DFF20469F
:1021F000FFF73AFF5FF0000004EB4011D1F8002533
:1022000022F0802242F08042C1F80025401C0F28B5
:10221000F2D900204FF47A7304EB4011D1F8002575
:1022200022F4004242F04042C1F800256D1C9D425C
:1022300003D8D1F80025002AF8DB401C0F28EBD981
:102240004FF0FF30C4F814046061A06840F0010052
:10225000A060002030BDFEE702488168C907FCD0BD
:102260008068704700300140024881688907FCD5CA
:1022700080687047003001400907090E002804DB20
:1022800000F1E02080F80014704700F00F0000F12A
:10229000E02080F8141D704702E008C8121F08C132
:1022A000002AFAD170477047002001E001C1121FD7
:1022B000002AFBD17047000008B5FEF7DDF9FFF7F3
:1022C00087FC25480025016841F080010160016814
:1022D00001F080010091016841F00801016000688F
:1022E00000F008000090FFF731FCFFF7F7FBFFF765
:1022F000A1F900211948FEF7B3FE04211748FEF7A3
:10230000AFFE08211548FEF7ABFE0C211348FEF77F
:10231000A7FE124C124F4FF4C8760120FDF7F0FFD4
:10232000206846636420FDF7EBFF20684563642066
:10233000FDF7E6FFFFF76CFB388009E02068866355
:102340006420FDF7DDFF206885636420FDF7D8FF7A
:1023500038880028E1D0F1E730380240180000202A
:102360000000002000000000000000000102030443
:102370000607080994230008000000201800000048
:1023800098220008AC230008180000206007000015
:10239000A82200080000000000000000010000006A
:0C23A00010000000000000000024F40009
:040000050800019955
:00000001FF
