:020000040800F2
:10000000684400206D0200087B14000843110008BA
:10001000791400089D030008511800080000000032
:10002000000000000000000000000000AD0100081A
:100030009F0300080000000009020008E116000804
:10004000870200088702000887020008870200086C
:10005000870200088702000887020008870200085C
:10006000870200088702000887020008870200084C
:10007000870200088702000887020008870200083C
:1000800087020008870200088702000800000000BD
:1000900000000000000000000000000087020008CF
:1000A00087020008AD1700088702000887020008D1
:1000B00087020008870200088702000887020008FC
:1000C00087020008870200088702000887020008EC
:1000D000870200088702000887020008000000006D
:1000E000870200088702000887020008000000005D
:1000F000000000000000000000000000870200086F
:10010000000000008702000887020008870200083C
:1001100000000000000000000000000000000000DF
:10012000870200088702000887020008870200088B
:10013000870200080000000000000000000000002E
:10014000000000000000000000000000870200081E
:10015000870200088702000887020008870200085B
:10016000870200088702000800000000000000006D
:10017000000000000000000000000000000000007F
:1001800000000000870200080000000000000000DE
:100190008702000887020008DFF80CD000F0ECF8B6
:1001A000004800474D190008684400202C4B19688E
:1001B0000868B0E8F04F80F30988BFF36F8F4FF005
:1001C000000080F3118870470000000008480068B4
:1001D000006880F308884FF0000080F3148862B64E
:1001E00061B6BFF34F8FBFF36F8F00DF00BF00BF5B
:1001F00008ED00E0DFF80C00016841F470010160D7
:10020000704700BF88ED00E0EFF30980BFF36F8F08
:10021000134B1A681EF0100F08BF20ED108A20E95A
:10022000F04F106009B44FF0500080F31188BFF315
:100230004F8FBFF36F8F02F005F84FF0000080F38F
:10024000118809BC19680868B0E8F04F1EF0100F5B
:1002500008BFB0EC108A80F30988BFF36F8F704736
:1002600028000020EFF30580704700000648804713
:1002700006480047FEE7FEE7FEE7FEE7FEE7FEE78B
:10028000FEE7FEE7FEE7FEE7911700089901000888
:100290002DE9F05F0546002092469B4688460646BB
:1002A000814640241BE0284641464746224600F04E
:1002B00053F853465A46C01A914110D31146184676
:1002C000224600F03AF82D1A67EB01084F46224605
:1002D0000120002100F031F817EB00094E41201EEB
:1002E000A4F10104DFDC484631462A464346BDE816
:1002F000F09F40EA01039B0703D009E008C9121FE1
:1003000008C0042AFAD203E011F8013B00F8013BCF
:10031000521EF9D27047D2B201E000F8012B491EFB
:10032000FBD270470022F6E710B513460A46044692
:100330001946FFF7F0FF204610BD202A04DB203AC3
:1003400000FA02F1002070479140C2F1200320FA28
:1003500003F3194390407047202A04DB203A21FA26
:1003600002F00021704721FA02F3D040C2F12002CE
:100370009140084319467047064C074D06E0E06877
:1003800040F0010394E8070098471034AC42F6D3DC
:10039000FFF706FF3826000858260008FEE77047DA
:1003A0002DE9F0410446022677274FF03008F72167
:1003B000304601F041F88021042000F030FF802118
:1003C0000A2000F0A4FF0021012001F035F8217877
:1003D000092001F031F80C21012001F02DF88021D5
:1003E0000D2000F094FF0A25042000F07CFF6D1E14
:1003F0002D0404462D0C04D0E00702D114EA080FA6
:10040000F2D080210D2000F00AFF35B1062000F067
:100410006AFF10F01B0F03D002263046BDE8F081C2
:1004200000263C40E007F8D00126F6E72DE9F84F1A
:1004300000224FF0010803254FF00F0E0B6808FA59
:1004400002F42340A34271D14E68012E05D0022E42
:1004500003D0112E01D0122E15D18668570005FA4F
:1004600007FC26EA0C06D1F80CC00CFA07FC4CEA93
:10047000060CC0F808C04668A6430C79C4F3001403
:10048000944034434460C668570005FA07FC8C6802
:1004900026EA0C06BC403443C4604C68022C01D0F0
:1004A000122C13D1D40800EB8404A346D4F8209076
:1004B00054074FEAD46A0EFA0AF629EA06090E69C9
:1004C00006FA0AF646EA0906CBF8206004680E79B7
:1004D00024EA0C0406F00306BE40264306604C687E
:1004E000E40056D52E4C266846F4804626602468E3
:1004F00022F0030604F4804400942A4C3444A446B9
:10050000D4F808489607370F0EFA07F6B443264E7C
:10051000B04201D1002615E0244EB04201D101269F
:1005200010E0234EB04202D102260BE031E0214E12
:10053000B04201D1032605E01F4EB04201D104268E
:1005400000E00726BE402643CCF808681B4E3468FE
:100550004F689C43FF0300D51C433460174E361D83
:1005600034684F689C43BF0300D51C433460134E6E
:10057000083634684F689C43FF0200D51C43346042
:100580000E4E0C3634684F689C43BF0200D51C43A6
:100590003460521C102AFFF451AFBDE8F88F000000
:1005A0004438024000300140000002400004024094
:1005B00000080240000C024000100240003C0140D4
:1005C0000AB1816170470904FBE7000001488068B7
:1005D000704700001800002002488168027811442A
:1005E00081607047180000200B4810B5016841F485
:1005F00000710160016841F480610160016841F4AB
:1006000080710160032000F08DF8002000F006F8F2
:1006100000F03EF8002010BD003C024010B501463D
:1006200088B00022192000F05DF8192000F04CF885
:1006300013480024016841F400310160006805A9F5
:1006400000F400300690684600F018F900F036F922
:100650000C490D4AB0FBF1F10C48491E026040F212
:10066000E732C0E90324C0E9011400F07CFC10B1BA
:10067000012008B010BD054800F091FCF9E700002A
:100680004438024040420F0000440140340300203F
:100690000C4882B0016841F480410160006800F4B8
:1006A000804000900748001F016841F080510160C0
:1006B0000068002200F0805000900F21901E02B0D0
:1006C00000F010B844380240002809DB00F01F0297
:1006D000012191404009800000F1E020C0F80011A4
:1006E00070470000F0B40E4B1B680C46C3F30223A6
:1006F000C3F10705042D00D90425191D072901D2CE
:10070000002300E0DB1E012606FA05F1491E214008
:1007100099409E40761E16403143F0BC01F0F6B879
:100720000CED00E0064900F0070208684FF6FF03F1
:10073000184040EA0220034A104308607047000056
:100740000CED00E00000FA052DE9F0470E4605002B
:1007500065D0DFF81481D8F80000F7B200F00F0080
:10076000B04207D288F80070D8F8000000F00F00FF
:10077000B04254D128683D4C810712D5400703D5BB
:10078000206840F4E05020602878000703D52068F6
:1007900040F4604020602068A96820F0F000084321
:1007A00020602878C0072DD03049686808390128B2
:1007B00012D0022813D0032811D009688907002914
:1007C0002DDA216821F0030101432160FFF7FEFECD
:1007D000814641F2883A0EE009688903EFE709682B
:1007E0008901ECE7FFF7F2FEA0EB0901514502D9C0
:1007F0000320BDE8F0872068696800F00C00B0EBCA
:10080000810FEFD1D8F80010404601F00F01B1423E
:1008100007D90770006800F00F00B04201D0012036
:10082000E7E72878400705D52068E96820F4E0501C
:10083000084320602878000706D52068296920F43D
:10084000604040EAC100206000F048F82168084A92
:10085000C1F30311515CC8400649086006480068AE
:10086000FFF7DCFE0020C4E7003C024008380240ED
:1008700008260008240000201C0000200F2202602F
:100880000C4A136803F003034360136803F0F0039A
:100890008360136803F4E053C36012684FF4E053BD
:1008A00003EAD20202610448006800F00F00086009
:1008B0007047000008380240003C024004480549E7
:1008C00000680968044AC1F34231515CC84070476E
:1008D000240000200838024018260008154810B5EA
:1008E000006810F00C02144813D04110042A0FD0F5
:1008F000082A0ED10F4C241F2268236802F03F0201
:100900005B0207D52068C0F38810A0FB010106E058
:10091000084610BD2168C1F38811A1FB0001002326
:10092000FFF7B6FC2168C1F30141491C4900B0FB47
:10093000F1F010BD083802400024F4002DE9F84F12
:10094000040076D02078DFF838A3CE4DC00749D018
:10095000DAF800105046C1F38101012908D000687F
:10096000C0F3810002280AD1281D0068400206D584
:100970002868800336D560680028E2D032E06068DD
:10098000B0F5803F10D0B0F5A02F286810D020F42B
:1009900080302860286820F4802028606068A0B13A
:1009A000FFF714FE06460CE0286840F48030F4E7B8
:1009B00040F480202860F7E7FFF708FE801B6428DA
:1009C00073D828688003F7D50CE0FFF7FFFD0646D3
:1009D00005E000BFFFF7FAFD801B6428F0D8286807
:1009E0008003F7D42078DFF8A08280074FF0000959
:1009F0003ED5DAF80010504611F00C0F09D000680F
:100A0000C0F3810002280BD19D48001F00684002FE
:100A100006D42868800715D5E068012809D111E0BF
:100A2000E068B8B10120C8F80000FFF7CFFD064626
:100A300005E020E1FFF7CAFD801B0228C0D8286826
:100A40008007F7D52868216920F0F80040EAC10046
:100A500028600DE0C8F80090FFF7B8FD064604E0F6
:100A6000FFF7B4FD801B02281FD828688007F7D441
:100A70002078000722D5824E844861696C3671B1B6
:100A800001210160FFF7A2FD074604E0FFF79EFD8C
:100A9000C01B022809D830688007F7D50EE0C0F8DF
:100AA0000090FFF793FD074605E082E0FFF78EFD1B
:100AB000C01B02287DD830688007F7D42078400713
:100AC00068D5DFF8BCB100270BF1380BDBF800006C
:100AD000C0000BD4DBF8001041F08051CBF80010BF
:100AE000DBF80000012700F080500090684E30686D
:100AF000C00510D4306840F480703060FFF766FDA8
:100B0000009005E0FFF762FD0099401A022850D8D6
:100B10003068C005F6D55A4EA068683601280FD057
:100B20000528306810D020F001003060306820F0D7
:100B300004003060A068B8B1FFF748FD00900FE0F6
:100B4000306840F00100F4E740F004003060F7E75F
:100B5000FFF73CFD0099411A41F28830814266D886
:100B600030688007F4D50EE0FFF730FD009007E015
:100B7000FFF72CFD0099411A41F28830814256D886
:100B800030688007F4D42FB1DBF8001021F08051D9
:100B9000CBF80010A069D0B3DAF800205146C2F3B8
:100BA0008102022A4AD00228484607D0C8F86000CD
:100BB00000E03CE0FFF70AFD04463BE04746C8F88A
:100BC0006000FFF703FD064605E000BFFFF7FEFCEF
:100BD000801B02282BD828688001F7D4D4E90701AC
:100BE0000843A16A2B4A490802EB0141626A41EAC3
:100BF0008211084394F82C1040EA01612048001F3C
:100C0000016001203866FFF7E1FC044605E034E0AE
:100C1000FFF7DCFC001B022809D828688001F7D503
:100C20002BE000BFFFF7D2FC001B022802D90320F3
:100C3000BDE8F88F28688001F4D41EE00128F7D0C1
:100C40000868E26900F48001914214D1226A00F040
:100C50003F0191420FD147F6C071626A0140914253
:100C600009D1A26A00F44031914204D1E16A00F056
:100C70007060884201D00120DAE70020D8E7000048
:100C8000083802400038024000004742800E4742C8
:100C9000007000400000FFFF70B5040005D0002583
:100CA000A56294F8510010B106E0012070BD84F8EF
:100CB0005050204600F030F8022084F8510020689F
:100CC000016821F040010160D4E901010843D4E941
:100CD00003121143084361690843218B01F4007139
:100CE0000843E1690843216A0843A16A084321686F
:100CF0000860A069042101EA1040616A0843216884
:100D000048602068C16921F40061C1616565012006
:100D100084F85100002070BD10B586B0044614213F
:100D20006846FFF7FFFA13492068884220D112482D
:100D30000021026842F480520260006800F4805092
:100D400005900D481438026842F001020260006804
:100D500000F001000590E02000900220CDE90101A3
:100D6000032003900520049069460448FFF75EFBCA
:100D700006B010BD0030014044380240000002407F
:100D80002DE9F84F044690F8500000270A9E1D46B2
:100D900092468B464FF0010901280ED0012084F8BD
:100DA0005000FFF713FC804694F851006168012859
:100DB0000CD0B1F5827F07D102E00220BDE8F88FA8
:100DC000A16809B9042801D00227C2E0BBF1000FD5
:100DD00027D0BAF1000F24D01DB394F85100042895
:100DE00002D0052084F8510000206065C4F838A0C6
:100DF000E587A587C4F830B0E586A58620646064E1
:100E000020680168490603D4016841F0400101608F
:100E1000E068B0F5006F606805D0E8B3012D46D0FA
:100E20007FE0012795E008B1012D39D1206B2168C1
:100E30000088C860206B801C2063E08E401EE08626
:100E40002EE02068816889070FD5E18E69B1B9F17C
:100E5000010F0AD1216B0988C160206B801C2063BF
:100E6000E08E401EE0864FF0000920688168C907C7
:100E70000CD0E18F51B1C068A16B0880A06B801CC1
:100E8000A063E08F401EE0874FF00109FFF79EFB53
:100E9000A0EB0800B04200E009E001D3701C50D183
:100EA000E08E0028CDD1E08F0028CAD13FE0206B32
:100EB000216800780873206B401C2063E08E401E80
:100EC000E0862EE02068816889070FD5E18E69B140
:100ED000B9F1010F0AD1216B09780173206B401C15
:100EE0002063E08E401EE0864FF000092068816894
:100EF000C9070CD0E18F51B1C068A16B0870A06B1D
:100F0000401CA063E08F401EE0874FF00109FFF70F
:100F10005DFBA0EB0800B04202D3701C01D010E0D2
:100F20007EB1E08E0028CDD1E08F0028CAD14246A4
:100F30003146204600F008FB28B1012720206065DB
:100F400007E0032705E0A06818B92068C168806839
:100F50000090012084F85100002084F850003846A9
:100F60002CE77047704710B5040003D094F83D009B
:100F700010B107E0012010BD002084F83C0020469D
:100F800000F00CF8022084F83D00211D206800F0DC
:100F900013FC012084F83D00002010BD704701685B
:100FA000CA6842F00102CA600068816801F0070166
:100FB000062903D0016841F001010160002070475B
:100FC000704770B50446006801694FF00005C943D9
:100FD000890715D4C168C943890711D4E91E016185
:100FE00001202077206880698007204602D0FFF723
:100FF000E7FF04E000F098F8204600F096F8257727
:1010000020680169C943490717D4C168C943490722
:1010100013D46FF0040101610220207720688069F9
:1010200010F4407F204602D0FFF7CAFF04E000F032
:101030007BF8204600F079F8257720680169C943DC
:10104000090716D4C168C943090712D46FF0080113
:101050000161042020772068C0698007204602D003
:10106000FFF7AEFF04E000F05FF8204600F05DF807
:10107000257720680169C943C90617D4C168C943E7
:10108000C90613D46FF01001016108202077206891
:10109000C06910F4407F204602D0FFF791FF04E0C2
:1010A00000F042F8204600F040F8257720680169FA
:1010B000C943C90708D1C168C943C90704D1891EFA
:1010C0000161204600F032F820680169C943090631
:1010D00009D4C168C943090605D46FF080010161D4
:1010E0002046FFF73EFF20680169C943490609D43D
:1010F000C168C943490605D46FF04001016120462B
:1011000000F01EF820680169C94389060BD4C16844
:10111000C943890607D46FF0200101612046BDE86C
:101120007040FFF71FBF70BD7047704700680349EC
:10113000884201D1FFF750BA7047000000440140D7
:101140007047FEE710B5142000F0CDF8800705D1F8
:101150000321BDE81040142000F0D9B810BD7CB5C3
:101160000446002529460D2000F066F993202070E2
:101170002020607001A823460090022219460C200E
:1011800000F0D1F8010009D1225C401C5540C0B2EA
:101190000428F9D3205CA84200D0022108467CBD77
:1011A0002DE9F0410E46074615460421052000F0C2
:1011B00036F880210A2000F0AAF8002405E0395D05
:1011C000092000F039F9641CE4B2B442F7D30321DA
:1011D000012000F031F90A24052000F084F8641E93
:1011E00014F0FF0401D04007F6D5222000F07BF870
:1011F0002870212000F077F86870BDE8F08170B5A4
:1012000005460146262000F075F8040003D1284663
:10121000FFF7A5FF044600F00EF8204670BD70B53C
:101220000C46054600F05FF820EA04012846BDE8B8
:10123000704000F001B938B550208DF80000002052
:101240006D468DF8010002212846AA1CFFF7A8FF71
:10125000F721022000F0F0F880210420FFF7DFFFE3
:1012600080210A2000F053F80021012000F0E4F86A
:1012700000240920295D00F0DFF8641CE4B2042C8E
:10128000F7D30C21012000F0D7F880210D2000F0C9
:101290003EF880210D20FFF7C2FF38BD10B500F0E9
:1012A000EDF800F030F88D212A2000F0C5F83E213D
:1012B0002B2000F0C1F81E212D2000F0BDF80021E8
:1012C0002C2000F0B9F87021262000F0B5F840215C
:1012D000152000F0B1F83D21112000F0ADF8BDE877
:1012E0001040FFF72FBF7E2101EA400040F0800050
:1012F00000F0FAB813B507210D2000F09DF86846FC
:10130000FFF74EF81CBD0F21012000F095B870B515
:101310000C460546FFF7E7FF40EA04012846BDE812
:10132000704000F089B82DE9FF5F00270226DDF844
:1013300038A015468B468146B8460C2805D0B9F131
:101340000E0F05D11227102001E0772730208046AC
:1013500047F08001022000F06FF880210420FFF7A1
:101360005EFF80210A20FFF7D2FF0021012000F05C
:1013700063F8002406E01BF80410092000F05CF874
:10138000641CA4B2AC42F6D34946012000F054F8E4
:10139000B9F10C0F03D180210D20FFF7B8FF0A250A
:1013A0000420FFF7A0FF6D1E2D0404462D0C04D071
:1013B000E00702D114EA080FF2D080210D20FFF7D8
:1013C0002EFF35B10620FFF78EFF10F01B0F04D063
:1013D000022604B03046BDE8F09F00263C40E007FE
:1013E00000D00126B9F10C0FF3D10A20FFF77BFFE3
:1013F00004460C20FFF777FF10F007004FEAC40106
:1014000004D008390844AAF8000001E0AAF8001046
:1014100024B1102C04D91024002503E00124FBE79B
:10142000002506E00920FFF75EFF039948556D1C73
:10143000ADB2A542F6D3CCE77E2202EA400000F02E
:101440006BB800000B480A494FF4007201604FF47A
:101450008271416000218160C1600161C0E90512B3
:10146000C1610162416281620A21C162FFF714BC5D
:101470000030014088000020FEE7704710B586B0BC
:1014800014216846FEF74EFF0D48016841F0010146
:10149000016000680B4C00F0010005900022102153
:1014A0002046FFF78DF810200121CDE9000103202F
:1014B000CDE9021069462046FEF7B8FF06B010BD20
:1014C00030380240000002400EB501238DF80400C0
:1014D0000A20009002AA01A90248FFF751FC9DF8DA
:1014E00008000EBD8800002070B50A4D0446002299
:1014F00010212846FFF764F82046FFF7E5FF00209B
:10150000FFF7E2FF0446012210212846FFF758F8B2
:10151000204670BD0000024070B50A4C0E460546DC
:10152000002210212046FFF74BF82846FFF7CCFF9A
:101530003046FFF7C9FF2046BDE870400122102168
:10154000FFF73EB80000024038B504461248134B7E
:101550000068B0FBF3F04FF47A7358430090606872
:10156000B0F5827F0DD10B460092002280212046EB
:1015700000F016F870B1606D40F020006065032047
:1015800038BD009830B1401E009020688068C0438C
:101590000006F6D5002038BD2400002000366E017C
:1015A0002DE9F0411D4617460E460446DDF8188029
:1015B00008E0681C06D0FFF709F8A0EB0800A84275
:1015C0000BD255B12068806836EA000030D0002088
:1015D000B842EED10020BDE8F0812068416821F0DA
:1015E000E00141606068B0F5827F0BD1A068B0F582
:1015F000004F02D0B0F5806F04D12068016821F05F
:1016000040010160A06AB0F5005F09D1206801685F
:1016100021F4005101602068016841F4005101602B
:10162000012084F85100002084F850000320D2E704
:101630000120CDE71CB5134D00246E466846FFF728
:10164000DEFD40B100203454401C0528FBDB642043
:1016500000F094FDF2E79DF80030C5E9043420461F
:1016600001210246120242EA1362775C1B02FB1858
:1016700042411E27491C0529F4DBAF60C5E904324D
:10168000E5E7000000000020124C0225124AD4E9D0
:101690000401424081F089031A4309D00F4A81F0C6
:1016A000B901504008430BD0012000F067FDEDE781
:1016B000A068411EA16000F0DDF906E0A560E5E745
:1016C000A068411EA16000F06FF9A0680228DDDA71
:1016D000F4E70000000000202EC50D6F5E7D33A9E9
:1016E00010B5502080F31188BFF34F8FBFF36F8F79
:1016F00000F0A8FE18B104494FF0805008600020A7
:1017000080F3118810BD000004ED00E030B593B007
:1017100030216846FEF706FE14210CA8FEF702FEF3
:1017200019480024016841F080510160006800F010
:10173000805011901548016841F4404101600068F3
:10174000022500F440401190012000904FF4A020A9
:1017500001906805CDE906500420C021CDE90801BB
:101760000A9008200B906846FFF7E8F80F20CDE9B3
:101770000C054FF4A050CDE90E4003210CA81094A5
:10178000FEF7E2FF13B030BD403802400070004069
:101790000548016841F47001016003494FF00060A1
:1017A000803908607047000088ED00E00148FFF7CD
:1017B00008BC000034030020F0B502681D4B1E4C2D
:1017C0009F031E4D1E4E984207D0B84205D0A0423E
:1017D00003D0A84201D0B04204D122F0700C4A6874
:1017E00042EA0C02984210D0B8420ED0A0420CD06F
:1017F000A8420AD0B04208D0124CA04205D0124CE8
:10180000A04202D0114CA04203D122F44074CA6815
:1018100022434C6922F08002224302608A68C2623D
:101820000A688262984201D109690163012141611C
:10183000F0BD00000000014000040040000800402E
:10184000000C0040004001400044014000480140BD
:10185000FEE700002DE9F04186B014216846FEF74E
:1018600061FD26480024016841F001010160016822
:1018700001F001010591016841F002010160016878
:1018800001F002010591016841F008010160006862
:101890001B4E00F008004FF47045059000222946C9
:1018A0003046FEF78DFE174F0022F0213846FEF736
:1018B00087FEDFF8548000220F214046FEF780FEAD
:1018C00000950125CDE90154694630460394FEF7A1
:1018D000ADFDF0200090CDE90154694638460394EF
:1018E000FEF7A4FD0F200090CDE901546946404663
:1018F0000394FEF79BFD06B0BDE8F081303802404E
:10190000000C024000040240000002400907090EDA
:10191000002804DB00F1E02080F80014704700F09C
:101920000F0000F1E02080F8141D704702E008C8A5
:10193000121F08C1002AFAD170477047002001E049
:1019400001C1121F002AFBD1704700008EB0FEF7C4
:101950004BFEFFF7DBFEFFF775FDFFF79FFCFFF780
:1019600079FF1C220B496846FEF7C3FC002168463C
:1019700000F0F2F8084C07491C2220601C3107A82F
:10198000FEF7B7FC002107A800F0E6F8606000F061
:10199000DEF8FEE7D0250008000000200146002008
:1019A000842900D0C81C704770B52F4D0446002212
:1019B0004FF400512846FEF703FE0022A9142846E2
:1019C000FEF7FEFD00224FF480412846FEF7F8FDA9
:1019D0000122D1032846FEF7F3FD244D01221021F8
:1019E0002846FEF7EDFD002220212846FEF7E8FDFF
:1019F000012240212846FEF7E3FD002280212846EF
:101A0000FEF7DEFD1A4D012211462846FEF7D8FDED
:101A1000012202212846FEF7D3FD01220421284697
:101A2000FEF7CEFD012208212846FEF7C9FD03205E
:101A300000F086F8002201212846FEF7C1FD0022B1
:101A400002212846FEF7BCFD002204212846FEF7AD
:101A5000B7FD002208212846FEF7B2FD2046BDE86A
:101A6000704000F06DB80000000C0240000402401D
:101A70000000024070B52F4C054600221021204680
:101A8000FEF79EFD012220212046FEF799FD00224F
:101A900040212046FEF794FD012280212046FEF7DA
:101AA0008FFD254C012211462046FEF789FD0122BB
:101AB00002212046FEF784FD012204212046FEF784
:101AC0007FFD012208212046FEF77AFD032000F069
:101AD00037F81A4E012251033046FEF771FD0022FD
:101AE000A1143046FEF76CFD00224FF480413046D1
:101AF000FEF766FD00224FF400413046FEF760FD20
:101B0000002201212046FEF75BFD00220221204633
:101B1000FEF756FD002204212046FEF751FD00226B
:101B200008212046FEF74CFD2846BDE8704000F035
:101B300007B800000004024000000240000C024010
:101B400010B500B9012000F019FB002010BD10B540
:101B500000F03AFB002010BD7FB50D4604464169F8
:101B6000B0F9080081B1A16971B1FFF717FFD4E99D
:101B700005128DE80700D4E900102B46226900F019
:101B800036FC039004B070BDFFF708FF03A9CDE950
:101B90000001208A2B4682B2D4E9001000F0FAFB43
:101BA000012801D00020EDE70398EBE72DE9F04193
:101BB000184C0F46054666692068001D00F01AFAA9
:101BC00038B9206890F82C1001208840A169814321
:101BD000A161681C07D137B12168BDE8F0410E480A
:101BE000091D00F04BBA20683544B54245602168B4
:101BF00005D2A068BDE8F041091D00F027BA606871
:101C0000091D00F023FA206B854200D22563BDE850
:101C1000F081000028000020500400202DE9F04150
:101C2000054600F037FA2E4C2069401C20612068E0
:101C30002C4F10B1E06940B32DE0256020690128E8
:101C400029D1002606EB860007EB800000F0F0F9B2
:101C5000761C072EF6D323488C3000F0E9F9214892
:101C6000A03000F0E5F91F48B43000F0E1F91D485C
:101C7000C83000F0DDF91B48DC3000F0D9F9194814
:101C80008C3060601430A06005E02068E96AC06AAA
:101C9000884200D82560E06A401CE062E96A0120C1
:101CA000A26988401043A06101EB810007EB80002E
:101CB000291D00F0E3F900F00DFAE06900280CD0CE
:101CC0002068E96AC06A884207D207494FF080500D
:101CD0000860BFF34F8FBFF36F8FBDE8F081000046
:101CE000280000207403002004ED00E010B5044635
:101CF00090F8510058B101280CD002280FD0502084
:101D000080F31188BFF34F8FBFF36F8FFEE7206B17
:101D100000F0F4F92046BDE8104000F0EFB910BD26
:101D200010484FF47051420706D0C01D0D4920F0F5
:101D30000700411AC1F570510B4A00230144C2E962
:101D400000030839103A21F0070111604B600B6065
:101D50000B1AC0E9001393604FF000405360D0604D
:101D6000704700006404002074000020144E154CDD
:101D7000A6F1C8074FF08058DFF84C9012E000BF82
:101D800000F088F9F068C568281D00F033F9206973
:101D9000401E2061E068401EE06000F09BF928468C
:101DA000FFF7A4FFE0680028EAD138680128F9D9D4
:101DB000C9F80080BFF34F8FBFF36F8FF2E70000C9
:101DC0003C0400202800002004ED00E02DE9F0474D
:101DD0009A46DDE9098481466FF00303206B03EB2B
:101DE00082021044089D20F00706700707D050209B
:101DF00080F31188BFF34F8FBFF36F8FFEE7231877
:101E00000A5C83F834200A5C12B1401C1028F6D317
:101E1000002784F84370072D00D30625E562C4E946
:101E20001157201D00F00FF904F1180000F00BF914
:101E30002461C5F107006462A061E76484F8507012
:101E400052464946304600F0BFF82060B8F1000F16
:101E500001D0C8F80040BDE8F087000030B5114956
:101E600000E011460A688242FBD34B685C1884424A
:101E700003D1406818444860084643681C189442DF
:101E800009D1084C103C2468A24209D052681A4477
:101E900042600A6812680260814200D0086030BD6A
:101EA0000460F9E77400002006484168096829B118
:101EB0004168C968C9684968016370474FF0FF31DC
:101EC000FAE700002800002008484068401C4FF056
:101ED000500080F3118804D0BFF34F8FBFF36F8F92
:101EE000FEE7BFF34F8FBFF36F8FFEE77C0000204C
:101EF0002DE9F0410546002700F09CF9314E30688D
:101F000008B9FFF70DFFF06805424BD1C5B308359E
:101F100068070ED005F00700C0F108000544680707
:101F200007D0502080F31188BFF34F8FBFF36F8F1E
:101F3000FEE72DB37068854234D822481030014640
:101F40000C6801E020460C466168A94202D2216873
:101F50000029F7D131688C4224D0076821680160DC
:101F600060680837411B10290FD96019420708D053
:101F7000502080F31188BFF34F8FBFF36F8FFEE7C0
:101F800010E041606560FFF769FF61687068401AA2
:101F90007060B268904200D2B060F06801430020E7
:101FA000C4E9000100F0B2FA780707D0502080F3AE
:101FB0001188BFF34F8FBFF36F8FFEE73846BDE840
:101FC000F08100006400002010B5031F4FF0807402
:101FD0001C601B1F21F001011960191F044B0B60CD
:101FE00014390A60091F6FF0020244380A6010BDFC
:101FF000C91E0008D0E9013201699A60D0E90123C5
:102000005A604A68824201D182684A6000220261B5
:102010000868401E0860086870470000034B0360B2
:1020200003F154000860802010607047E000002039
:1020300000F108014FF0FF32C0E90112C1600161F7
:1020400000210160704700210161704730B50B68C5
:102050005A1C02D000F1080202E0026904E02246A4
:10206000546825689D42FAD953684B6099608A602C
:10207000516008610168491C016030BD42684A60D6
:1020800093688B6093685960916008610168491C8E
:1020900001607047502080F31188BFF34F8FBFF36A
:1020A0006F8F0A494868401C486001280CD10848D5
:1020B000006810F0FF0F07D0502080F31188BFF3A5
:1020C0004F8FBFF36F8FFEE7704700007C0000204A
:1020D00004ED00E00849486828B1401E486001D17D
:1020E00080F311887047502080F31188BFF34F8F21
:1020F000BFF36F8FFEE700007C00002070B5002862
:1021000027D0144DA0F108046168E868014207D1A6
:10211000502080F31188BFF34F8FBFF36F8FFEE71E
:1021200022683AB1502080F31188BFF34F8FBFF37C
:102130006F8FFEE78143616000F07CF8606869683A
:10214000084468602046FFF789FEBDE8704000F053
:10215000DDB970BD640000204FF0E0200021016176
:10216000816105494FF47A720968B1FBF2F1491EA9
:1021700041610721016170472400002010B5020071
:1021800014D00F48806B38B1502080F31188BFF312
:102190004F8FBFF36F8FFEE700F04CF80021104621
:1021A000FFF704FD00F0B2F9002807D105494FF010
:1021B00080500860BFF34F8FBFF36F8F10BD0000DA
:1021C0002800002004ED00E010B586B00024039440
:1021D00005AA04A903A80494FFF720FFDDE9030181
:1021E0000094CDE9011000230EA11048059A00F0DB
:1021F000FEF80F490028486311D0502080F3118861
:10220000BFF34F8FBFF36F8F4FF0FF300863012094
:10221000C8614C6106B0BDE8104000F041B806B09E
:1022200010BD000049444C45000000006D1D000831
:10223000280000200248816B491C81637047000020
:10224000280000201448816B11B1012141627047C0
:10225000002141628169B1FA81F1C1F11F0101EBF5
:1022600081020E4951F822306BB101EB820101F17C
:1022700008034A6852684A609A4201D152684A602B
:10228000D16801607047502080F31188BFF34F8FF1
:10229000BFF36F8FFEE700002800002074030020CA
:1022A0001CB537480168374A914207D1502080F366
:1022B0001188BFF34F8FBFF36F8FFEE7006831497E
:1022C000491E884207D1502080F31188BFF34F8FF9
:1022D000BFF36F8FFEE72C4908780190FF2008704C
:1022E00008788DF800009DF800009DF8002000F0AF
:1022F000F000904207D0502080F31188BFF34F8F39
:10230000BFF36F8FFEE79DF80000204B00F05000F8
:1023100018700720986005E09DF8002052008DF8A5
:102320000020401E9DF800201206F5D49860032876
:1023300007D0502080F31188BFF34F8FBFF36F8F0A
:10234000FEE74FF440709860019808700C48203008
:10235000016841F470010160016841F07041016061
:10236000FFF7FAFE00205860FDF744FF08480168B7
:1023700041F040410160FDF729FF00201CBD000035
:1023800000ED00E071C20F4100E400E07C0000209D
:1023900034EF00E02DE9FF5F8346DDE90E879946C3
:1023A00016468A469000FFF7A3FD05001CD0542076
:1023B000FFF79EFD040014D00020256384F851002F
:1023C000CDE90240CDE900874B463246514658469A
:1023D000FFF7FCFC2046FFF721FC012004B0BDE81C
:1023E000F09F2846FFF78AFE4FF0FF30F6E7F0B582
:1023F00085B0DDE90B640A9DA6B1DCB154270097D6
:102400002663022684F85160002604AFCDE9024617
:10241000CDE90057FFF7DAFC2046FFF7FFFB0498F1
:1024200005B0F0BD502080F31188BFF34F8FBFF38C
:102430006F8FFEE7502080F31188BFF34F8FBFF3FB
:102440006F8FFEE72DE9F0412E4C0027A06B40B1C5
:10245000206A401C2062606A00B101273846BDE84E
:10246000F0816669761C666113D16068006838B1D6
:10247000502080F31188BFF34F8FBFF36F8FFEE7BB
:102480006068A1686160A060A06A401CA062FFF75C
:102490000BFD206BDFF87080864209D3606800680E
:1024A00080B16068C068C568686886420DD22063E4
:1024B0002068C06A00EB800158F821000128CAD9C1
:1024C0000127C8E74FF0FF30F1E7281DFFF792FD25
:1024D000A86A18B105F11800FFF78CFDE86A012120
:1024E000A26981401143A16100EB800108EB8100EA
:1024F000291DFFF7C3FDE86A2168C96A8842CDD368
:102500000127CBE728000020740300202DE9F047C5
:102510002C4D00242746A86B38B1FFF7BBFDA86BF4
:10252000401EA863A86B40B146E0502080F311889C
:10253000BFF34F8FBFF36F8FFEE72969224E012053
:10254000D1B3A6F1B40980463068E8B1F068C46838
:1025500004F11800FFF74EFD201DFFF74BFDE06A68
:10256000AA6908FA00F11143A96100EB800109EBA7
:102570008100211DFFF782FDE06A2968C96A88424F
:10258000E2D3C5F82480DFE70CB1FFF78DFC2C6A9D
:1025900044B14646FFF756FF00B16E62641EF9D1A2
:1025A00000202862686A38B10849012738070860A6
:1025B000BFF34F8FBFF36F8FFFF78CFD3846BDE839
:1025C000F0870000280000202804002004ED00E02F
:1025D000202600083516000800000000000000005A
:1025E000F401000000000000000000002C2600089C
:1025F00089160008020000000000000080000000B2
:1026000000000000000000000000000000000000CA
:102610000102030406070809000000000102030488
:102620006D795461736B3031000000006D79546135
:10263000736B3032000000005826000800000020B4
:10264000880000002C190008E026000888000020FF
:10265000E04300003C1900080000000000000000FA
:10266000000000000000000000000000000000006A
:102670000100000010000000000000000024F40031
:10268000000000000000000000000000000000004A
:10269000000000000000000000000000000000003A
:1026A000000000000000000000000000000000002A
:1026B000000000000000000000000000000000001A
:1026C000000000000000000000000000000000000A
:1026D0000000000000000000AAAAAAAA0000000052
:040000050800019955
:00000001FF
