:020000040800F2
:10000000880600206D020008D10E0008CD0E000801
:10001000CF0E000879030008E1110008000000007D
:10002000000000000000000000000000AD0100081A
:10003000390400080000000009020008D50E00087D
:10004000870200088702000887020008870200086C
:10005000870200088702000887020008870200085C
:10006000870200088702000887020008870200084C
:10007000870200088702000887020008870200083C
:100080007D030008890300088702000800000000C3
:1000900000000000000000000000000087020008CF
:1000A000870200081D0F0008870200088702000869
:1000B00087020008870200088702000887020008FC
:1000C00087020008870200088702000887020008EC
:1000D000870200088702000887020008000000006D
:1000E000870200088702000887020008000000005D
:1000F000000000000000000000000000870200086F
:10010000000000008702000887020008870200083C
:1001100000000000000000000000000000000000DF
:10012000870200088702000887020008870200088B
:10013000870200080000000000000000000000002E
:10014000000000000000000000000000870200081E
:10015000870200088702000887020008870200085B
:10016000870200088702000800000000000000006D
:10017000000000000000000000000000000000007F
:1001800000000000870200080000000000000000DE
:100190008702000887020008DFF80CD000F0DAF8C8
:1001A0000048004721120008880600202C4B1968DF
:1001B0000868B0E8F04F80F30988BFF36F8F4FF005
:1001C000000080F3118870470000000008480068B4
:1001D000006880F308884FF0000080F3148862B64E
:1001E00061B6BFF34F8FBFF36F8F00DF00BF00BF5B
:1001F00008ED00E0DFF80C00016841F470010160D7
:10020000704700BF88ED00E0EFF30980BFF36F8F08
:10021000134B1A681EF0100F08BF20ED108A20E95A
:10022000F04F106009B44FF0500080F31188BFF315
:100230004F8FBFF36F8F01F0BBF84FF0000080F3DA
:10024000118809BC19680868B0E8F04F1EF0100F5B
:1002500008BFB0EC108A80F30988BFF36F8F704736
:1002600010000020EFF3058070470000064880472B
:1002700006480047FEE7FEE7FEE7FEE7FEE7FEE78B
:10028000FEE7FEE7FEE7FEE7010F00089901000820
:100290002DE9F05F0546002092469B4688460646BB
:1002A000814640241BE0284641464746224600F04E
:1002B00041F853465A46C01A914110D31146184688
:1002C000224600F028F82D1A67EB01084F46224617
:1002D0000120002100F01FF817EB00094E41201EFD
:1002E000A4F10104DFDC484631462A464346BDE816
:1002F000F09FD2B201E000F8012B491EFBD27047FB
:100300000022F6E710B513460A4604461946FFF7E1
:10031000F0FF204610BD202A04DB203A00FA02F14B
:10032000002070479140C2F1200320FA03F31943E3
:1003300090407047202A04DB203A21FA02F0002185
:10034000704721FA02F3D040C2F1200291400843E5
:1003500019467047064C074D06E0E06840F001037F
:1003600094E8070098471034AC42F6D3FFF718FF23
:10037000E414000804150008FEE70000014800F03E
:100380005DB80000F8000020014800F057B80000F8
:100390009800002001681823CAB2103AB2FBF3F2A9
:1003A000054B6FF30901032A9B5CC36500D9091D46
:1003B0008165084670470000D414000810B5014656
:1003C00000208B698A6A4FF0C07453B1B3F5005FA7
:1003D00015D072B1012A0CD0022A0AD0032A09D101
:1003E00004E01AB1012A06D0022A03D1C96AC90160
:1003F00000D5012010BDC96AA142FAD010BD002A63
:10040000F7D0012AF2D0022AF3D0032AF3D010BD8C
:1004100030B50468256825F480252560046863608C
:100420008368402B036803D099600068C26030BDC8
:100430009A600068C16030BD704770472DE9F8438D
:1004400004464FF00009CDF8009063484FF4165170
:10045000A56D0068B0FBF1F72E6894F85C100820D9
:1004600000FA01F131420FD021680A6852070BD51A
:100470000A6822F004020A6094F85C108840A860C0
:10048000606D40F00100606594F85C104FF0010869
:1004900008FA01F0304208D021684969090604D5FC
:1004A000A860606D40F00200606594F85C10042064
:1004B0008840304208D021680968890704D5A860BF
:1004C000606D40F00400606594F85C101020884076
:1004D000304218D021680968090714D5A86020683F
:1004E0000168490304D50068000308D5A16C07E042
:1004F0000168C90503D4016821F008010160216C7D
:1005000009B12046884794F85C102020884030428A
:1005100031D021680968C9062DD5A86094F8350046
:1005200005282068016806D0490347D50068000304
:100530001DD4616C1CE021F0160101602068416946
:1005400021F080014161206C08B9A06C20B12068C5
:10055000016821F00801016094F85C103F20884098
:10056000A86084F8349084F83580216D1FE0E16B39
:1005700009B120468847606D00282BD0606DC00708
:1005800014D0052084F835002068016821F00101AD
:1005900001600098401C0090B84203D820680068B1
:1005A000C007F6D184F8349084F83580E16C0029D6
:1005B00010D001B02046BDE8F04308470168C905E6
:1005C000D5D4016821F01001016084F8349084F8DA
:1005D0003580CCE7BDE8F8830C0000202DE9F04120
:1005E000044600F067F906465CB1002584F83450F3
:1005F000022084F835002068016821F001010160C3
:100600000DE00120BDE8F08100F054F9801B0528C1
:1006100005D920206065032084F83500F2E72068C2
:100620000068C007F0D12268116820480140D4E971
:1006300001031843D4E9033633431843636918436D
:10064000A3691843E3691843236A18430843616A9E
:10065000042903D1D4E90B1319430843106020681F
:100660004069666A20F0070130460E4301270428DE
:100670000CD1A06A0643E06A40B12046FFF79EFE17
:1006800020B14020606584F83570BAE72068466183
:100690002046FFF77FFE94F85C203F219140816067
:1006A000656584F835700020ACE700003F8010F0ED
:1006B0002DE9F0410446866D90F8340000250128AC
:1006C0000DD0012084F8340094F835700020012FFB
:1006D00007D084F8340002252846BDE8F0810220C6
:1006E000FBE7022784F8357060652046FFF790FE2F
:1006F00094F85C103F208840B0602068016841F0A9
:1007000016010160206C20B12068016841F00801E9
:1007100001602068016841F001010160DCE7000030
:100720002DE9F84F00224FF0010803254FF00F0E7E
:100730000B6808FA02F42340A34271D14E68012EDF
:1007400005D0022E03D0112E01D0122E15D18668AD
:10075000570005FA07FC26EA0C06D1F80CC00CFA83
:1007600007FC4CEA060CC0F808C04668A6430C79A2
:10077000C4F30014944034434460C668570005FA3B
:1007800007FC8C6826EA0C06BC403443C4604C6805
:10079000022C01D0122C13D1D40800EB8404A34600
:1007A000D4F8209054074FEAD46A0EFA0AF629EAE0
:1007B00006090E6906FA0AF646EA0906CBF8206031
:1007C00004680E7924EA0C0406F00306BE402643B2
:1007D00006604C68E40056D52E4C266846F48046E8
:1007E0002660246822F0030604F4804400942A4C16
:1007F0003444A446D4F808489607370F0EFA07F693
:10080000B443264EB04201D1002615E0244EB0423A
:1008100001D1012610E0234EB04202D102260BE0A6
:1008200031E0214EB04201D1032605E01F4EB04217
:1008300001D1042600E00726BE402643CCF8086814
:100840001B4E34684F689C43FF0300D51C43346043
:10085000174E361D34684F689C43BF0300D51C43B8
:100860003460134E083634684F689C43FF0200D54D
:100870001C4334600E4E0C3634684F689C43BF02F4
:1008800000D51C433460521C102AFFF451AFBDE860
:10089000F88F000044380240003001400000024060
:1008A0000004024000080240000C02400010024018
:1008B000003C0140014880687047000000000020B3
:1008C0000B4810B5016841F400710160016841F402
:1008D00080610160016841F480710160032000F0D3
:1008E0008DF8002000F006F800F03EF8002010BD62
:1008F000003C024010B5014688B00022192000F0EB
:100900005DF8192000F04CF813480024016841F00C
:1009100001010160006805A900F001000690684629
:1009200000F07EF800F0ACF80C490D4AB0FBF1F194
:100930000C48491E026040F2E732C0E90324C0E9D6
:10094000011400F0AFF810B1012008B010BD054847
:1009500000F0C4F8F9E700004438024040420F00BC
:1009600000000140580100200C4882B0016841F4A9
:1009700080410160006800F4804000900748001F3B
:10098000016841F0805101600068002200F0805051
:1009900000900F21901E02B000F010B844380240C1
:1009A000002809DB00F01F0201219140400980006E
:1009B00000F1E020C0F8001170470000F0B40E4BC9
:1009C0001B680C46C3F30223C3F10705042D00D9AD
:1009D0000425191D072901D2002300E0DB1E012692
:1009E00006FA05F1491E214099409E40761E1640A8
:1009F0003143F0BC00F0F5BB0CED00E0064900F01F
:100A0000070208684FF6FF03184040EA0220034A35
:100A100010430860704700000CED00E00000FA058C
:100A20000F2202600C4A136803F00303436013684B
:100A300003F0F0038360136803F4E053C3601268AB
:100A40004FF4E05303EAD20202610448006800F068
:100A50000F0008607047000008380240003C024068
:100A60000448054900680968044AC1F38221515CC1
:100A7000C84070470C00002008380240DC14000811
:100A80000448054900680968044AC1F34231515CD1
:100A9000C84070470C00002008380240DC140008F1
:100AA0007047704710B5040003D094F83D0010B1B2
:100AB00007E0012010BD002084F83C00204600F033
:100AC0000CF8022084F83D00211D206800F02CFA6B
:100AD000012084F83D00002010BD70470168CA68FD
:100AE00042F00102CA600068816801F0070106292E
:100AF00003D0016841F00101016000207047704798
:100B000070B50446006801694FF00005C9438907C4
:100B100015D4C168C943890711D4E91E01610120B8
:100B20002077206880698007204602D0FFF7E7FF22
:100B300004E000F098F8204600F096F82577206849
:100B40000169C943490717D4C168C943490713D488
:100B50006FF004010161022020772068806910F4A1
:100B6000407F204602D0FFF7CAFF04E000F07BF888
:100B7000204600F079F8257720680169C943090704
:100B800016D4C168C943090712D46FF00801016186
:100B9000042020772068C0698007204602D0FFF734
:100BA000AEFF04E000F05FF8204600F05DF8257726
:100BB00020680169C943C90617D4C168C943C90679
:100BC00013D46FF010010161082020772068C069FC
:100BD00010F4407F204602D0FFF791FF04E000F0C0
:100BE00042F8204600F040F8257720680169C943A3
:100BF000C90708D1C168C943C90704D1891E016169
:100C0000204600F032F820680169C943090609D47A
:100C1000C168C943090605D46FF08001016120460F
:100C2000FFF73EFF20680169C943490609D4C1683E
:100C3000C943490605D46FF040010161204600F028
:100C400015F820680169C94389060BD4C168C943F6
:100C5000890607D46FF0200101612046BDE870408D
:100C6000FFF71FBF70BD70477047704770477047F0
:100C700070B5040004D094F83900002510B106E0E6
:100C8000012070BD84F83850204600F023F824205D
:100C900084F839002068C16821F40051C160204601
:100CA00000F00AFA2068016921F49041016120688E
:100CB000416921F02A0141612068C16841F4005175
:100CC000C160E563202084F8390084F83A000020F0
:100CD00070BD00002DE9F04186B00646142168463B
:100CE000FFF70EFB2B49306888424FD12A48002479
:100CF000016841F400310160006800F400300590A3
:100D000025481038016841F001010160006869461A
:100D100000F0010005900C200090022001900120BD
:100D2000029003200390072004901C48FFF7F8FC72
:100D30001C4D1B484FF000672860C5E901744FF453
:100D40008068C5E903486C61AC61EC612C6228469F
:100D50006C62FFF743FC08B1FFF76FFB7563AE638E
:100D60000F48114D1830E5E802074020A5E81101B1
:100D70000D4845F81449AC61EC612C626C62FFF7D8
:100D80002DFC08B1FFF759FB3563AE6306B0BDE833
:100D9000F081000000440040403802400000024062
:100DA00088600240F800002098000020F8B5044652
:100DB00090F83A0020283CD1C1B3BAB394F8380077
:100DC000012836D0012084F83800A162A2850025D0
:100DD000E563222084F83A00636B1748D863636B9D
:100DE00016481864636B1648D864606B1346056533
:100DF0000846666B216802463046091DFFF758FC1D
:100E0000206801684168009184F83850C16841F455
:100E10008071C1602068416941F001014161206831
:100E2000416941F0400141610020F8BDFFE7012028
:100E3000FBE70220F9E700000B100008471000084C
:100E4000C10F00087047704770B5044690F839002C
:100E5000202830D169B362B394F8380001282AD031
:100E6000012084F838002162A284E2840025E56331
:100E7000212084F83900236B1048D863236B104875
:100E80001864236B0F48D864206B134605652668E9
:100E9000206B321DFFF70CFC21686FF040000860EA
:100EA00084F838502068416941F080014161002098
:100EB00070BD012070BD022070BD000051100008FF
:100EC0007F100008C10F000870477047FEE7FEE77B
:100ED0007047000010B5502080F31188BFF34F8F8A
:100EE000BFF36F8F00F092FA18B104494FF08050B1
:100EF0000860002080F3118810BD000004ED00E0C0
:100F00000548016841F47001016003494FF0006039
:100F1000803908607047000088ED00E00148FFF765
:100F2000EFBD000058010020F0B502681D4B1E4CBB
:100F30009F031E4D1E4E984207D0B84205D0A042D6
:100F400003D0A84201D0B04204D122F0700C4A680C
:100F500042EA0C02984210D0B8420ED0A0420CD007
:100F6000A8420AD0B04208D0124CA04205D0124C80
:100F7000A04202D0114CA04203D122F44074CA68AE
:100F800022434C6922F08002224302608A68C262D6
:100F90000A688262984201D10969016301214161B5
:100FA000F0BD0000000001400004004000080040C7
:100FB000000C004000400140004401400048014056
:100FC00070B5846B2068406994F83910C0F3C01084
:100FD0000025212904D118B1E584204600F062F8EB
:100FE0002068406994F83A10C0F38010222904D197
:100FF00018B1E585204600F047F8E06B40F010009E
:10100000E0632046FFF733FE70BD10B50146806BEC
:1010100009680968C90513D40021C1850168CA6837
:1010200022F48072CA6001684A6922F001024A61B2
:1010300001684A6922F040024A61202180F83A1092
:10104000FFF700FF10BD10B5806BFFF7FCFE10BD71
:1010500010B50146806B09680968C9050CD40021E8
:10106000C18401684A6922F080024A610068C1684F
:1010700041F04001C16010BDFFF726FF10BD10B563
:10108000806BFFF722FF10BD0168CA6822F49072DE
:10109000CA6001684A6922F001024A61202180F891
:1010A0003A1070470168CA6822F0C002CA60202165
:1010B00080F83910704700002DE9F04104460068BF
:1010C0000169E26821F44051114301612169A0687E
:1010D000E26908436169114308432168CA6849F21B
:1010E0000C639A430243CA6020684169A26921F4F3
:1010F000407111434161E069192764253226B0F53A
:10110000004F354A354920684FF0000806D0884224
:1011100001D0904236D1FFF7B3FC35E0884201D0D0
:10112000904202D1FFF7ACFC01E0FFF799FC616847
:101130004A18A0FB070148EB0803FFF7A9F801468E
:10114000B0FBF5F00201B1FBF5F06FF01803584366
:1011500001EB800006EBC000B0FBF5F000F0F800FA
:1011600002EB4002B1FBF5F0584301EB800006EBC7
:10117000C000B0FBF5F000F0070021681044886063
:10118000BDE8F081FFF76CFC61688B0F8A00A0FB63
:101190000701FFF77DF80146B0FBF5F06FF018028C
:1011A000504301EB800006EB0010B0FBF5F000F0BF
:1011B000F002B1FBF5F002EB0012B1FBF5F06FF0BD
:1011C0001803584301EB800006EB0010B0FBF5F06C
:1011D00000F00F00D1E700000014014000100140B2
:1011E000FEE70907090E002804DB00F1E02080F883
:1011F0000014704700F00F0000F1E02080F8141D8B
:10120000704702E008C8121F08C1002AFAD17047CF
:101210007047002001E001C1121F002AFBD1704776
:101220000EB5FFF74DFB00F029F800F07FF8002025
:10123000094978220A54401C80B20A28FAD3064889
:10124000022269460C30FFF7B1FD03490A2201F181
:101250000C00FFF7F9FDFEE74C000020064841684E
:10126000096829B14168C968C9684968016370475C
:101270004FF0FF31FAE70000100000202DE9F8439D
:1012800027480024016841F4001101600068264DE0
:1012900000F4001000904FF04008C5E902844FF4BC
:1012A0008069C5E90494AC61EC612C621D484FF083
:1012B00000676C62C5E900072846FFF78FF9A5F1C2
:1012C00040060022356311461120AE63FFF776FB1E
:1012D0001120FFF765FB60351248C5E90284C5E9B6
:1012E0000494AC61EC612C6218386C62C5E90007AB
:1012F0002846FFF773F93563002211461120AE63CB
:10130000FFF75CFB1120FFF74BFB0022114610207A
:10131000FFF754FBBDE8F8431020FFF741BB000086
:1013200030380240A0600240980000200D4882B092
:101330000021026842F40032026000680A4A00F4A8
:1013400000300090094802604FF41652C0E90121B4
:101350000C22C160C0E904128161C16102B0FFF7D3
:1013600087BC000040380240004400405800002084
:10137000D0E9013201699A60D0E901235A604A68D4
:10138000824201D182684A60002202610868401EE0
:1013900008600868704742684A6093688B60936889
:1013A0005960916008610168491C01607047000044
:1013B0001448816B11B101214162704700214162E3
:1013C0008169B1FA81F1C1F11F0101EB81020E497E
:1013D00051F822306BB101EB820101F108034A6838
:1013E00052684A609A4201D152684A60D1680160ED
:1013F0007047502080F31188BFF34F8FBFF36F8F7A
:10140000FEE7000010000020980100202DE9F041C7
:101410002E4C0027A06B40B1206A401C2062606AFD
:1014200000B101273846BDE8F0816669761C666127
:1014300013D16068006838B1502080F31188BFF381
:101440004F8FBFF36F8FFEE76068A1686160A06097
:10145000A06A401CA062FFF701FF206BDFF87080DC
:10146000864209D36068006880B16068C068C5685A
:10147000686886420DD220632068C06A00EB800154
:1014800058F821000128CAD90127C8E74FF0FF30DA
:10149000F1E7281DFFF76CFFA86A18B105F11800E5
:1014A000FFF766FFE86A0121A26981401143A1614B
:1014B00000EB800108EB8100291DFFF76CFFE86A53
:1014C0002168C96A8842CDD30127CBE710000020EC
:1014D00098010020000610160006101600000000FB
:1014E0000102030404150008000000204C00000065
:1014F00002120008501500084C0000203C060000B5
:10150000121200080100000010000000000000009E
:101510000024F400000000000000000000000000B3
:1015200000000000000000000000000000000000BB
:1015300000000000000000000000000000000000AB
:10154000000000000000000000000000000000009B
:040000050800019955
:00000001FF
