:020000040800F2
:10000000A84F00206D0200088B1900080116000897
:10001000891900081F04000879200008000000006A
:10002000000000000000000000000000AD0100081A
:10003000210400080000000009020008451B000818
:10004000870200088702000887020008870200086C
:10005000870200088702000887020008870200085C
:10006000870200088702000887020008870200084C
:10007000870200088702000887020008870200083C
:1000800087020008870200088702000800000000BD
:1000900000000000000000000000000087020008CF
:1000A00087020008111C0008870200088702000868
:1000B00087020008870200088702000887020008FC
:1000C00087020008870200088702000887020008EC
:1000D000870200088702000887020008000000006D
:1000E000870200088702000887020008000000005D
:1000F000000000000000000000000000870200086F
:10010000000000008702000887020008870200083C
:1001100000000000000000000000000000000000DF
:10012000870200088702000887020008870200088B
:10013000870200080000000000000000000000002E
:10014000000000000000000000000000870200081E
:10015000870200088702000887020008870200085B
:10016000870200088702000800000000000000006D
:10017000000000000000000000000000000000007F
:1001800000000000870200080000000000000000DE
:100190008702000887020008DFF80CD000F002F99F
:1001A00000480047F9230008A84F00202C4B19688D
:1001B0000868B0E8F04F80F30988BFF36F8F4FF005
:1001C000000080F3118870470000000008480068B4
:1001D000006880F308884FF0000080F3148862B64E
:1001E00061B6BFF34F8FBFF36F8F00DF00BF00BF5B
:1001F00008ED00E0DFF80C00016841F470010160D7
:10020000704700BF88ED00E0EFF30980BFF36F8F08
:10021000134B1A681EF0100F08BF20ED108A20E95A
:10022000F04F106009B44FF0500080F31188BFF315
:100230004F8FBFF36F8F02F085FF4FF0000080F308
:10024000118809BC19680868B0E8F04F1EF0100F5B
:1002500008BFB0EC108A80F30988BFF36F8F704736
:10026000CC0A0020EFF30580704700000648804765
:1002700006480047FEE7FEE7FEE7FEE7FEE7FEE78B
:10028000FEE7FEE7FEE7FEE7F51B00089901000820
:100290002DE9F05F0546002092469B4688460646BB
:1002A000814640241BE0284641464746224600F04E
:1002B00069F853465A46C01A914110D31146184660
:1002C000224600F050F82D1A67EB01084F462246EF
:1002D0000120002100F047F817EB00094E41201ED5
:1002E000A4F10104DFDC484631462A464346BDE816
:1002F000F09F40EA01039B0703D009E008C9121FE1
:1003000008C0042AFAD203E011F8013B00F8013BCF
:10031000521EF9D27047D2B201E000F8012B491EFB
:10032000FBD270470022F6E710B513460A46044692
:100330001946FFF7F0FF204610BD30B50B460146C9
:1003400000202022012409E021FA02F59D4205D374
:1003500003FA02F5491B04FA02F52844151EA2F11E
:100360000102F1DC30BD202A04DB203A00FA02F160
:10037000002070479140C2F1200320FA03F3194393
:1003800090407047202A04DB203A21FA02F0002135
:10039000704721FA02F3D040C2F120029140084395
:1003A00019467047064C074D06E0E06840F001032F
:1003B00094E8070098471034AC42F6D3FFF7F0FEFC
:1003C000403800086038000870B58C1810F8015BE0
:1003D00015F0070301D110F8013B2A1106D110F8DE
:1003E000012B03E010F8016B01F8016B5B1EF9D1E2
:1003F0002B0705D40023521E0DD401F8013BFAE768
:1004000010F8013BCB1A921C03E013F8015B01F8D2
:10041000015B521EF9D5A142D8D3002070BDFEE782
:10042000704700002DE9F74FA8B04FF0000896463E
:100430008B468DF84B80404650211AAB13AC21AE51
:100440006A462154315403F8008002F800801518E0
:10045000401C85F81980C0B285F832801928F0D385
:10046000DFF8909104F80B8000254FF0010A00207E
:10047000195C11B9215C502903D1401CC0B2192864
:10048000F6D3411C08E05F5C2FB9675C14F800C02C
:10049000674500D20846491CC9B21929F3D303F8AD
:1004A00000A000215F5C8FB900EBC00707EB001CC8
:1004B00009EB8C0757F8217047B114F800C0674466
:1004C00014F801C0674501DA67547054491CC9B279
:1004D0001929E7D36D1CEDB2192DC8D3704602F16E
:1004E000190402F132030025002105EB850700BF46
:1004F00007EB010C844506D19DF84B703D559DF8E6
:100500004B50E95410E0042D06D1042904D11828D9
:1005100002D08DF84B8065E0491CC9B20529E7D3AC
:100520006D1CEDB2052DDFD39DF84B10192959D85C
:10053000192857D8305C491C8DF84B105845D2D13A
:100540000025002105EB85067718874206D19DF826
:100550004B0005559DF84B00C15407E0491CC9B23A
:100560000529F1D36D1CEDB2052DEAD3002135E04C
:100570005018447E837E9C4207D190F8325090F808
:100580003360B54201D102F801809C4207D190F856
:10059000325090F83360B54201D902F801A09C4274
:1005A00007D990F8325090F83360B54201D1022556
:1005B00055549C4207D190F8325090F83360B542C0
:1005C00001D2032555549C4206D210F8323F4078A0
:1005D000834201D104205054491CC9B29DF84B00FC
:1005E0008842C5D84C2269462898FFF782FE2BB076
:1005F000BDE8F08FF80000202DE9F0410446022606
:1006000077274FF03008F721304601F09DF980211F
:10061000042001F08CF880210A2001F000F900216B
:10062000012001F091F92178092001F08DF90C21C8
:10063000012001F089F980210D2001F0F0F84FF43C
:10064000FA65042001F0D7F86D1E2D0404462D0C28
:1006500004D0E00702D114EA080FF2D080210D2067
:1006600001F065F835B1062001F0C5F810F01B0F58
:1006700003D002263046BDE8F08100263C40E0076A
:10068000F8D00126F6E700002DE9F84F00224FF0E0
:10069000010803254FF00F0E0B6808FA02F42340FF
:1006A000A34271D14E68012E05D0022E03D0112E27
:1006B00001D0122E15D18668570005FA07FC26EAEC
:1006C0000C06D1F80CC00CFA07FC4CEA060CC0F87A
:1006D00008C04668A6430C79C4F300149440344320
:1006E0004460C668570005FA07FC8C6826EA0C06C9
:1006F000BC403443C4604C68022C01D0122C13D18E
:10070000D40800EB8404A346D4F8209054074FEAA1
:10071000D46A0EFA0AF629EA06090E6906FA0AF6FA
:1007200046EA0906CBF8206004680E7924EA0C0436
:1007300006F00306BE40264306604C68E40056D52A
:100740002E4C266846F480462660246822F0030674
:1007500004F4804400942A4C3444A446D4F8084855
:100760009607370F0EFA07F6B443264EB04201D172
:10077000002615E0244EB04201D1012610E0234EA0
:10078000B04202D102260BE031E0214EB04201D14D
:10079000032605E01F4EB04201D1042600E00726E3
:1007A000BE402643CCF808681B4E34684F689C4313
:1007B000FF0300D51C433460174E361D34684F6864
:1007C0009C43BF0300D51C433460134E0836346885
:1007D0004F689C43FF0200D51C4334600E4E0C361C
:1007E00034684F689C43BF0200D51C433460521CE0
:1007F000102AFFF451AFBDE8F88F000044380240E2
:1008000000300140000002400004024000080240A5
:10081000000C024000100240003C01400AB181611E
:1008200070470904FBE7000001488068704700003A
:10083000BC0A002002488168027811448160704738
:10084000BC0A00200B4810B5016841F4007101603A
:10085000016841F480610160016841F480710160C8
:10086000032000F08DF8002000F006F800F03EF8BC
:10087000002010BD003C024010B5014688B00022A7
:10088000192000F05DF8192000F04CF813480024FE
:10089000016841F400310160006805A900F40030EE
:1008A0000690684600F018F900F046F90C490D4A28
:1008B000B0FBF1F10C48491E026040F2E732C0E99A
:1008C0000324C0E9011400F08CFC10B1012008B031
:1008D00010BD054800F0A1FCF9E7000044380240D3
:1008E00040420F0000440140740E00200C4882B0CA
:1008F000016841F480410160006800F4804000908C
:100900000748001F016841F0805101600068002223
:1009100000F0805000900F21901E02B000F010B83F
:1009200044380240002809DB00F01F0201219140F9
:100930004009800000F1E020C0F80011704700007D
:10094000F0B40E4B1B680C46C3F30223C3F107053A
:10095000042D00D90425191D072901D2002300E028
:10096000DB1E012606FA05F1491E214099409E40F2
:10097000761E16403143F0BC01F0CABB0CED00E01E
:10098000064900F0070208684FF6FF03184040EAE6
:100990000220034A10430860704700000CED00E09D
:1009A0000000FA052DE9F0470E46050065D0DFF896
:1009B0001481D8F80000F7B200F00F00B04207D25F
:1009C00088F80070D8F8000000F00F00B04254D151
:1009D00028683D4C810712D5400703D5206840F4B4
:1009E000E05020602878000703D5206840F460407C
:1009F00020602068A96820F0F00008432060287873
:100A0000C0072DD0304968680839012812D0022863
:100A100013D0032811D00968890700292DDA21682D
:100A200021F0030101432160FFF7FEFE814641F200
:100A3000883A0EE009688903EFE709688901ECE765
:100A4000FFF7F2FEA0EB0901514502D90320BDE8F2
:100A5000F0872068696800F00C00B0EB810FEFD1DF
:100A6000D8F80010404601F00F01B14207D90770D5
:100A7000006800F00F00B04201D00120E7E72878BD
:100A8000400705D52068E96820F4E050084320605D
:100A90002878000706D52068296920F4604040EADC
:100AA000C100206000F058F82168084AC1F3031122
:100AB000515CC8400649086006480068FFF7DCFE44
:100AC0000020C4E7003C0240083802406C370008B0
:100AD000C80A0020C00A00200F2202600C4A1368D6
:100AE00003F003034360136803F0F00383601368AB
:100AF00003F4E053C36012684FF4E05303EAD202F8
:100B000002610448006800F00F00086070470000B0
:100B100008380240003C0240044805490068096862
:100B2000044AC1F38221515CC8407047C80A0020C2
:100B3000083802407C370008044805490068096805
:100B4000044AC1F34231515CC8407047C80A0020D2
:100B5000083802407C370008154810B5006810F0CE
:100B60000C02144813D04110042A0FD0082A0ED1C9
:100B70000F4C241F2268236802F03F025B0207D556
:100B80002068C0F38810A0FB010106E0084610BDF4
:100B90002168C1F38811A1FB00010023FFF778FB56
:100BA0002168C1F30141491C4900B0FBF1F010BDBF
:100BB000083802400024F4002DE9F84F040076D0F4
:100BC0002078DFF838A3CE4DC00749D0DAF80010FE
:100BD0005046C1F38101012908D00068C0F38100AB
:100BE00002280AD1281D0068400206D52868800323
:100BF00036D560680028E2D032E06068B0F5803F0A
:100C000010D0B0F5A02F286810D020F480302860D4
:100C1000286820F4802028606068A0B1FFF704FEF7
:100C200006460CE0286840F48030F4E740F4802069
:100C30002860F7E7FFF7F8FD801B642873D8286861
:100C40008003F7D50CE0FFF7EFFD064605E000BF97
:100C5000FFF7EAFD801B6428F0D828688003F7D4EA
:100C60002078DFF8A08280074FF000093ED5DAF83F
:100C70000010504611F00C0F09D00068C0F381003D
:100C800002280BD19D48001F0068400206D4286846
:100C9000800715D5E068012809D111E0E068B8B1F6
:100CA0000120C8F80000FFF7BFFD064605E020E17F
:100CB000FFF7BAFD801B0228C0D828688007F7D547
:100CC0002868216920F0F80040EAC10028600DE0A2
:100CD000C8F80090FFF7A8FD064604E0FFF7A4FD62
:100CE000801B02281FD828688007F7D420780007C7
:100CF00022D5824E844861696C3671B10121016050
:100D0000FFF792FD074604E0FFF78EFDC01B0228A7
:100D100009D830688007F7D50EE0C0F80090FFF7DB
:100D200083FD074605E082E0FFF77EFDC01B022839
:100D30007DD830688007F7D42078400768D5DFF881
:100D4000BCB100270BF1380BDBF80000C0000BD45E
:100D5000DBF8001041F08051CBF80010DBF8000008
:100D6000012700F080500090684E3068C00510D414
:100D7000306840F480703060FFF756FD009005E069
:100D8000FFF752FD0099401A022850D83068C0057C
:100D9000F6D55A4EA068683601280FD0052830686D
:100DA00010D020F001003060306820F00400306086
:100DB000A068B8B1FFF738FD00900FE0306840F050
:100DC0000100F4E740F004003060F7E7FFF72CFD86
:100DD0000099411A41F28830814266D83068800714
:100DE000F4D50EE0FFF720FD009007E0FFF71CFDB3
:100DF0000099411A41F28830814256D83068800704
:100E0000F4D42FB1DBF8001021F08051CBF80010A2
:100E1000A069D0B3DAF800205146C2F38102022A59
:100E20004AD00228484607D0C8F8600000E03CE0FD
:100E3000FFF7FAFC04463BE04746C8F86000FFF7BE
:100E4000F3FC064605E000BFFFF7EEFC801B02281E
:100E50002BD828688001F7D4D4E907010843A16A98
:100E60002B4A490802EB0141626A41EA82110843B8
:100E700094F82C1040EA01612048001F0160012015
:100E80003866FFF7D1FC044605E034E0FFF7CCFC00
:100E9000001B022809D828688001F7D52BE000BF85
:100EA000FFF7C2FC001B022802D90320BDE8F88F1F
:100EB00028688001F4D41EE00128F7D00868E269B0
:100EC00000F48001914214D1226A00F03F01914266
:100ED0000FD147F6C071626A0140914209D1A26AFE
:100EE00000F44031914204D1E16A00F07060884220
:100EF00001D00120DAE70020D8E7000008380240DE
:100F00000038024000004742800E47420070004017
:100F10000000FFFF70B5040005D00025A56294F81D
:100F2000510010B106E0012070BD84F850502046F9
:100F300000F030F8022084F851002068016821F0A8
:100F400040010160D4E901010843D4E903121143CF
:100F5000084361690843218B01F400710843E1698A
:100F60000843216A0843A16A084321680860A06910
:100F7000042101EA1040616A084321684860206842
:100F8000C16921F40061C1616565012084F85100E7
:100F9000002070BD10B586B0044614216846FFF7E6
:100FA000C1F913492068884220D112480021026803
:100FB00042F480520260006800F4805005900D48B1
:100FC0001438026842F001020260006800F001007B
:100FD0000590E02000900220CDE90101032003905C
:100FE0000520049069460448FFF74EFB06B010BD8B
:100FF0000030014044380240000002402DE9F84F23
:10100000044690F8500000270A9E1D4692468B46E3
:101010004FF0010901280ED0012084F85000FFF79D
:1010200003FC804694F85100616801280CD0B1F5AA
:10103000827F07D102E00220BDE8F88FA16809B9DC
:10104000042801D00227C2E0BBF1000F27D0BAF17B
:10105000000F24D01DB394F85100042802D00520BD
:1010600084F8510000206065C4F838A0E587A587A2
:10107000C4F830B0E586A586206460642068016805
:10108000490603D4016841F040010160E068B0F511
:10109000006F606805D0E8B3012D46D07FE00127DE
:1010A00095E008B1012D39D1206B21680088C86016
:1010B000206B801C2063E08E401EE0862EE02068BE
:1010C000816889070FD5E18E69B1B9F1010F0AD1A5
:1010D000216B0988C160206B801C2063E08E401E5C
:1010E000E0864FF0000920688168C9070CD0E18FC5
:1010F00051B1C068A16B0880A06B801CA063E08F19
:10110000401EE0874FF00109FFF78EFBA0EB0800BF
:10111000B04200E009E001D3701C50D1E08E0028FD
:10112000CDD1E08F0028CAD13FE0206B2168007844
:101130000873206B401C2063E08E401EE0862EE08A
:101140002068816889070FD5E18E69B1B9F1010F77
:101150000AD1216B09780173206B401C2063E08E5B
:10116000401EE0864FF0000920688168C9070CD056
:10117000E18F51B1C068A16B0870A06B401CA063E7
:10118000E08F401EE0874FF00109FFF74DFBA0EB19
:101190000800B04202D3701C01D010E07EB1E08E96
:1011A0000028CDD1E08F0028CAD1424631462046E2
:1011B00000F052FC28B101272020606507E00327DA
:1011C00005E0A06818B92068C16880680090012017
:1011D00084F85100002084F8500038462CE770470E
:1011E000704710B5040003D094F83D0010B107E03B
:1011F000012010BD002084F83C00204600F00CF8CF
:10120000022084F83D00211D206800F007FD012028
:1012100084F83D00002010BD70470168CA6842F0A4
:101220000102CA600068816801F00701062903D045
:10123000016841F00101016000207047704770B5FE
:101240000446006801694FF00005C943890715D4B9
:10125000C168C943890711D4E91E016101202077C3
:10126000206880698007204602D0FFF7E7FF04E08E
:1012700000F098F8204600F096F82577206801697C
:10128000C943490717D4C168C943490713D46FF04C
:1012900004010161022020772068806910F4407FFA
:1012A000204602D0FFF7CAFF04E000F07BF820469A
:1012B00000F079F8257720680169C943090716D439
:1012C000C168C943090712D46FF008010161042005
:1012D00020772068C0698007204602D0FFF7AEFF64
:1012E00004E000F05FF8204600F05DF82577206804
:1012F0000169C943C90617D4C168C943C90613D4D3
:101300006FF010010161082020772068C06910F497
:10131000407F204602D0FFF791FF04E000F042F842
:10132000204600F040F8257720680169C943C907C5
:1013300008D1C168C943C90704D1891E016120468B
:1013400000F032F820680169C943090609D4C16870
:10135000C943090605D46FF0800101612046FFF7FB
:101360003EFF20680169C943490609D4C168C943E1
:10137000490605D46FF040010161204600F01EF8D7
:1013800020680169C94389060BD4C168C94389062D
:1013900007D46FF0200101612046BDE87040FFF7DF
:1013A0001FBF70BD7047704700680349884201D174
:1013B000FFF740BA7047000000440140704770B525
:1013C000040004D094F83900002510B106E0012093
:1013D00070BD84F83850204600F022F8242084F8AC
:1013E00039002068C16821F40051C160204600F036
:1013F0007DFD2068016921F4904101612068416907
:1014000021F02A0141612068C16841F40051C160A6
:10141000E563202084F8390084F83A00002070BD8C
:1014200010B586B0044614216846FEF77BFF1349C9
:101430002068884220D11248016841F400310160DF
:10144000006800F4003005900D481038016841F044
:10145000010101600068694600F0010005900C2060
:1014600000900220019001200290032003900720A9
:1014700004900448FFF708F906B010BD004400408E
:1014800040380240000002402DE9F843044690F83D
:101490003A00994616460D46202852D1BDB1B6B144
:1014A00094F8380001284CD0012084F83800002737
:1014B000E763222084F83A002C34FFF7B5F924F8CA
:1014C000026B804624F80A6B04F8387931E0012079
:1014D000BDE8F883E08D401EE085A0684346B0F586
:1014E000805F4FF000024FF020012046CDF80090C1
:1014F00004D000F08FFD98B10320E9E700F08AFDE9
:101500000028F9D1206900282068406803D0C1B2C2
:1015100025F8011B0DE0C0F3080125F8021B08E0C7
:10152000206900282068406801D000F07F0005F89D
:10153000010BE08D0028CDD1202084F83A00002056
:10154000C6E70220C4E72DE9F843044690F83900C5
:101550001F4616460D46202850D1B5B1AEB194F8BD
:10156000380001284AD0012084F838004FF00008E4
:10157000C4F83C80212084F83900FFF755F9A6848F
:101580008146E68484F8388026E00120BDE8F883AF
:10159000E08C401EE084A0684B46B0F5805F4FF0C1
:1015A00000024FF080012046009703D000F032FD8A
:1015B000E8B90DE000F02EFDC8B928882168C0F315
:1015C00008004860206908B16D1C05E0AD1C03E00F
:1015D000216815F8010B4860E08C0028D8D14B46F3
:1015E000002240212046009700F014FD08B103209E
:1015F000CCE7202084F839000020C7E70220C5E7A7
:10160000FEE7000070B5114886B00024016841F083
:10161000080101600068142100F008000590684688
:10162000FEF780FE0A4E4FF47045002229463046F0
:10163000FFF7F4F801200095CDE901046946304632
:101640000394FFF721F806B070BD00003038024067
:10165000000C024010B5142000F0CDF8800705D131
:101660000321BDE81040142000F0D9B810BD7CB5AE
:101670000446002529460D2000F066F993202070CD
:101680002020607001A823460090022219460C20F9
:1016900000F0D1F8010009D1225C401C5540C0B2D5
:1016A0000428F9D3205CA84200D0022108467CBD62
:1016B0002DE9F0410E46074615460421052000F0AD
:1016C00036F880210A2000F0AAF8002405E0395DF0
:1016D000092000F039F9641CE4B2B442F7D30321C5
:1016E000012000F031F90A24052000F084F8641E7E
:1016F00014F0FF0401D04007F6D5222000F07BF85B
:101700002870212000F077F86870BDE8F08170B58E
:1017100005460146262000F075F8040003D128464E
:10172000FFF7A5FF044600F00EF8204670BD70B527
:101730000C46054600F05FF820EA04012846BDE8A3
:10174000704000F001B938B550208DF8000000203D
:101750006D468DF8010002212846AA1CFFF7A8FF5C
:10176000F721022000F0F0F880210420FFF7DFFFCE
:1017700080210A2000F053F80021012000F0E4F855
:1017800000240920295D00F0DFF8641CE4B2042C79
:10179000F7D30C21012000F0D7F880210D2000F0B4
:1017A0003EF880210D20FFF7C2FF38BD10B500F0D4
:1017B000EDF800F030F88D212A2000F0C5F83E2128
:1017C0002B2000F0C1F81E212D2000F0BDF80021D3
:1017D0002C2000F0B9F87021262000F0B5F8402147
:1017E000152000F0B1F83D21112000F0ADF8BDE862
:1017F0001040FFF72FBF7E2101EA400040F080003B
:1018000000F0FAB813B507210D2000F09DF86846E6
:10181000FEF7F2FE1CBD0F21012000F095B870B557
:101820000C460546FFF7E7FF40EA04012846BDE8FD
:10183000704000F089B82DE9FF5F00270226DDF82F
:1018400038A015468B468146B8460C2805D0B9F11C
:101850000E0F05D11227102001E077273020804697
:1018600047F08001022000F06FF880210420FFF78C
:101870005EFF80210A20FFF7D2FF0021012000F047
:1018800063F8002406E01BF80410092000F05CF85F
:10189000641CA4B2AC42F6D34946012000F054F8CF
:1018A000B9F10C0F03D180210D20FFF7B8FF0A25F5
:1018B0000420FFF7A0FF6D1E2D0404462D0C04D05C
:1018C000E00702D114EA080FF2D080210D20FFF7C3
:1018D0002EFF35B10620FFF78EFF10F01B0F04D04E
:1018E000022604B03046BDE8F09F00263C40E007E9
:1018F00000D00126B9F10C0FF3D10A20FFF77BFFCE
:1019000004460C20FFF777FF10F007004FEAC401F0
:1019100004D008390844AAF8000001E0AAF8001031
:1019200024B1102C04D91024002503E00124FBE786
:10193000002506E00920FFF75EFF039948556D1C5E
:10194000ADB2A542F6D3CCE77E2202EA400000F019
:101950006BB800000B480A494FF4007201604FF465
:101960008271416000218160C1600161C0E905129E
:10197000C1610162416281620A21C162FFF7CABA94
:10198000003001402C0B0020FEE7704710B586B0F8
:1019900014216846FEF7C6FC0D48016841F00101BC
:1019A000016000680B4C00F001000590002210213E
:1019B0002046FEF733FF10200121CDE9000103206E
:1019C000CDE9021069462046FEF75EFE06B010BD66
:1019D00030380240000002400EB501238DF80400AB
:1019E0000A20009002AA01A90248FFF707FB9DF810
:1019F00008000EBD2C0B002070B50A4D04460022D5
:101A000010212846FEF70AFF2046FFF7E5FF0020D9
:101A1000FFF7E2FF0446012210212846FEF7FEFEF2
:101A2000204670BD0000024070B50A4C0E460546C7
:101A3000002210212046FEF7F1FE2846FFF7CCFFDA
:101A40003046FFF7C9FF2046BDE870400122102153
:101A5000FEF7E4BE0000024038B504461248134BBE
:101A60000068B0FBF3F04FF47A735843009060685D
:101A7000B0F5827F0DD10B460092002280212046D6
:101A800000F016F870B1606D40F020006065032032
:101A900038BD009830B1401E009020688068C04377
:101AA0000006F6D5002038BDC80A002000366E01B9
:101AB0002DE9F0411D4617460E460446DDF8188014
:101AC00008E0681C06D0FEF7AFFEA0EB0800A842B5
:101AD0000BD255B12068806836EA000030D0002073
:101AE000B842EED10020BDE8F0812068416821F0C5
:101AF000E00141606068B0F5827F0BD1A068B0F56D
:101B0000004F02D0B0F5806F04D12068016821F049
:101B100040010160A06AB0F5005F09D1206801684A
:101B200021F4005101602068016841F40051016016
:101B3000012084F85100002084F850000320D2E7EF
:101B40000120CDE710B5502080F31188BFF34F8FEF
:101B5000BFF36F8F01F092FC18B104494FF0805031
:101B60000860002080F3118810BD000004ED00E043
:101B700030B593B030216846FEF7D4FB14210CA891
:101B8000FEF7D0FB19480024016841F08051016044
:101B9000006800F0805011901548016841F4404100
:101BA00001600068022500F440401190012000907F
:101BB0004FF4A02001906805CDE906500420C02113
:101BC000CDE908010A9008200B906846FEF7F4FF63
:101BD0000F20CDE90C05E802CDE90E4003210CA849
:101BE0001094FEF7DFFE13B030BD00004038024015
:101BF000007000400548016841F47001016003492C
:101C00004FF00060803908607047000088ED00E008
:101C10000148FFF714BB0000740E0020F0B5026805
:101C20001D4B1E4C9F031E4D1E4E984207D0B842BE
:101C300005D0A04203D0A84201D0B04204D122F086
:101C4000700C4A6842EA0C02984210D0B8420ED09A
:101C5000A0420CD0A8420AD0B04208D0124CA042F8
:101C600005D0124CA04202D0114CA04203D122F464
:101C70004074CA6822434C6922F080022243026009
:101C80008A68C2620A688262984201D10969016366
:101C900001214161F0BD000000000140000400404E
:101CA00000080040000C004000400140004401409A
:101CB000004801401CB5124E00246D466846FFF7EF
:101CC00026FD40B100202C54401C0528FBDB64207D
:101CD00001F038F9F2E79DF80030C6E90A342046F1
:101CE00001210246120242EA13626F5C1B02FB18DA
:101CF0004241491C0529F5DBC6E90A32E7E7000045
:101D000000000020124D2C46A8782E2806D0012372
:101D100003220F490F48FFF7B7FBF5E70020C4E99E
:101D20000A000C480CA18C3000F0DEF909490123AF
:101D30001A468C310748FFF706FCE06801F028F9E5
:101D4000206901F025F9606801F096F9DCE70000F0
:101D500000000020840B002031000000DFF86091BB
:101D6000584CA9F1300504F1190704F132064FF07F
:101D7000000AAB4694F84B00192818D3FF2816D058
:101D80008BF802A0E86801F077F9286901F074F98E
:101D9000686901F071F9A86901F06EF9E86901F06C
:101DA0006BF9286A01F068F9C82107206EE0215C10
:101DB00001290BD002291ED003293ED0042944D08A
:101DC000FF284DD0401E84F84B0074E0686901F094
:101DD000DFF8A86935E03B483BA14C3000F084F9BE
:101DE000384901234C310322A1F18C00FFF7ABFBF2
:101DF00094F84B00E6E7286A01F0CAF8A86901F0F8
:101E00003BF9E86901F038F9D5F8140001F034F92C
:101E100094F84B00C25D02EB820309EBC301835DC2
:101E200001EBC300D0E9001CD5E90A08484088EA64
:101E30000C0850EA0800CED03DE0A86901F0A8F8EF
:101E4000686901F019F9E86906E0E86901F0A0F8AD
:101E5000A86901F011F9686901F00EF9286AD5E75F
:101E60008BF802A0E86801F007F9286901F004F98D
:101E7000686901F001F9A86901F0FEF8E86901F06C
:101E8000FBF8286A01F0F8F814210F2000F060FA3E
:101E90000C480FA14C3000F027F90A4901234C31BE
:101EA0001A46A1F18C00FFF74EFB686801F070F84C
:101EB000686A01F0E1F8642000F0EEFC5AE70000E7
:101EC00030000020C40B002025643A256400000087
:101ED0003000000000F04CFBFCE700F0ADFBFCE73D
:101EE00000F012FCFCE700F073FCFCE72DE9F04188
:101EF000044600680169E26821F440511143016120
:101F00002169A068E26908436169114308432168B7
:101F1000CA6849F20C639A430243CA602068416967
:101F2000A26921F4407111434161E06919276425D8
:101F30003226B0F5004F354A354920684FF0000889
:101F400006D0884201D0904236D1FEF7F5FD35E04B
:101F5000884201D0904202D1FEF7EEFD01E0FEF78B
:101F6000DBFD61684A18A0FB070148EB0803FEF798
:101F70008FF90146B0FBF5F00201B1FBF5F06FF00F
:101F80001803584301EB800006EBC000B0FBF5F0EE
:101F900000F0F80002EB4002B1FBF5F0584301EB12
:101FA000800006EBC000B0FBF5F000F007002168F0
:101FB00010448860BDE8F081FEF7AEFD61688B0FCC
:101FC0008A00A0FB0701FEF763F90146B0FBF5F0BC
:101FD0006FF01802504301EB800006EB0010B0FBDD
:101FE000F5F000F0F002B1FBF5F002EB0012B1FBEE
:101FF000F5F06FF01803584301EB800006EB00107A
:10200000B0FBF5F000F00F00D1E700000014014034
:10201000001001402DE9F041984617460E4604464F
:10202000069D1DE0681C1BD02DB1FEF7FDFBA0EB4B
:102030000800A84214D92068C16821F4D071C16099
:102040002068416921F001014161202084F83900B4
:1020500084F83A00002084F838000320BDE8F081BD
:102060002068006836EA000004D00020B842D9D0C9
:102070000020F3E70120F9E7FEE70000F0B587B0A4
:1020800014216846FEF74EF915480024016841F016
:10209000100101600068134F00F010004FF4F0458C
:1020A0000590224629463846FEF7B8FB2E1100223D
:1020B00031463846FEF7B2FB00950125CDE90154C3
:1020C000694638460394FEF7DFFA0096CDE90154DD
:1020D000694638460394FEF7D7FA07B0F0BD000012
:1020E00030380240001002400FB4084B10B504A96C
:1020F00002AA039800F02CF8044602A9002000F080
:10210000D1F8204610BC5DF814FB0000A5220008A1
:102110000907090E002804DB00F1E02080F8001414
:10212000704700F00F0000F1E02080F8141D7047A8
:1021300002E008C8121F08C1002AFAD17047704790
:10214000002001E001C1121F002AFBD170470000EE
:102150002DE9FF4F89B09B460446002506E025285F
:102160000BD05A460B999047641C6D1C20780028B0
:10217000F5D10DB02846BDE8F08F0027B846012202
:10218000474900E0074314F8013F203B02FA03F0FF
:102190000842F7D120782E2819D114F8010F47F002
:1021A00004072A280ED06FF02F022078A0F130010A
:1021B00009290CD808EB880102EB410100EB01086A
:1021C000641CF2E70A98641C50F8048B0A9020788B
:1021D0000028CED0642808D0692806D075281ED0E3
:1021E0005A460B9990476D1C58E00A994FF00A091E
:1021F00001C90A91002802DA40422D2102E0390586
:1022000004D52B218DF82010012103E0F90704D01B
:102210002021F7E78A4608AE0DE00021FAE70A9987
:102220004FF00A0901C90A91F7E74946FEF785F818
:10223000303106F8011D0028F7D1ADEB060000F1A2
:102240002009780701D44FF00108C84502DDA8EB4A
:10225000090000E000208046002706E008A85A4652
:10226000C05D0B9990476D1C7F1C5745F6DB04E061
:1022700030205A460B9990476D1CB8F10001A8F127
:102280000108F5DC05E016F8010B5A460B9990475A
:102290006D1CB9F10001A9F10109F4DC641C65E7CA
:1022A000092801000A68531C0B6010707047000079
:1022B00094B0DFF88C90A9F13006002505EB850875
:1022C000002409EBC80700BF07EBC400D0E90023D6
:1022D000D6E90A0150405940084328D123462A46EE
:1022E00018A11A48FFF700FF184901230322A1F1A2
:1022F0008C00FFF728F912483038417800783038E0
:1023000000EB800030380844C2B208EB0400C1B2D0
:102310006846FEF787F80D484C2269464C38FDF7B1
:10232000E8FF706A00F034FE306900F0A5FE641C1E
:10233000E4B2052CC8D36D1CEDB2052DBED3BCE7AD
:102340003000002025643A2564000000100C0020B5
:102350002DE9F04188460546002446E00122254F3C
:10236000560331463846FEF759FA404600F094FAD3
:10237000002231463846FEF751FA404600F08CFA0A
:102380000122160331463846FEF748FA404600F06F
:1023900083FA002231463846FEF740FA404600F004
:1023A0007BFA0122960331463846FEF737FA40465B
:1023B00000F072FA002231463846FEF72FFA404606
:1023C00000F06AFA0122D60331463846FEF726FAB3
:1023D000404600F061FA002231463846FEF71EFA08
:1023E000404600F059FA641CE4B2AC42B6D3BDE8F2
:1023F000F0810000000C024010B5BCB0FEF722FADC
:10240000FFF7B6FBFFF7A6FA50484F490C220160D0
:102410004FF41651416000218160C160C0E904128F
:102420008161C161FEF7CBFFFFF7C0F9FFF7EAF862
:10243000FFF724FE464B38AC0FCB84E80F00002199
:1024400038A800F035FA434C41491C22A0601031F5
:102450006846FDF74EFF0021684600F03CFA3C4913
:1024600060601C222C3107A8FDF743FF002107A85C
:1024700000F031FA3649E0601C2248310EA8FDF721
:1024800038FF00210EA800F026FA314920611C22F5
:10249000643115A8FDF72DFF002115A800F01BFAE7
:1024A0002B4960611C2280311CA8FDF722FF00210E
:1024B0001CA800F010FA2649A0611C229C3123A818
:1024C000FDF717FF002123A800F005FA2049E0617D
:1024D0001C22B8312AA8FDF70CFF00212AA800F021
:1024E000FAF91B4920621C22D43131A8FDF701FF03
:1024F000002131A800F0EFF96062144816A18C3079
:10250000FFF7F2FD1149012308228C310F48FFF734
:102510001AF8E06800F0B0FD206900F0ADFD606AD7
:1025200000F0AAFD606900F0A7FDA06900F0A4FD1D
:10253000E06900F0A1FD206A00F09EFD00F0B3F913
:102540003CB0002010BD000000440040840B00207F
:102550007C3600080000002048454C4C4F212121CA
:102560000000000001460020842900D0C81C7047EC
:102570002DE9F0412E4D4FF400540022214628460B
:10258000FEF74CF96610002231462846FEF746F960
:102590006700002239462846FEF740F90122D103A0
:1025A0002846FEF73BF9234D0122D1022846FEF7CB
:1025B00035F9002231462846FEF730F9012221463E
:1025C0002846FEF72BF9002239462846FEF726F961
:1025D000012280212846FEF721F90122140221461A
:1025E0002846FEF71BF90122560231462846FEF71F
:1025F00015F90122970239462846FEF70FF9002205
:1026000080212846FEF70AF9002221462846FEF7D7
:1026100005F9002231462846FEF700F90022394626
:102620002846FEF7FBF8BDE8F041012000F034B980
:10263000000C0240001002402DE9F047304C00220F
:102640004FF400612046FEF7E9F801221503294600
:102650002046FEF7E3F86E00002231462046FEF7E2
:10266000DDF80122970339462046FEF7D7F801220C
:1026700080212046FEF7D2F84FF4807801224146AF
:102680002046FEF7CBF84FF4007901224946204658
:10269000FEF7C4F84FF4806A012251462046FEF747
:1026A000BDF83146174E01223046FEF7B7F800223A
:1026B00029463046FEF7B2F8002239463046FEF78A
:1026C000ADF80022E9003046FEF7A8F8002280218C
:1026D0002046FEF7A3F8002241462046FEF79EF86A
:1026E000002249462046FEF799F80022514620462E
:1026F000FEF794F8BDE8F047012000F0CDB80000E7
:1027000000100240000C02402DE9F0412E4D4FF424
:102710000054002221462846FEF780F801221603C5
:1027200031462846FEF77AF86700002239462846E7
:10273000FEF774F80022A1002846FEF76FF8234D3B
:102740000122D1022846FEF769F8012231462846C7
:10275000FEF764F8002221462846FEF75FF80022C3
:1027600039462846FEF75AF8012280212846FEF70E
:1027700055F80122140221462846FEF74FF801229F
:10278000560231462846FEF749F80122970239469B
:102790002846FEF743F8002280212846FEF73EF83F
:1027A000002221462846FEF739F800223146284605
:1027B000FEF734F8002239462846FEF72FF8BDE828
:1027C000F041012000F068B8000C02400010024007
:1027D0002DE9F0412E4D4FF40054002221462846A9
:1027E000FEF71CF86610002231462846FEF716F860
:1027F0000122970339462846FEF710F80022A1006F
:102800002846FEF70BF8234D0022A1102846FEF7BC
:1028100005F8002231462846FEF700F8012221463D
:102820002846FDF7FBFF012239462846FDF7F6FF53
:10283000012280212846FDF7F1FF012214022146E2
:102840002846FDF7EBFF0122560231462846FDF7E8
:10285000E5FF0122970239462846FDF7DFFF0022F7
:1028600080212846FDF7DAFF002221462846FDF7A1
:10287000D5FF002231462846FDF7D0FF0022394619
:102880002846FDF7CBFFBDE8F041012000F004B879
:10289000000C02400010024010B500B9012000F009
:1028A00051FB002010BD10B500F0B0FB002010BDA2
:1028B00038B5D0E9011204683AB1C3682BB10020E1
:1028C0000090204600F00AFD38BD2046BDE83840A3
:1028D000002200F0DFBC7FB50D4604464169B0F927
:1028E000080081B1A16971B1FFF73CFED4E905127E
:1028F0008DE80700D4E900102B46226900F093FD13
:10290000039004B070BDFFF72DFE03A9CDE90001CF
:10291000208A2B4682B2D4E9001000F057FD01282E
:1029200001D00020EDE70398EBE700002DE9F0412E
:10293000184C0F46054666692068001D00F03EFAF7
:1029400038B9206890F82C1001208840A169814393
:10295000A161681C07D137B12168BDE8F0410E487C
:10296000091D00F06FBA20683544B5424560216802
:1029700005D2A068BDE8F041091D00F04BBA6068BF
:10298000091D00F047FA206B854200D22563BDE89F
:10299000F0810000CC0A0020900F00202DE9F041CA
:1029A000054600F05BFA2E4C2069401C206120682F
:1029B0002C4F10B1E06940B32DE02560206901285B
:1029C00029D1002606EB860007EB800000F014FA00
:1029D000761C072EF6D323488C3000F00DFA2148E0
:1029E000A03000F009FA1F48B43000F005FA1D4885
:1029F000C83000F001FA1B48DC3000F0FDF919483E
:102A00008C3060601430A06005E02068E96AC06A1C
:102A1000884200D82560E06A401CE062E96A012033
:102A2000A26988401043A06101EB810007EB8000A0
:102A3000291D00F007FA00F031FAE06900280CD0F7
:102A40002068E96AC06A884207D207494FF080507F
:102A50000860BFF34F8FBFF36F8FBDE8F0810000B8
:102A6000CC0A0020B40E002004ED00E010B50446AE
:102A700090F8510058B101280CD002280FD05020F6
:102A800080F31188BFF34F8FBFF36F8FFEE7206B8A
:102A900000F018FA2046BDE8104000F013BA10BD4F
:102AA00010484FF47051420706D0C01D0D4920F068
:102AB0000700411AC1F570510B4A00230144C2E9D5
:102AC00000030839103A21F0070111604B600B60D8
:102AD0000B1AC0E9001393604FF000405360D060C0
:102AE00070470000A40F0020180B0020144E154C56
:102AF000A6F1C8074FF08058DFF84C9012E000BFF5
:102B000000F0ACF9F068C568281D00F057F920699D
:102B1000401E2061E068401EE06000F0BFF92846DA
:102B2000FFF7A4FFE0680028EAD138680128F9D946
:102B3000C9F80080BFF34F8FBFF36F8FF2E700003B
:102B40007C0F0020CC0A002004ED00E00346009832
:102B500029B10260C0E90F31012100F0F3BB006030
:102B6000F8E72DE9F0479A46DDE9098481466FF0E0
:102B70000303206B03EB82021044089D20F007063C
:102B8000700707D0502080F31188BFF34F8FBFF339
:102B90006F8FFEE723180A5C83F834200A5C12B1B9
:102BA000401C1028F6D3002784F84370072D00D36B
:102BB0000625E562C4E91157201D00F028F904F14B
:102BC000180000F024F92461C5F107006462A061D7
:102BD000E76484F8507052464946304600F0D8F811
:102BE0002060B8F1000F01D0C8F80040BDE8F087C0
:102BF00030B5114900E011460A688242FBD34B68A8
:102C00005C18844203D14068184448600846436811
:102C10001C18944209D1084C103C2468A24209D0E7
:102C200052681A4442600A6812680260814200D009
:102C3000086030BD0460F9E7180B002006484168C1
:102C4000096829B14168C968C96849680163704762
:102C50004FF0FF31FAE70000CC0A00200848406836
:102C6000401C4FF0500080F3118804D0BFF34F8F09
:102C7000BFF36F8FFEE7BFF34F8FBFF36F8FFEE79A
:102C8000200B0020002150B10A4B42699A420FD11B
:102C9000806AA3F1280290420AD040B108E0502097
:102CA00080F31188BFF34F8FBFF36F8FFEE70121D1
:102CB00008467047900F00202DE9F0410546002797
:102CC00000F038FA314E306808B9FFF7E9FEF068D5
:102CD00005424BD1C5B3083568070ED005F0070093
:102CE000C0F108000544680707D0502080F3118820
:102CF000BFF34F8FBFF36F8FFEE72DB37068854230
:102D000034D82248103001460C6801E020460C46B9
:102D10006168A94202D221680029F7D131688C424A
:102D200024D007682168016060680837411B1029BA
:102D30000FD96019420708D0502080F31188BFF3E3
:102D40004F8FBFF36F8FFEE710E041606560FFF7C4
:102D50004FFF61687068401A7060B268904200D29C
:102D6000B060F06801430020C4E9000100F024FCD9
:102D7000780707D0502080F31188BFF34F8FBFF33F
:102D80006F8FFEE73846BDE8F0810000080B002099
:102D900010B5031F4FF080741C601B1F21F0010150
:102DA0001960191F044B0B6014390A60091F6FF07A
:102DB000020244380A6010BD5D2C0008D0E90132DF
:102DC00001699A60D0E901235A604A68824201D1C0
:102DD00082684A60002202610868401E0860086834
:102DE00070470000034B036003F15400086080202B
:102DF00010607047200C002000F108014FF0FF32F6
:102E0000C0E90112C1600161002101607047002129
:102E10000161704730B50B685A1C02D000F10802FE
:102E200002E0026904E02246546825689D42FAD90E
:102E300053684B6099608A60516008610168491C61
:102E4000016030BD42684A6093688B609368596046
:102E5000916008610168491C01607047502080F34F
:102E60001188BFF34F8FBFF36F8F0A494868401C2A
:102E7000486001280CD10848006810F0FF0F07D007
:102E8000502080F31188BFF34F8FBFF36F8FFEE7A1
:102E900070470000200B002004ED00E0084948685E
:102EA00028B1401E486001D180F31188704750203E
:102EB00080F31188BFF34F8FBFF36F8FFEE70000E1
:102EC000200B002070B5002827D0144DA0F1080475
:102ED0006168E868014207D1502080F31188BFF390
:102EE0004F8FBFF36F8FFEE722683AB1502080F317
:102EF0001188BFF34F8FBFF36F8FFEE7814361608F
:102F000000F018F960686968084468602046FFF7B7
:102F10006FFEBDE8704000F04FBB70BD080B002095
:102F20004FF0E02000210161816105494FF47A7280
:102F30000968B1FBF2F1491E416107210161704747
:102F4000C80A002010B5020014D00F48806B38B1B9
:102F5000502080F31188BFF34F8FBFF36F8FFEE7D0
:102F600000F0E8F800211046FFF7E0FC00F024FB39
:102F7000002807D105494FF080500860BFF34F8FFC
:102F8000BFF36F8F10BD0000CC0A002004ED00E0FD
:102F900070B504002BD01A4D286884422FD0FFF75B
:102FA0005DFF2046FFF76EFEE8B1201DFFF706FF2C
:102FB000E06A0121AA6981401143A961114900EB2E
:102FC000800001EB8000211DFFF73CFFE06A2968CB
:102FD000C96A884207D30C494FF080500860BFF39C
:102FE0004F8FBFF36F8FBDE87040FFF757BF502082
:102FF00080F31188BFF34F8FBFF36F8FFEE770BD73
:10300000CC0A0020B40E002004ED00E010B586B01C
:103010000024039405AA04A903A80494FFF7E2FE80
:10302000DDE903010094CDE9011000230EA1104851
:10303000059A00F0F8F90F490028486311D0502094
:1030400080F31188BFF34F8FBFF36F8F4FF0FF30C6
:1030500008630120C8614C6106B0BDE8104000F073
:103060009FB806B010BD000049444C450000000068
:10307000ED2A0008CC0A002070B50446FFF7EEFEEA
:10308000294D04B92C68201DFFF798FE58B9E06A55
:10309000264A00EB800152F8211021B9012181401C
:1030A000A8698843A861A06A18B104F11800FFF765
:1030B00085FE1E48211DDC30FFF7C4FE94F8500049
:1030C0000026012801D184F85060FFF7E7FEE86987
:1030D00028B1FFF7C3FEFFF7B1FDFFF7DFFE286859
:1030E000844213D1E86990B1A86B38B1502080F3C5
:1030F0001188BFF34F8FBFF36F8FFEE70C494FF07E
:1031000080500860BFF34F8FBFF36F8F70BD0748CB
:10311000DC3000682969884201D12E6070BDBDE8AD
:10312000704000F00FB80000CC0A0020B40E002060
:1031300004ED00E00248816B491C81637047000088
:10314000CC0A00201448816B11B101214162704703
:10315000002141628169B1FA81F1C1F11F0101EBE6
:1031600081020E4951F822306BB101EB820101F16D
:1031700008034A6852684A609A4201D152684A601C
:10318000D16801607047502080F31188BFF34F8FE2
:10319000BFF36F8FFEE70000CC0A0020B40E0020C2
:1031A0001CB537480168374A914207D1502080F357
:1031B0001188BFF34F8FBFF36F8FFEE7006831496F
:1031C000491E884207D1502080F31188BFF34F8FEA
:1031D000BFF36F8FFEE72C4908780190FF2008703D
:1031E00008788DF800009DF800009DF8002000F0A0
:1031F000F000904207D0502080F31188BFF34F8F2A
:10320000BFF36F8FFEE79DF80000204B00F05000E9
:1032100018700720986005E09DF8002052008DF896
:103220000020401E9DF800201206F5D49860032867
:1032300007D0502080F31188BFF34F8FBFF36F8FFB
:10324000FEE74FF440709860019808700C482030F9
:10325000016841F470010160016841F07041016052
:10326000FFF75EFE00205860FCF7C4FF08480168C5
:1032700041F040410160FCF7A9FF00201CBD0000A7
:1032800000ED00E071C20F4100E400E0200B0020DF
:1032900034EF00E0F8B517460E46050014D0DEB155
:1032A00005FB06F04830FFF707FD04000AD00020B8
:1032B00084F8460004F148023B4631462846009413
:1032C000FFF744FC2046F8BD502080F31188BFF37F
:1032D0004F8FBFF36F8FFEE70020E3E738B5049D03
:1032E00018B153B1CAB181B120E0502080F31188E8
:1032F000BFF34F8FBFF36F8FFEE7502080F311882D
:10330000BFF34F8FBFF36F8FFEE7502080F311881C
:10331000BFF34F8FBFF36F8FFEE739B1502080F3BB
:103320001188BFF34F8FBFF36F8FFEE748241C4611
:10333000012384F846302B460094FFF707FC204613
:1033400038BD000070B50D46040025D0FFF786FD9E
:10335000D4E90F20216802FB001161600021A16304
:103360002168A1600A46D4E90F01401E00FB01213B
:10337000E16021464FF0FF3001F8440F487004F13E
:1033800010008DB1FFF738FD04F12400FFF734FD84
:10339000FFF784FD012070BD502080F31188BFF33A
:1033A0004F8FBFF36F8FFEE721690029F0D000F047
:1033B000C9F80028ECD004494FF080500860BFF3F2
:1033C0004F8FBFF36F8FE3E704ED00E02DE9FF5F60
:1033D0008346DDE90E87994616468A469000FFF738
:1033E0006BFC05001CD05420FFF766FC040014D0D1
:1033F0000020256384F85100CDE90240CDE9008723
:103400004B46324651465846FFF7ABFB2046FFF786
:10341000C5FA012004B0BDE8F09F2846FFF752FD31
:103420004FF0FF30F6E7F0B585B0DDE90B640A9D9B
:10343000A6B1DCB1542700972663022684F85160B8
:10344000002604AFCDE90246CDE90057FFF789FB1E
:103450002046FFF7A3FA049805B0F0BD502080F392
:103460001188BFF34F8FBFF36F8FFEE7502080F3BB
:103470001188BFF34F8FBFF36F8FFEE72DE9F04147
:103480002E4C0027A06B40B1206A401C2062606A6D
:1034900000B101273846BDE8F0816669761C666197
:1034A00013D16068006838B1502080F31188BFF3F1
:1034B0004F8FBFF36F8FFEE76068A1686160A06007
:1034C000A06A401CA062FFF7B9FB206BDFF8708098
:1034D000864209D36068006880B16068C068C568CA
:1034E000686886420DD220632068C06A00EB8001C4
:1034F00058F821000128CAD90127C8E74FF0FF304A
:10350000F1E7281DFFF75AFCA86A18B105F1180069
:10351000FFF754FCE86A0121A26981401143A161CF
:1035200000EB800108EB8100291DFFF78BFCE86AA6
:103530002168C96A8842CDD30127CBE7CC0A002095
:10354000B40E00202DE9F041C068C468ACB104F1AC
:1035500018000746FFF732FC154DA86B0126A0B1F5
:1035600039461448FFF76EFCE06A2968C96A884248
:103570001CD901206E62BDE8F081502080F31188D3
:10358000BFF34F8FBFF36F8FFEE7201DFFF716FCD1
:10359000E16AAA6906FA01F01043A86101EB810013
:1035A0000449B43901EB8000211DDBE70020E2E78C
:1035B000CC0A0020680F00202DE9F0472C4D002494
:1035C0002746A86B38B1FFF749FCA86B401EA863DB
:1035D000A86B40B146E0502080F31188BFF34F8FB5
:1035E000BFF36F8FFEE72969224E0120D1B3A6F108
:1035F000B40980463068E8B1F068C46804F1180086
:10360000FFF7DCFB201DFFF7D9FBE06AAA6908FA87
:1036100000F11143A96100EB800109EB8100211D3C
:10362000FFF710FCE06A2968C96A8842E2D3C5F84E
:103630002480DFE70CB1FFF701FB2C6A44B146465A
:10364000FFF71CFF00B16E62641EF9D100202862F2
:10365000686A38B10849012738070860BFF34F8FFF
:10366000BFF36F8FFFF71AFC3846BDE8F087000004
:10367000CC0A0020680F002004ED00E00A000000E2
:1036800001000000000000000000000030380008C9
:10369000051D000800000000000000008000000080
:1036A000000000000000000084370008B51C00087E
:1036B0000200000000000000F40100000000000013
:1036C000000000009C370008B12200080000000044
:1036D000000000008000000000000000000000006A
:1036E000D0370008DB1E00080300000000000000C7
:1036F000800000000000000000000000B837000853
:10370000D51E00080300000000000000800000003B
:103710000000000000000000F8370008E11E00086B
:103720000300000000000000800000000000000016
:103730000000000014380008E71E00080300000025
:1037400000000000800000000000000000000000F9
:10375000E83700085D1D00080200000000000000BE
:1037600080000000000000000000000000000000D9
:103770000000000001020304060708090000000021
:10378000010203045461736B5F436865636B5F52AE
:103790004649445F6E616D650000000063616C63C3
:1037A000756C61746F725F44696A6B737472615F88
:1037B0006E616D65000000005461736B6D6F76651E
:1037C0004261636B776172645F6E616D65000000DA
:1037D0005461736B6D6F7665466F72776172645F6B
:1037E0006E616D65000000005461736B6D6F7665EE
:1037F0005F6E616D650000005461736B6D6F76657F
:1038000053696465776179734C6566745F6E616D49
:10381000650000005461736B6D6F76655369646574
:103820007761797352696768745F6E616D650000D6
:103830005461736B5F556172745F6E616D650000FA
:1038400060380008000000202C0B0000C8030008AE
:103850003C3900082C0B00207C440000402100086B
:10386000022F0136FF816FC8D93EB082AEA5391054
:103870002B94D3083663826A32B9364A816D8F2918
:10388000362D81BB6E7936D8826C2F193E728267D5
:103890005EC9102BDC9F1036A63E0B44D736B83BD2
:1038A000DDC799363E3588F47736873D0825972D54
:1038B00019436E8D5036AD886F23692D5181AB52FF
:1038C0005836848194D849362482622DE946C383D0
:1038D000C6DF592C8181692836BC82CAFD092D5D5D
:1038E00082CA8C583658826D1EA936E63E0EC11724
:1038F000762EC50D6F89E9FCE91001406950096613
:103900006809261801F80A250118091628093668D9
:1039100069100966680926F801F80A2D0118094698
:1039200068691009666801FF01FF01FF01FF01E4FA
:0C39300032018210035924F41AAA01414C
:040000050800019955
:00000001FF
