:020000040800F2
:10000000204900206D020008CF260008FD220008CC
:10001000CD2600083B040008C9310008000000009C
:10002000000000000000000000000000AD0100081A
:10003000590C000800000000090200088928000887
:10004000870200088702000887020008870200086C
:10005000870200088702000887020008870200085C
:10006000870200088702000887020008870200084C
:10007000870200088702000887020008870200083C
:100080009D0B0008A90B0008870200080000000073
:1000900000000000000000000000000087020008CF
:1000A000870200088702000887020008870200080C
:1000B0008702000887020008552900088702000807
:1000C00087020008870200088702000887020008EC
:1000D0008702000887020008A13100080000000024
:1000E000870200088702000887020008000000005D
:1000F000000000000000000000000000870200086F
:10010000000000008702000887020008870200083C
:1001100000000000000000000000000000000000DF
:10012000870200088702000887020008870200088B
:10013000870200080000000000000000000000002E
:10014000000000000000000000000000870200081E
:10015000870200088702000887020008870200085B
:10016000870200088702000800000000000000006D
:10017000000000000000000000000000000000007F
:1001800000000000870200080000000000000000DE
:100190008702000887020008DFF80CD000F010F991
:1001A00000480047AD350008204900202C4B196855
:1001B0000868B0E8F04F80F30988BFF36F8F4FF005
:1001C000000080F3118870470000000008480068B4
:1001D000006880F308884FF0000080F3148862B64E
:1001E00061B6BFF34F8FBFF36F8F00DF00BF00BF5B
:1001F00008ED00E0DFF80C00016841F470010160D7
:10020000704700BF88ED00E0EFF30980BFF36F8F08
:10021000134B1A681EF0100F08BF20ED108A20E95A
:10022000F04F106009B44FF0500080F31188BFF315
:100230004F8FBFF36F8F04F0EFF94FF0000080F3A2
:10024000118809BC19680868B0E8F04F1EF0100F5B
:1002500008BFB0EC108A80F30988BFF36F8F704736
:1002600024010020EFF30580704700000648804716
:1002700006480047FEE7FEE7FEE7FEE7FEE7FEE78B
:10028000FEE7FEE7FEE7FEE73929000899010008CE
:100290002DE9F05F0546002092469B4688460646BB
:1002A000814640241BE0284641464746224600F04E
:1002B00077F853465A46C01A914110D31146184652
:1002C000224600F05EF82D1A67EB01084F462246E1
:1002D0000120002100F055F817EB00094E41201EC7
:1002E000A4F10104DFDC484631462A464346BDE816
:1002F000F09F40EA01039B0703D009E008C9121FE1
:1003000008C0042AFAD203E011F8013B00F8013BCF
:10031000521EF9D27047D2B201E000F8012B491EFB
:10032000FBD270470022F6E710B513460A46044692
:100330001946FFF7F0FF204610BD10B5002200E07F
:10034000521C835C8C5CA34201D1002BF8D1D8B243
:10035000E1B2401A10BD30B50B4601460020202204
:10036000012409E021FA02F59D4205D303FA02F5C2
:10037000491B04FA02F52844151EA2F10102F1DC22
:1003800030BD202A04DB203A00FA02F10020704739
:100390009140C2F1200320FA03F3194390407047C3
:1003A000202A04DB203A21FA02F00021704721FACA
:1003B00002F3D040C2F12002914008431946704731
:1003C000064C074D06E0E06840F0010394E80700A2
:1003D00098471034AC42F6D3FFF7E2FEEC4A00082F
:1003E0000C4B000870B58C1810F8015B15F0070372
:1003F00001D110F8013B2A1106D110F8012B03E0BE
:1004000010F8016B01F8016B5B1EF9D12B0705D4C5
:100410000023521E0DD401F8013BFAE710F8013B0E
:10042000CB1A921C03E013F8015B01F8015B521E2A
:10043000F9D5A142D8D3002070BDFEE72DE9F04FD9
:10044000FA4C204663780178012B01D1012908D0AC
:100450000020F74E01297076F44890F8058002D00C
:1004600004E00120F5E7B8F1010F06D05FF00000CD
:1004700086F87D00012902D003E00120F8E7012B76
:1004800005D000207070A278012A02D003E001207C
:10049000F8E7012B06D0002086F83300A079012868
:1004A00002D003E00120F7E7012B06D05FF0000542
:1004B00086F89750012B02D003E00125F8E7012AC6
:1004C00005D00025F576E778012F02D003E001255D
:1004D000F8E7012A06D0002586F84D50E579012D70
:1004E00002D003E00125F7E7012A06D04FF0000C07
:1004F00086F8B1C0012A03D004E04FF0010CF7E701
:10050000012F0AD04FF0000C86F835C094F804C0D3
:10051000E146BCF1010F03D004E04FF0010CF3E71A
:10052000012F08D04FF0000C86F867C0A246247A4D
:10053000012C03D004E04FF0010CF5E7012F06D0A9
:100540004FF0000C86F8CBC0012F03D006E04FF02F
:10055000010CF7E7CC46B9F1010F01D04FF0000CC8
:1005600086F84FC0D3469AF809A0BAF1010F03D11B
:10057000CC46B9F1010F01D04FF0000C86F8E5C070
:10058000012902D1B8F1010F04D0002171710128B5
:1005900002D004E00121F9E7B8F1010F0AD04FF0D1
:1005A000000C00BF86F89BC09BF80AC0BCF1010F8D
:1005B00003D005E04FF0010CF4E7B8F1010F06D0CD
:1005C0005FF0000186F8FF10012B02D003E001214B
:1005D000F8E7012805D00023F377B8F1010F02D026
:1005E00003E00123F8E7012805D0002386F88330D3
:1005F000012D02D003E00123F8E7012807D00023F2
:1006000086F8B5309BF80B30012B02D003E00123B4
:10061000F6E7012805D0002186F81911012A02D039
:1006200003E00121F8E7012D05D0002286F83920EA
:10063000012802D003E00122F8E7012D05D00022B5
:1006400086F89D20012C02D003E00122F8E7012D5D
:1006500007D0002286F8CF209BF80C20012A02D078
:1006600003E00122F6E7012D05D0002186F83311C1
:10067000012F02D003E00121F8E7012C05D000276B
:1006800086F85370012D02D003E00127F8E7012C12
:1006900006D0002786F8B770BAF1010F02D003E048
:1006A0000127F7E7012C08D05FF0000786F8E97012
:1006B0009BF80D10012902D003E00127F6E7012C79
:1006C00007D00027B64686F84D71B9F1010F02D068
:1006D00004E00127F6E7BAF1010F07D05FF0000749
:1006E0008EF86D70D946012C02D005E00127F7E79E
:1006F0005746BAF1010F00D000278EF8D17099F853
:100700000EB0BBF1010F02D1BAF1010F08D00027E2
:100710008EF8677176464F46B8F1010F02D004E0BB
:100720000127F5E7BCF1010F07D04FF0000800BF2B
:1007300086F88780012B03D005E04FF00108F7E72A
:10074000BCF1010F0AD04FF0000800BF86F81D81F0
:1007500097F80F90B9F1010F03D005E04FF00108B1
:10076000F4E7BCF1010F06D04FF0000886F8818154
:10077000012803D004E04FF00108F7E7012B07D070
:100780005FF0000086F8A100BCF1010F02D003E089
:100790000120F7E7012B06D05FF0000086F8050185
:1007A000012A02D003E00120F8E7012B06D0002047
:1007B00086F83701387C012802D003E00120F7E7F2
:1007C000012B06D04FF0000886F89B81012D03D045
:1007D00004E04FF00108F7E7012A06D05FF00005BA
:1007E00086F8BB50012B02D003E00125F8E7012A6F
:1007F00005D0002586F81F51012902D003E001250C
:10080000F8E7012A06D0002586F851517D7C012D9C
:1008100002D003E00125F7E7012A0BD04FF00008D2
:1008200086F8B581012C08D009E00000F80000200E
:10083000BC0500204FF00108F2E7012905D0002493
:1008400086F8D540012A02D003E00124F8E7012907
:1008500006D0002486F83941BBF1010F02D003E035
:100860000124F7E7012907D05FF0000486F86B4107
:10087000BC7C012C02D003E00124F7E7012907D05A
:100880004FF0000886F8CF81BAF1010F03D006E0DF
:100890004FF00108F6E7D846BBF1010F01D04FF049
:1008A000000886F8EF80012903D1D846BBF1010F7B
:1008B00001D04FF000088EF85381BA46FF7C012F1B
:1008C00002D1BBF1010F09D04FF000088EF8E98189
:1008D0007646D046BCF1010F03D006E04FF0010888
:1008E000F4E7CC46B9F1010F01D04FF0000C86F8C7
:1008F00009C1012803D1CC46B9F1010F01D04FF055
:10090000000C86F89FC198F814A0BAF1010F03D12A
:10091000CC46B9F1010F01D04FF0000C86F803C2AC
:10092000012801D1012B00D0002386F823310128B2
:1009300003D14B46B9F1010F00D0002386F887316F
:10094000012801D1012D08D05FF0000386F8B931EC
:10095000914B01285B7D02D003E00123F6E7012BD8
:1009600007D04FF0000C00BF86F81DC2012A03D04B
:1009700004E04FF0010CF7E7012D06D05FF0000214
:1009800086F83D21012802D003E00122F8E7012D7D
:1009900005D0002286F8A121012C02D003E001221B
:1009A000F8E7012D07D0002286F8D32198F8162009
:1009B000012A02D003E00122F6E7012D07D04FF013
:1009C000000C00BF86F837C2012903D004E04FF0C5
:1009D000010CF7E7012C06D05FF0000186F85711F3
:1009E000012D02D003E00121F8E7012C05D0002100
:1009F00086F8BB11012F02D003E00121F8E7012C9A
:100A000007D0002186F8ED1198F81710012902D0BF
:100A100003E00121F6E7012C08D04FF0000C00BFE5
:100A200086F851C2BBF1010F03D004E04FF0010C76
:100A3000F6E7012F07D04FF0000C00BF86F871C118
:100A4000012C03D004E04FF0010CF7E7012F09D08F
:100A50004FF0000C86F8D5C198F818C0BCF1010F12
:100A600003D004E04FF0010CF4E7012F08D04FF061
:100A7000000800BF86F86B82B9F1010F03D006E0D1
:100A80004FF00108F6E7D046BAF1010F01D04FF060
:100A9000000886F88B81012B03D1D046BAF1010FF3
:100AA00001D04FF0000886F82182012801D1012BE6
:100AB00006D0002086F8A501BAF1010F02D003E0AC
:100AC0000120F7E7012B06D05FF0000086F809024D
:100AD000012A02D003E00120F8E7012B05D0002015
:100AE00086F83B02012D02D003E00120F8E7012A3D
:100AF00005D0002086F8BF01012B02D003E00120C1
:100B0000F8E7012A05D0002086F82302012902D047
:100B100003E00120F8E7012A05D0002086F85502FD
:100B2000012C02D003E00120F8E7012905D00020C4
:100B300086F8D901012A02D003E00120F8E7012953
:100B400006D0002086F83D02BCF1010F02D003E080
:100B50000120F7E7012906D05FF0000086F86F0258
:100B6000012F02D004E00120F8E7BCF1010F06D00C
:100B70005FF0000086F8F301012902D004E00120B3
:100B8000F8E7BCF1010F05D05FF000008EF85702C6
:100B9000BDE8F08F0120F9E7F8000020014800F0DF
:100BA000CFB9000010020020014800F0C9B90000D0
:100BB0007002002001681823CAB2103AB2FBF3F2A7
:100BC000054B6FF30901032A9B5CC36500D9091D1E
:100BD00081650846704700004C4A000810B5014680
:100BE00000208B698A6A4FF0C07453B1B3F5005F7F
:100BF00015D072B1012A0CD0022A0AD0032A09D1D9
:100C000004E01AB1012A06D0022A03D1C96AC90137
:100C100000D5012010BDC96AA142FAD010BD002A3A
:100C2000F7D0012AF2D0022AF3D0032AF3D010BD64
:100C300030B50468256825F4802525600468636064
:100C40008368402B036803D099600068C26030BDA0
:100C50009A600068C16030BD704700002DE9F74F11
:100C6000A8B08B46FFF7EAFB4FF000088DF84B80E9
:100C7000404650211AAB13AC21AE6A462154315480
:100C800003F8008002F800801518401C85F81980D0
:100C9000C0B285F832801928F0D3DFF8909104F8BB
:100CA0000B8000254FF0010A0020195C11B9215C6E
:100CB000502903D1401CC0B21928F6D3411C08E0CA
:100CC0005F5C2FB9675C14F800C0674500D2084626
:100CD000491CC9B21929F3D303F800A000215F5CB5
:100CE00087B900EBC00707EB001C0CEB09077F5C22
:100CF00047B114F800C0674414F801C0674501D239
:100D000067547054491CC9B21929E8D36D1CEDB25F
:100D1000192DC9D32A9802F1190402F132030025D2
:100D2000002105EB850700BF07EB010C844506D1C8
:100D30009DF84B703D559DF84B50E95410E0042D43
:100D400006D1042904D1182802D08DF84B8065E023
:100D5000491CC9B20529E7D36D1CEDB2052DDFD3BF
:100D60009DF84B10192959D8192857D8305C491CBF
:100D70008DF84B105845D2D10025002105EB850692
:100D80007718874206D19DF84B0005559DF84B001A
:100D9000C15407E0491CC9B20529F1D36D1CEDB25D
:100DA000052DEAD3002135E05018447E837E9C4215
:100DB00007D190F8325090F83360B54201D102F873
:100DC00001809C4207D190F8325090F83360B542D0
:100DD00001D902F801A09C4207D990F8325090F84E
:100DE0003360B54201D1022555549C4207D190F899
:100DF000325090F83360B54201D2032555549C42DD
:100E000006D210F8323F4078834201D1042050547A
:100E1000491CC9B29DF84B008842C5D84C2269468E
:100E20002898FFF766FA2BB0BDE8F08FBC050020CC
:100E300070472DE9F0410446022677274FF030082D
:100E4000F721304601F01BFC8021042001F008FB53
:100E500080210A2001F07EFB0021012001F00FFC1F
:100E60002178092001F00BFC0C21012001F007FC86
:100E700080210D2001F06EFB4FF4FA65042001F093
:100E800055FB6D1E2D0404462D0C04D0E00702D145
:100E900014EA080FF2D080210D2001F0E1FA35B1FB
:100EA000062001F043FB10F01B0F03D00226304652
:100EB000BDE8F08100263C40E007F8D00126F6E7C7
:100EC00030B5144887B00024016841F00801016082
:100ED0000068142100F0080005906846FFF722FA28
:100EE0000D4D00224FF47041284600F06CFA0122AB
:100EF0000621284600F067FA4FF206000090012014
:100F0000CDE9010469462846039400F08BF907B047
:100F100030BD000030380240000C024090F835101F
:100F2000022903D08021416501207047052180F806
:100F300035100068016821F0010101600020704750
:100F40002DE9F84304464FF00009CDF800906348BE
:100F50004FF41651A56D0068B0FBF1F72E6894F8B8
:100F60005C10082000FA01F131420FD021680A68B4
:100F700052070BD50A6822F004020A6094F85C104C
:100F80008840A860606D40F00100606594F85C10D6
:100F90004FF0010808FA01F0304208D02168496991
:100FA000090604D5A860606D40F00200606594F801
:100FB0005C1004208840304208D021680968890705
:100FC00004D5A860606D40F00400606594F85C1082
:100FD00010208840304218D021680968090714D5CC
:100FE000A86020680168490304D50068000308D59B
:100FF000A16C07E00168C90503D4016821F008016C
:101000000160216C09B12046884794F85C102020CB
:101010008840304231D021680968C9062DD5A860C2
:1010200094F8350005282068016806D0490347D5A3
:10103000006800031DD4616C1CE021F01601016002
:101040002068416921F080014161206C08B9A06CE1
:1010500020B12068016821F00801016094F85C105B
:101060003F208840A86084F8349084F83580216D52
:101070001FE0E16B09B120468847606D00282BD046
:10108000606DC00714D0052084F835002068016821
:1010900021F0010101600098401C0090B84203D883
:1010A00020680068C007F6D184F8349084F8358051
:1010B000E16C002910D001B02046BDE8F04308479C
:1010C0000168C905D5D4016821F01001016084F8D8
:1010D000349084F83580CCE7BDE8F8832001002007
:1010E0002DE9F041044600F073F906465CB1002595
:1010F00084F83450022084F835002068016821F01B
:10110000010101600DE00120BDE8F08100F060F90F
:10111000801B052805D920206065032084F8350050
:10112000F2E720680068C007F0D122681168204803
:101130000140D4E901031843D4E90336334318438B
:1011400063691843A3691843E3691843236A184382
:101150000843616A042903D1D4E90B1319430843F6
:10116000106020684069666A20F0070130460E432F
:10117000012704280CD1A06A0643E06A40B120464A
:10118000FFF72CFD20B14020606584F83570BAE788
:10119000206846612046FFF70DFD94F85C203F2152
:1011A00091408160656584F835700020ACE70000EF
:1011B0003F8010F02DE9F0410446866D90F8340030
:1011C000002501280DD0012084F8340094F83570F2
:1011D0000020012F07D084F8340002252846BDE8FE
:1011E000F0810220FBE7022784F835706065204615
:1011F000FFF71EFD94F85C103F208840B060206827
:10120000016841F016010160206C20B1206801687E
:1012100041F0080101602068016841F001010160AE
:10122000DCE700002DE9F84F00224FF0010803250C
:101230004FF00F0E0B6808FA02F42340A34271D15D
:101240004E68012E05D0022E03D0112E01D0122E91
:1012500015D18668570005FA07FC26EA0C06D1F876
:101260000CC00CFA07FC4CEA060CC0F808C0466833
:10127000A6430C79C4F30014944034434460C66818
:10128000570005FA07FC8C6826EA0C06BC4034437C
:10129000C4604C68022C01D0122C13D1D40800EB8E
:1012A0008404A346D4F8209054074FEAD46A0EFA77
:1012B0000AF629EA06090E6906FA0AF646EA090656
:1012C000CBF8206004680E7924EA0C0406F00306CB
:1012D000BE40264306604C68E40056D52E4C266876
:1012E00046F480462660246822F0030604F4804415
:1012F00000942A4C3444A446D4F808489607370F83
:101300000EFA07F6B443264EB04201D1002615E08E
:10131000244EB04201D1012610E0234EB04202D14A
:1013200002260BE031E0214EB04201D1032605E058
:101330001F4EB04201D1042600E00726BE402643DE
:10134000CCF808681B4E34684F689C43FF0300D5F7
:101350001C433460174E361D34684F689C43BF03EE
:1013600000D51C433460134E083634684F689C43E4
:10137000FF0200D51C4334600E4E0C3634684F68B3
:101380009C43BF0200D51C433460521C102AFFF45A
:1013900051AFBDE8F88F00004438024000300140F2
:1013A000000002400004024000080240000C02401D
:1013B00000100240003C0140426931EA020200D1C3
:1013C0000904816170470AB1816170470904FBE734
:1013D00001488068704700001401002002488168BD
:1013E0000278114481607047140100200B4810B549
:1013F000016841F400710160016841F4806101609D
:10140000016841F480710160032000F08DF8002034
:1014100000F006F800F03EF8002010BD003C02404D
:1014200010B5014688B000221E2000F05DF81E2095
:1014300000F04CF813480024016841F004010160F9
:10144000006805A900F004000690684600F02AF93B
:1014500000F048F90C494000B0FBF1F10C480B4A90
:10146000491E026040F2E732C0E90324C0E90114DA
:1014700000F09DFC10B1012008B010BD044800F040
:10148000B2FCF9E74038024040420F00000800403B
:10149000240500200C4882B0016841F480410160BD
:1014A000006800F4804000900748001F016841F088
:1014B000805101600068002200F0805000900F21F0
:1014C000901E02B000F010B844380240002809DB3A
:1014D00000F01F02012191404009800000F1E0204E
:1014E000C0F8001170470000F0B40E4B1B680C46AA
:1014F000C3F30223C3F10705042D00D90425191DE8
:10150000072901D2002300E0DB1E012606FA05F1BF
:10151000491E214099409E40761E16403143F0BC42
:1015200001F09EBE0CED00E0064900F007020868DD
:101530004FF6FF03184040EA0220034A10430860B8
:10154000704700000CED00E00000FA05BFF34F8F7C
:1015500005480168054A01F4E06111430160BFF3E9
:101560004F8F00BFFDE700000CED00E00400FA051E
:101570002DE9F0470E46050065D0DFF81481D8F854
:101580000000F7B200F00F00B04207D288F80070F8
:10159000D8F8000000F00F00B04254D128683D4C4C
:1015A000810712D5400703D5206840F4E050206041
:1015B0002878000703D5206840F460402060206848
:1015C000A96820F0F000084320602878C0072DD0DB
:1015D000304968680839012812D0022813D003283E
:1015E00011D00968890700292DDA216821F003014B
:1015F00001432160FFF7ECFE814641F2883A0EE09C
:1016000009688903EFE709688901ECE7FFF7E0FE65
:10161000A0EB0901514502D90320BDE8F0872068FD
:10162000696800F00C00B0EB810FEFD1D8F8001022
:10163000404601F00F01B14207D90770006800F081
:101640000F00B04201D00120E7E72878400705D518
:101650002068E96820F4E0500843206028780007FB
:1016600006D52068296920F4604040EAC100206066
:1016700000F058F82168084AC1F30311515CC840D2
:101680000649086006480068FFF7CAFE0020C4E764
:10169000003C024008380240544A00082001002063
:1016A000180100200F2202600C4A136803F00303A4
:1016B0004360136803F0F0038360136803F4E0539E
:1016C000C36012684FF4E05303EAD2020261044897
:1016D000006800F00F000860704700000838024002
:1016E000003C02400448054900680968044AC1F307
:1016F0008221515CC8407047200100200838024018
:10170000644A00080448054900680968044AC1F3AE
:101710004231515CC8407047200100200838024027
:10172000644A0008154810B5006810F00C0214480F
:1017300013D04110042A0FD0082A0ED10F4C241FB9
:101740002268236802F03F025B0207D52068C0F3DD
:101750008810A0FB010106E0084610BD2168C1F316
:101760008811A1FB00010023FEF792FD2168C1F35F
:101770000141491C4900B0FBF1F010BD083802409E
:101780000024F4002DE9F84F040076D02078DFF82B
:1017900038A3CE4DC00749D0DAF800105046C1F347
:1017A0008101012908D00068C0F3810002280AD114
:1017B000281D0068400206D52868800336D5606879
:1017C0000028E2D032E06068B0F5803F10D0B0F57C
:1017D000A02F286810D020F480302860286820F4DA
:1017E000802028606068A0B1FFF7F2FD06460CE09B
:1017F000286840F48030F4E740F480202860F7E760
:10180000FFF7E6FD801B642873D828688003F7D5AE
:101810000CE0FFF7DDFD064605E000BFFFF7D8FD51
:10182000801B6428F0D828688003F7D42078DFF87C
:10183000A08280074FF000093ED5DAF8001050462C
:1018400011F00C0F09D00068C0F3810002280BD101
:101850009D48001F0068400206D42868800715D5FF
:10186000E068012809D111E0E068B8B10120C8F8AA
:101870000000FFF7ADFD064605E020E1FFF7A8FDFB
:10188000801B0228C0D828688007F7D528682169FE
:1018900020F0F80040EAC10028600DE0C8F8009090
:1018A000FFF796FD064604E0FFF792FD801B022835
:1018B0001FD828688007F7D42078000722D5824EE9
:1018C000844861696C3671B101210160FFF780FDC8
:1018D000074604E0FFF77CFDC01B022809D83068EA
:1018E0008007F7D50EE0C0F80090FFF771FD0746BE
:1018F00005E082E0FFF76CFDC01B02287DD8306850
:101900008007F7D42078400768D5DFF8BCB10027FE
:101910000BF1380BDBF80000C0000BD4DBF8001033
:1019200041F08051CBF80010DBF80000012700F0F7
:1019300080500090684E3068C00510D4306840F484
:1019400080703060FFF744FD009005E0FFF740FD38
:101950000099401A022850D83068C005F6D55A4E72
:10196000A068683601280FD00528306810D020F014
:1019700001003060306820F004003060A068B8B129
:10198000FFF726FD00900FE0306840F00100F4E71B
:1019900040F004003060F7E7FFF71AFD0099411AA4
:1019A00041F28830814266D830688007F4D50EE075
:1019B000FFF70EFD009007E0FFF70AFD0099411ABE
:1019C00041F28830814256D830688007F4D42FB174
:1019D000DBF8001021F08051CBF80010A069D0B3E3
:1019E000DAF800205146C2F38102022A4AD00228C6
:1019F000484607D0C8F8600000E03CE0FFF7E8FC8C
:101A000004463BE04746C8F86000FFF7E1FC0646A5
:101A100005E000BFFFF7DCFC801B02282BD82868FC
:101A20008001F7D4D4E907010843A16A2B4A490889
:101A300002EB0141626A41EA8211084394F82C10DA
:101A400040EA01612048001F016001203866FFF76D
:101A5000BFFC044605E034E0FFF7BAFC001B022897
:101A600009D828688001F7D52BE000BFFFF7B0FC4C
:101A7000001B022802D90320BDE8F88F28688001E6
:101A8000F4D41EE00128F7D00868E26900F4800170
:101A9000914214D1226A00F03F0191420FD147F6E2
:101AA000C071626A0140914209D1A26A00F44031DA
:101AB000914204D1E16A00F07060884201D00120B7
:101AC000DAE70020D8E7000008380240003802407A
:101AD00000004742800E4742007000400000FFFFB8
:101AE00070B5040005D00025A56294F8510010B12E
:101AF00006E0012070BD84F85050204600F030F818
:101B0000022084F851002068016821F04001016042
:101B1000D4E901010843D4E9031211430843616980
:101B20000843218B01F400710843E1690843216AED
:101B30000843A16A084321680860A069042101EAFA
:101B40001040616A0843216848602068C16921F437
:101B50000061C1616565012084F85100002070BDFD
:101B600010B586B0044614216846FEF7DBFB134926
:101B70002068884220D112480021026842F4805235
:101B80000260006800F4805005900D481438026827
:101B900042F001020260006800F001000590E020C0
:101BA00000900220CDE9010103200390052004905C
:101BB00069460448FFF736FB06B010BD003001400F
:101BC00044380240000002402DE9F84F044690F8E6
:101BD000500000270A9E1D4692468B464FF0010991
:101BE00001280ED0012084F85000FFF7F1FB804659
:101BF00094F85100616801280CD0B1F5827F07D1BB
:101C000002E00220BDE8F88FA16809B9042801D0DC
:101C10000227C2E0BBF1000F27D0BAF1000F24D099
:101C20001DB394F85100042802D0052084F8510017
:101C300000206065C4F838A0E587A587C4F830B0F7
:101C4000E586A5862064606420680168490603D49F
:101C5000016841F040010160E068B0F5006F606824
:101C600005D0E8B3012D46D07FE0012795E008B10B
:101C7000012D39D1206B21680088C860206B801C41
:101C80002063E08E401EE0862EE020688168890790
:101C90000FD5E18E69B1B9F1010F0AD1216B098825
:101CA000C160206B801C2063E08E401EE0864FF0F8
:101CB000000920688168C9070CD0E18F51B1C06864
:101CC000A16B0880A06B801CA063E08F401EE087A2
:101CD0004FF00109FFF77CFBA0EB0800B04200E0E9
:101CE00009E001D3701C50D1E08E0028CDD1E08FE7
:101CF0000028CAD13FE0206B216800780873206B70
:101D0000401C2063E08E401EE0862EE02068816843
:101D100089070FD5E18E69B1B9F1010F0AD1216BA5
:101D200009780173206B401C2063E08E401EE08622
:101D30004FF0000920688168C9070CD0E18F51B1CC
:101D4000C068A16B0870A06B401CA063E08F401EB0
:101D5000E0874FF00109FFF73BFBA0EB0800B04222
:101D600002D3701C01D010E07EB1E08E0028CDD1EE
:101D7000E08F0028CAD142463146204600F00EFDD1
:101D800028B101272020606507E0032705E0A0684F
:101D900018B92068C16880680090012084F851005B
:101DA000002084F8500038462CE77047704710B583
:101DB000040003D094F83D0010B107E0012010BDED
:101DC000002084F83C00204600F00CF8022084F843
:101DD0003D00211D206800F0C3FD012084F83D0076
:101DE000002010BD70470168CA6842F00102CA6055
:101DF0000068816801F00701062903D0016841F0FD
:101E00000101016000207047704770B5044600680A
:101E100001694FF00005C943890715D4C168C9435A
:101E2000890711D4E91E01610120207720688069AB
:101E30008007204602D0FFF7E7FF04E000F098F8A3
:101E4000204600F096F8257720680169C9434907C4
:101E500017D4C168C943490713D46FF00401016165
:101E6000022020772068806910F4407F204602D04D
:101E7000FFF7CAFF04E000F07BF8204600F079F895
:101E8000257720680169C943090716D4C168C94389
:101E9000090712D46FF0080101610420207720683F
:101EA000C0698007204602D0FFF7AEFF04E000F0D3
:101EB0005FF8204600F05DF8257720680169C94386
:101EC000C90617D4C168C943C90613D46FF01001FD
:101ED0000161082020772068C06910F4407F204607
:101EE00002D0FFF791FF04E000F042F8204600F036
:101EF00040F8257720680169C943C90708D1C1683E
:101F0000C943C90704D1891E0161204600F032F897
:101F100020680169C943090609D4C168C943090693
:101F200005D46FF0800101612046FFF73EFF206875
:101F30000169C943490609D4C168C943490605D4A2
:101F40006FF040010161204600F01EF82068016931
:101F5000C94389060BD4C168C943890607D46FF009
:101F6000200101612046BDE87040FFF71FBF70BD32
:101F70007047704700680349884201D1FFF72EBAC5
:101F800070470000000800407047704770B5026855
:101F900004461068D168536910F00F0F52D003F057
:101FA000010501F490762E435FD0C20705D0CA0523
:101FB00003D5E26B42F00102E263420705D5DA077E
:101FC00003D0E26B42F00202E263820705D5DA0732
:101FD00003D0E26B42F00402E263020707D501F08E
:101FE00020022A4303D0E26B42F00802E263E26B74
:101FF000002A33D0800604D5880602D5204600F09A
:10200000BDFF20684069E16BC0F38010090700D470
:1020100028B3204600F070FF2068416949061AD5B0
:10202000416921F040014161606BA0B11B4901652C
:10203000606BFEF773FF002810D0606B016DBDE888
:1020400070400847830610D58B060ED52046BDE8A4
:10205000704000F093BF2046FFF797FF70BD204609
:10206000FFF793FF0020E06370BD030606D50B0663
:1020700004D52046BDE8704001F060B84006F3D5B5
:102080004806F1D5D168204621F04001D1602021D9
:1020900084F8391000F030F970BD00007D2D000883
:1020A00070B5040004D094F83900002510B106E0A2
:1020B000012070BD84F83850204600F023F8242019
:1020C00084F839002068C16821F40051C1602046BD
:1020D00000F0A0FF2068016921F4904101612068AF
:1020E000416921F02A0141612068C16841F4005131
:1020F000C160E563202084F8390084F83A000020AC
:1021000070BD00002DE9F04186B0064614216846F6
:10211000FEF708F92B49306888424FD12A4800243D
:10212000016841F400310160006800F4003005905E
:1021300025481038016841F00101016000686946D6
:1021400000F0010005900C20009002200190012079
:10215000029003200390072004901C48FFF762F8C8
:102160001C4D1B484FF000672860C5E901744FF40F
:102170008068C5E903486C61AC61EC612C6228465B
:102180006C62FEF7ADFF08B1FEF752FE7563AE63F9
:102190000F48114D1830E5E802074020A5E811016D
:1021A0000D4845F81449AC61EC612C626C62FEF795
:1021B00097FF08B1FEF73CFE3563AE6306B0BDE89D
:1021C000F08100000044004040380240000002401E
:1021D000886002401002002070020020F8B504461A
:1021E00090F83A0020283CD1C1B3BAB394F8380033
:1021F000012836D0012084F83800A162A28500258C
:10220000E563222084F83A00636B1748D863636B58
:1022100016481864636B1648D864606B13460565EE
:102220000846666B216802463046091DFEF7C2FF6C
:10223000206801684168009184F83850C16841F411
:102240008071C1602068416941F0010141612068ED
:10225000416941F0400141610020F8BDFFE70120E4
:10226000FBE70220F9E70000D72D0008132E000835
:102270008D2D00087047704770B5044690F83900FE
:10228000202830D169B362B394F8380001282AD0ED
:10229000012084F838002162A284E2840025E563ED
:1022A000212084F83900236B1048D863236B104831
:1022B0001864236B0F48D864206B134605652668A5
:1022C000206B321DFEF776FF21686FF0400008603A
:1022D00084F838502068416941F080014161002054
:1022E00070BD012070BD022070BD00001D2E0008D1
:1022F0004B2E00088D2D000870477047FEE7000048
:102300001CB5124C012206212046FFF75CF8C020C4
:102310008DF8000000218DF801108DF802101A20B0
:102320008DF8030017208DF8040044208DF8050077
:10233000062269460648FFF79FFF642002F06CF80A
:10234000002206212046FFF73EF81CBD000C02408B
:102350008401002010B5142000F0E8F8800705D1B2
:102360000321BDE81040142000F0F4B810BD7CB586
:102370000446002529460D2000F081F993202070A5
:102380002020607001A823460090022219460C20EC
:1023900000F0ECF8010009D1225C401C5540C0B2AD
:1023A0000428F9D3205CA84200D0022108467CBD55
:1023B0002DE9F0410E46074615460421052000F0A0
:1023C0004FF880210A2000F0C5F8002405E0395DAF
:1023D000092000F054F9641CE4B2B442F7D303219D
:1023E000012000F04CF90A24052000F09FF8641E3B
:1023F00014F0FF0401D04007F6D5222000F096F833
:102400002870212000F092F86870BDE8F0812DE975
:10241000FC4104460021262000F08FF805001AD167
:102420006846FFF7A4FF05469DF800000022C4E9B6
:10243000000201206F46D4E90031090241EA13612C
:102440001B02C4E900313E5C9B195141C4E90031D3
:10245000401C0528EFDB00F00FF82846BDE8FC81A2
:1024600070B50C46054600F061F820EA04012846E4
:10247000BDE8704000F003B938B550208DF8000079
:1024800000206D468DF8010002212846AA1CFFF7A6
:102490008FFFF721022000F0F2F880210420FFF7DF
:1024A000DFFF80210A2000F055F80021012000F014
:1024B000E6F800240920295D00F0E1F8641CE4B28C
:1024C000042CF7D30C21012000F0D9F880210D2035
:1024D00000F040F880210D20FFF7C2FF38BD10B595
:1024E00000F0D2F800F0F4F800F030F88D212A2046
:1024F00000F0C5F83E212B2000F0C1F81E212D2050
:1025000000F0BDF800212C2000F0B9F87021262041
:1025100000F0B5F84021152000F0B1F83D21112060
:1025200000F0ADF8BDE81040FFF714BF7E2101EACE
:10253000400040F0800000F001B913B507210D20E4
:1025400000F09DF86846FEF774FC1CBD0F210120C9
:1025500000F095B870B50C460546FFF7E7FF40EA76
:1025600004012846BDE8704000F089B82DE9FF5FFE
:1025700000270226DDF838A015468B468146B8466E
:102580000C2805D0B9F10E0F05D11227102001E05B
:1025900077273020804647F08001022000F06FF856
:1025A00080210420FFF75CFF80210A20FFF7D2FF83
:1025B0000021012000F063F8002406E01BF804105D
:1025C000092000F05CF8641CA4B2AC42F6D3494682
:1025D000012000F054F8B9F10C0F03D180210D2037
:1025E000FFF7B8FF0A250420FFF7A0FF6D1E2D049A
:1025F00004462D0C04D0E00702D114EA080FF2D0F3
:1026000080210D20FFF72CFF35B10620FFF78EFF4C
:1026100010F01B0F04D0022604B03046BDE8F09F36
:1026200000263C40E00700D00126B9F10C0FF3D1A1
:102630000A20FFF77BFF04460C20FFF777FF10F01E
:1026400007004FEAC40104D008390844AAF8000082
:1026500001E0AAF8001024B1102C04D910240025A0
:1026600003E00124FBE7002506E00920FFF75EFFF9
:10267000039948556D1CADB2A542F6D3CCE77E2236
:1026800002EA400000F072B80F4810B50D49016031
:102690004FF48271416000218160C1604FF400728B
:1026A0000161C0E90512C1610162416281620A21D2
:1026B000C162FFF715FA002803D0BDE81040FEF70D
:1026C000B7BB10BD0030014064050020FEE7704735
:1026D00010B586B014216846FDF724FE0D48016848
:1026E00041F00101016000680B4C00F00100059011
:1026F000002210212046FEF766FE10200121CDE9C0
:1027000000010320CDE9021069462046FEF78AFD4C
:1027100006B010BD30380240000002400EB5012363
:102720008DF804000A20009002AA01A90248FFF7D0
:102730004BFA9DF808000EBD6405002070B50A4DE7
:102740000446002210212846FEF73DFE2046FFF7F2
:10275000E5FF0020FFF7E2FF044601221021284692
:10276000FEF731FE204670BD0000024070B50A4CF5
:102770000E460546002210212046FEF724FE28467C
:10278000FFF7CCFF3046FFF7C9FF2046BDE8704099
:1027900001221021FEF717BE0000024038B50446A2
:1027A0001248134B0068B0FBF3F04FF47A735843B0
:1027B00000906068B0F5827F0DD10B460092002238
:1027C0008021204600F016F870B1606D40F02000C6
:1027D0006065032038BD009830B1401E009020682D
:1027E0008068C0430006F6D5002038BD20010020D7
:1027F00000366E012DE9F0411D4617460E4604468F
:10280000DDF8188008E0681C06D0FEF7E1FDA0EBBB
:102810000800A8420BD255B12068806836EA000053
:1028200030D00020B842EED10020BDE8F081206811
:10283000416821F0E00141606068B0F5827F0BD112
:10284000A068B0F5004F02D0B0F5806F04D12068C9
:10285000016821F040010160A06AB0F5005F09D174
:102860002068016821F4005101602068016841F48A
:1028700000510160012084F85100002084F85000CC
:102880000320D2E70120CDE710B5502080F3118856
:10289000BFF34F8FBFF36F8F01F0BEFF18B1044934
:1028A0004FF080500860002080F3118810BD0000B8
:1028B00004ED00E030B593B030216846FDF732FDFD
:1028C00014210CA8FDF72EFD19480024016841F0E1
:1028D00080510160006800F0805011901548016837
:1028E00041F4404101600068022500F4404011902D
:1028F000012000904FF4A02001906805CDE906501A
:102900000420C021CDE908010A9008200B906846F8
:10291000FEF738FF0F20CDE90C054FF4A050CDE9AC
:102920000E4003210CA81094FEF722FE13B030BD18
:1029300040380240007000400548016841F47001D1
:10294000016003494FF00060803908607047000063
:1029500088ED00E00148FFF758BA00002405002088
:10296000F0B502681D4B1E4C9F031E4D1E4E984233
:1029700007D0B84205D0A04203D0A84201D0B0424F
:1029800004D122F0700C4A6842EA0C02984210D03E
:10299000B8420ED0A0420CD0A8420AD0B04208D013
:1029A000124CA04205D0124CA04202D0114CA042C1
:1029B00003D122F44074CA6822434C6922F0800299
:1029C000224302608A68C2620A688262984201D128
:1029D0000969016301214161F0BD0000000001406F
:1029E0000004004000080040000C0040004001408E
:1029F00000440140004801400A4C0A482830FFF7D3
:102A000006FD012807D0D4E90A01074A81F09301A5
:102A10005040084302D10020C4E90A00012001F01F
:102A2000FBFCEAE700000020D02000207CB523A1B9
:102A3000244ED1E90001244DC124CDE9000100BF9D
:102A4000FFF75EFC012206213046FEF7BCFC0A209F
:102A500001F0E2FC2C701C496C70AC700622491D20
:102A60001A48FFF7BBFB032217491848FFF704FC7D
:102A70003221012000F046FD13486946401DFDF754
:102A80005CFC0028DCD1002206213046FEF79BFCCE
:102A90000A2001F0C1FC02E0642000F00DFD0020DE
:102AA000FFF7B5FC0228F7D0074C1C3CA06801F0EA
:102AB000D9FC606801F04AFD7CBD0000C000001A2E
:102AC00017440000000C02401C000020840100207C
:102AD0004EA14F4800F0B0FB4D4D6D1D0EE003229E
:102AE0004B494C48FFF7C8FB49490422491D494856
:102AF000FFF774FB6421012000F004FD28784F28C3
:102B0000EDD168784B28EAD1A8782128E7D10322B3
:102B10003F494048FFF7B0FB20263D4C0027AE70F0
:102B20001C3C3B490422491D3A48FFF757FB012052
:102B300001F03AF9A878212824D02E2809D053286A
:102B40005AD0AE70EE70AE70EE70012001F02CF92C
:102B5000E7E70020C4E90A002D4829781B380170F6
:102B600069784170642001F057FC2BA1284800F0DF
:102B700063FB052226492748FFF77EFB606901F0C9
:102B800071FCE0E7E06801F06DFC687801463038E0
:102B90000A281CD2DFE800F0180507090B0D0F11F9
:102BA000131501200EE002200CE003200AE00420AF
:102BB00008E0052006E0062004E0072002E00820E7
:102BC00000E009202070BEE72878312808D027705F
:102BD00028785228B7D14529B5D1FEF7B7FCB2E71E
:102BE0000A20207002E0012001F016FCD4E90A015D
:102BF0000843F8D02770A6E70A2001F0D5F8EA7854
:102C00006978287800F0D2FA9DE700004F4B210048
:102C10001C000020840100205374617274000000C5
:102C20002A4D2B4C95F84B00192801D3FF2817D0BB
:102C3000295C01290BD002290BD003290BD00429D0
:102C40000BD0FF283ED0401E85F84B003AE0012013
:102C500004E0042002E0022000E00320207031E0C4
:102C600000201C4E207002464FF400513046FEF703
:102C7000AAFB0022B1143046FEF7A5FB00224FF458
:102C800080413046FEF79FFB00224FF40041304662
:102C9000FEF799FB606901F059FCE06801F056FC11
:102CA0000B480DA11C3000F0C7FA642001F0B4FB02
:102CB0000749064804221C314038FFF7DDFAA069B5
:102CC00001F044FC012001F06FF8ABE7C4010020E3
:102CD00000000020000C024053746F7000000000E0
:102CE000254C244D4FF40056A7144FF480484FF460
:102CF000004928780B2825D2DFE800F02406090CCB
:102D00000F1215181B1E210000F082FDF1E700F0E4
:102D10001BFDEEE700F01CFFEBE700F07DFFE8E7AE
:102D200000F02CFEE5E700F0DBFDE2E700F0C2FE7C
:102D3000DFE700F071FEDCE700F0D2FFD9E700F03A
:102D40009FFCD6E7002231462046FEF73CFB0022DE
:102D500039462046FEF737FB002241462046FEF763
:102D600032FB002249462046FEF72DFB012001F0F0
:102D70001BF8BEE700000020000C024010B5806B7D
:102D80000021C185C184FFF700F910BD70B5846BC7
:102D90002068406994F83910C0F3C010002521293B
:102DA00004D118B1E584204600F0B4F820684069E9
:102DB00094F83A10C0F38010222904D118B1E585A7
:102DC000204600F099F8E06B40F01000E0632046E8
:102DD000FFF7DBF870BD10B50146806B0968096824
:102DE000C90513D40021C1850168CA6822F4807224
:102DF000CA6001684A6922F001024A6101684A69B1
:102E000022F040024A61202180F83A10FFF732FA9E
:102E100010BD10B5806BFFF72EFA10BD10B501463E
:102E2000806B09680968C9050CD40021C184016858
:102E30004A6922F080024A610068C16841F040019D
:102E4000C16010BDFFF758FA10BD10B5806BFFF7D9
:102E500054FA10BD2DE9F84322480024016841F4DA
:102E6000001101600068214D00F4001000904FF047
:102E70004008C5E902844FF48069C5E90494AC6157
:102E8000EC612C6218484FF000676C62C5E90007DE
:102E90002846FEF725F9164E00221146356311200B
:102EA000AE63FEF721FB1120FEF710FB114D0E481B
:102EB000C5E90284C5E90494AC61EC612C62183860
:102EC0006C62C5E900072846FEF70AF9356300225F
:102ED00011461020AE63FEF707FBBDE8F843102053
:102EE000FEF7F4BA30380240A060024070020020C1
:102EF00084010020100200200168CA6822F4907248
:102F0000CA6001684A6922F001024A61202180F802
:102F10003A1070470168CA6822F0C002CA602021D6
:102F200080F8391070470000114808B50268002188
:102F300042F40032026000680E4A00F40030009053
:102F40000D4802604FF41652C0E901210C22C16005
:102F5000C0E904128161C161FFF7A2F800221146A5
:102F60002620FEF7C1FABDE808402620FEF7AEBADB
:102F700040380240004400408401002010B590F821
:102F80003A10222901D0022010BD8168B1F5805F7E
:102F900011D00169002901681FD0496801F07F0341
:102FA000816A4A1C82620B70C18D491E0904090C9A
:102FB000C18518D02BE00269816A002A0268526834
:102FC00005D0D2B20A80816A491C8162ECE7C2F363
:102FD00008020A80816A891CF7E74A68816A4B1CEB
:102FE00083620A70E0E70168CA6822F02002CA60C2
:102FF0000168CA6822F48072CA6001684A6922F0D6
:1030000001024A61202180F83A10FFF733F90020CD
:1030100010BD00002DE9F041044600680169E26836
:1030200021F44051114301612169A068E26908431C
:103030006169114308432168CA6849F20C639A43E5
:103040000243CA6020684169A26921F440711143BA
:103050004161E069192764253226B0F5004F354AF1
:10306000354920684FF0000806D0884201D09042D0
:1030700036D1FEF747FB35E0884201D0904202D1BD
:10308000FEF740FB01E0FEF72DFB61684A18A0FB4C
:10309000070148EB0803FDF7FBF80146B0FBF5F02C
:1030A0000201B1FBF5F06FF01803584301EB80000B
:1030B00006EBC000B0FBF5F000F0F80002EB4002B8
:1030C000B1FBF5F0584301EB800006EBC000B0FB0C
:1030D000F5F000F00700216810448860BDE8F08139
:1030E000FEF700FB61688B0F8A00A0FB0701FDF76C
:1030F000CFF80146B0FBF5F06FF01802504301EB3A
:10310000800006EB0010B0FBF5F000F0F002B1FB20
:10311000F5F002EB0012B1FBF5F06FF01803584325
:1031200001EB800006EB0010B0FBF5F000F00F00A3
:10313000D1E70000001401400010014090F8391060
:10314000212901D0022070478168B1F5805F016AB2
:103150000BD04A1C0262026809785160C18C491E7A
:103160000904090CC1840ED017E009880268C1F374
:103170000801516001690029016A02D0491C0162FD
:10318000ECE7891CFBE70168CA6822F08002CA608C
:103190000068C16841F04001C16000207047000034
:1031A0000148FEF7F3BE000084010020054B00EB50
:1031B000800018440844A0F58050303A80F8E02E92
:1031C000FDF73CB9F8000020FEE70000F0B587B03D
:1031D00014216846FDF7A6F815480024016841F05F
:1031E000100101600068134F00F010004FF4F0452B
:1031F0000590224629463846FEF7E5F82E110022B2
:1032000031463846FEF7DFF800950125CDE9015437
:10321000694638460394FEF705F80096CDE9015457
:10322000694638460394FDF7FDFF07B0F0BD000086
:1032300030380240001002400FB4084B10B504A90A
:1032400002AA039800F02CF8044602A9002000F01E
:10325000D1F8204610BC5DF814FB0000F5330008DF
:103260000907090E002804DB00F1E02080F80014B3
:10327000704700F00F0000F1E02080F8141D704747
:1032800002E008C8121F08C1002AFAD1704770472F
:10329000002001E001C1121F002AFBD1704700008D
:1032A0002DE9FF4F89B09B460446002506E02528FE
:1032B0000BD05A460B999047641C6D1C207800284F
:1032C000F5D10DB02846BDE8F08F0027B8460122A1
:1032D000474900E0074314F8013F203B02FA03F09E
:1032E0000842F7D120782E2819D114F8010F47F0A1
:1032F00004072A280ED06FF02F022078A0F13001A9
:1033000009290CD808EB880102EB410100EB010808
:10331000641CF2E70A98641C50F8048B0A90207829
:103320000028CED0642808D0692806D075281ED081
:103330005A460B9990476D1C58E00A994FF00A09BC
:1033400001C90A91002802DA40422D2102E0390524
:1033500004D52B218DF82010012103E0F90704D0BA
:103360002021F7E78A4608AE0DE00021FAE70A9926
:103370004FF00A0901C90A91F7E74946FCF7EBFF4C
:10338000303106F8011D0028F7D1ADEB060000F141
:103390002009780701D44FF00108C84502DDA8EBE9
:1033A000090000E000208046002706E008A85A46F1
:1033B000C05D0B9990476D1C7F1C5745F6DB04E000
:1033C00030205A460B9990476D1CB8F10001A8F1C6
:1033D0000108F5DC05E016F8010B5A460B999047F9
:1033E0006D1CB9F10001A9F10109F4DC641C65E769
:1033F000092801000A68531C0B6010707047000018
:1034000094B0DFF8A490A9F13008002505EB8507FA
:10341000002409EBC70600BF06EBC400D8E90A2167
:10342000D0E9003C5A4081EA0C010A432FD1002127
:103430001D4888F8001023462A461CA11438FFF7BF
:10344000FBFE642000F0E8FF1749032214391948F5
:10345000FEF712FF14482F3841780078303800EB1F
:10346000800030380844C2B23819C1B26846FDF74E
:10347000F5FB10484C2269464030FCF73AFFD8F87B
:10348000180000F0EFFFD8F80C0000F0EBFF641C10
:10349000E4B2052CC0D36D1CEDB2052DB6D30120CE
:1034A00000F082FCB1E700003000002025643A25DE
:1034B000640000008401002070B5114C05464FF4F3
:1034C00000512046FDF778FF284600F06DFCA1145E
:1034D0002046FDF771FF284600F066FC4FF40041DE
:1034E0002046FDF769FF284600F05EFC4FF480415E
:1034F0002046FDF761FF2846BDE8704000F054BC4F
:10350000000C02402DE9F04188460546002446E0C3
:103510000122254F560331463846FDF754FF4046F9
:1035200000F042FC002231463846FDF74CFF404691
:1035300000F03AFC0122160331463846FDF743FFFE
:10354000404600F031FC002231463846FDF73BFF93
:10355000404600F029FC0122D60331463846FDF7EB
:1035600032FF404600F020FC002231463846FDF78D
:103570002AFF404600F018FC0122960331463846E7
:10358000FDF721FF404600F00FFC0022314638468F
:10359000FDF719FF404600F007FC641CE4B2AC42A2
:1035A000B6D3BDE8F0810000000C024010B5AAB00F
:1035B000FDF71CFFFFF77EF9FFF74CFCFFF7B4FCAB
:1035C000FDF77EFCFEF78BFFFFF700FE1C2227496C
:1035D0006846FCF78EFE0021684600F0F1FB244CA3
:1035E00022491C2260601C3107A8FCF782FE0021E2
:1035F00007A800F0E5FB1D49A0601C2238310EA889
:10360000FCF777FE00210EA800F0DAFB1749E06016
:103610001C22543115A8FCF76CFE002115A800F0FF
:10362000CFFB124920611C2270311CA8FCF761FEFF
:1036300000211CA800F0C4FB0C4960611C228C31E5
:1036400023A8FCF756FE002123A800F0B9FBA061D7
:10365000A06800F07BFFE06800F078FFA06900F050
:1036600075FF00F0A8FB2AB0002010BDA449000897
:103670000000002001460020842900D0C81C7047AB
:103680002DE9F04101222E4D540321462846FDF735
:103690009AFE6610002231462846FDF794FE01226C
:1036A000970339462846FDF78EFE0022A1002846E2
:1036B000FDF789FE234D0122D1022846FDF783FE46
:1036C000012231462846FDF77EFE0122214628468A
:1036D000FDF779FE012239462846FDF774FE0122E6
:1036E00080212846FDF76FFE01221402214628465C
:1036F000FDF769FE0122560231462846FDF763FEBA
:103700000122970239462846FDF75DFE00228021FE
:103710002846FDF758FE002221462846FDF753FEB5
:10372000002231462846FDF74EFE00223946284643
:10373000FDF749FEBDE8F041022000F035BB000076
:10374000000C0240001002402DE9F0412E4D4FF4D4
:103750000054002221462846FDF735FE661000225F
:1037600031462846FDF72FFE6700002239462846DD
:10377000FDF729FE0122D1032846FDF724FE234D43
:103780000122D1022846FDF71EFE002231462846BE
:10379000FDF719FE012221462846FDF714FE0022FE
:1037A00039462846FDF70FFE012280212846FDF705
:1037B0000AFE0122140221462846FDF704FE0122DA
:1037C000560231462846FDF7FEFD01229702394692
:1037D0002846FDF7F8FD002280212846FDF7F3FD7D
:1037E000002221462846FDF7EEFD002231462846FC
:1037F000FDF7E9FD002239462846FDF7E4FDBDE866
:10380000F041022000F0D0BA000C0240001002404B
:103810002DE9F047304C00224FF400612046FDF7BF
:10382000D2FD0122150329462046FDF7CCFD6E008E
:10383000002231462046FDF7C6FD01229703394696
:103840002046FDF7C0FD012280212046FDF7BBFD8B
:103850004FF48078012241462046FDF7B4FD4FF435
:103860000079012249462046FDF7ADFD4FF4806AFC
:10387000012251462046FDF7A6FD3146174E012292
:103880003046FDF7A0FD002229463046FDF79BFD9E
:10389000002239463046FDF796FD0022E900304609
:1038A000FDF791FD002280212046FDF78CFD0022CE
:1038B00041462046FDF787FD002249462046FDF798
:1038C00082FD002251462046FDF77DFDBDE8F04710
:1038D000022000F069BA000000100240000C024013
:1038E0002DE9F0410122234D540321462846FDF7DE
:1038F0006AFD6610002231462846FDF764FD01226C
:10390000970339462846FDF75EFD0022A1002846B0
:10391000FDF759FD184D0122D1022846FDF753FD50
:10392000002231462846FDF74EFD01222146284659
:10393000FDF749FD002239462846FDF744FD0122E6
:1039400080212846FDF73FFD0122940221462846AA
:10395000FDF739FD002280212846FDF734FD0022C5
:1039600021462846FDF72FFDBDE8F041022000F07A
:103970001BBA0000000C0240001002402DE9F0418B
:103980000122234D540321462846FDF71CFD6610F5
:10399000002231462846FDF716FD012297033946DD
:1039A0002846FDF710FD0022A1002846FDF70BFD7B
:1039B000184D0022A1102846FDF705FD01223146D1
:1039C0002846FDF700FD002221462846FDF7FBFCB6
:1039D000012239462846FDF7F6FC01221402214651
:1039E0002846FDF7F0FC0122560231462846FDF735
:1039F000EAFC002221462846FDF7E5FC002231467C
:103A00002846FDF7E0FCBDE8F041022000F0CCB90B
:103A1000000C0240001002402DE9F0410122234D2C
:103A2000540321462846FDF7CEFC6610002231469D
:103A30002846FDF7C8FC0122970339462846FDF7C2
:103A4000C2FC0022A1002846FDF7BDFC184D002253
:103A5000A1102846FDF7B7FC002231462846FDF7A5
:103A6000B2FC012221462846FDF7ADFC0122394671
:103A70002846FDF7A8FC0122140221462846FDF73E
:103A8000A2FC0122560231462846FDF79CFC00228A
:103A900021462846FDF797FC002231462846FDF7CF
:103AA00092FCBDE8F041022000F07EB9000C02401B
:103AB000001002402DE9F0410122234D540321461C
:103AC0002846FDF780FC6610002231462846FDF7A7
:103AD0007AFC0122970339462846FDF774FC002240
:103AE000A1002846FDF76FFC184D0022A1102846C2
:103AF000FDF769FC012231462846FDF764FC0022EF
:103B000021462846FDF75FFC012239462846FDF78D
:103B10005AFC012280212846FDF755FC012294021F
:103B200021462846FDF74FFC002280212846FDF75C
:103B30004AFC002221462846FDF745FCBDE8F0413D
:103B4000022000F031B90000000C024000100240D9
:103B50002DE9F0412E4D4FF4005400222146284615
:103B6000FDF731FC0122160331462846FDF72BFCF8
:103B70006700002239462846FDF725FC0022A100F7
:103B80002846FDF720FC234D0122D1022846FDF7EF
:103B90001AFC012231462846FDF715FC0022214679
:103BA0002846FDF710FC002239462846FDF70BFC9D
:103BB000012280212846FDF706FC0122140221463D
:103BC0002846FDF700FC0122560231462846FDF743
:103BD000FAFB0122970239462846FDF7F4FB002242
:103BE00080212846FDF7EFFB002221462846FDF7FD
:103BF000EAFB002231462846FDF7E5FB0022394664
:103C00002846FDF7E0FBBDE8F041022000F0CCB80B
:103C1000000C0240001002402DE9F0412E4D4FF4FF
:103C20000054002221462846FDF7CDFB66100022F5
:103C300031462846FDF7C7FB01229703394628463F
:103C4000FDF7C1FB0022A1002846FDF7BCFB234D78
:103C50000022A1102846FDF7B6FB00223146284677
:103C6000FDF7B1FB012221462846FDF7ACFB0122FE
:103C700039462846FDF7A7FB012280212846FDF79B
:103C8000A2FB0122140221462846FDF79CFB0122DB
:103C9000560231462846FDF796FB01229702394627
:103CA0002846FDF790FB002280212846FDF78BFB7C
:103CB000002221462846FDF786FB00223146284691
:103CC000FDF781FB002239462846FDF77CFBBDE865
:103CD000F041022000F068B8000C024000100240E1
:103CE0002DE9F04101222E4D540321462846FDF7CF
:103CF0006AFB6610002231462846FDF764FB01226C
:103D0000970339462846FDF75EFB0022A1002846AE
:103D1000FDF759FB234D0022A1102846FDF753FB68
:103D2000002231462846FDF74EFB00222146284658
:103D3000FDF749FB002239462846FDF744FB0122E6
:103D400080212846FDF73FFB012214022146284628
:103D5000FDF739FB0122560231462846FDF733FBB9
:103D60000122970239462846FDF72DFB00228021CB
:103D70002846FDF728FB002221462846FDF723FBB5
:103D8000002231462846FDF71EFB00223946284610
:103D9000FDF719FBBDE8F041022000F005B8000076
:103DA000000C02400010024010B500B9012000F0E4
:103DB00033FB002010BD10B500F092FB002010BDB9
:103DC0007FB50D4604464169B0F9080081B1A1698B
:103DD00071B1FFF74FFCD4E905128DE80700D4E973
:103DE00000102B46226900F0ECFC039004B070BD7B
:103DF000FFF740FC03A9CDE90001208A2B4682B2DF
:103E0000D4E9001000F0B0FC012801D00020EDE75B
:103E10000398EBE72DE9F041184C0F46054666691B
:103E20002068001D00F034FA38B9206890F82C1092
:103E300001208840A1698143A161681C07D137B185
:103E40002168BDE8F0410E48091D00F065BA206800
:103E50003544B5424560216805D2A068BDE8F0410F
:103E6000091D00F041BA6068091D00F03DFA206BA1
:103E7000854200D22563BDE8F081000024010020C6
:103E80000C0900202DE9F041054600F051FA2E4CB6
:103E90002069401C206120682C4F10B1E06940B3BC
:103EA0002DE025602069012829D1002606EB860037
:103EB00007EB800000F00AFA761C072EF6D32348A1
:103EC0008C3000F003FA2148A03000F0FFF91F48C1
:103ED000B43000F0FBF91D48C83000F0F7F91B487A
:103EE000DC3000F0F3F919488C3060601430A060C9
:103EF00005E02068E96AC06A884200D82560E06A67
:103F0000401CE062E96A0120A26988401043A06178
:103F100001EB810007EB8000291D00F0FDF900F0A6
:103F200027FAE06900280CD02068E96AC06A884254
:103F300007D207494FF080500860BFF34F8FBFF39F
:103F40006F8FBDE8F08100002401002030080020C0
:103F500004ED00E010B5044690F8510058B1012876
:103F60000CD002280FD0502080F31188BFF34F8F60
:103F7000BFF36F8FFEE7206B00F00EFA2046BDE81E
:103F8000104000F009BA10BD10484FF470514207BC
:103F900006D0C01D0D4920F00700411AC1F570512F
:103FA0000B4A00230144C2E900030839103A21F00A
:103FB000070111604B600B600B1AC0E9001393609E
:103FC0004FF000405360D06070470000200900208F
:103FD00070010020144E154CA6F1C8074FF0805810
:103FE000DFF84C9012E000BF00F0A2F9F068C5685D
:103FF000281D00F04DF92069401E2061E068401E38
:10400000E06000F0B5F92846FFF7A4FFE06800285B
:10401000EAD138680128F9D9C9F80080BFF34F8F79
:10402000BFF36F8FF2E70000F808002024010020A2
:1040300004ED00E02DE9F0479A46DDE90984814668
:104040006FF00303206B03EB82021044089D20F005
:104050000706700707D0502080F31188BFF34F8FF9
:10406000BFF36F8FFEE723180A5C83F834200A5CE5
:1040700012B1401C1028F6D3002784F84370072D96
:1040800000D30625E562C4E91157201D00F029F987
:1040900004F1180000F025F92461C5F107006462FD
:1040A000A061E76484F8507052464946304600F0FB
:1040B000D9F82060B8F1000F01D0C8F80040BDE881
:1040C000F087000030B5114900E011460A688242CD
:1040D000FBD34B685C18844203D1406818444860A5
:1040E000084643681C18944209D1084C103C2468C7
:1040F000A24209D052681A4442600A6812680260FB
:10410000814200D0086030BD0460F9E770010020F2
:1041100006484168096829B14168C968C9684968A1
:10412000016370474FF0FF31FAE7000024010020DF
:1041300008484068401C4FF0500080F3118804D0BC
:10414000BFF34F8FBFF36F8FFEE7BFF34F8FBFF308
:104150006F8FFEE778010020002150B10A4B4269C1
:104160009A420FD1806AA3F1280290420AD040B14E
:1041700008E0502080F31188BFF34F8FBFF36F8F9B
:10418000FEE70121084670470C0900202DE9F041A7
:104190000546002700F038FA314E306808B9FFF7BD
:1041A000F3FEF06805424BD1C5B3083568070ED061
:1041B00005F00700C0F108000544680707D050204B
:1041C00080F31188BFF34F8FBFF36F8FFEE72DB3DE
:1041D0007068854234D82248103001460C6801E0EE
:1041E00020460C466168A94202D221680029F7D115
:1041F00031688C4224D00768216801606068083704
:10420000411B10290FD96019420708D0502080F3B4
:104210001188BFF34F8FBFF36F8FFEE710E041604F
:104220006560FFF74FFF61687068401A7060B268A0
:10423000904200D2B060F06801430020C4E9000160
:1042400000F04EFB780707D0502080F31188BFF3B1
:104250004F8FBFF36F8FFEE73846BDE8F081000057
:104260006001002010B5031F4FF080741C601B1FFD
:1042700021F001011960191F044B0B6014390A6009
:10428000091F6FF0020244380A6010BD3141000876
:10429000D0E9013201699A60D0E901235A604A6885
:1042A000824201D182684A60002202610868401E91
:1042B0000860086870470000034B036003F1540076
:1042C0000860802010607047D002002000F10801D3
:1042D0004FF0FF32C0E90112C160016100210160AD
:1042E000704700210161704730B50B685A1C02D03D
:1042F00000F1080202E0026904E0224654682568E1
:104300009D42FAD953684B6099608A605160086198
:104310000168491C016030BD42684A6093688B6047
:1043200093685960916008610168491C0160704799
:10433000502080F31188BFF34F8FBFF36F8F0A496E
:104340004868401C486001280CD10848006810F0FB
:10435000FF0F07D0502080F31188BFF34F8FBFF3BA
:104360006F8FFEE7704700007801002004ED00E049
:104370000849486828B1401E486001D180F311887F
:104380007047502080F31188BFF34F8FBFF36F8FBA
:10439000FEE700007801002070B5002827D0144DFA
:1043A000A0F108046168E868014207D1502080F359
:1043B0001188BFF34F8FBFF36F8FFEE722683AB1CA
:1043C000502080F31188BFF34F8FBFF36F8FFEE74C
:1043D0008143616000F018F96068696808446860AA
:1043E0002046FFF76FFEBDE8704000F079BA70BD5F
:1043F000600100204FF0E02000210161816105494A
:104400004FF47A720968B1FBF2F1491E416107214C
:10441000016170472001002010B5020014D00F4840
:10442000806B38B1502080F31188BFF34F8FBFF3FA
:104430006F8FFEE700F0E8F800211046FFF7EAFC76
:1044400000F04EFA002807D105494FF0805008606F
:10445000BFF34F8FBFF36F8F10BD0000240100200A
:1044600004ED00E070B504002BD01A4D286884429A
:104470002FD0FFF75DFF2046FFF76EFEE8B1201D4D
:10448000FFF706FFE06A0121AA6981401143A96193
:10449000114900EB800001EB8000211DFFF73CFF7C
:1044A000E06A2968C96A884207D30C494FF08050F6
:1044B0000860BFF34F8FBFF36F8FBDE87040FFF709
:1044C00057BF502080F31188BFF34F8FBFF36F8F1A
:1044D000FEE770BD240100203008002004ED00E05C
:1044E00010B586B00024039405AA04A903A8049477
:1044F000FFF7E2FEDDE903010094CDE9011000239E
:104500000EA11048059A00F05CF90F490028486395
:1045100011D0502080F31188BFF34F8FBFF36F8FFE
:104520004FF0FF3008630120C8614C6106B0BDE860
:10453000104000F09FB806B010BD000049444C4543
:1045400000000000D53F00082401002070B504469B
:10455000FFF7EEFE294D04B92C68201DFFF798FEE9
:1045600058B9E06A264A00EB800152F8211021B9BF
:1045700001218140A8698843A861A06A18B104F1AB
:104580001800FFF785FE1E48211DDC30FFF7C4FE32
:1045900094F850000026012801D184F85060FFF7FC
:1045A000E7FEE86928B1FFF7C3FEFFF7B1FDFFF7AB
:1045B000DFFE2868844213D1E86990B1A86B38B156
:1045C000502080F31188BFF34F8FBFF36F8FFEE74A
:1045D0000C494FF080500860BFF34F8FBFF36F8FCF
:1045E00070BD0748DC3000682969884201D12E601F
:1045F00070BDBDE8704000F00FB80000240100203D
:104600003008002004ED00E00248816B491C816302
:1046100070470000240100201448816B11B1012172
:1046200041627047002141628169B1FA81F1C1F1B3
:104630001F0101EB81020E4951F822306BB101EBF1
:10464000820101F108034A6852684A609A4201D126
:1046500052684A60D16801607047502080F3118829
:10466000BFF34F8FBFF36F8FFEE7000024010020E0
:10467000300800201CB537480168374A914207D1FD
:10468000502080F31188BFF34F8FBFF36F8FFEE789
:1046900000683149491E884207D1502080F31188B3
:1046A000BFF34F8FBFF36F8FFEE72C49087801905F
:1046B000FF20087008788DF800009DF800009DF834
:1046C000002000F0F000904207D0502080F31188C5
:1046D000BFF34F8FBFF36F8FFEE79DF80000204BB5
:1046E00000F0500018700720986005E09DF8002049
:1046F00052008DF80020401E9DF800201206F5D4CF
:104700009860032807D0502080F31188BFF34F8FA3
:10471000BFF36F8FFEE74FF4407098600198087008
:104720000C482030016841F470010160016841F0DB
:1047300070410160FFF75EFE00205860FBF75AFDF4
:104740000848016841F040410160FBF73FFD00204F
:104750001CBD000000ED00E071C20F4100E400E06C
:104760007801002034EF00E02DE9FF5F8346DDE9AA
:104770000E87994616468A469000FFF707FD05000A
:104780001CD05420FFF702FD040014D00020256344
:1047900084F85100CDE90240CDE900874B4632460E
:1047A00051465846FFF746FC2046FFF76BFB0120B9
:1047B00004B0BDE8F09F2846FFF7EEFD4FF0FF3054
:1047C000F6E7F0B585B0DDE90B640A9DA6B1DCB172
:1047D000542700972663022684F85160002604AF10
:1047E000CDE90246CDE90057FFF724FC2046FFF74C
:1047F00049FB049805B0F0BD502080F31188BFF349
:104800004F8FBFF36F8FFEE7502080F31188BFF307
:104810004F8FBFF36F8FFEE72DE9F0412E4C00273D
:10482000A06B40B1206A401C2062606A00B1012781
:104830003846BDE8F0816669761C666113D1606810
:10484000006838B1502080F31188BFF34F8FBFF359
:104850006F8FFEE76068A1686160A060A06A401C7D
:10486000A062FFF755FC206BDFF87080864209D309
:104870006068006880B16068C068C5686868864222
:104880000DD220632068C06A00EB800158F8210037
:104890000128CAD90127C8E74FF0FF30F1E7281DEA
:1048A000FFF7F6FCA86A18B105F11800FFF7F0FC55
:1048B000E86A0121A26981401143A16100EB8001F6
:1048C00008EB8100291DFFF727FDE86A2168C96A06
:1048D0008842CDD30127CBE72401002030080020F7
:1048E0002DE9F0472C4D00242746A86B38B1FFF77F
:1048F0001FFDA86B401EA863A86B40B146E0502086
:1049000080F31188BFF34F8FBFF36F8FFEE72969E4
:10491000224E0120D1B3A6F1B40980463068E8B137
:10492000F068C46804F11800FFF7B2FC201DFFF71F
:10493000AFFCE06AAA6908FA00F11143A96100EB33
:10494000800109EB8100211DFFF7E6FCE06A296880
:10495000C96A8842E2D3C5F82480DFE70CB1FFF7CB
:10496000D7FB2C6A44B14646FFF756FF00B16E6292
:10497000641EF9D100202862686A38B1084901270D
:1049800038070860BFF34F8FBFF36F8FFFF7F0FC5E
:104990003846BDE8F087000024010020E40800202C
:1049A00004ED00E0D44A00082D2A000800000000B1
:1049B0000000000080000000000000000000000077
:1049C000C44A0008D12A00080000000000000000CE
:1049D000800000000000000000000000B04A000855
:1049E000E12C00080300000000000000800000002F
:1049F00000000000000000006C4A0008F9290008CF
:104A00000200000000000000F401000000000000AF
:104A100000000000844A0008013400080000000083
:104A20000000000080000000000000000000000006
:104A3000A04A0008212C000802000000000000002D
:104A400080000000000000000000000000061016BA
:104A50000006101600000000000000000102030420
:104A60000607080900000000010203045461736B8B
:104A70005F436865636B5F524649445F6E616D6575
:104A80000000000063616C63756C61746F725F4459
:104A9000696A6B737472615F6E616D65000000001E
:104AA0005461736B6D6F76655F6E616D65000000BC
:104AB0005461736B6D6F76654469725F6E616D658D
:104AC000000000005461736B5F556172745F6E612A
:104AD0006D6500005461736B5F436865636B5F5283
:104AE000656164795F6E616D650000000C4B0008C4
:104AF0000000002084010000E4030008B44B00081B
:104B0000840100209C47000090320008013036FFED
:104B1000816FC8D93EB082AEA539102B94D3083628
:104B200063826A32B9364A816D8F29362D81BB6E18
:104B30007936D8826C2F193E7282675EC9102BDCE1
:104B40009F1036A63E0B44D736B83BDDC799363E9C
:104B50003588F47736873D0825972D19436E8D509B
:104B600036AD886F23692D5181AB525836848194BC
:104B7000D849362482622DE946C383C6DF592C8189
:104B800081692836BC82CAFD092D5D82CA8C5836DF
:104B900058826D1EA936E63E0EC117362EC50D6F22
:104BA000890A160101291C318210035924F41AAA1A
:044BB00001410000BF
:040000050800019955
:00000001FF
