:020000040800F2
:10000000304900206D020008E32500081122000895
:10001000E12500083B040008A130000800000000B2
:10002000000000000000000000000000AD0100081A
:10003000910B000800000000090200089D2700083D
:10004000870200088702000887020008870200086C
:10005000870200088702000887020008870200085C
:10006000870200088702000887020008870200084C
:10007000870200088702000887020008870200083C
:10008000D50A0008E10A0008870200080000000005
:1000900000000000000000000000000087020008CF
:1000A000870200088702000887020008870200080C
:1000B00087020008870200086928000887020008F4
:1000C00087020008870200088702000887020008EC
:1000D0008702000887020008953000080000000031
:1000E000870200088702000887020008000000005D
:1000F000000000000000000000000000870200086F
:10010000000000008702000887020008870200083C
:1001100000000000000000000000000000000000DF
:10012000870200088702000887020008870200088B
:10013000870200080000000000000000000000002E
:10014000000000000000000000000000870200081E
:10015000870200088702000887020008870200085B
:10016000870200088702000800000000000000006D
:10017000000000000000000000000000000000007F
:1001800000000000870200080000000000000000DE
:100190008702000887020008DFF80CD000F010F991
:1001A0000048004771340008304900202C4B196882
:1001B0000868B0E8F04F80F30988BFF36F8F4FF005
:1001C000000080F3118870470000000008480068B4
:1001D000006880F308884FF0000080F3148862B64E
:1001E00061B6BFF34F8FBFF36F8F00DF00BF00BF5B
:1001F00008ED00E0DFF80C00016841F470010160D7
:10020000704700BF88ED00E0EFF30980BFF36F8F08
:10021000134B1A681EF0100F08BF20ED108A20E95A
:10022000F04F106009B44FF0500080F31188BFF315
:100230004F8FBFF36F8F04F057F94FF0000080F33A
:10024000118809BC19680868B0E8F04F1EF0100F5B
:1002500008BFB0EC108A80F30988BFF36F8F704736
:100260001C010020EFF3058070470000064880471E
:1002700006480047FEE7FEE7FEE7FEE7FEE7FEE78B
:10028000FEE7FEE7FEE7FEE74D28000899010008BB
:100290002DE9F05F0546002092469B4688460646BB
:1002A000814640241BE0284641464746224600F04E
:1002B00077F853465A46C01A914110D31146184652
:1002C000224600F05EF82D1A67EB01084F462246E1
:1002D0000120002100F055F817EB00094E41201EC7
:1002E000A4F10104DFDC484631462A464346BDE816
:1002F000F09F40EA01039B0703D009E008C9121FE1
:1003000008C0042AFAD203E011F8013B00F8013BCF
:10031000521EF9D27047D2B201E000F8012B491EFB
:10032000FBD270470022F6E710B513460A46044692
:100330001946FFF7F0FF204610BD10B5002200E07F
:10034000521C835C8C5CA34201D1002BF8D1D8B243
:10035000E1B2401A10BD30B50B4601460020202204
:10036000012409E021FA02F59D4205D303FA02F5C2
:10037000491B04FA02F52844151EA2F10102F1DC22
:1003800030BD202A04DB203A00FA02F10020704739
:100390009140C2F1200320FA03F3194390407047C3
:1003A000202A04DB203A21FA02F00021704721FACA
:1003B00002F3D040C2F12002914008431946704731
:1003C000064C074D06E0E06840F0010394E80700A2
:1003D00098471034AC42F6D3FFF7E2FEBC49000860
:1003E000DC49000870B58C1810F8015B15F00703A4
:1003F00001D110F8013B2A1106D110F8012B03E0BE
:1004000010F8016B01F8016B5B1EF9D12B0705D4C5
:100410000023521E0DD401F8013BFAE710F8013B0E
:10042000CB1A921C03E013F8015B01F8015B521E2A
:10043000F9D5A142D8D3002070BDFEE72DE9F04FD9
:10044000F84A104657780578012F01D1012D08D0C0
:100450000021F548012D4176F24991F8058002D03E
:1004600004E00121F5E7B8F1010F06D05FF00001CB
:1004700080F87D10012D02D003E00121F8E7012F63
:1004800005D0002141709178012902D003E00121BB
:10049000F8E7012F06D0002380F833309479012C3F
:1004A00002D003E00123F7E7012F06D05FF000033D
:1004B00080F89730012F02D003E00123F8E70129EB
:1004C00007D00023C37692F803C0BCF1010F02D01D
:1004D00003E00123F6E7012906D0002380F84D3020
:1004E000D379012B02D003E00123F7E7012906D0DD
:1004F0005FF0000680F8B160012902D004E0012617
:10050000F8E7BCF1010F08D05FF0000680F8356015
:100510001679B346012E02D004E00126F6E7BCF1BD
:10052000010F08D05FF0000680F867609146127AEC
:10053000012A02D004E00126F6E7BCF1010F07D042
:100540005FF0000680F8CB60BCF1010F02D005E03F
:100550000126F7E75E46BBF1010F00D0002680F8C8
:100560004F6099F809A08646BAF1010F02D1BBF19C
:10057000010F07D000268EF8E56070464E46012D2B
:1005800002D004E00126F6E7B8F1010F04D00025FF
:100590004571012C02D004E00125F9E7B8F1010F03
:1005A00008D000258EF89B5096F80A90B9F1010FFB
:1005B00002D004E00125F5E7B8F1010F06D00020D4
:1005C00075468EF8FF00012F02D003E00120F7E707
:1005D000012C05D00020E877B8F1010F02D003E02C
:1005E0000120F8E7012C06D05FF0000085F88300B9
:1005F000012B02D003E00120F8E7012C06D00020F7
:1006000085F8B500F77A012F02D003E00120F7E763
:10061000012C06D05FF0000085F81901012902D0F5
:1006200003E00120F8E7012B05D0002085F8390010
:10063000012C02D003E00120F8E7012B05D00020B7
:1006400085F89D00012A02D003E00120F8E7012B84
:1006500006D0002085F8CF00317B012902D003E0CD
:100660000120F7E7012B07D05FF0000085F8330188
:10067000BCF1010F02D003E00120F7E7012A06D008
:100680005FF0000085F85300012B02D003E0012049
:10069000F8E7012A06D0002085F8B700BAF1010F6B
:1006A00002D003E00120F7E7012A07D05FF0000045
:1006B00085F8E900707B012802D003E00120F7E70C
:1006C000012A07D04FF0000C85F84DC1BBF1010F96
:1006D00003D006E04FF0010CF6E7D446BAF1010F63
:1006E00001D04FF0000C85F86DC0012A03D1D4462B
:1006F000BAF1010F01D04FF0000C8EF8D1C0B34613
:10070000B67B012E02D1BAF1010F08D04FF0000CD8
:1007100075468EF867C1B8F1010F03D006E04FF0BF
:10072000010CF5E7C846B9F1010F01D04FF0000800
:1007300085F88780012F03D1C846B9F1010F01D098
:100740004FF0000885F81D819BF80F80B8F1010F6C
:1007500003D1CC46B9F1010F01D04FF0000C85F860
:1007600081C1DC46012C01D1012F07D05FF00004CC
:1007700085F8A140B9F1010F02D003E00124F7E7A9
:10078000012F06D05FF0000485F80541012902D051
:1007900003E00124F8E7012F05D0002485F8374154
:1007A000012B02D003E00124F8E7012905D0002342
:1007B00085F8BB30012F02D003E00123F8E70129BF
:1007C00005D0002385F81F31012802D003E0012362
:1007D000F8E7012907D0002385F851319CF8113042
:1007E000012B02D003E00123F6E7012905D0002404
:1007F00085F8B541012A02D003E00124F8E7012879
:1008000005D0002285F8D520012902D003E001227D
:10081000F8E701280AD0002285F83921012E07D0F7
:1008200008E00000F0000020C80500200122F3E7E6
:10083000012808D05FF0000285F86B219CF8122097
:10084000012A02D003E00122F6E7012806D00024A5
:1008500085F8CF41BAF1010F02D003E00124F7E798
:10086000012E06D05FF0000485F8EF40012802D089
:1008700003E00124F8E7012E07D0002485F8534156
:100880009CF81340012C02D003E00124F6E7012E6E
:1008900006D0002785F8E971B9F1010F02D004E014
:1008A0000127F7E7B8F1010F08D0002785F8097193
:1008B0009BF81470D946012F02D004E00127F5E718
:1008C000B8F1010F07D04FF0000C00BF85F803C24C
:1008D000012903D004E04FF0010CF7E7012B06D00B
:1008E0005FF0000185F83D11012A02D003E00121EB
:1008F000F8E7012B07D0002185F8D31199F81610DD
:10090000012902D003E00121F6E7012B07D04FF0C7
:10091000000C00BF85F837C2012803D004E04FF077
:10092000010CF7E7012A06D05FF0000085F85701B7
:10093000012B02D003E00120F8E7012A05D00020B6
:1009400085F8BB01012C02D003E00120F8E7012A61
:1009500007D0002085F8ED0199F81700012802D092
:1009600003E00120F6E7012A07D04FF0000C00BF9A
:1009700085F851C2012E03D004E04FF0010CF7E7D7
:10098000012C06D05FF0000685F87161012A02D0C3
:1009900003E00126F8E7012C07D0002685F8D56191
:1009A00099F81860012E02D003E00126F6E7012C29
:1009B00008D04FF0000C00BF85F86BC2B8F1010FF2
:1009C00003D004E04FF0010CF6E7012F0AD04FF0FE
:1009D000000800BF85F88B8199F815C0BCF1010FA4
:1009E00003D004E04FF00108F4E7012F07D04FF0E7
:1009F000000800BF85F82182012F03D005E04FF0E9
:100A00000108F7E7BCF1010F05D0002785F809724E
:100A1000012902D004E00127F8E7BCF1010F06D05C
:100A20005FF0000785F83B72012B02D003E001273D
:100A3000F8E7012906D0002385F8BF31BCF1010F8A
:100A400002D003E00123F7E7012906D05FF000039D
:100A500085F82332012802D003E00123F8E70129B9
:100A600005D0002385F85532012A02D003E0012386
:100A7000F8E7012805D0002285F8D921012902D004
:100A800003E00122F8E7012805D0002185F83D1296
:100A9000012E02D003E00121F8E7012805D0002152
:100AA00085F86F12012C02D003E00121F8E7012E36
:100AB00005D0002185F8F311012802D003E00121BF
:100AC000F8E7012E04D000208EF85702BDE8F08F21
:100AD0000120F9E7014800F0CFB900001C02002016
:100AE000014800F0C9B900007C0200200168182309
:100AF000CAB2103AB2FBF3F2054B6FF30901032AB5
:100B00009B5CC36500D9091D8165084670470000DC
:100B10001C49000810B5014600208B698A6A4FF015
:100B2000C07453B1B3F5005F15D072B1012A0CD077
:100B3000022A0AD0032A09D104E01AB1012A06D0F8
:100B4000022A03D1C96AC90100D5012010BDC96AB2
:100B5000A142FAD010BD002AF7D0012AF2D0022A11
:100B6000F3D0032AF3D010BD30B50468256825F40E
:100B700080252560046863608368402B036803D088
:100B800099600068C26030BD9A600068C16030BD85
:100B9000704700002DE9F74FA8B08B46FFF74EFCD9
:100BA0004FF000088DF84B80404650211AAB13AC33
:100BB00021AE6A462154315403F8008002F80080C7
:100BC0001518401C85F81980C0B285F832801928A4
:100BD000F0D3DFF8909104F80B8000254FF0010A64
:100BE0000020195C11B9215C502903D1401CC0B20E
:100BF0001928F6D3411C08E05F5C2FB9675C14F834
:100C000000C0674500D20846491CC9B21929F3D370
:100C100003F800A000215F5C87B900EBC00707EB79
:100C2000001C0CEB09077F5C47B114F800C0674457
:100C300014F801C0674501D267547054491CC9B209
:100C40001929E8D36D1CEDB2192DC9D32A9802F1E8
:100C5000190402F132030025002105EB850700BFCE
:100C600007EB010C844506D19DF84B703D559DF86E
:100C70004B50E95410E0042D06D1042904D1182862
:100C800002D08DF84B8065E0491CC9B20529E7D335
:100C90006D1CEDB2052DDFD39DF84B10192959D8E5
:100CA000192857D8305C491C8DF84B105845D2D1C3
:100CB0000025002105EB85067718874206D19DF8AF
:100CC0004B0005559DF84B00C15407E0491CC9B2C3
:100CD0000529F1D36D1CEDB2052DEAD3002135E0D5
:100CE0005018447E837E9C4207D190F8325090F891
:100CF0003360B54201D102F801809C4207D190F8DF
:100D0000325090F83360B54201D902F801A09C42FC
:100D100007D990F8325090F83360B54201D10225DE
:100D200055549C4207D190F8325090F83360B54248
:100D300001D2032555549C4206D210F8323F407828
:100D4000834201D104205054491CC9B29DF84B0084
:100D50008842C5D84C2269462898FFF7CAFA2BB0BA
:100D6000BDE8F08FC805002070472DE9F04104462A
:100D7000022677274FF03008F721304601F009FCB2
:100D80008021042001F0F6FA80210A2001F06CFB9A
:100D90000021012001F0FDFB2178092001F0F9FB81
:100DA0000C21012001F0F5FB80210D2001F05CFBFE
:100DB0004FF4FA65042001F043FB6D1E2D04044638
:100DC0002D0C04D0E00702D114EA080FF2D08021E4
:100DD0000D2001F0CFFA35B1062001F031FB10F003
:100DE0001B0F03D002263046BDE8F08100263C40B0
:100DF000E007F8D00126F6E730B5144887B00024A4
:100E0000016841F0080101600068142100F0080049
:100E100005906846FFF786FA0D4D00224FF47041A9
:100E2000284600F06CFA01220621284600F067FAF5
:100E30004FF2060000900120CDE9010469462846E2
:100E4000039400F08BF907B030BD00003038024049
:100E5000000C024090F83510022903D08021416532
:100E600001207047052180F835100068016821F0E5
:100E700001010160002070472DE9F84304464FF05E
:100E80000009CDF8009063484FF41651A56D006835
:100E9000B0FBF1F72E6894F85C10082000FA01F11D
:100EA00031420FD021680A6852070BD50A6822F038
:100EB00004020A6094F85C108840A860606D40F0FD
:100EC0000100606594F85C104FF0010808FA01F029
:100ED000304208D021684969090604D5A860606DD0
:100EE00040F00200606594F85C10042088403042B5
:100EF00008D021680968890704D5A860606D40F0B2
:100F00000400606594F85C1010208840304218D0CE
:100F100021680968090714D5A86020680168490399
:100F200004D50068000308D5A16C07E00168C90575
:100F300003D4016821F008010160216C09B1204649
:100F4000884794F85C1020208840304231D02168D6
:100F50000968C9062DD5A86094F8350005282068D1
:100F6000016806D0490347D5006800031DD4616CB1
:100F70001CE021F0160101602068416921F0800128
:100F80004161206C08B9A06C20B12068016821F093
:100F90000801016094F85C103F208840A86084F844
:100FA000349084F83580216D1FE0E16B09B1204653
:100FB0008847606D00282BD0606DC00714D00520D5
:100FC00084F835002068016821F001010160009873
:100FD000401C0090B84203D820680068C007F6D1D2
:100FE00084F8349084F83580E16C002910D001B089
:100FF0002046BDE8F04308470168C905D5D401681B
:1010000021F01001016084F8349084F83580CCE739
:10101000BDE8F883180100202DE9F041044600F0F6
:1010200073F906465CB1002584F83450022084F838
:1010300035002068016821F0010101600DE0012008
:10104000BDE8F08100F060F9801B052805D920205B
:101050006065032084F83500F2E720680068C00767
:10106000F0D12268116820480140D4E901031843F7
:10107000D4E903363343184363691843A36918431B
:10108000E3691843236A18430843616A042903D1BA
:10109000D4E90B1319430843106020684069666A5D
:1010A00020F0070130460E43012704280CD1A06A26
:1010B0000643E06A40B12046FFF72CFD20B14020F6
:1010C000606584F83570BAE7206846612046FFF70E
:1010D0000DFD94F85C203F2191408160656584F8A6
:1010E00035700020ACE700003F8010F02DE9F041A2
:1010F0000446866D90F83400002501280DD00120AB
:1011000084F8340094F835700020012F07D084F85B
:10111000340002252846BDE8F0810220FBE70227C3
:1011200084F8357060652046FFF71EFD94F85C106A
:101130003F208840B0602068016841F016010160DE
:10114000206C20B12068016841F00801016020682E
:10115000016841F001010160DCE700002DE9F84F72
:1011600000224FF0010803254FF00F0E0B6808FA1C
:1011700002F42340A34271D14E68012E05D0022E05
:1011800003D0112E01D0122E15D18668570005FA12
:1011900007FC26EA0C06D1F80CC00CFA07FC4CEA56
:1011A000060CC0F808C04668A6430C79C4F30014C6
:1011B000944034434460C668570005FA07FC8C68C5
:1011C00026EA0C06BC403443C4604C68022C01D0B3
:1011D000122C13D1D40800EB8404A346D4F8209039
:1011E00054074FEAD46A0EFA0AF629EA06090E698C
:1011F00006FA0AF646EA0906CBF8206004680E797A
:1012000024EA0C0406F00306BE40264306604C6840
:10121000E40056D52E4C266846F4804626602468A5
:1012200022F0030604F4804400942A4C3444A4467B
:10123000D4F808489607370F0EFA07F6B443264E3F
:10124000B04201D1002615E0244EB04201D1012662
:1012500010E0234EB04202D102260BE031E0214ED5
:10126000B04201D1032605E01F4EB04201D1042651
:1012700000E00726BE402643CCF808681B4E3468C1
:101280004F689C43FF0300D51C433460174E361D46
:1012900034684F689C43BF0300D51C433460134E31
:1012A000083634684F689C43FF0200D51C43346005
:1012B0000E4E0C3634684F689C43BF0200D51C4369
:1012C0003460521C102AFFF451AFBDE8F88F0000C3
:1012D0004438024000300140000002400004024057
:1012E00000080240000C024000100240003C014097
:1012F000426931EA020200D10904816170470AB1F2
:10130000816170470904FBE701488068704700006D
:101310000C01002002488168027811448160704706
:101320000C0100200B4810B5016841F40071016008
:10133000016841F480610160016841F480710160DD
:10134000032000F08DF8002000F006F800F03EF8D1
:10135000002010BD003C024010B5014688B00022BC
:101360001E2000F05DF81E2000F04CF81348002409
:10137000016841F004010160006805A900F0040063
:101380000690684600F018F900F036F90C49400064
:10139000B0FBF1F10C480B4A491E026040F2E73203
:1013A000C0E90324C0E9011400F08BFC10B1012056
:1013B00008B010BD044800F0A0FCF9E74038024036
:1013C00040420F0000080040300500200C4882B069
:1013D000016841F480410160006800F480400090A1
:1013E0000748001F016841F0805101600068002239
:1013F00000F0805000900F21901E02B000F010B855
:1014000044380240002809DB00F01F02012191400E
:101410004009800000F1E020C0F800117047000092
:10142000F0B40E4B1B680C46C3F30223C3F107054F
:10143000042D00D90425191D072901D2002300E03D
:10144000DB1E012606FA05F1491E214099409E4007
:10145000761E16403143F0BC01F06EBE0CED00E08C
:10146000064900F0070208684FF6FF03184040EAFB
:101470000220034A10430860704700000CED00E0B2
:101480000000FA052DE9F0470E46050065D0DFF8AB
:101490001481D8F80000F7B200F00F00B04207D274
:1014A00088F80070D8F8000000F00F00B04254D166
:1014B00028683D4C810712D5400703D5206840F4C9
:1014C000E05020602878000703D5206840F4604091
:1014D00020602068A96820F0F00008432060287888
:1014E000C0072DD0304968680839012812D0022879
:1014F00013D0032811D00968890700292DDA216843
:1015000021F0030101432160FFF7FEFE814641F215
:10151000883A0EE009688903EFE709688901ECE77A
:10152000FFF7F2FEA0EB0901514502D90320BDE807
:10153000F0872068696800F00C00B0EB810FEFD1F4
:10154000D8F80010404601F00F01B14207D90770EA
:10155000006800F00F00B04201D00120E7E72878D2
:10156000400705D52068E96820F4E0500843206072
:101570002878000706D52068296920F4604040EAF1
:10158000C100206000F058F82168084AC1F3031137
:10159000515CC8400649086006480068FFF7DCFE59
:1015A0000020C4E7003C02400838024024490008FB
:1015B00018010020100100200F2202600C4A13685D
:1015C00003F003034360136803F0F00383601368C0
:1015D00003F4E053C36012684FF4E05303EAD2020D
:1015E00002610448006800F00F00086070470000C6
:1015F00008380240003C0240044805490068096878
:10160000044AC1F38221515CC84070471801002090
:101610000838024034490008044805490068096850
:10162000044AC1F34231515CC840704718010020A0
:101630000838024034490008154810B5006810F019
:101640000C02144813D04110042A0FD0082A0ED1DE
:101650000F4C241F2268236802F03F025B0207D56B
:101660002068C0F38810A0FB010106E0084610BD09
:101670002168C1F38811A1FB00010023FEF708FED9
:101680002168C1F30141491C4900B0FBF1F010BDD4
:10169000083802400024F4002DE9F84F040076D009
:1016A0002078DFF838A3CE4DC00749D0DAF8001013
:1016B0005046C1F38101012908D00068C0F38100C0
:1016C00002280AD1281D0068400206D52868800338
:1016D00036D560680028E2D032E06068B0F5803F1F
:1016E00010D0B0F5A02F286810D020F480302860EA
:1016F000286820F4802028606068A0B1FFF704FE0D
:1017000006460CE0286840F48030F4E740F480207E
:101710002860F7E7FFF7F8FD801B642873D8286876
:101720008003F7D50CE0FFF7EFFD064605E000BFAC
:10173000FFF7EAFD801B6428F0D828688003F7D4FF
:101740002078DFF8A08280074FF000093ED5DAF854
:101750000010504611F00C0F09D00068C0F3810052
:1017600002280BD19D48001F0068400206D428685B
:10177000800715D5E068012809D111E0E068B8B10B
:101780000120C8F80000FFF7BFFD064605E020E194
:10179000FFF7BAFD801B0228C0D828688007F7D55C
:1017A0002868216920F0F80040EAC10028600DE0B7
:1017B000C8F80090FFF7A8FD064604E0FFF7A4FD77
:1017C000801B02281FD828688007F7D420780007DC
:1017D00022D5824E844861696C3671B10121016065
:1017E000FFF792FD074604E0FFF78EFDC01B0228BD
:1017F00009D830688007F7D50EE0C0F80090FFF7F1
:1018000083FD074605E082E0FFF77EFDC01B02284E
:101810007DD830688007F7D42078400768D5DFF896
:10182000BCB100270BF1380BDBF80000C0000BD473
:10183000DBF8001041F08051CBF80010DBF800001D
:10184000012700F080500090684E3068C00510D429
:10185000306840F480703060FFF756FD009005E07E
:10186000FFF752FD0099401A022850D83068C00591
:10187000F6D55A4EA068683601280FD00528306882
:1018800010D020F001003060306820F0040030609B
:10189000A068B8B1FFF738FD00900FE0306840F065
:1018A0000100F4E740F004003060F7E7FFF72CFD9B
:1018B0000099411A41F28830814266D83068800729
:1018C000F4D50EE0FFF720FD009007E0FFF71CFDC8
:1018D0000099411A41F28830814256D83068800719
:1018E000F4D42FB1DBF8001021F08051CBF80010B8
:1018F000A069D0B3DAF800205146C2F38102022A6F
:101900004AD00228484607D0C8F8600000E03CE012
:10191000FFF7FAFC04463BE04746C8F86000FFF7D3
:10192000F3FC064605E000BFFFF7EEFC801B022833
:101930002BD828688001F7D4D4E907010843A16AAD
:101940002B4A490802EB0141626A41EA82110843CD
:1019500094F82C1040EA01612048001F016001202A
:101960003866FFF7D1FC044605E034E0FFF7CCFC15
:10197000001B022809D828688001F7D52BE000BF9A
:10198000FFF7C2FC001B022802D90320BDE8F88F34
:1019900028688001F4D41EE00128F7D00868E269C5
:1019A00000F48001914214D1226A00F03F0191427B
:1019B0000FD147F6C071626A0140914209D1A26A13
:1019C00000F44031914204D1E16A00F07060884235
:1019D00001D00120DAE70020D8E7000008380240F3
:1019E0000038024000004742800E4742007000402D
:1019F0000000FFFF70B5040005D00025A56294F833
:101A0000510010B106E0012070BD84F8505020460E
:101A100000F030F8022084F851002068016821F0BD
:101A200040010160D4E901010843D4E903121143E4
:101A3000084361690843218B01F400710843E1699F
:101A40000843216A0843A16A084321680860A06925
:101A5000042101EA1040616A084321684860206857
:101A6000C16921F40061C1616565012084F85100FC
:101A7000002070BD10B586B0044614216846FEF7FC
:101A800051FC13492068884220D112480021026885
:101A900042F480520260006800F4805005900D48C6
:101AA0001438026842F001020260006800F0010090
:101AB0000590E02000900220CDE901010320039071
:101AC0000520049069460448FFF748FB06B010BDA6
:101AD0000030014044380240000002402DE9F84F38
:101AE000044690F8500000270A9E1D4692468B46F9
:101AF0004FF0010901280ED0012084F85000FFF7B3
:101B000003FC804694F85100616801280CD0B1F5BF
:101B1000827F07D102E00220BDE8F88FA16809B9F1
:101B2000042801D00227C2E0BBF1000F27D0BAF190
:101B3000000F24D01DB394F85100042802D00520D2
:101B400084F8510000206065C4F838A0E587A587B7
:101B5000C4F830B0E586A58620646064206801681A
:101B6000490603D4016841F040010160E068B0F526
:101B7000006F606805D0E8B3012D46D07FE00127F3
:101B800095E008B1012D39D1206B21680088C8602B
:101B9000206B801C2063E08E401EE0862EE02068D3
:101BA000816889070FD5E18E69B1B9F1010F0AD1BA
:101BB000216B0988C160206B801C2063E08E401E71
:101BC000E0864FF0000920688168C9070CD0E18FDA
:101BD00051B1C068A16B0880A06B801CA063E08F2E
:101BE000401EE0874FF00109FFF78EFBA0EB0800D5
:101BF000B04200E009E001D3701C50D1E08E002813
:101C0000CDD1E08F0028CAD13FE0206B2168007859
:101C10000873206B401C2063E08E401EE0862EE09F
:101C20002068816889070FD5E18E69B1B9F1010F8C
:101C30000AD1216B09780173206B401C2063E08E70
:101C4000401EE0864FF0000920688168C9070CD06B
:101C5000E18F51B1C068A16B0870A06B401CA063FC
:101C6000E08F401EE0874FF00109FFF74DFBA0EB2E
:101C70000800B04202D3701C01D010E07EB1E08EAB
:101C80000028CDD1E08F0028CAD1424631462046F7
:101C900000F00EFD28B101272020606507E0032732
:101CA00005E0A06818B92068C1688068009001202C
:101CB00084F85100002084F8500038462CE7704723
:101CC000704710B5040003D094F83D0010B107E050
:101CD000012010BD002084F83C00204600F00CF8E4
:101CE000022084F83D00211D206800F0C3FD012082
:101CF00084F83D00002010BD70470168CA6842F0BA
:101D00000102CA600068816801F00701062903D05A
:101D1000016841F00101016000207047704770B513
:101D20000446006801694FF00005C943890715D4CE
:101D3000C168C943890711D4E91E016101202077D8
:101D4000206880698007204602D0FFF7E7FF04E0A3
:101D500000F098F8204600F096F825772068016991
:101D6000C943490717D4C168C943490713D46FF061
:101D700004010161022020772068806910F4407F0F
:101D8000204602D0FFF7CAFF04E000F07BF82046AF
:101D900000F079F8257720680169C943090716D44E
:101DA000C168C943090712D46FF00801016104201A
:101DB00020772068C0698007204602D0FFF7AEFF79
:101DC00004E000F05FF8204600F05DF82577206819
:101DD0000169C943C90617D4C168C943C90613D4E8
:101DE0006FF010010161082020772068C06910F4AD
:101DF000407F204602D0FFF791FF04E000F042F858
:101E0000204600F040F8257720680169C943C907DA
:101E100008D1C168C943C90704D1891E01612046A0
:101E200000F032F820680169C943090609D4C16885
:101E3000C943090605D46FF0800101612046FFF710
:101E40003EFF20680169C943490609D4C168C943F6
:101E5000490605D46FF040010161204600F01EF8EC
:101E600020680169C94389060BD4C168C943890642
:101E700007D46FF0200101612046BDE87040FFF7F4
:101E80001FBF70BD7047704700680349884201D189
:101E9000FFF740BA704700000008004070477047E5
:101EA00070B5026804461068D168536910F00F0FCE
:101EB00052D003F0010501F490762E435FD0C207A3
:101EC00005D0CA0503D5E26B42F00102E263420786
:101ED00005D5DA0703D0E26B42F00202E263820723
:101EE00005D5DA0703D0E26B42F00402E263020791
:101EF00007D501F020022A4303D0E26B42F008022A
:101F0000E263E26B002A33D0800604D5880602D54E
:101F1000204600F0ADFF20684069E16BC0F38010FF
:101F2000090700D428B3204600F060FF206841690B
:101F300049061AD5416921F040014161606BA0B1A9
:101F40001B490165606BFEF785FF002810D0606BB0
:101F5000016DBDE870400847830610D58B060ED58D
:101F60002046BDE8704000F083BF2046FFF797FF92
:101F700070BD2046FFF793FF0020E06370BD0306AD
:101F800006D50B0604D52046BDE8704001F050B8D8
:101F90004006F3D54806F1D5D168204621F040012E
:101FA000D160202184F8391000F030F970BD0000B4
:101FB000712C000870B5040004D094F83900002595
:101FC00010B106E0012070BD84F83850204600F0C2
:101FD00023F8242084F839002068C16821F40051D6
:101FE000C160204600F090FF2068016921F4904113
:101FF00001612068416921F02A0141612068C168BE
:1020000041F40051C160E563202084F8390084F870
:102010003A00002070BD00002DE9F04186B0064670
:1020200014216846FEF77EF92B49306888424FD16B
:102030002A480024016841F400310160006800F47E
:102040000030059025481038016841F00101016019
:102050000068694600F0010005900C200090022005
:1020600001900120029003200390072004901C4857
:10207000FFF774F81C4D1B484FF000672860C5E956
:1020800001744FF48068C5E903486C61AC61EC6190
:102090002C6228466C62FEF7BFFF08B1FEF764FEB3
:1020A0007563AE630F48114D1830E5E80207402014
:1020B000A5E811010D4845F81449AC61EC612C62AA
:1020C0006C62FEF7A9FF08B1FEF74EFE3563AE6302
:1020D00006B0BDE8F08100000044004040380240F6
:1020E00000000240886002401C0200207C020020A8
:1020F000F8B5044690F83A0020283CD1C1B3BAB3F1
:1021000094F83800012836D0012084F83800A16204
:10211000A2850025E563222084F83A00636B174806
:10212000D863636B16481864636B1648D864606B99
:10213000134605650846666B216802463046091D50
:10214000FEF7D4FF206801684168009184F8385098
:10215000C16841F48071C1602068416941F00101AA
:1021600041612068416941F0400141610020F8BDB2
:10217000FFE70120FBE70220F9E70000CB2C000875
:10218000072D0008812C00087047704770B5044681
:1021900090F83900202830D169B362B394F8380040
:1021A00001282AD0012084F838002162A284E28428
:1021B0000025E563212084F83900236B1048D8639B
:1021C000236B10481864236B0F48D864206B1346A8
:1021D00005652668206B321DFEF788FF21686FF0C9
:1021E0004000086084F838502068416941F080015F
:1021F0004161002070BD012070BD022070BD000053
:10220000112D00083F2D0008812C000870477047F1
:10221000FEE700001CB5124C012206212046FFF704
:102220006EF8C0208DF8000000218DF801108DF8A7
:1022300002101A208DF8030017208DF804004420A6
:102240008DF80500062269460648FFF79FFF6420C7
:1022500002F04AF8002206212046FFF750F81CBD84
:10226000000C02407C01002010B5142000F0E8F8BA
:10227000800705D10321BDE81040142000F0F4B818
:1022800010BD7CB50446002529460D2000F081F9DB
:10229000932020702020607001A823460090022225
:1022A00019460C2000F0ECF8010009D1225C401C1A
:1022B0005540C0B20428F9D3205CA84200D00221C6
:1022C00008467CBD2DE9F0410E460746154604211F
:1022D000052000F04FF880210A2000F0C5F8002406
:1022E00005E0395D092000F054F9641CE4B2B44201
:1022F000F7D30321012000F04CF90A24052000F057
:102300009FF8641E14F0FF0401D04007F6D5222088
:1023100000F096F82870212000F092F86870BDE86F
:10232000F0812DE9FC4104460021262000F08FF8C1
:1023300005001AD16846FFF7A4FF05469DF8000086
:102340000022C4E9000201206F46D4E900310902ED
:1023500041EA13611B02C4E900313E5C9B19514103
:10236000C4E90031401C0528EFDB00F00FF82846D7
:10237000BDE8FC8170B50C46054600F061F820EA26
:1023800004012846BDE8704000F003B938B550207C
:102390008DF8000000206D468DF8010002212846CE
:1023A000AA1CFFF78FFFF721022000F0F2F880212E
:1023B0000420FFF7DFFF80210A2000F055F80021FC
:1023C000012000F0E6F800240920295D00F0E1F882
:1023D000641CE4B2042CF7D30C21012000F0D9F8DE
:1023E00080210D2000F040F880210D20FFF7C2FF72
:1023F00038BD10B500F0D2F800F0F4F800F030F875
:102400008D212A2000F0C5F83E212B2000F0C1F8D4
:102410001E212D2000F0BDF800212C2000F0B9F87D
:102420007021262000F0B5F84021152000F0B1F809
:102430003D21112000F0ADF8BDE81040FFF714BFBA
:102440007E2101EA400040F0800000F001B913B5A0
:1024500007210D2000F09DF86846FEF786FC1CBDA4
:102460000F21012000F095B870B50C460546FFF726
:10247000E7FF40EA04012846BDE8704000F089B853
:102480002DE9FF5F00270226DDF838A015468B46B0
:102490008146B8460C2805D0B9F10E0F05D1122798
:1024A000102001E077273020804647F0800102208D
:1024B00000F06FF880210420FFF75CFF80210A20E4
:1024C000FFF7D2FF0021012000F063F8002406E0AE
:1024D0001BF80410092000F05CF8641CA4B2AC42A4
:1024E000F6D34946012000F054F8B9F10C0F03D19E
:1024F00080210D20FFF7B8FF0A250420FFF7A0FF79
:102500006D1E2D0404462D0C04D0E00702D114EA00
:10251000080FF2D080210D20FFF72CFF35B10620E7
:10252000FFF78EFF10F01B0F04D0022604B03046D8
:10253000BDE8F09F00263C40E00700D00126B9F13D
:102540000C0FF3D10A20FFF77BFF04460C20FFF7A6
:1025500077FF10F007004FEAC40104D0083908449F
:10256000AAF8000001E0AAF8001024B1102C04D948
:102570001024002503E00124FBE7002506E00920E4
:10258000FFF75EFF039948556D1CADB2A542F6D327
:10259000CCE77E2202EA400000F072B80F4810B586
:1025A0000D4901604FF48271416000218160C1607A
:1025B0004FF400720161C0E90512C161016241621C
:1025C00081620A21C162FFF715FA002803D0BDE835
:1025D0001040FEF7C9BB10BD00300140700500205F
:1025E000FEE7704710B586B014216846FDF79AFEE5
:1025F0000D48016841F00101016000680B4C00F0DA
:1026000001000590002210212046FEF778FE1020E0
:102610000121CDE900010320CDE9021069462046E1
:10262000FEF79CFD06B010BD3038024000000240AD
:102630000EB501238DF804000A20009002AA01A91A
:102640000248FFF74BFA9DF808000EBD7005002008
:1026500070B50A4D0446002210212846FEF74FFEB1
:102660002046FFF7E5FF0020FFF7E2FF04460122C6
:1026700010212846FEF743FE204670BD00000240B0
:1026800070B50A4C0E460546002210212046FEF782
:1026900036FE2846FFF7CCFF3046FFF7C9FF20463D
:1026A000BDE8704001221021FEF729BE0000024063
:1026B00038B504461248134B0068B0FBF3F04FF4F2
:1026C0007A73584300906068B0F5827F0DD10B4655
:1026D000009200228021204600F016F870B1606D53
:1026E00040F020006065032038BD009830B1401EE6
:1026F000009020688068C0430006F6D5002038BDF1
:102700001801002000366E012DE9F0411D461746E4
:102710000E460446DDF8188008E0681C06D0FEF777
:10272000F3FDA0EB0800A8420BD255B120688068E9
:1027300036EA000030D00020B842EED10020BDE8DB
:10274000F0812068416821F0E00141606068B0F5E7
:10275000827F0BD1A068B0F5004F02D0B0F5806F3A
:1027600004D12068016821F040010160A06AB0F541
:10277000005F09D12068016821F4005101602068E0
:10278000016841F400510160012084F851000020EB
:1027900084F850000320D2E70120CDE710B5502087
:1027A00080F31188BFF34F8FBFF36F8F01F09CFF51
:1027B00018B104494FF080500860002080F3118860
:1027C00010BD000004ED00E030B593B03021684644
:1027D000FDF7A8FD14210CA8FDF7A4FD194800245D
:1027E000016841F080510160006800F08050119054
:1027F0001548016841F4404101600068022500F479
:1028000040401190012000904FF4A02001906805F5
:10281000CDE906500420C021CDE908010A90082026
:102820000B906846FEF738FF0F20CDE90C054FF4FA
:10283000A050CDE90E4003210CA81094FEF722FE13
:1028400013B030BD403802400070004005480168B8
:1028500041F47001016003494FF000608039086065
:102860007047000088ED00E00148FFF758BA00000B
:1028700030050020F0B502681D4B1E4C9F031E4D15
:102880001E4E984207D0B84205D0A04203D0A842BD
:1028900001D0B04204D122F0700C4A6842EA0C0226
:1028A000984210D0B8420ED0A0420CD0A8420AD014
:1028B000B04208D0124CA04205D0124CA04202D027
:1028C000114CA04203D122F44074CA6822434C69DF
:1028D00022F08002224302608A68C2620A68826231
:1028E000984201D10969016301214161F0BD0000F5
:1028F000000001400004004000080040000C0040BF
:10290000004001400044014000480140064C064898
:102910002030FFF706FD012802D10020C4E908009D
:10292000012001F0E1FCF2E7000000207CB523A1CA
:10293000244ED1E90001244DC124CDE9000100BF9E
:10294000FFF768FC012206213046FEF7D8FC0A207A
:1029500001F0CAFC1C492C706C700A31AC70062264
:10296000A1F14A00FFF7C4FB17490322A1F140007F
:10297000FFF70CFC3221012000F026FD12486946C9
:102980000A30FDF7DAFC0028DAD1002206213046B1
:10299000FEF7B5FC0A2001F0A7FC02E0642000F07D
:1029A000EDFC0020FFF7BDFC0228F7D0074CA06823
:1029B00001F0C0FC606801F031FD7CBDC000001A70
:1029C00017440000000C0240BC0100200000002061
:1029D0004CA14D4800F09CFB4B4D4FF496740A35CA
:1029E00010E049490322A1F14000FFF7CFFB46491F
:1029F00003220A31A1F14A00FFF77AFB21460120A8
:102A000000F0E2FC28784F28EBD168784B28E8D119
:102A1000A8782128E5D120263C4CAE703A49032203
:102A20000A31A1F14A00FFF763FBA87821281BD0E7
:102A30002E2805D0AE70AE70012001F01DF9EDE733
:102A40000020C4E9080032A12F4800F061FB2E49A4
:102A50000522A1F14000FFF799FB206901F06AFC13
:102A6000606901F067FCE6E7E06801F063FC687804
:102A7000014630380A281BD2DFE800F017050709A5
:102A80000B0D0F111315012017E0022015E0032094
:102A900013E0042011E005200FE006200DE00720E0
:102AA0000BE0082009E0092007E02878312803D04E
:102AB0002878522803D01AE00A202070BBE7452965
:102AC00015D110A1104800F023FB0F490322A1F1FA
:102AD0004000FFF75BFB206901F0A0FC606901F09A
:102AE0009DFCA06901F09AFCE06801F097FC0020D1
:102AF0002070E06801F092FC3221012000F064FCBB
:102B000099E700004F4B2100BC010020000000208D
:102B100053746172740000002A4D2B4C002600BFD4
:102B200095F84B00192818D3FF2816D0206901F01A
:102B300075FC606901F072FC2670E06801F06EFCC3
:102B4000204822A1143800F0E3FA1E490422143967
:102B5000A1F14000FFF71AFB2DE0295C01290BD001
:102B600002290BD003290BD004290BD0FF280CD04D
:102B7000401E85F84B0021E0012004E0042002E023
:102B8000022000E00320207018E02670E06801F0C9
:102B900045FC0C480DA1143800F0BAFA094904228A
:102BA0001439A1F14000FFF7F1FA206901F036FC79
:102BB000606901F033FCA06901F030FC012001F0F4
:102BC0005BF8ADE7D00100200000002053746F7067
:102BD00000000000254C244D4FF40056A7144FF47C
:102BE00080484FF4004928780B2825D2DFE800F010
:102BF0002406090C0F1215181B1E210000F070FD91
:102C0000F1E700F009FDEEE700F00AFFEBE700F066
:102C10006BFFE8E700F01AFEE5E700F0C9FDE2E728
:102C200000F0B0FEDFE700F05FFEDCE700F0C0FF81
:102C3000D9E700F08DFCD6E7002231462046FEF7AA
:102C40005EFB002239462046FEF759FB0022414632
:102C50002046FEF754FB002249462046FEF74FFB74
:102C6000012001F009F8BEE700000020000C02403E
:102C700010B5806B0021C185C184FFF710F910BD2C
:102C800070B5846B2068406994F83910C0F3C010A7
:102C90000025212904D118B1E584204600F0B4F8BC
:102CA0002068406994F83A10C0F38010222904D1BA
:102CB00018B1E585204600F099F8E06B40F010006F
:102CC000E0632046FFF7EBF870BD10B50146806B5E
:102CD00009680968C90513D40021C1850168CA685B
:102CE00022F48072CA6001684A6922F001024A61D6
:102CF00001684A6922F040024A61202180F83A10B6
:102D0000FFF742FA10BD10B5806BFFF73EFA10BD19
:102D100010B50146806B09680968C9050CD400210B
:102D2000C18401684A6922F080024A610068C16872
:102D300041F04001C16010BDFFF768FA10BD10B549
:102D4000806BFFF764FA10BD2DE9F8432248002498
:102D5000016841F4001101600068214D00F4001089
:102D600000904FF04008C5E902844FF48069C5E93E
:102D70000494AC61EC612C6218484FF000676C62FF
:102D8000C5E900072846FEF747F9164E002211460E
:102D900035631120AE63FEF743FB1120FEF732FBD3
:102DA000114D0E48C5E90284C5E90494AC61EC619B
:102DB0002C6218386C62C5E900072846FEF72CF92A
:102DC0003563002211461020AE63FEF729FBBDE8F3
:102DD000F8431020FEF716BB30380240A0600240D6
:102DE0007C0200207C0100201C0200200168CA68CF
:102DF00022F49072CA6001684A6922F001024A61B5
:102E0000202180F83A1070470168CA6822F0C00299
:102E1000CA60202180F8391070470000114808B5B9
:102E20000268002142F40032026000680E4A00F499
:102E3000003000900D4802604FF41652C0E90121A5
:102E40000C22C160C0E904128161C161FFF7B2F8D0
:102E5000002211462620FEF7E3FABDE808402620AE
:102E6000FEF7D0BA40380240004400407C01002008
:102E700010B590F83A10222901D0022010BD8168C7
:102E8000B1F5805F11D00169002901681FD0496840
:102E900001F07F03816A4A1C82620B70C18D491E5A
:102EA0000904090CC18518D02BE00269816A002A47
:102EB0000268526805D0D2B20A80816A491C8162D8
:102EC000ECE7C2F308020A80816A891CF7E74A68C6
:102ED000816A4B1C83620A70E0E70168CA6822F0CD
:102EE0002002CA600168CA6822F48072CA60016860
:102EF0004A6922F001024A61202180F83A10FFF766
:102F000043F9002010BD00002DE9F041044600689F
:102F10000169E26821F44051114301612169A0680F
:102F2000E26908436169114308432168CA6849F2AC
:102F30000C639A430243CA6020684169A26921F484
:102F4000407111434161E069192764253226B0F5CB
:102F5000004F354A354920684FF0000806D08842B6
:102F600001D0904236D1FEF757FB35E0884201D0C0
:102F7000904202D1FEF750FB01E0FEF73DFB616895
:102F80004A18A0FB070148EB0803FDF781F9014649
:102F9000B0FBF5F00201B1FBF5F06FF018035843F8
:102FA00001EB800006EBC000B0FBF5F000F0F8008C
:102FB00002EB4002B1FBF5F0584301EB800006EB59
:102FC000C000B0FBF5F000F00700216810448860F5
:102FD000BDE8F081FEF710FB61688B0F8A00A0FB53
:102FE0000701FDF755F90146B0FBF5F06FF0180247
:102FF000504301EB800006EB0010B0FBF5F000F051
:10300000F002B1FBF5F002EB0012B1FBF5F06FF04E
:103010001803584301EB800006EB0010B0FBF5F0FD
:1030200000F00F00D1E70000001401400010014043
:1030300090F83910212901D0022070478168B1F53C
:10304000805F016A0BD04A1C0262026809785160F5
:10305000C18C491E0904090CC1840ED017E00988EF
:103060000268C1F30801516001690029016A02D0B8
:10307000491C0162ECE7891CFBE70168CA6822F081
:103080008002CA600068C16841F04001C160002050
:10309000704700000148FEF703BF00007C010020DC
:1030A000FEE70000F0B587B014216846FDF73AF955
:1030B00015480024016841F0100101600068134FB9
:1030C00000F010004FF4F04505902246294638469E
:1030D000FEF715F92E11002231463846FEF70FF99A
:1030E00000950125CDE90154694638460394FEF761
:1030F00035F80096CDE90154694638460394FEF749
:103100002DF807B0F0BD000030380240001002403A
:103110000FB4084B10B504A902AA039800F02CF8CC
:10312000044602A9002000F0D1F8204610BC5DF84A
:1031300014FB0000CD3200080907090E002804DB4B
:1031400000F1E02080F80014704700F00F0000F15B
:10315000E02080F8141D704702E008C8121F08C163
:10316000002AFAD170477047002001E001C1121F08
:10317000002AFBD1704700002DE9FF4F89B09B4624
:103180000446002506E025280BD05A460B999047A7
:10319000641C6D1C20780028F5D10DB02846BDE8D0
:1031A000F08F0027B8460122474900E0074314F892
:1031B000013F203B02FA03F00842F7D120782E2885
:1031C00019D114F8010F47F004072A280ED06FF028
:1031D0002F022078A0F1300109290CD808EB8801D2
:1031E00002EB410100EB0108641CF2E70A98641C41
:1031F00050F8048B0A9020780028CED0642808D09C
:10320000692806D075281ED05A460B9990476D1C28
:1032100058E00A994FF00A0901C90A91002802DA18
:1032200040422D2102E0390504D52B218DF82010D4
:10323000012103E0F90704D02021F7E78A4608AE10
:103240000DE00021FAE70A994FF00A0901C90A9135
:10325000F7E74946FDF77FF8303106F8011D0028F1
:10326000F7D1ADEB060000F12009780701D44FF04B
:103270000108C84502DDA8EB090000E000208046F7
:10328000002706E008A85A46C05D0B9990476D1CC0
:103290007F1C5745F6DB04E030205A460B999047D7
:1032A0006D1CB8F10001A8F10108F5DC05E016F885
:1032B000010B5A460B9990476D1CB9F10001A9F119
:1032C0000109F4DC641C65E7092801000A68531C45
:1032D0000B6010707047000094B0DFF89090A9F177
:1032E0002806002505EB8508002409EBC80700BF68
:1032F00007EBC400D0E90023D6E90801504059404B
:10330000084327D123462A4619A11B48FFF700FF8F
:1033100019490322A1F14000FEF738FF16480A3090
:1033200041780078303800EB800030380844C2B271
:1033300008EB0400C1B26846FDF72CFC0E484C2295
:1033400069461430FCF7D5FFB06900F0F3FFF06870
:1033500000F0F0FF641CE4B2052CC9D36D1CEDB283
:10336000052DBFD3012000F087FCBAE7280000201C
:1033700025643A2564000000BC01002070B5114CA2
:1033800005464FF400512046FDF7B2FF284600F0F5
:1033900073FCA1142046FDF7ABFF284600F06CFC3F
:1033A0004FF400412046FDF7A3FF284600F064FCDF
:1033B0004FF480412046FDF79BFF2846BDE8704052
:1033C00000F05ABC000C02402DE9F0418846054649
:1033D000002446E00122254F560331463846FDF7CA
:1033E0008EFF404600F048FC002231463846FDF78B
:1033F00086FF404600F040FC012216033146384665
:10340000FDF77DFF404600F037FC0022314638468C
:10341000FDF775FF404600F02FFC0122D603314630
:103420003846FDF76CFF404600F026FC002231468E
:103430003846FDF764FF404600F01EFC012296036B
:1034400031463846FDF75BFF404600F015FC002290
:1034500031463846FDF753FF404600F00DFC641C32
:10346000E4B2AC42B6D3BDE8F0810000000C0240EB
:1034700010B5AAB0FDF756FFFFF7A6F9FFF764FCF9
:10348000FFF7CCFCFDF7B8FCFEF7B3FFFFF70AFE31
:103490001C222A496846FCF72CFF0021684600F0F0
:1034A000F7FB274C25491C2260601C3107A8FCF75C
:1034B00020FF002107A800F0EBFB2049A0601C22A0
:1034C00038310EA8FCF715FF00210EA800F0E0FB34
:1034D0001A49E0601C22543115A8FCF70AFF0021AC
:1034E00015A800F0D5FB154920611C2270311CA8DD
:1034F000FCF7FFFE00211CA800F0CAFB0F49606129
:103500001C228C3123A8FCF7F4FE002123A800F034
:10351000BFFBA061A06800F081FFE06800F07EFFC3
:10352000206900F07BFF606900F078FFA06900F07F
:1035300075FF00F0A8FB2AB0002010BD74480008F9
:103540000000002001460020842900D0C81C7047DC
:103550002DE9F04101222E4D540321462846FDF766
:10356000CEFE6610002231462846FDF7C8FE012235
:10357000970339462846FDF7C2FE0022A1002846DF
:10358000FDF7BDFE234D0122D1022846FDF7B7FE0F
:10359000012231462846FDF7B2FE01222146284687
:1035A000FDF7ADFE012239462846FDF7A8FE0122AF
:1035B00080212846FDF7A3FE012214022146284659
:1035C000FDF79DFE0122560231462846FDF797FE83
:1035D0000122970239462846FDF791FE00228021FC
:1035E0002846FDF78CFE002221462846FDF787FE7F
:1035F000002231462846FDF782FE00223946284641
:10360000FDF77DFEBDE8F041022000F035BB000073
:10361000000C0240001002402DE9F0412E4D4FF405
:103620000054002221462846FDF769FE661000225C
:1036300031462846FDF763FE6700002239462846DA
:10364000FDF75DFE0122D1032846FDF758FE234D0C
:103650000122D1022846FDF752FE002231462846BB
:10366000FDF74DFE012221462846FDF748FE0022C7
:1036700039462846FDF743FE012280212846FDF702
:103680003EFE0122140221462846FDF738FE0122A3
:10369000560231462846FDF732FE0122970239468E
:1036A0002846FDF72CFE002280212846FDF727FE44
:1036B000002221462846FDF722FE002231462846F8
:1036C000FDF71DFE002239462846FDF718FEBDE82D
:1036D000F041022000F0D0BA000C0240001002407D
:1036E0002DE9F047304C00224FF400612046FDF7F1
:1036F00006FE0122150329462046FDF700FE6E0056
:10370000002231462046FDF7FAFD01229703394693
:103710002046FDF7F4FD012280212046FDF7EFFD54
:103720004FF48078012241462046FDF7E8FD4FF432
:103730000079012249462046FDF7E1FD4FF4806AF9
:10374000012251462046FDF7DAFD3146174E01228F
:103750003046FDF7D4FD002229463046FDF7CFFD67
:10376000002239463046FDF7CAFD0022E900304606
:10377000FDF7C5FD002280212046FDF7C0FD002297
:1037800041462046FDF7BBFD002249462046FDF795
:10379000B6FD002251462046FDF7B1FDBDE8F047D9
:1037A000022000F069BA000000100240000C024044
:1037B0002DE9F0410122234D540321462846FDF70F
:1037C0009EFD6610002231462846FDF798FD012235
:1037D000970339462846FDF792FD0022A1002846AE
:1037E000FDF78DFD184D0122D1022846FDF787FD1A
:1037F000002231462846FDF782FD01222146284657
:10380000FDF77DFD002239462846FDF778FD0122AF
:1038100080212846FDF773FD0122940221462846A7
:10382000FDF76DFD002280212846FDF768FD00228E
:1038300021462846FDF763FDBDE8F041022000F077
:103840001BBA0000000C0240001002402DE9F041BC
:103850000122234D540321462846FDF750FD6610F2
:10386000002231462846FDF74AFD012297033946DA
:103870002846FDF744FD0022A1002846FDF73FFD44
:10388000184D0022A1102846FDF739FD01223146CE
:103890002846FDF734FD002221462846FDF72FFD7E
:1038A000012239462846FDF72AFD0122140221464D
:1038B0002846FDF724FD0122560231462846FDF731
:1038C0001EFD002221462846FDF719FD0022314643
:1038D0002846FDF714FDBDE8F041022000F0CCB908
:1038E000000C0240001002402DE9F0410122234D5E
:1038F000540321462846FDF702FD6610002231469A
:103900002846FDF7FCFC0122970339462846FDF7BF
:10391000F6FC0022A1002846FDF7F1FC184D00221C
:10392000A1102846FDF7EBFC002231462846FDF7A2
:10393000E6FC012221462846FDF7E1FC012239463A
:103940002846FDF7DCFC0122140221462846FDF73B
:10395000D6FC0122560231462846FDF7D0FC002253
:1039600021462846FDF7CBFC002231462846FDF7CC
:10397000C6FCBDE8F041022000F07EB9000C024018
:10398000001002402DE9F0410122234D540321464D
:103990002846FDF7B4FC6610002231462846FDF7A4
:1039A000AEFC0122970339462846FDF7A8FC002209
:1039B000A1002846FDF7A3FC184D0022A1102846BF
:1039C000FDF79DFC012231462846FDF798FC0022B8
:1039D00021462846FDF793FC012239462846FDF78B
:1039E0008EFC012280212846FDF789FC01229402E9
:1039F00021462846FDF783FC002280212846FDF75A
:103A00007EFC002221462846FDF779FCBDE8F04106
:103A1000022000F031B90000000C0240001002400A
:103A20002DE9F0412E4D4FF4005400222146284646
:103A3000FDF765FC0122160331462846FDF75FFCC1
:103A40006700002239462846FDF759FC0022A100F4
:103A50002846FDF754FC234D0122D1022846FDF7EC
:103A60004EFC012231462846FDF749FC0022214642
:103A70002846FDF744FC002239462846FDF73FFC66
:103A8000012280212846FDF73AFC0122140221463A
:103A90002846FDF734FC0122560231462846FDF740
:103AA0002EFC0122970239462846FDF728FC002209
:103AB00080212846FDF723FC002221462846FDF7F9
:103AC0001EFC002231462846FDF719FC002239462B
:103AD0002846FDF714FCBDE8F041022000F0CCB808
:103AE000000C0240001002402DE9F0412E4D4FF431
:103AF0000054002221462846FDF701FC66100022F2
:103B000031462846FDF7FBFB01229703394628463C
:103B1000FDF7F5FB0022A1002846FDF7F0FB234D41
:103B20000022A1102846FDF7EAFB00223146284674
:103B3000FDF7E5FB012221462846FDF7E0FB0122C7
:103B400039462846FDF7DBFB012280212846FDF798
:103B5000D6FB0122140221462846FDF7D0FB0122A4
:103B6000560231462846FDF7CAFB01229702394624
:103B70002846FDF7C4FB002280212846FDF7BFFB45
:103B8000002221462846FDF7BAFB0022314628468E
:103B9000FDF7B5FB002239462846FDF7B0FBBDE82E
:103BA000F041022000F068B8000C02400010024012
:103BB0002DE9F04101222E4D540321462846FDF700
:103BC0009EFB6610002231462846FDF798FB012235
:103BD000970339462846FDF792FB0022A1002846AC
:103BE000FDF78DFB234D0022A1102846FDF787FB32
:103BF000002231462846FDF782FB00222146284656
:103C0000FDF77DFB002239462846FDF778FB0122AF
:103C100080212846FDF773FB012214022146284625
:103C2000FDF76DFB0122560231462846FDF767FB82
:103C30000122970239462846FDF761FB00228021C8
:103C40002846FDF75CFB002221462846FDF757FB7E
:103C5000002231462846FDF752FB0022394628460D
:103C6000FDF74DFBBDE8F041022000F005B8000073
:103C7000000C02400010024010B500B9012000F015
:103C800033FB002010BD10B500F092FB002010BDEA
:103C90007FB50D4604464169B0F9080081B1A169BC
:103CA00071B1FFF74FFCD4E905128DE80700D4E9A4
:103CB00000102B46226900F0ECFC039004B070BDAC
:103CC000FFF740FC03A9CDE90001208A2B4682B210
:103CD000D4E9001000F0B0FC012801D00020EDE78D
:103CE0000398EBE72DE9F041184C0F46054666694D
:103CF0002068001D00F034FA38B9206890F82C10C4
:103D000001208840A1698143A161681C07D137B1B6
:103D10002168BDE8F0410E48091D00F065BA206831
:103D20003544B5424560216805D2A068BDE8F04140
:103D3000091D00F041BA6068091D00F03DFA206BD2
:103D4000854200D22563BDE8F08100001C010020FF
:103D5000180900202DE9F041054600F051FA2E4CDB
:103D60002069401C206120682C4F10B1E06940B3ED
:103D70002DE025602069012829D1002606EB860068
:103D800007EB800000F00AFA761C072EF6D32348D2
:103D90008C3000F003FA2148A03000F0FFF91F48F2
:103DA000B43000F0FBF91D48C83000F0F7F91B48AB
:103DB000DC3000F0F3F919488C3060601430A060FA
:103DC00005E02068E96AC06A884200D82560E06A98
:103DD000401CE062E96A0120A26988401043A061AA
:103DE00001EB810007EB8000291D00F0FDF900F0D8
:103DF00027FAE06900280CD02068E96AC06A884286
:103E000007D207494FF080500860BFF34F8FBFF3D0
:103E10006F8FBDE8F08100001C0100203C080020ED
:103E200004ED00E010B5044690F8510058B10128A7
:103E30000CD002280FD0502080F31188BFF34F8F91
:103E4000BFF36F8FFEE7206B00F00EFA2046BDE84F
:103E5000104000F009BA10BD10484FF470514207ED
:103E600006D0C01D0D4920F00700411AC1F5705160
:103E70000B4A00230144C2E900030839103A21F03B
:103E8000070111604B600B600B1AC0E900139360CF
:103E90004FF000405360D060704700002C090020B4
:103EA00068010020144E154CA6F1C8074FF0805849
:103EB000DFF84C9012E000BF00F0A2F9F068C5688E
:103EC000281D00F04DF92069401E2061E068401E69
:103ED000E06000F0B5F92846FFF7A4FFE06800288D
:103EE000EAD138680128F9D9C9F80080BFF34F8FAB
:103EF000BFF36F8FF2E70000040900201C010020CF
:103F000004ED00E02DE9F0479A46DDE90984814699
:103F10006FF00303206B03EB82021044089D20F036
:103F20000706700707D0502080F31188BFF34F8F2A
:103F3000BFF36F8FFEE723180A5C83F834200A5C16
:103F400012B1401C1028F6D3002784F84370072DC7
:103F500000D30625E562C4E91157201D00F029F9B8
:103F600004F1180000F025F92461C5F1070064622E
:103F7000A061E76484F8507052464946304600F02C
:103F8000D9F82060B8F1000F01D0C8F80040BDE8B2
:103F9000F087000030B5114900E011460A688242FE
:103FA000FBD34B685C18844203D1406818444860D6
:103FB000084643681C18944209D1084C103C2468F8
:103FC000A24209D052681A4442600A68126802602C
:103FD000814200D0086030BD0460F9E7680100202C
:103FE00006484168096829B14168C968C9684968D3
:103FF000016370474FF0FF31FAE700001C01002019
:1040000008484068401C4FF0500080F3118804D0ED
:10401000BFF34F8FBFF36F8FFEE7BFF34F8FBFF339
:104020006F8FFEE770010020002150B10A4B4269FA
:104030009A420FD1806AA3F1280290420AD040B17F
:1040400008E0502080F31188BFF34F8FBFF36F8FCC
:10405000FEE7012108467047180900202DE9F041CC
:104060000546002700F038FA314E306808B9FFF7EE
:10407000F3FEF06805424BD1C5B3083568070ED092
:1040800005F00700C0F108000544680707D050207C
:1040900080F31188BFF34F8FBFF36F8FFEE72DB30F
:1040A0007068854234D82248103001460C6801E01F
:1040B00020460C466168A94202D221680029F7D146
:1040C00031688C4224D00768216801606068083735
:1040D000411B10290FD96019420708D0502080F3E6
:1040E0001188BFF34F8FBFF36F8FFEE710E0416081
:1040F0006560FFF74FFF61687068401A7060B268D2
:10410000904200D2B060F06801430020C4E9000191
:1041100000F04EFB780707D0502080F31188BFF3E2
:104120004F8FBFF36F8FFEE73846BDE8F081000088
:104130005801002010B5031F4FF080741C601B1F36
:1041400021F001011960191F044B0B6014390A603A
:10415000091F6FF0020244380A6010BD01400008D8
:10416000D0E9013201699A60D0E901235A604A68B6
:10417000824201D182684A60002202610868401EC2
:104180000860086870470000034B036003F15400A7
:104190000860802010607047DC02002000F10801F8
:1041A0004FF0FF32C0E90112C160016100210160DE
:1041B000704700210161704730B50B685A1C02D06E
:1041C00000F1080202E0026904E022465468256812
:1041D0009D42FAD953684B6099608A6051600861CA
:1041E0000168491C016030BD42684A6093688B6079
:1041F00093685960916008610168491C01607047CB
:10420000502080F31188BFF34F8FBFF36F8F0A499F
:104210004868401C486001280CD10848006810F02C
:10422000FF0F07D0502080F31188BFF34F8FBFF3EB
:104230006F8FFEE7704700007001002004ED00E082
:104240000849486828B1401E486001D180F31188B0
:104250007047502080F31188BFF34F8FBFF36F8FEB
:10426000FEE700007001002070B5002827D0144D33
:10427000A0F108046168E868014207D1502080F38A
:104280001188BFF34F8FBFF36F8FFEE722683AB1FB
:10429000502080F31188BFF34F8FBFF36F8FFEE77D
:1042A0008143616000F018F96068696808446860DB
:1042B0002046FFF76FFEBDE8704000F079BA70BD90
:1042C000580100204FF0E020002101618161054983
:1042D0004FF47A720968B1FBF2F1491E416107217E
:1042E000016170471801002010B5020014D00F487A
:1042F000806B38B1502080F31188BFF34F8FBFF32C
:104300006F8FFEE700F0E8F800211046FFF7EAFCA7
:1043100000F04EFA002807D105494FF080500860A0
:10432000BFF34F8FBFF36F8F10BD00001C01002043
:1043300004ED00E070B504002BD01A4D28688442CB
:104340002FD0FFF75DFF2046FFF76EFEE8B1201D7E
:10435000FFF706FFE06A0121AA6981401143A961C4
:10436000114900EB800001EB8000211DFFF73CFFAD
:10437000E06A2968C96A884207D30C494FF0805027
:104380000860BFF34F8FBFF36F8FBDE87040FFF73A
:1043900057BF502080F31188BFF34F8FBFF36F8F4B
:1043A000FEE770BD1C0100203C08002004ED00E089
:1043B00010B586B00024039405AA04A903A80494A8
:1043C000FFF7E2FEDDE903010094CDE901100023CF
:1043D0000EA11048059A00F05CF90F4900284863C7
:1043E00011D0502080F31188BFF34F8FBFF36F8F30
:1043F0004FF0FF3008630120C8614C6106B0BDE892
:10440000104000F09FB806B010BD000049444C4574
:1044100000000000A53E00081C01002070B5044605
:10442000FFF7EEFE294D04B92C68201DFFF798FE1A
:1044300058B9E06A264A00EB800152F8211021B9F0
:1044400001218140A8698843A861A06A18B104F1DC
:104450001800FFF785FE1E48211DDC30FFF7C4FE63
:1044600094F850000026012801D184F85060FFF72D
:10447000E7FEE86928B1FFF7C3FEFFF7B1FDFFF7DC
:10448000DFFE2868844213D1E86990B1A86B38B187
:10449000502080F31188BFF34F8FBFF36F8FFEE77B
:1044A0000C494FF080500860BFF34F8FBFF36F8F00
:1044B00070BD0748DC3000682969884201D12E6050
:1044C00070BDBDE8704000F00FB800001C01002076
:1044D0003C08002004ED00E00248816B491C816328
:1044E000704700001C0100201448816B11B10121AC
:1044F00041627047002141628169B1FA81F1C1F1E5
:104500001F0101EB81020E4951F822306BB101EB22
:10451000820101F108034A6852684A609A4201D157
:1045200052684A60D16801607047502080F311885A
:10453000BFF34F8FBFF36F8FFEE700001C01002019
:104540003C0800201CB537480168374A914207D122
:10455000502080F31188BFF34F8FBFF36F8FFEE7BA
:1045600000683149491E884207D1502080F31188E4
:10457000BFF34F8FBFF36F8FFEE72C490878019090
:10458000FF20087008788DF800009DF800009DF865
:10459000002000F0F000904207D0502080F31188F6
:1045A000BFF34F8FBFF36F8FFEE79DF80000204BE6
:1045B00000F0500018700720986005E09DF800207A
:1045C00052008DF80020401E9DF800201206F5D400
:1045D0009860032807D0502080F31188BFF34F8FD5
:1045E000BFF36F8FFEE74FF440709860019808703A
:1045F0000C482030016841F470010160016841F00D
:1046000070410160FFF75EFE00205860FBF7F2FD8D
:104610000848016841F040410160FBF7D7FD0020E8
:104620001CBD000000ED00E071C20F4100E400E09D
:104630007001002034EF00E02DE9FF5F8346DDE9E3
:104640000E87994616468A469000FFF707FD05003B
:104650001CD05420FFF702FD040014D00020256375
:1046600084F85100CDE90240CDE900874B4632463F
:1046700051465846FFF746FC2046FFF76BFB0120EA
:1046800004B0BDE8F09F2846FFF7EEFD4FF0FF3085
:10469000F6E7F0B585B0DDE90B640A9DA6B1DCB1A3
:1046A000542700972663022684F85160002604AF41
:1046B000CDE90246CDE90057FFF724FC2046FFF77D
:1046C00049FB049805B0F0BD502080F31188BFF37A
:1046D0004F8FBFF36F8FFEE7502080F31188BFF339
:1046E0004F8FBFF36F8FFEE72DE9F0412E4C00276F
:1046F000A06B40B1206A401C2062606A00B10127B3
:104700003846BDE8F0816669761C666113D1606841
:10471000006838B1502080F31188BFF34F8FBFF38A
:104720006F8FFEE76068A1686160A060A06A401CAE
:10473000A062FFF755FC206BDFF87080864209D33A
:104740006068006880B16068C068C5686868864253
:104750000DD220632068C06A00EB800158F8210068
:104760000128CAD90127C8E74FF0FF30F1E7281D1B
:10477000FFF7F6FCA86A18B105F11800FFF7F0FC86
:10478000E86A0121A26981401143A16100EB800127
:1047900008EB8100291DFFF727FDE86A2168C96A37
:1047A0008842CDD30127CBE71C0100203C08002024
:1047B0002DE9F0472C4D00242746A86B38B1FFF7B0
:1047C0001FFDA86B401EA863A86B40B146E05020B7
:1047D00080F31188BFF34F8FBFF36F8FFEE7296916
:1047E000224E0120D1B3A6F1B40980463068E8B169
:1047F000F068C46804F11800FFF7B2FC201DFFF751
:10480000AFFCE06AAA6908FA00F11143A96100EB64
:10481000800109EB8100211DFFF7E6FCE06A2968B1
:10482000C96A8842E2D3C5F82480DFE70CB1FFF7FC
:10483000D7FB2C6A44B14646FFF756FF00B16E62C3
:10484000641EF9D100202862686A38B1084901273E
:1048500038070860BFF34F8FBFF36F8FFFF7F0FC8F
:104860003846BDE8F08700001C010020F008002059
:1048700004ED00E0A44900082D2900080000000014
:1048800000000000800000000000000000000000A8
:1048900094490008D1290008000000000000000031
:1048A00080000000000000000000000080490008B7
:1048B000D52B00080300000000000000800000006D
:1048C00000000000000000003C4900080D2900081D
:1048D0000200000000000000F401000000000000E1
:1048E0000000000054490008D93200080000000010
:1048F0000000000080000000000000000000000038
:1049000070490008192B0008020000000000000098
:1049100080000000000000000000000000061016EB
:104920000006101600000000000000000102030451
:104930000607080900000000010203045461736BBC
:104940005F436865636B5F524649445F6E616D65A6
:104950000000000063616C63756C61746F725F448A
:10496000696A6B737472615F6E616D65000000004F
:104970005461736B6D6F76655F6E616D65000000ED
:104980005461736B6D6F76654469725F6E616D65BE
:10499000000000005461736B5F556172745F6E615B
:1049A0006D6500005461736B5F436865636B5F52B4
:1049B000656164795F6E616D65000000DC49000827
:1049C000000000207C010000E4030008844A000885
:1049D0007C010020B447000068310008012836FF40
:1049E000816FC8D93EB082AEA539102B94D308365A
:1049F00063826A32B9364A816D8F29362D81BB6E4A
:104A00007936D8826C2F193E7282675EC9102BDC12
:104A10009F1036A63E0B44D736B83BDDC799363ECD
:104A20003588F47736873D0825972D19436E8D50CC
:104A300036AD886F23692D5181AB525836848194ED
:104A4000D849362482622DE946C383C6DF592C81BA
:104A500081692836BC82CAFD092D5D82CA8C583610
:104A600058826D1EA936E63E0EC117362EC50D6F53
:104A7000890A160101291C318210035924F41AAA4B
:044A800001410000F0
:040000050800019955
:00000001FF
