:020000040800F2
:10000000F00A0020AD010008230C0008E90B0008ED
:10001000210C0008B9020008210D000800000000B2
:10002000000000000000000000000000790C000843
:100030002903000800000000250C00087B0C0008C4
:10004000C7010008C7010008C7010008C701000870
:10005000C7010008C7010008C7010008C701000860
:10006000C7010008C7010008C7010008C701000850
:10007000C7010008C7010008C7010008C701000840
:10008000C7010008C7010008C70100080000000000
:10009000000000000000000000000000C701000890
:1000A000C7010008C7010008C7010008C701000810
:1000B000C7010008C7010008C7010008C701000800
:1000C000C7010008C7010008C7010008C7010008F0
:1000D000C7010008C7010008C701000800000000B0
:1000E000C7010008C7010008C701000800000000A0
:1000F000000000000000000000000000C701000830
:1001000000000000C7010008C7010008C70100087F
:1001100000000000000000000000000000000000DF
:10012000C7010008C7010008C7010008C70100088F
:10013000C7010008000000000000000000000000EF
:10014000000000000000000000000000C7010008DF
:10015000C7010008C7010008C7010008C70100085F
:10016000C7010008C70100080000000000000000EF
:10017000000000000000000000000000000000007F
:1001800000000000C701000800000000000000009F
:10019000C7010008C7010008DFF80CD000F07AF8AA
:1001A000004800478D0D0008F00A002006488047EF
:1001B00006480047FEE7FEE7FEE7FEE7FEE7FEE74C
:1001C000FEE7FEE7FEE7FEE7050D000899010008DF
:1001D0002DE9F05F0546002092469B46884606467C
:1001E000814640241BE0284641464746224600F00F
:1001F00041F853465A46C01A914110D31146184649
:10020000224600F028F82D1A67EB01084F462246D7
:100210000120002100F01FF817EB00094E41201EBD
:10022000A4F10104DFDC484631462A464346BDE8D6
:10023000F09FD2B201E000F8012B491EFBD27047BB
:100240000022F6E710B513460A4604461946FFF7A2
:10025000F0FF204610BD202A04DB203A00FA02F10C
:10026000002070479140C2F1200320FA03F31943A4
:1002700090407047202A04DB203A21FA02F0002146
:10028000704721FA02F3D040C2F1200291400843A6
:1002900019467047064C074D06E0E06840F0010340
:1002A00094E8070098471034AC42F6D3FFF778FF84
:1002B000600E0008800E0008FEE700002DE9F04106
:1002C000064617480D464169491E8E4207D181698D
:1002D000491E8D4203D10121C161BDE8F081104F5B
:1002E00001243437A7F1140857F82400411958F8AD
:1002F0002400304400F056FD70B158F82400094A3B
:10030000304400EB800102EBC10257F8241029446D
:1003100042F82140FFF7D2FF641C042CE4DDDCE747
:100320000000002040020020704700002DE9F84F37
:1003300000224FF0010803254FF00F0E0B6808FA5A
:1003400002F42340A34271D14E68012E05D0022E43
:1003500003D0112E01D0122E15D18668570005FA50
:1003600007FC26EA0C06D1F80CC00CFA07FC4CEA94
:10037000060CC0F808C04668A6430C79C4F3001404
:10038000944034434460C668570005FA07FC8C6803
:1003900026EA0C06BC403443C4604C68022C01D0F1
:1003A000122C13D1D40800EB8404A346D4F8209077
:1003B00054074FEAD46A0EFA0AF629EA06090E69CA
:1003C00006FA0AF646EA0906CBF8206004680E79B8
:1003D00024EA0C0406F00306BE40264306604C687F
:1003E000E40056D52E4C266846F4804626602468E4
:1003F00022F0030604F4804400942A4C3444A446BA
:10040000D4F808489607370F0EFA07F6B443264E7D
:10041000B04201D1002615E0244EB04201D10126A0
:1004200010E0234EB04202D102260BE031E0214E13
:10043000B04201D1032605E01F4EB04201D104268F
:1004400000E00726BE402643CCF808681B4E3468FF
:100450004F689C43FF0300D51C433460174E361D84
:1004600034684F689C43BF0300D51C433460134E6F
:10047000083634684F689C43FF0200D51C43346043
:100480000E4E0C3634684F689C43BF0200D51C43A7
:100490003460521C102AFFF451AFBDE8F88F000001
:1004A0004438024000300140000002400004024095
:1004B00000080240000C024000100240003C0140D5
:1004C00001488068704700004800002002488168A9
:1004D0000278114481607047480000200B4810B535
:1004E000016841F400710160016841F480610160BC
:1004F000016841F480710160032000F063F800207E
:1005000000F006F800F024F8002010BD003C024086
:1005100070B50D4D04464FF47A712878B1FBF0F0B8
:100520000A490968B1FBF0F000F04AFB48B9102C09
:1005300007D200222146501E00F024F800206C60F3
:1005400070BD012070BD0000480000205400002054
:100550000B4882B0016841F480410160006800F4FA
:10056000804000900648001F016841F08051016002
:10057000006800F080500090072002B000F022B820
:1005800044380240F0B40E4B1B680C46C3F3022300
:10059000C3F10705042D00D90425191D072901D22F
:1005A000002300E0DB1E012606FA05F1491E21406A
:1005B00099409E40761E16403143F0BC00F0B1BB1E
:1005C0000CED00E0064900F0070208684FF6FF0353
:1005D000184040EA0220034A1043086070470000B8
:1005E0000CED00E00000FA052DE9F0470E4605008D
:1005F00065D0DFF81481D8F80000F7B200F00F00E2
:10060000B04207D288F80070D8F8000000F00F0060
:10061000B04254D128683D4C810712D5400703D51C
:10062000206840F4E05020602878000703D5206857
:1006300040F4604020602068A96820F0F000084382
:1006400020602878C0072DD0304968680839012813
:1006500012D0022813D0032811D009688907002975
:100660002DDA216821F0030101432160FFF728FF03
:10067000814641F2883A0EE009688903EFE709688C
:100680008901ECE7FFF71CFFA0EB0901514502D9F6
:100690000320BDE8F0872068696800F00C00B0EB2B
:1006A000810FEFD1D8F80010404601F00F01B142A0
:1006B00007D90770006800F00F00B04201D0012098
:1006C000E7E72878400705D52068E96820F4E0507E
:1006D000084320602878000706D52068296920F49F
:1006E000604040EAC100206000F018F82168084A24
:1006F000C1F30311515CC840064908600648006810
:10070000FFF706FF0020C4E7003C02400838024023
:10071000500E0008540000204C000020154810B571
:10072000006810F00C02144813D04110042A0FD0B6
:10073000082A0ED10F4C241F2268236802F03F02C2
:100740005B0207D52068C0F38810A0FB010106E01A
:10075000084610BD2168C1F38811A1FB00010023E8
:10076000FFF736FD2168C1F30141491C4900B0FB88
:10077000F1F010BD083802400024F4002DE9F84FD4
:10078000040076D02078DFF838A3CE4DC00749D0DA
:10079000DAF800105046C1F38101012908D0006841
:1007A000C0F3810002280AD1281D0068400206D546
:1007B0002868800336D560680028E2D032E060689F
:1007C000B0F5803F10D0B0F5A02F286810D020F4ED
:1007D00080302860286820F4802028606068A0B1FC
:1007E000FFF76EFE06460CE0286840F48030F4E720
:1007F00040F480202860F7E7FFF762FE801B642842
:1008000073D828688003F7D50CE0FFF759FE064639
:1008100005E000BFFFF754FE801B6428F0D828686D
:100820008003F7D42078DFF8A08280074FF000091A
:100830003ED5DAF80010504611F00C0F09D00068D0
:10084000C0F3810002280BD19D48001F00684002C0
:1008500006D42868800715D5E068012809D111E081
:10086000E068B8B10120C8F80000FFF729FE06468D
:1008700005E020E1FFF724FE801B0228C0D828688D
:100880008007F7D52868216920F0F80040EAC10008
:1008900028600DE0C8F80090FFF712FE064604E05D
:1008A000FFF70EFE801B02281FD828688007F7D4A8
:1008B0002078000722D5824E844861696C3671B178
:1008C00001210160FFF7FCFD074604E0FFF7F8FD9A
:1008D000C01B022809D830688007F7D50EE0C0F8A1
:1008E0000090FFF7EDFD074605E082E0FFF7E8FD29
:1008F000C01B02287DD830688007F7D420784007D5
:1009000068D5DFF8BCB100270BF1380BDBF800002D
:10091000C0000BD4DBF8001041F08051CBF8001080
:10092000DBF80000012700F080500090684E30682E
:10093000C00510D4306840F480703060FFF7C0FD0F
:10094000009005E0FFF7BCFD0099401A022850D83E
:100950003068C005F6D55A4EA068683601280FD019
:100960000528306810D020F001003060306820F099
:1009700004003060A068B8B1FFF7A2FD00900FE05E
:10098000306840F00100F4E740F004003060F7E721
:10099000FFF796FD0099411A41F28830814266D8EE
:1009A00030688007F4D50EE0FFF78AFD009007E07D
:1009B000FFF786FD0099411A41F28830814256D8EE
:1009C00030688007F4D42FB1DBF8001021F080519B
:1009D000CBF80010A069D0B3DAF800205146C2F37A
:1009E0008102022A4AD00228484607D0C8F860008F
:1009F00000E03CE0FFF764FD04463BE04746C8F8F2
:100A00006000FFF75DFD064605E000BFFFF758FDFB
:100A1000801B02282BD828688001F7D4D4E907016D
:100A20000843A16A2B4A490802EB0141626A41EA84
:100A30008211084394F82C1040EA01612048001FFD
:100A4000016001203866FFF73BFD044605E034E015
:100A5000FFF736FD001B022809D828688001F7D56A
:100A60002BE000BFFFF72CFD001B022802D903205A
:100A7000BDE8F88F28688001F4D41EE00128F7D083
:100A80000868E26900F48001914214D1226A00F002
:100A90003F0191420FD147F6C071626A0140914215
:100AA00009D1A26A00F44031914204D1E16A00F018
:100AB0007060884201D00120DAE70020D8E700000A
:100AC000083802400038024000004742800E47428A
:100AD000007000400000FFFF70B5040005D0002545
:100AE000A56294F8510010B106E0012070BD84F8B1
:100AF0005050204600F030F8022084F85100206861
:100B0000016821F040010160D4E901010843D4E902
:100B100003121143084361690843218B01F40071FA
:100B20000843E1690843216A0843A16A0843216830
:100B30000860A069042101EA1040616A0843216845
:100B400048602068C16921F40061C16165650120C8
:100B500084F85100002070BD10B586B00446142101
:100B60006846FFF76DFB13492068884220D1124880
:100B70000021026842F480520260006800F4805054
:100B800005900D481438026842F0010202600068C6
:100B900000F001000590E02000900220CDE9010165
:100BA000032003900520049069460448FFF7BEFB2C
:100BB00006B010BD00300140443802400000024041
:100BC00010B5401EB0F1807F01D3012010BD4FF061
:100BD000E02460610F21601700F0A3F80020A061FD
:100BE00007202061002010BDFEE700000B480A49E5
:100BF0004FF4007201604FF4827141600021816006
:100C0000C1600161C0E90512C16101624162816296
:100C10000A21C162FFF760BF003001405800002088
:100C2000FEE7704770470000F0B5114800221346F8
:100C3000D0E901650F4C0BE002EB8207002104EBC9
:100C4000C70702E047F82130491CA942FADB521CD1
:100C5000B242F1DBC2684FF0FF3102EB820204EBDB
:100C6000C202046902EB840242F82C1CC361F0BD8D
:100C700000000020400200207047FFF727BC000062
:100C800030B593B030216846FFF7DAFA14210CA88A
:100C9000FFF7D6FA19480024016841F0805101603D
:100CA000006800F0805011901548016841F44041FF
:100CB00001600068022500F440401190012000907E
:100CC0004FF4A02001906805CDE906500420C02112
:100CD000CDE908010A9008200B906846FFF74EFD09
:100CE0000F20CDE90C054FF4A050CDE90E400321B3
:100CF0000CA81094FFF778FC13B030BD40380240C8
:100D0000007000400548016841F47001016003492A
:100D10004FF00060803908607047000088ED00E007
:100D2000FEE70907090E002804DB00F1E02080F847
:100D30000014704700F00F0000F1E02080F8141D4F
:100D4000704702E008C8121F08C1002AFAD1704794
:100D50007047002001E001C1121F002AFBD170473B
:100D600010B5094CC4E90501FFF75EFFD4E90301A2
:100D7000401E491EFFF7A2FAE069012803D1BDE831
:100D8000104000F033B810BD00000020FFF7A6FBB4
:100D9000FFF776FFFFF72AFF02210120FFF7E0FFB0
:100DA000FEE70000002816DB0D4A5368984212DA6D
:100DB000002910DB926891420DDA0A4A00EB8000AC
:100DC00002EBC00252F821202AB9074A02EBC00008
:100DD00050F8210008B10020704701207047000042
:100DE00000000020B0000020400200202DE9F04368
:100DF000154C164D04F1200C616905F5C876481EA6
:100E00002860A069A5F5C877421E3260401E04F133
:100E10003409491E22680BE05CF8238059F823301E
:100E2000A1EB0801C01A521C45F8221046F8220016
:100E300001EB810307EBC30353F82030B3F1FF3F0D
:100E4000EAD12260BDE8F08300000020D00300203A
:100E5000000000000000000001020304060708096A
:100E6000800E00080000002058000000420D00081D
:100E7000D80E000858000020980A0000520D000803
:100E80000000000005000000050000000100000057
:100E90000100000000000000000000000000000051
:100EA0000000000000000000010000000000000041
:100EB000FFFFFFFF00000000FFFFFFFF000000003A
:100EC0000100000000000000010000001000000010
:080ED000000000000024F40002
:040000050800019955
:00000001FF
