:020000040800F2
:1000000080060020AD010008EB110008B30E0008C7
:10001000E9110008B9020008751500080000000089
:10002000000000000000000000000000CD140008E7
:10003000550300080000000011130008CF14000849
:10004000C7010008C7010008C7010008C701000870
:10005000C7010008C7010008C7010008C701000860
:10006000C7010008C7010008C7010008C701000850
:10007000C7010008C7010008C7010008C701000840
:10008000C7010008C7010008C70100080000000000
:10009000000000000000000000000000C701000890
:1000A000C7010008C7010008C7010008C701000810
:1000B000C7010008C7010008C7010008C701000800
:1000C000C7010008C7010008C7010008C7010008F0
:1000D000C7010008C7010008C701000800000000B0
:1000E000C7010008C7010008C701000800000000A0
:1000F000000000000000000000000000C701000830
:1001000000000000C7010008C7010008C70100087F
:1001100000000000000000000000000000000000DF
:10012000C7010008C7010008C7010008C70100088F
:10013000C7010008000000000000000000000000EF
:10014000000000000000000000000000C7010008DF
:10015000C7010008C7010008C7010008C70100085F
:10016000C7010008C70100080000000000000000EF
:10017000000000000000000000000000000000007F
:1001800000000000C701000800000000000000009F
:10019000C7010008C7010008DFF80CD000F07AF8AA
:1001A00000480047AD16000880060020064880473A
:1001B00006480047FEE7FEE7FEE7FEE7FEE7FEE74C
:1001C000FEE7FEE7FEE7FEE7591500089901000883
:1001D0002DE9F05F0546002092469B46884606467C
:1001E000814640241BE0284641464746224600F00F
:1001F00041F853465A46C01A914110D31146184649
:10020000224600F028F82D1A67EB01084F462246D7
:100210000120002100F01FF817EB00094E41201EBD
:10022000A4F10104DFDC484631462A464346BDE8D6
:10023000F09FD2B201E000F8012B491EFBD27047BB
:100240000022F6E710B513460A4604461946FFF7A2
:10025000F0FF204610BD202A04DB203A00FA02F10C
:10026000002070479140C2F1200320FA03F31943A4
:1002700090407047202A04DB203A21FA02F0002146
:10028000704721FA02F3D040C2F1200291400843A6
:1002900019467047064C074D06E0E06840F0010340
:1002A00094E8070098471034AC42F6D3FFF778FF84
:1002B000001D0008201D0008FEE700002DE9FF4199
:1002C00006461E480D464179491E8E4207D1817966
:1002D000491E8D4203D10121C171BDE8FF8118A0E3
:1002E0000124D0E90010CDE9001017A16F46D1E933
:1002F00000010DF10808CDE9020100BF18F8040063
:10030000284441B2385D304440B201F08DFC80B1E8
:1003100018F904000E49421839572844314401EBBA
:1003200081032B44C0B2D454CAB201461046FFF731
:10033000C5FF641CE4B2042CE0D9CEE71000002015
:1003400000000100FF00000000FF000100000000AD
:100350003002002070472DE9F0410446022677273D
:100360004FF03008F721304600F01EFF80210420B6
:1003700000F00DFE80210A2000F081FE0021012006
:1003800000F012FF2178092000F00EFF0C2101205F
:1003900000F00AFF80210D2000F071FE0A250420E4
:1003A00000F059FE6D1E2D0404462D0C04D0E0070C
:1003B00002D114EA080FF2D080210D2000F0E7FDF1
:1003C00035B1062000F047FE10F01B0F03D00226C7
:1003D0003046BDE8F08100263C40E007F8D0012619
:1003E000F6E7000070B5044600F0DEF80546601C34
:1003F00002D004480078044400F0D6F8401BA04224
:10040000FAD370BDE00000202DE9F84F00224FF034
:10041000010803254FF00F0E0B6808FA02F4234081
:10042000A34271D14E68012E05D0022E03D0112EA9
:1004300001D0122E15D18668570005FA07FC26EA6E
:100440000C06D1F80CC00CFA07FC4CEA060CC0F8FC
:1004500008C04668A6430C79C4F3001494403443A2
:100460004460C668570005FA07FC8C6826EA0C064B
:10047000BC403443C4604C68022C01D0122C13D110
:10048000D40800EB8404A346D4F8209054074FEA24
:10049000D46A0EFA0AF629EA06090E6906FA0AF67D
:1004A00046EA0906CBF8206004680E7924EA0C04B9
:1004B00006F00306BE40264306604C68E40056D5AD
:1004C0002E4C266846F480462660246822F00306F7
:1004D00004F4804400942A4C3444A446D4F80848D8
:1004E0009607370F0EFA07F6B443264EB04201D1F5
:1004F000002615E0244EB04201D1012610E0234E23
:10050000B04202D102260BE031E0214EB04201D1CF
:10051000032605E01F4EB04201D1042600E0072665
:10052000BE402643CCF808681B4E34684F689C4395
:10053000FF0300D51C433460174E361D34684F68E6
:100540009C43BF0300D51C433460134E0836346807
:100550004F689C43FF0200D51C4334600E4E0C369E
:1005600034684F689C43BF0200D51C433460521C62
:10057000102AFFF451AFBDE8F88F00004438024064
:100580000030014000000240000402400008024028
:10059000000C024000100240003C01400AB18161A1
:1005A00070470904FBE700000148806870470000BD
:1005B000E0000020024881680278114481607047A1
:1005C000E00000200B4810B5016841F400710160A3
:1005D000016841F480610160016841F4807101604B
:1005E000032000F063F8002000F006F800F024F883
:1005F000002010BD003C024070B50D4D04464FF484
:100600007A712878B1FBF0F00A490968B1FBF0F083
:1006100000F03BFC48B9102C07D200222146501EA6
:1006200000F024F800206C6070BD012070BD000057
:10063000E0000020EC0000200B4882B0016841F48B
:1006400080410160006800F4804000900648001F6F
:10065000016841F080510160006800F08050009016
:10066000072002B000F022B844380240F0B40E4B2C
:100670001B680C46C3F30223C3F10705042D00D900
:100680000425191D072901D2002300E0DB1E0126E5
:1006900006FA05F1491E214099409E40761E1640FB
:1006A0003143F0BC00F0C4BF0CED00E0064900F09F
:1006B000070208684FF6FF03184040EA0220034A89
:1006C00010430860704700000CED00E00000FA05E0
:1006D0002DE9F0470E46050065D0DFF81481D8F803
:1006E0000000F7B200F00F00B04207D288F80070A7
:1006F000D8F8000000F00F00B04254D128683D4CFB
:10070000810712D5400703D5206840F4E0502060EF
:100710002878000703D5206840F4604020602068F6
:10072000A96820F0F000084320602878C0072DD089
:10073000304968680839012812D0022813D00328EC
:1007400011D00968890700292DDA216821F00301F9
:1007500001432160FFF728FF814641F2883A0EE00D
:1007600009688903EFE709688901ECE7FFF71CFFD7
:10077000A0EB0901514502D90320BDE8F0872068AC
:10078000696800F00C00B0EB810FEFD1D8F80010D1
:10079000404601F00F01B14207D90770006800F030
:1007A0000F00B04201D00120E7E72878400705D5C7
:1007B0002068E96820F4E0500843206028780007AA
:1007C00006D52068296920F4604040EAC100206015
:1007D00000F018F82168084AC1F30311515CC840C1
:1007E0000649086006480068FFF706FF0020C4E7D6
:1007F000003C024008380240F01C0008EC000020D9
:10080000E4000020154810B5006810F00C021448F0
:1008100013D04110042A0FD0082A0ED10F4C241FE8
:100820002268236802F03F025B0207D52068C0F30C
:100830008810A0FB010106E0084610BD2168C1F345
:100840008811A1FB00010023FFF7C2FC2168C1F35E
:100850000141491C4900B0FBF1F010BD08380240CD
:100860000024F4002DE9F84F040076D02078DFF85A
:1008700038A3CE4DC00749D0DAF800105046C1F376
:100880008101012908D00068C0F3810002280AD143
:10089000281D0068400206D52868800336D56068A8
:1008A0000028E2D032E06068B0F5803F10D0B0F5AB
:1008B000A02F286810D020F480302860286820F409
:1008C000802028606068A0B1FFF76EFE06460CE04D
:1008D000286840F48030F4E740F480202860F7E78F
:1008E000FFF762FE801B642873D828688003F7D561
:1008F0000CE0FFF759FE064605E000BFFFF754FE87
:10090000801B6428F0D828688003F7D42078DFF8AB
:10091000A08280074FF000093ED5DAF8001050465B
:1009200011F00C0F09D00068C0F3810002280BD130
:100930009D48001F0068400206D42868800715D52E
:10094000E068012809D111E0E068B8B10120C8F8D9
:100950000000FFF729FE064605E020E1FFF724FE30
:10096000801B0228C0D828688007F7D5286821692D
:1009700020F0F80040EAC10028600DE0C8F80090BF
:10098000FFF712FE064604E0FFF70EFE801B02286A
:100990001FD828688007F7D42078000722D5824E18
:1009A000844861696C3671B101210160FFF7FCFD7B
:1009B000074604E0FFF7F8FDC01B022809D830689D
:1009C0008007F7D50EE0C0F80090FFF7EDFD074671
:1009D00005E082E0FFF7E8FDC01B02287DD8306803
:1009E0008007F7D42078400768D5DFF8BCB100272E
:1009F0000BF1380BDBF80000C0000BD4DBF8001063
:100A000041F08051CBF80010DBF80000012700F026
:100A100080500090684E3068C00510D4306840F4B3
:100A200080703060FFF7C0FD009005E0FFF7BCFD6F
:100A30000099401A022850D83068C005F6D55A4EA1
:100A4000A068683601280FD00528306810D020F043
:100A500001003060306820F004003060A068B8B158
:100A6000FFF7A2FD00900FE0306840F00100F4E7CE
:100A700040F004003060F7E7FFF796FD0099411A57
:100A800041F28830814266D830688007F4D50EE0A4
:100A9000FFF78AFD009007E0FFF786FD0099411AF5
:100AA00041F28830814256D830688007F4D42FB1A3
:100AB000DBF8001021F08051CBF80010A069D0B312
:100AC000DAF800205146C2F38102022A4AD00228F5
:100AD000484607D0C8F8600000E03CE0FFF764FD3E
:100AE00004463BE04746C8F86000FFF75DFD064658
:100AF00005E000BFFFF758FD801B02282BD82868AF
:100B00008001F7D4D4E907010843A16A2B4A4908B8
:100B100002EB0141626A41EA8211084394F82C1009
:100B200040EA01612048001F016001203866FFF79C
:100B30003BFD044605E034E0FFF736FD001B0228CC
:100B400009D828688001F7D52BE000BFFFF72CFDFE
:100B5000001B022802D90320BDE8F88F2868800115
:100B6000F4D41EE00128F7D00868E26900F480019F
:100B7000914214D1226A00F03F0191420FD147F611
:100B8000C071626A0140914209D1A26A00F4403109
:100B9000914204D1E16A00F07060884201D00120E6
:100BA000DAE70020D8E700000838024000380240A9
:100BB00000004742800E4742007000400000FFFFE7
:100BC00070B5040005D00025A56294F8510010B15D
:100BD00006E0012070BD84F85050204600F030F847
:100BE000022084F851002068016821F04001016072
:100BF000D4E901010843D4E90312114308436169B0
:100C00000843218B01F400710843E1690843216A1C
:100C10000843A16A084321680860A069042101EA29
:100C20001040616A0843216848602068C16921F466
:100C30000061C1616565012084F85100002070BD2C
:100C400010B586B0044614216846FFF7F9FA134937
:100C50002068884220D112480021026842F4805264
:100C60000260006800F4805005900D481438026856
:100C700042F001020260006800F001000590E020EF
:100C800000900220CDE9010103200390052004908B
:100C900069460448FFF7B8FB06B010BD00300140BC
:100CA00044380240000002402DE9F84F044690F815
:100CB000500000270A9E1D4692468B464FF00109C0
:100CC00001280ED0012084F85000FFF76DFC80460B
:100CD00094F85100616801280CD0B1F5827F07D1EA
:100CE00002E00220BDE8F88FA16809B9042801D00C
:100CF0000227C2E0BBF1000F27D0BAF1000F24D0C9
:100D00001DB394F85100042802D0052084F8510046
:100D100000206065C4F838A0E587A587C4F830B026
:100D2000E586A5862064606420680168490603D4CE
:100D3000016841F040010160E068B0F5006F606853
:100D400005D0E8B3012D46D07FE0012795E008B13A
:100D5000012D39D1206B21680088C860206B801C70
:100D60002063E08E401EE0862EE0206881688907BF
:100D70000FD5E18E69B1B9F1010F0AD1216B098854
:100D8000C160206B801C2063E08E401EE0864FF027
:100D9000000920688168C9070CD0E18F51B1C06893
:100DA000A16B0880A06B801CA063E08F401EE087D1
:100DB0004FF00109FFF7F8FBA0EB0800B04200E09C
:100DC00009E001D3701C50D1E08E0028CDD1E08F16
:100DD0000028CAD13FE0206B216800780873206B9F
:100DE000401C2063E08E401EE0862EE02068816873
:100DF00089070FD5E18E69B1B9F1010F0AD1216BD5
:100E000009780173206B401C2063E08E401EE08651
:100E10004FF0000920688168C9070CD0E18F51B1FB
:100E2000C068A16B0870A06B401CA063E08F401EDF
:100E3000E0874FF00109FFF7B7FBA0EB0800B042D5
:100E400002D3701C01D010E07EB1E08E0028CDD11D
:100E5000E08F0028CAD142463146204600F0C0FA51
:100E600028B101272020606507E0032705E0A0687E
:100E700018B92068C16880680090012084F851008A
:100E8000002084F8500038462CE710B5401EB0F121
:100E9000807F01D3012010BD4FF0E02460610F215D
:100EA000601700F0C5FB0020A06107202061002032
:100EB00010BDFEE710B5142000F0CDF8800705D175
:100EC0000321BDE81040142000F0D9B810BD7CB556
:100ED0000446002529460D2000F066F99320207075
:100EE0002020607001A823460090022219460C20A1
:100EF00000F0D1F8010009D1225C401C5540C0B27D
:100F00000428F9D3205CA84200D0022108467CBD09
:100F10002DE9F0410E46074615460421052000F054
:100F200036F880210A2000F0AAF8002405E0395D97
:100F3000092000F039F9641CE4B2B442F7D303216C
:100F4000012000F031F90A24052000F084F8641E25
:100F500014F0FF0401D04007F6D5222000F07BF802
:100F60002870212000F077F86870BDE8F08170B536
:100F700005460146262000F075F8040003D12846F6
:100F8000FFF7A5FF044600F00EF8204670BD70B5CF
:100F90000C46054600F05FF820EA04012846BDE84B
:100FA000704000F001B938B550208DF800000020E5
:100FB0006D468DF8010002212846AA1CFFF7A8FF04
:100FC000F721022000F0F0F880210420FFF7DFFF76
:100FD00080210A2000F053F80021012000F0E4F8FD
:100FE00000240920295D00F0DFF8641CE4B2042C21
:100FF000F7D30C21012000F0D7F880210D2000F05C
:101000003EF880210D20FFF7C2FF38BD10B500F07B
:1010100059F900F030F88D212A2000F0C5F83E2162
:101020002B2000F0C1F81E212D2000F0BDF800217A
:101030002C2000F0B9F87021262000F0B5F84021EE
:10104000152000F0B1F83D21112000F0ADF8BDE809
:101050001040FFF72FBF7E2101EA400040F08000E2
:1010600000F08EB913B507210D2000F09DF86846F9
:10107000FFF771F91CBD0F21012000F095B870B584
:101080000C460546FFF7E7FF40EA04012846BDE8A5
:10109000704000F089B82DE9FF5F00270226DDF8D7
:1010A00038A015468B468146B8460C2805D0B9F1C4
:1010B0000E0F05D11227102001E07727302080463F
:1010C00047F08001022000F06FF880210420FFF734
:1010D0005EFF80210A20FFF7D2FF0021012000F0EF
:1010E00063F8002406E01BF80410092000F05CF807
:1010F000641CA4B2AC42F6D34946012000F054F877
:10110000B9F10C0F03D180210D20FFF7B8FF0A259C
:101110000420FFF7A0FF6D1E2D0404462D0C04D003
:10112000E00702D114EA080FF2D080210D20FFF76A
:101130002EFF35B10620FFF78EFF10F01B0F04D0F5
:10114000022604B03046BDE8F09F00263C40E00790
:1011500000D00126B9F10C0FF3D10A20FFF77BFF75
:1011600004460C20FFF777FF10F007004FEAC40198
:1011700004D008390844AAF8000001E0AAF80010D9
:1011800024B1102C04D91024002503E00124FBE72E
:10119000002506E00920FFF75EFF039948556D1C06
:1011A000ADB2A542F6D3CCE77E2202EA400000F0C1
:1011B000FFB800000B480A494FF4007201604FF479
:1011C0008271416000218160C1600161C0E9051246
:1011D000C1610162416281620A21C162FFF7F0BC14
:1011E000003001400C010020FEE77047F0B5334AA3
:1011F000D379012B61D112780025314B521E52B2A6
:1012000003F1190457E09E189F5C96F801C06745EA
:1012100008D104EB020CA75C9CF801C0674501D122
:10122000002747559F5C96F801C0674508D104EB3D
:10123000020CA75C9CF801C0674501D901274755FE
:101240009F5C96F801C0674508D904EB020CA75CC7
:101250009CF801C0674501D1022747559F5C96F86D
:1012600001C0674508D104EB020CA75C9CF801C0E3
:10127000674501D2032747559F5C7678B74206D26F
:10128000A718A65C7F78BE4201D1042646559E5C15
:101290000A4F06EB8606083707EBC606A75C01EB8C
:1012A000C50C06EBC7076D1CD7E90067521ECCE9D9
:1012B0000067EDB252B2002AA5DAF0BD100000209E
:1012C0004902002010B586B014216846FEF7B8FF29
:1012D0000D48016841F00101016000680B4C00F00D
:1012E00001000590002210212046FFF757F9102039
:1012F0000121CDE900010320CDE902106946204615
:10130000FFF782F806B010BD3038024000000240FE
:1013100070470000F0B510480022134685784678E3
:101320000E4C0BE002EB82070021274402E07B54C5
:10133000491CC9B2A942FAD3521CD2B2B242F1D36B
:10134000C278052102EB820222440479224402F889
:10135000061CC371F0BD0000100000203002002008
:101360000EB501238DF804000A20009002AA01A9FD
:101370000248FFF799FC9DF808000EBD0C01002003
:1013800070B50A4D0446002210212846FFF706F9E1
:101390002046FFF7E5FF0020FFF7E2FF04460122A9
:1013A00010212846FFF7FAF8204670BD00000240E1
:1013B00070B50A4C0E460546002210212046FFF764
:1013C000EDF82846FFF7CCFF3046FFF7C9FF20466F
:1013D000BDE8704001221021FFF7E0B80000024094
:1013E00038B504461248134B0068B0FBF3F04FF4D5
:1013F0007A73584300906068B0F5827F0DD10B4638
:10140000009200228021204600F016F870B1606D35
:1014100040F020006065032038BD009830B1401EC8
:10142000009020688068C0430006F6D5002038BDD3
:10143000EC00002000366E012DE9F0411D461746F4
:101440000E460446DDF8188008E0681C06D0FFF759
:10145000ABF8A0EB0800A8420BD255B12068806819
:1014600036EA000030D00020B842EED10020BDE8BE
:10147000F0812068416821F0E00141606068B0F5CA
:10148000827F0BD1A068B0F5004F02D0B0F5806F1D
:1014900004D12068016821F040010160A06AB0F524
:1014A000005F09D12068016821F4005101602068C3
:1014B000016841F400510160012084F851000020CE
:1014C00084F850000320D2E70120CDE77047FFF7F2
:1014D00071B8000030B593B030216846FEF7B0FE19
:1014E00014210CA8FEF7ACFE19480024016841F055
:1014F00080510160006800F080501190154801682B
:1015000041F4404101600068022500F44040119020
:10151000012000904FF4A02001906805CDE906500D
:101520000420C021CDE908010A9008200B906846EC
:10153000FFF798F90F20CDE90C054FF4A050CDE945
:101540000E4003210CA81094FFF7C2F813B030BD71
:1015500040380240007000400548016841F47001C5
:10156000016003494FF00060803908607047000057
:1015700088ED00E0FEE700002DE9F04186B014217F
:101580006846FEF75DFE26480024016841F001012F
:101590000160016801F001010591016841F002015B
:1015A0000160016801F002010591016841F0080144
:1015B000016000681B4E00F008004FF47045059074
:1015C000002229463046FEF7E9FF174F0022F0219E
:1015D0003846FEF7E3FFDFF8548000220F21404633
:1015E000FEF7DCFF00950125CDE901546946304640
:1015F0000394FEF709FFF0200090CDE901546946FD
:1016000038460394FEF700FF0F200090CDE9015407
:10161000694640460394FEF7F7FE06B0BDE8F08148
:1016200030380240000C024000040240000002403A
:101630000907090E002804DB00F1E02080F80014FF
:10164000704700F00F0000F1E02080F8141D704793
:1016500002E008C8121F08C1002AFAD1704770477B
:10166000002001E001C1121F002AFBD170470000D9
:1016700070B50D4C1D4616466071A171FFF74AFE0C
:101680002079401EC1B2E078401EC0B2FEF716FEBF
:10169000E079012801D100F0EBFA29463046BDE897
:1016A0007040FFF7A3BD000010000020FEF78AFF86
:1016B000FFF710FFFFF77EFDFFF75EFFFFF7A6FCC9
:1016C0008D4B0025A3F1780203210120FFF7D0FF05
:1016D000894EDFF828A2DFF82082783EA9465446DA
:1016E000705D01281ED0022859D0032879D0042823
:1016F00078D0834F00224FF400513846FEF74EFF5A
:101700000022B9143846FEF749FF00224FF4804109
:101710003846FEF743FF00224FF400413846FEF7FB
:101720003DFFDDE7012000F051F97448FFF71FFC91
:10173000F0B10020494652461154401C0528FBDBFD
:1017400008EBC500D0E90023D4E90201504059401C
:101750000843C5D16D1CEDB20027012000F036F919
:101760007F1CFFB20A2FF8D3C820FEF73BFEB7E775
:101770009AF80030C4E9023948465746012102462A
:10178000120242EA136217F801C01B021CEB0303AA
:101790004241491C0529F3DBC4E90232D0E700F0DD
:1017A000DFF95648FFF7E3FBE8B100204A4651460F
:1017B0000A54401C0528FBDB08EBC500D0E90013E8
:1017C000D4E9020248405A40104389D16D1CEDB261
:1017D0005FF0000700F0C4F97F1CFFB20A2FF9D3B5
:1017E000C2E717E04FE09AF80030C4E902394846F2
:1017F000574601210246120242EA136217F801C05D
:101800001B021CEB03034241491C0529F3DBC4E91D
:101810000232D1E7012000F075F83848FFF7A7FB46
:10182000D8B10020494652461154401C0528FBDB24
:1018300008EBC500D0E90023D4E90210514058401C
:10184000014394D16D1CEDB20027012000F05AF83D
:101850007F1CFFB20A2FF8D386E79AF80030C4E95C
:1018600002394846D44601210246120242EA136276
:101870001CF801701B02FB184241491C0529F4DBCE
:10188000C4E90232D4E700F005F91C48FFF76FFB0A
:10189000D8B100204A4651460A54401C0528FBDBBB
:1018A00008EBC500D0E90023D4E9021051405840AC
:1018B00001438AD16D1CEDB25FF0000700F0EAF839
:1018C0007F1CFFB20A2FF9D34EE79AF80030C4E923
:1018D00002394846D44601210246120242EA136206
:1018E0001CF801701B02FB184241491C0529F4DB5E
:1018F000C4E90232D4E700006801002000000020A3
:10190000000C024010B52E4C00224FF4005120462E
:10191000FEF744FE0022A1142046FEF73FFE0022FF
:101920004FF480412046FEF739FE0122D1032046C4
:10193000FEF734FE234C012210212046FEF72EFE36
:10194000002220212046FEF729FE012240212046C8
:10195000FEF724FE002280212046FEF71FFE1A4CCF
:10196000012211462046FEF719FE012202212046DF
:10197000FEF714FE012204212046FEF70FFE01228D
:1019800008212046FEF70AFE0120FEF72BFD00226B
:1019900001212046FEF702FE002202212046FEF72A
:1019A000FDFD002204212046FEF7F8FD002208215B
:1019B0002046FEF7F3FDBDE810400120FEF712BD02
:1019C000000C0240000402400000024070B52E4CA2
:1019D000002210212046FEF7E1FD012220212046B1
:1019E000FEF7DCFD002240212046FEF7D7FD012254
:1019F00080212046FEF7D2FD244C012211462046CC
:101A0000FEF7CCFD012202212046FEF7C7FD012290
:101A100004212046FEF7C2FD012208212046FEF7E0
:101A2000BDFD0120FEF7DEFC194D012251032846C1
:101A3000FEF7B4FD0022A1142846FEF7AFFD0022F8
:101A40004FF480412846FEF7A9FD00224FF40041E3
:101A50002846FEF7A3FD002201212046FEF79EFD49
:101A6000002202212046FEF799FD00220421204693
:101A7000FEF794FD002208212046FEF78FFDBDE809
:101A800070400120FEF7AEBC00040240000002409E
:101A9000000C024010B52F4C00224FF4005120469C
:101AA000FEF77CFD012211032046FEF777FD0022A0
:101AB0004FF480412046FEF771FD00224FF40041B3
:101AC0002046FEF76BFD244C012210212046FEF734
:101AD00065FD012220212046FEF760FD0022402105
:101AE0002046FEF75BFD002280212046FEF756FDD2
:101AF0001A4C012211462046FEF750FD0122022118
:101B00002046FEF74BFD012204212046FEF746FD4C
:101B1000012208212046FEF741FD0120FEF762FC6C
:101B2000002201212046FEF739FD00220221204635
:101B3000FEF734FD002204212046FEF72FFD00228F
:101B400008212046FEF72AFDBDE810400120FEF7DF
:101B500049BC0000000C02400004024000000240AA
:101B600010B52E4C00224FF400512046FEF716FD12
:101B70000022A1142046FEF711FD01229103204608
:101B8000FEF70CFD00224FF400412046FEF706FD53
:101B9000234C002210212046FEF700FD00222021C8
:101BA0002046FEF7FBFC012240212046FEF7F6FC12
:101BB000012280212046FEF7F1FC1A4C0122114639
:101BC0002046FEF7EBFC012202212046FEF7E6FC50
:101BD000012204212046FEF7E1FC012208212046D3
:101BE000FEF7DCFC0120FEF7FDFB00220121204670
:101BF000FEF7D4FC002202212046FEF7CFFC002293
:101C000004212046FEF7CAFC002208212046FEF7E8
:101C1000C5FCBDE810400120FEF7E4BB000C02400B
:101C20000004024000000240002818DB0E4A5378EE
:101C3000984214DA002912DB927891420FDA00EB15
:101C400080020948083000EBC20000EBC103D3E971
:101C50000003184303D005481044405C08B100203D
:101C60007047012070470000100000203002002063
:101C7000FFB5194A194C1AA6517904F11905491EE4
:101C800021709079C9B2401E2870D6E90036CDE99E
:101C9000003615A6C0B2D6E90036CDE90236A4F169
:101CA00019036F460DF1080C0FE000BF17F806E0AE
:101CB0001CF80660A1EB0E01801B1678C9B2761CD9
:101CC000F6B21670C0B2A155A85501EB81061E44AC
:101CD000365C052EEAD1FFBD10000020490200202D
:101CE00000000100FF00000000FF000100000000F4
:101CF00000000000000000000102030406070809BC
:101D0000201D000800000020F00000005016000810
:101D1000101E0008F000002090050000601600086A
:101D200000000000000000000000000000000000B3
:101D30000005050101000000FF816FC8D900000007
:101D4000B082AEA539000000FF8194D339000000B5
:101D500000000000000000004A816D8F2900000093
:101D60002D81BB6E79000000D8826C2F1900000015
:101D70007282675EC90000000000000000000000E1
:101D8000A63E0B44D7000000B83BDDC79900000019
:101D90003E3588F477000000873D08259700000055
:101DA0000000000000000000AD886F236900000003
:101DB0000000000000000000000000000000000023
:101DC0000000000000000000000000000000000013
:101DD0000000000000000000BC82CAFD09000000F5
:101DE0005D82CA8C9900000058826D1EA900000017
:101DF000E63E0EC1170000002EC50D6F89000000E1
:101E00000100000010000000000000000024F400A9
:040000050800019955
:00000001FF
