:020000040800F2
:10000000E8070020490200088D3600088F360008F6
:10001000913600089336000895360008000000006D
:1000200000000000000000000000000097360008FB
:1000300099360008000000009B3600089F36000833
:1000400063020008630200086302000863020008FC
:1000500063020008630200086302000863020008EC
:1000600063020008630200086302000863020008DC
:1000700063020008630200086302000863020008CC
:1000800063020008630200086302000863020008BC
:1000900063020008630200086302000863020008AC
:1000A000630200086302000863020008630200089C
:1000B000630200086302000863020008630200088C
:1000C000630200086302000863020008630200087C
:1000D000630200082B3100083D310008553100084B
:1000E000630200086302000863020008630200085C
:1000F000630200086302000863020008630200084C
:10010000630200086302000863020008630200083B
:100110006D310008853100086302000863020008A1
:10012000630200086302000863020008630200081B
:10013000630200086302000863020008630200080B
:1001400063020008630200086302000863020008FB
:100150006302000863020008630200089931000886
:1001600063020008630200086302000863020008DB
:1001700063020008630200086302000863020008CB
:10018000630200086302000800F002F800F04DF876
:100190000AA090E8000C82448344AAF10107DA45E2
:1001A00001D100F042F8AFF2090EBAE80F0013F0E7
:1001B000010F18BFFB1A43F0010318475C50000001
:1001C0007C500000103A24BF78C878C1FAD8520792
:1001D00024BF30C830C144BF04680C6070470000C1
:1001E0000023002400250026103A28BF78C1FBD840
:1001F000520728BF30C148BF0B607047662904F022
:100200009387002070471FB504F089FF9DE8030025
:1002100003F05EFC03F0C4FE04000020002104F0A3
:1002200087FCE0601FBD10B510BD03F0D7FF11467D
:10023000FFF7E9FF03F018F903F0F5FF03B4FFF748
:10024000F2FF03BC04F066F80948804709480047FC
:10025000FEE7FEE7FEE7FEE7FEE7FEE7FEE7FEE776
:10026000FEE7FEE704480549054A064B70470000D3
:100270004B37000889010008E8010020E80700204A
:10028000E8030020E80300202849084328490860C3
:10029000704730B50F23C27801780125FAB1244A9E
:1002A000126801F1E02102F4E062C2F5E062C2F3FB
:1002B0000722C2F10404D3404278A24084781C4053
:1002C0001443220181F80024007800F01F018D40C2
:1002D0004009800000F1E020C0F8005130BD01F07D
:1002E0001F0085404809800000F1E020C0F88051DF
:1002F00030BD104A114001430D48001F0160704796
:100300000B4A121D0029116801D0014300E081430E
:10031000116070474FF0E0210428086903D020F0F5
:1003200004000861704740F00400FAE70000FA0595
:100330000CED00E080FFFF1FF848016841F001016B
:100340000160F64A0021083211600268F44B1A403D
:100350000260031DF34A1A60F04BF34A84331A60BB
:10036000F04A103A1B1D1A60026822F480220260D3
:10037000EA480C300160181D01607047E74900220F
:10038000891C0A7008707047024600205109012933
:100390000CD002290CD0E1497431096802F01F0227
:1003A000012393400B4200D001207047DB49F4E762
:1003B000DA497031F1E718B500204FF4A0440090FD
:1003C0003120FFF7E1FF0099491C0091A14201D0C3
:1003D0000028F5D03120FFF7D7FF002800D00120FA
:1003E00018BDCE4A116821F0F80141EAC000106042
:1003F0007047CE4908607047C849002270310A70C2
:100400000A70012802D0042801D105200870704725
:10041000C7490860704741EA82115A0810B5C54BB8
:10042000029C03EB02421143014341EA0460BB49D1
:10043000091D086010BDBD4908667047800140EA8B
:100440000170B649843108607047B84988667047C2
:10045000800140EA0160B14940EA027088310860D9
:100460007047B24908677047B049C8647047AB4BE2
:1004700008331A68084322F0EC6210431860704792
:10048000A64B08331A68084322F0784210431860DC
:100490007047A24A0832116821F00301014311603C
:1004A00070479E480830006800F00C0070479B4A77
:1004B0000832116821F0F001014311607047974A3A
:1004C0000832116821F4E051014311607047934AEA
:1004D0000832116821F4604141EAC00010607047A1
:1004E00070B58E4B08331968934C11F00C0104D091
:1004F000924E042903D0082903D004601BE0066053
:1005000019E0864A121D1168C1F38055116801F087
:100510003F0115B1B6FBF1F101E0B4FBF1F1146854
:100520001268C4F388146143C2F30142521C5200A2
:10053000B1FBF2F1016019680F2202EA1111804A41
:10054000545C0168E14041601C68072505EA942479
:10055000145D21FA04F484601B6805EA5333D25C0D
:10056000D140C16070BDC0F30121032908D16B4B9C
:1005700008331968734A21F4F81102400A431A60DB
:10058000664970310A68C0F30B0002430A60704785
:1005900067494439086070476549403908607047C9
:1005A0006249C1F85C0170475C4A8C32116821F4E1
:1005B0004011014311607047584A8C32116821F490
:1005C0004001014311607047544A8C321168401E4B
:1005D00021F01F01014311607047504A8C321168AD
:1005E0006FF0FF0321F4F85103EB00200843106083
:1005F00070474A4A8C32116821F44031014311603E
:1006000070475149C1F8E0017047444A303200292F
:10061000116801D0014300E08143116070473F4AF7
:1006200034320029116801D0014300E08143116098
:1006300070473A4A38320029116801D0014300E07E
:10064000814311607047354A40320029116801D05A
:10065000014300E0814311607047304A4432002971
:10066000116801D0014300E08143116070472B4ABB
:1006700010320029116801D0014300E0814311606C
:100680007047264A14320029116801D0014300E066
:10069000814311607047214A18320029116801D046
:1006A000014300E08143116070471C4A2032002959
:1006B000116801D0014300E0814311607047174A7F
:1006C00024320029116801D0014300E08143116008
:1006D0007047124A50320029116801D0014300E0EE
:1006E0008143116070470D4A54320029116801D0CE
:1006F000014300E0814311607047084A58320029E5
:10070000116801D0014300E0814311607047034A42
:1007100060320029116819D0014318E00038024006
:10072000FFFFF6EA103000240030002000004742AE
:10073000800E47420000FFFF0024F40040787D0156
:1007400000000020FFFCFF0F0010474281431160B2
:100750007047194A0029116801D0014300E0814324
:100760001160704714490C310128086803D020F04B
:1007700008000860704740F00800FAE70E4A573A50
:100780000029117801D0014300E0814311707047C6
:1007900009481030016841F08071016070470146DE
:1007A000054A0020583A12680A4200D001207047DA
:1007B000014956390870704764380240CD4910B578
:1007C000884206D101211020FFF779FF0021102077
:1007D00020E0C949884202D101214C0429E0C749DF
:1007E000884202D101218C0423E0C549884202D10C
:1007F0000121CC041DE0C349884202D101210C052E
:1008000017E0C149884209D101212020FFF757FF95
:1008100000212020BDE81040FFF751BFBB498842AE
:1008200002D101218C0704E0B94988420AD1012193
:1008300044052046FFF739FF2046BDE8104000215F
:10084000FFF733BF10BD7FB50446008A0D46C98847
:1008500020F4405001432182A08941F20C61884379
:10086000A9882A8911436A8902431143A181A08A78
:1008700020F44071A8890843A0826846FFF730FE43
:100880009C48844202D0A048844201D1039800E0F1
:100890000298A189090400EBC00101EB001029684E
:1008A00001D5490000E08900B0FBF1F06422B0FB03
:1008B000F2F109010B096FF018056B4300EB83009F
:1008C000A3891D044FF0320306D503EBC000B0FB33
:1008D000F2F000F0070005E003EB0010B0FBF2F0CF
:1008E00000F00F00084320817FBD4FF416510160D6
:1008F00000218180C18001810C2242818181704769
:1009000010B5028A4C8822F470630A8822438C88CE
:10091000C9880C4322431A43028210BD0021018082
:1009200041808180C18070470029818902D041F4D3
:10093000005101E021F4005181817047028B02F4E3
:100940007F420283028B0A43028370470029818918
:1009500002D041F4004101E0C1F30E0181817047F2
:100960000029818A02D041F4006101E021F4006194
:1009700081827047C1F30801818070478088C0F38D
:1009800008007047028A22F00F020282028A0A439C
:10099000028270470029818902D041F0020101E002
:1009A00021F0020181817047828922F400628281F4
:1009B00082890A4382817047028A22F020020282E1
:1009C000028A0A43028270470029018A02D041F458
:1009D000804101E021F4804101827047818941F02A
:1009E0000101818170470029818A02D041F008010C
:1009F00001E021F0080181827047028BD2B20283AC
:100A0000028B42EA0121018370470029818A02D0CA
:100A100041F0200101E021F020018182704700298E
:100A2000818A02D041F0100101E021F010018182A1
:100A30007047828A22F004028282828A0A4382827A
:100A400070470029818A02D041F0020101E021F0C3
:100A5000020181827047002A828A01D00A4300E0A5
:100A60008A438282704710B5C1F3421301F01F041C
:100A70000121A140012B07D0022B07D01430002AFE
:100A8000026805D00A4304E00C30F8E71030F6E7BE
:100A90008A43026010BD0246002012880A4200D03C
:100AA00001207047C9430180704770B501F01F05F0
:100AB00001260024C1F3421306FA05F2012B0FD0E0
:100AC000022B0FD0838A4FEA11210088134206FAC5
:100AD00001F600EA060001D000B10124204670BDF5
:100AE0008389F0E7038AEEE70A0A01219140C943AE
:100AF0000180704700100140004400400048004061
:100B0000004C0040005000400014014000780040BC
:100B1000007C0040FE4910B5884206D101210846FC
:100B2000FFF7CDFD002101205BE0B0F1804F09D03F
:100B3000F84988420DD101210220FFF7B6FD0021BE
:100B4000022070E001210846FFF7AFFD00210120DF
:100B500069E0F149884206D101210420FFF7A5FD93
:100B6000002104205FE0ED49884206D101210820E0
:100B7000FFF79BFD0021082055E0E949884206D196
:100B800001211020FFF791FD002110204BE0E549E5
:100B9000884206D101212020FFF787FD0021202077
:100BA00041E0E149884206D101210220FFF787FD9B
:100BB0000021022015E0DD49884202D101210C0408
:100BC0000AE0DB49884202D101214C0404E0D94902
:100BD00088420AD101218C042046FFF770FD0021D4
:100BE0002046BDE81040FFF76ABDD349884206D1D0
:100BF00001214020FFF759FD0021402013E0CF499B
:100C0000884206D101218020FFF74FFD002180207E
:100C100009E0CB4988420AD1841501212046FFF71B
:100C200044FD00212046BDE81040FFF73EBD10BD49
:100C300030B50288B64CBC4DA0420DD0A8420BD0B6
:100C4000B0F1804F08D0B34B984205D0B24B9842D8
:100C500002D0B24B984203D122F070034A881A4363
:100C6000AF4B984206D0AF4B984203D022F440736A
:100C70000A891A4302804A68C2620A880285A04231
:100C800001D0A84201D1897A01860121818230BD3B
:100C90004FF0FF314160002101800181418081726C
:100CA0007047018582827047028822F070020A43F1
:100CB0000280704741627047C1627047406A704766
:100CC000008D70470029018802D041F0020101E047
:100CD00021F00201018070470029018802D041F013
:100CE000040101E021F0040101807047002901881E
:100CF00002D041F0800101E021F0800101807047C5
:100D0000028822F00802028002880A4302807047AB
:100D1000028822F44072028002880A4302807047EF
:100D20000029018802D041F0010101E021F0010118
:100D30000180704730B5028C22F001020284028CDF
:100D40008388048B22F0020224F073050C882C4364
:100D50008D8915434A882A436D4DA84202D0724DB1
:100D6000A8420DD122F00805CA8923F440732A4312
:100D700022F004058A882A430D8A1D434B8A2B439F
:100D80008380048389684163028430BD70B5028C1E
:100D900022F010020284028C8388048B0D8824F4D4
:100DA000E6464FF6FF7404EA052535438E8922F0A6
:100DB000200204EA061616434A8804EA0212324365
:100DC000534EB04202D0584EB04215D122F08006A8
:100DD000CA8923F4406304EA0212324322F0400637
:100DE0008A8804EA021232430E8A04EA86061E4307
:100DF0004B8A04EA830333438380058389688163D4
:100E0000028470BD70B5028C22F480720284028C60
:100E10008388848B0D8824F0730425438E894FF6D4
:100E2000FF7422F4007204EA062616434A8804EA94
:100E300002223243364EB04202D03B4EB04215D170
:100E400022F40066CA8923F4405304EA02223243A2
:100E500022F480668A8804EA022232430E8A04EA77
:100E600006161E434B8A04EA0313334383808583AB
:100E70008968C163028470BD70B5028C22F480520F
:100E80000284058C8288838B0C8823F4E6464FF617
:100E9000FF7303EA0424344325F400568D8903EAE2
:100EA000053535434E8803EA06362E43184DA842D1
:100EB00002D01D4DA84205D122F480450A8A03EADA
:100EC00082122A438280848389680164068470BD0B
:100ED000002101804180818081608181C181018206
:100EE0004182704730B50124058C00F118038C4015
:100EF000A543058431B308292CD0091FC1F34E0046
:100F00001844016848F6FF731940016001681AE04F
:100F1000000001400004004000080040000C0040B8
:100F20000010004000140040000401400040014057
:100F3000004401400048014000180040001C0040EF
:100F40000020004006E04FF6FF7303EA022211433F
:100F5000016030BD03EB510001684FF68F731940FB
:100F600001600168F3E74163704781637047C163C3
:100F7000704701647047028B22F070020A430283BB
:100F80007047028B4FF6FF7322F4E04203EA01211F
:100F9000114301837047828B22F070020A438283DF
:100FA0007047828B4FF6FF7322F4E04203EA01217F
:100FB000114381837047028B22F008020A430283A7
:100FC0007047028B4FF6FF7322F4006203EA01219F
:100FD000114301837047828B22F008020A43828307
:100FE0007047828B4FF6FF7322F4006203EA0121FF
:100FF000114381837047028B22F004020A4302836B
:101000007047028B4FF6FF7322F4806203EA0121DE
:10101000114301837047828B22F004020A438283CA
:101020007047828B4FF6FF7322F4806203EA01213E
:10103000114381837047028B22F080020A430283AE
:101040007047028B4FF6FF73C2F30E0203EA0121D1
:10105000114301837047828B22F080020A4382830E
:101060007047828B4FF6FF73C2F30E0203EA012131
:10107000114381837047028C22F002020A430284EA
:101080007047028C22F008020A4302847047028CE7
:101090004FF6FF7322F0200203EA0111114301848D
:1010A0007047028C4FF6FF7322F0800203EA0111B1
:1010B000114301847047028C4FF6FF7322F40072D3
:1010C00003EA0121114301847047028C4FF6FF733C
:1010D00022F4006203EA0121114301847047028C6B
:1010E0004FF6FF7322F4005203EA013111430184E9
:1010F000704710B50123048C8B409C430484038CFF
:101100008A401343038410BD10B50423048C8B4024
:101110009C430484038C8A401343038410BD828B58
:1011200022F440628283828B4FF6FF7303EA01212F
:101130000A4382837047828B22F00C028283828B67
:101140000A4382837047028B22F440620283028B3F
:101150004FF6FF7303EA01210A4302837047F0B59B
:10116000048C24F010040484078B068C4FF6FF7463
:1011700004EA011527F4734704EA0331394304EA0A
:1011800002220A4326F0A001294341F01001028304
:101190000184F0BD028B22F00C020283028B0A4311
:1011A000028370472DE9F0410C460E884988A288D9
:1011B000238905460EB3042E26D0082E2E8C4FF61A
:1011C000FF7028D026F480562E84AF8B2E8C00EA38
:1011D000022200EA013127F473473A4300EA033060
:1011E000104326F420420A4342F48051A883298404
:1011F000E1882846BDE8F04191E700F062F9E18816
:101200002846BDE8F041C5E7FFF7A9FFE188284679
:10121000BDE8F04197E726F480762E84AF8B2E8CC4
:1012200000EA012100EA0310104327F0F3073843D6
:1012300026F420620A4342F48071A8832984E1885D
:101240002846BDE8F04176E7002101804180012277
:101250008280C180018170472DE9F0410C46002653
:1012600049880746012501B90226A288012A00D132
:101270000225208823890028384610D0FFF76FFF09
:10128000E1883846FFF75FFF23892A463146384612
:1012900000F017F9E1883846BDE8F0417AE700F040
:1012A00010F9E1883846FFF775FF23892A46314651
:1012B0003846FFF754FFE1883846BDE8F04142E781
:1012C000406B7047806B7047C06B7047006C704715
:1012D00010B50A884B88CC881A438B8823431A435D
:1012E0000B891A434B8989891A430A43A0F8442081
:1012F00010BD0021018041808180C1800181418138
:1013000081817047002930F8441F02D041F4004128
:1013100001E0C1F30E01018070470029818802D0ED
:1013200041F0040101E021F00401818070470029AF
:10133000818802D041F0010101E021F001018180AA
:101340007047002A828901D00A4300E08A438281E3
:1013500070478182704702460020128A0A4200D0FC
:1013600001207047C9430182704702460020138A5A
:1013700092890B4202EA010202D0002A00D0012029
:101380007047C943018270471143A0F84810704765
:10139000002A828901D00A4300E08A438281704793
:1013A0000029818802D041F0080101E021F0080104
:1013B00081807047018921F007010181704702890E
:1013C00022F070020A430281704700B50346FFF71E
:1013D000F6FF188940F00700188100BD70B5164669
:1013E0000D46602904464FF0010231460AD000F054
:1013F00068F829462046FFF7E2FF208940F0070001
:10140000208170BDFFF7ABFEF3E730B504894FF6DE
:10141000FF7505EA03231343E4B20B43234303811F
:1014200030BD10B50446FFF7F0FF208940F077008B
:10143000208110BD10B50446FFF7E7FF208940F476
:101440008040208110BD828822F0700282808288D4
:101450000A4382807047028922F0070202810289D2
:101460000A4302817047028922F0800202810289C8
:101470000A430281704770B50589048B068C25F0FC
:1014800007050D434FF6FC410C4040F201110C439F
:101490004FF6FF7101EA031126F022061143314392
:1014A00005810483018470BD0029818802D041F048
:1014B000800101E021F0800181807047A0F8501088
:1014C000704770B5048C24F001040484058B048CEF
:1014D0004FF6FF7606EA0313134325F0F3052B437B
:1014E00024F00A020A4342F001010383018470BD23
:1014F00070B55A484168491C4160816811B18168E2
:10150000491E8160AFF300800024554E18E006EBC1
:101510008405686890B1017B81B1826872B1521E06
:10152000826069680AD14869096988476868016802
:1015300081606868416809B900210173641CE4B2E4
:101540003078A042E3D870BD464801684FF47A7005
:10155000B1FBF0F0401EB0F1807F12D24FF0E022DC
:101560005061414BF02083F8140D0020906107205A
:1015700010613E48B1FBF0F13848C16001210170B3
:101580007047FEE735480078002805D04FF0E0208E
:10159000016941F00201016170474FF0E0200169EB
:1015A00021F00201016170472DE9F0472C4C0546FE
:1015B000DDF8209020781E4617468846052802D37D
:1015C0000020BDE8F087182002F049F90028F8D083
:1015D0000560C0E901850773C0E90469217804EB5F
:1015E000810148602178491C2170EAE71C4B30B426
:1015F00000211A7806E003EB81046468844203D07A
:10160000491CC9B28A42F6D88A4218D003EB81003D
:101610004068EFF3108472B605E003EB8102491CC9
:101620009568C9B255601A78521E8A42F5DC19785D
:10163000491E197004B962B630BC02F03FB930BC23
:1016400070470021017370470121017370470168E1
:101650008160704741607047016070471000002052
:1016600098000020840000200FE000E0C0C62D009C
:101670001CB500200321CDE9000103464FF470445E
:1016800001222146184801F0F1FD17481A30048064
:101690001CBD1CB500210220CDE900010B460A4605
:1016A0000121124801F0E2FD1CBD10480069C1078C
:1016B0000F4805D0017829B901210170084670470B
:1016C000002101700020704708480069C1070848E0
:1016D00003D0012101700020704701780029FAD061
:1016E0000021017001207047000C02400000024000
:1016F000200000200078282801D000207047012019
:10170000704770B505460C460846FFF7F3FF002802
:101710000BD0284600F034FA2146284600F09BFB07
:101720004421284600F093FA012070BD10B504460C
:1017300000F026FACC21204600F089FA2046BDE8C8
:101740001040442100F083BA2DE9FE438046002575
:1017500016460F462C460846FFF7CCFF002821D03E
:10176000404600F055FA00281CD0404600F008FA28
:101770003946404600F06FFBBE21404600F067FA54
:101780006F46404600F072FA3855641CE4B2092CEA
:10179000F7D30821684600F077FB9DF808108142D6
:1017A00002D00020BDE8FE83BDF80040404600F0B6
:1017B000E7F9200403D5E043401C84B201259DF8DD
:1017C000040044F30711C0F34110C4F302220930AE
:1017D00041EA0211092815D00A281CD00B2825D06F
:1017E0000C282CD09FEDDB0A002100EE901AF8EEB9
:1017F000E00A30EE800A0DB1B1EE400A86ED000A33
:101800000120CFE7C4F3C00000EE100AF6EE000A94
:10181000B8EE400A07E0C4F3810000EE100AF5EECE
:10182000000AB8EE400A20EE200ADEE7C4F34200C8
:1018300000EE100AF4EE000AB8EE400AF3E704F0F6
:101840000F0000EE100AB8EE400ADFEDC30AEAE727
:1018500070B505460C460846FFF74CFF00281CD023
:10186000284600F08DF92146284600F0F4FABE2102
:10187000284600F0ECF9284600F0F8F9284600F078
:10188000F5F9284600F0F2F9284600F0EFF928466D
:1018900000F0ECF9C0F34110093070BD2DE9F047BC
:1018A000074615460E460846FFF724FF002857D086
:1018B000384600F065F93146384600F0CCFABE21D2
:1018C000384600F0C4F9384600F0D0F9384600F048
:1018D000CDF9384600F0CAF98146384600F0C6F91D
:1018E0008046384600F0C2F90446092D06D00A2D7C
:1018F00007D00B2D08D00C2D0BD00EE020F04000AF
:1019000004E020F0400006E040F0400020F0200419
:1019100003E040F0400040F02004384600F030F989
:101920003146384600F097FA4E21384600F08FF9DC
:101930004946384600F08BF94146384600F087F9B1
:101940002146384600F083F9384600F019F931464F
:10195000384600F080FA4821384600F078F9012036
:10196000BDE8F0872DE9F041804614460F46084651
:10197000FFF7C0FE002848D07D2C01DD7D2404E067
:101980006FF03600844200DA0446404600F0F8F872
:101990003946404600F05FFABE21404600F057F954
:1019A000404600F063F9404600F060F9404600F020
:1019B0005DF90646404600F059F9404600F056F9F8
:1019C0000546E4B2404600F0DBF83946404600F0F8
:1019D00042FA4E21404600F03AF93146404600F0C6
:1019E00036F92146404600F032F92946404600F0DB
:1019F0002EF9404600F0C4F83946404600F02BFA74
:101A00004821404600F023F90120BDE8F0812DE98E
:101A1000F041804614460F460846FFF76BFE00284B
:101A2000F3D07D2C01DD7D2404E06FF0360084428C
:101A300000DA0446404600F0A3F83946404600F07C
:101A40000AFABE21404600F002F9404600F00EF9C5
:101A5000404600F00BF9404600F008F9404600F01F
:101A600005F90646404600F001F90546E4B2404655
:101A700000F086F83946404600F0EDF94E21404628
:101A800000F0E5F82146404600F0E1F831464046D6
:101A900000F0DDF82946404600F0D9F8404600F055
:101AA0006FF83946404600F0D6F94821404600F02C
:101AB000CEF80120A9E72DE9F04180460E46084600
:101AC000FFF718FE0028A0D0404600F059F8314634
:101AD000404600F0C0F9BE21404600F0B8F840464C
:101AE00000F0C4F8404600F0C1F8404600F0BEF8EF
:101AF000404600F0BBF8404600F0B8F807467D24A9
:101B0000C925404600F03CF83146404600F0A3F9B4
:101B10004E21404600F09BF82146404600F097F8E1
:101B20002946404600F093F83946404600F08FF8C9
:101B3000404600F025F83146404600F08CF9482137
:101B4000404600F084F801205FE7EC2100F09EB8E9
:101B500000F05EB800007F430000803D7CB5154674
:101B60000E460446FFF7F0FC01200090024601906B
:101B700000232946304601F079FB2660A5807CBD14
:101B800010B50446808821684883A188206801F048
:101B9000E0FB4FF4F07000F090F9A188206801F0AC
:101BA000C5FB462000F089F920680069A188084239
:101BB00001D0012400E000244FF4CD7000F07DF945
:101BC000204610BD10B50446828800680029428373
:101BD000A18820680AD001F0BCFB0A2000F06DF952
:101BE000A188206801F0A2FB372009E001F0B1FBD9
:101BF000412000F062F9A188206801F097FB0520E0
:101C000000F05BF9A1882068BDE8104001F08EBBB0
:101C100070B504468088216800254883A188206823
:101C200001F097FB032000F048F9A188206801F03B
:101C30007DFB0A2000F041F920680069A188084274
:101C400000D00125322000F038F9284670BD70B56B
:101C50000D460646082405E005F001013046FFF771
:101C6000B1FF6D08641EE4B2F6D270BD70B50646D1
:101C70000824002006E045083046FFF7C9FF45EA82
:101C8000C010C0B2641EE4B2F5D270BD2DE9F05FA1
:101C90004FF0000804460127007A894646463D4633
:101CA000C246C34690BB2046FFF76AFF40B184F8A6
:101CB00006B084F808B084F807B00020BDE8F09FB3
:101CC00049462046FFF7C3FF2046FFF7A1FF8146A4
:101CD0002046FFF79DFF4946B9F1010F01D10128C8
:101CE00031D081450FD1A079B84205D904EB060067
:101CF000407A284201D103E002D14FF0010101E016
:101D00004FF0000119B1012914D005E02BE0B846CD
:101D1000092F01D284F80780A019427AAA4342729F
:101D20002046FFF74FFF7F1C6800FFB210F0FF0551
:101D300004D006E0A019427A2A43F0E7761CF6B2F6
:101D40000125082EC0D3412F08D35FEA0800A071F7
:101D500001D1012020724FF0010A02E0BAF1000F18
:101D600001D0607A38B984F806B084F808B084F8F5
:101D700007B04FF0000A5046A0E7002181710172C0
:101D8000C171704710B50246FFF7F7FFBDE810407C
:101D9000F02110467AE7F02178E72DE9FC4104466E
:101DA00000206D462118497A2954401C0828F9DB87
:101DB00094F80680277AE6794020A07100202072EE
:101DC000F0212046FFF762FF60B1012100202318B7
:101DD0002A5C5B7A9A4201D0012104E0401C082869
:101DE000F5DB00E00021002023182A5C401C5A7219
:101DF0000828F9DB84F806802772E6710846BDE8FA
:101E0000FC814172012100224318491CC9B25A7257
:101E10000829F9D340218171C27102727047C179DA
:101E200000228171C271002901D101210172704724
:101E30000844407A704770B50D4606465521FFF7B5
:101E400006FF00243046295DFFF701FF641CE4B261
:101E5000082CF7D370BD70B50D4606465521FFF727
:101E6000F6FE00243046295DFFF7F1FE641CE4B263
:101E7000082CF7D370BD002283185B7A8B54521C58
:101E8000D2B2082AF8D3704730B50446002010E0DB
:101E900014F8013B082280EA030515F0010F4FEA10
:101EA000500001D080F08C005B08521E12F0FF023F
:101EB000F1D1491EC9B2EBD230BD0349096848438C
:101EC000401EFDD2704700001C00002070B5044683
:101ED0002DED028B8AB0FC48B0EE408AF0EE608AAD
:101EE0000D46844202D0F948844204D104200AB04D
:101EF000BDEC028B70BD694620462C6000F08EFC64
:101F0000009802F0F8FF53EC182B03F007F854D3B5
:101F10009FEDEF0B51EC180B53EC102B02F082FFEE
:101F200001D10220E3E7B0EE480AF0EE680A684605
:101F300000F0B7FC0398E8B351EC180B02F0AEFFC9
:101F400053EC182B9FEDE40BE86051EC100B02F002
:101F500011FE02F0A3FF2861039868600498A8604E
:101F6000204600F0F3FC04980026401EADF818004F
:101F70000398ADF82060401E0790ADF81A608DF808
:101F8000226006A92046FEF753FE01212046FEF7F7
:101F9000ADFED348844202D0D248844203D101210D
:101FA0002046FFF7AFF9208840F00100208085F837
:101FB000246000E001E0002099E7012097E71CB5CC
:101FC00002004FF0060001D005201CBD09230322AA
:101FD00059B10129F9D1CDE9002300231A4649025C
:101FE000C14801F054F900201CBDCDE900230023B5
:101FF0001A468021BD48F4E71CB502004FF00600E8
:1020000001D005201CBD0923032259B10129F9D1B2
:10201000CDE9002300231A460902B34801F037F93D
:1020200000201CBDCDE9002300231A460221AF4841
:10203000F4E77CB50200AE4CAE4D4FF006004FF019
:1020400009064FF0030303D0012A15D005207CBDFB
:1020500039B10129FBD1CDE9003600231A464021D0
:1020600012E0CDE9003600231A464FF4804113E018
:1020700001F00DF900207CBD41B10129FBD1CDE972
:10208000003600231A4649022846F1E7CDE900361A
:1020900000231A464FF400412046E9E71CB5020030
:1020A0004FF0060001D005201CBD032259B10129C3
:1020B000FAD10092002301921A4680218A4801F049
:1020C000E6F800201CBD0092002301921A464FF44E
:1020D00000718748F3E71CB502004FF0060001D0FD
:1020E00005201CBD032259B10129FAD10092002319
:1020F00001921A4640217C4801F0C9F800201CBD1D
:102100000092002301921A464FF480717848F3E759
:102110007CB50200754C784D4FF006004FF003037C
:1021200003D0012A14D005207CBD39B10129FBD18F
:102130000093019300231A46202111E0009301939C
:1021400000231A46042112E001F0A1F800207CBD12
:1021500041B10129FBD10093019300231A4640218C
:102160002846F1E70093019300231A4608212046F0
:10217000EAE77CB50200614C614D4FF006004FF07C
:10218000030308D0012A19D0A615022A25D0032A54
:1021900032D005207CBD39B10129FBD100930193D8
:1021A00000231A4620212FE00093019300231A46B2
:1021B000402131E001F06BF800207CBD39B10129EC
:1021C000FBD10093019300231A4640211CE00093A9
:1021D000019300231A4680211EE039B10129ECD178
:1021E0000093019300231A4680210DE00093019390
:1021F00000231A4631460FE041B10129DDD1009399
:10220000019300231A4631462846D3E700930193F1
:1022100000231A464FF400712046CBE77CB502003C
:10222000324D344E4FF006004FF002034FF00304DE
:1022300007D0012A18D0022A25D0032A33D005203E
:102240007CBD39B10129FBD1CDE9004300231A46F9
:10225000890220E0CDE9004300231A46012130E045
:1022600001F015F800207CBD39B10129FBD1CDE981
:10227000004300231A46C9020DE0CDE900430023C4
:102280001A4602211DE041B10129ECD1CDE90043FC
:1022900000231A4609033046E2E7CDE90043002354
:1022A0001A4604210DE039B10129DCD1CDE9004302
:1022B00000231A461248D3E7CDE9004300231A460B
:1022C00008212846CCE70000001000400014004020
:1022D00000000000000000000000000080842E418B
:1022E00000000140000401400014024000000240D0
:1022F00000040240001C024000100240000802409E
:10230000002002407CB502004FF006004FF00203AF
:102310004FF00304FD4DFE4E07D0012A18D0022ACB
:1023200025D0032A33D005207CBD39B10129FBD14A
:10233000CDE9004300231A46090330E0CDE900430C
:1023400000231A46402132E000F0A1FF00207CBDAE
:1023500039B10129FBD1CDE9004300231A464903D5
:102360001DE0CDE9004300231A4680211FE039B16A
:102370000129ECD1CDE9004300231A4689030EE080
:10238000CDE9004300231A464FF480710FE041B1BC
:102390000129DCD1CDE9004300231A46C9033046A8
:1023A000D2E7CDE9004300231A464FF400712846D6
:1023B000CAE72DE9FC410400D64FD44DD64E4FF06C
:1023C00006004FF002024FF0030308D0012C21D089
:1023D000022C37D0032C44D00520BDE8FC8149B144
:1023E00001290DD00229F8D1CDE9003200231A4687
:1023F00049023EE0CDE9003200231A46402119E0AF
:10240000CDE9003200231A46102139E000F03FFFE9
:102410000020E2E749B101290ED00229DDD1CDE942
:10242000003200231A46802123E0CDE90032002348
:102430001A4680213846E9E7CDE9003200231A46E2
:1024400020211DE039B10129C7D1CDE90032002397
:102450001A4609020DE0CDE9003200231A46012197
:102460000EE041B10129B8D1CDE9003200231A466E
:1024700049023046CAE7CDE9003200231A4602215C
:102480002846C3E77CB50200A24D4FF006004FF08E
:1024900001034FF0030408D09C4E012A20D0022AE9
:1024A0002DD0032A3AD005207CBD49B101290DD099
:1024B0000229F9D1CDE9004300231A4689033CE003
:1024C000CDE9004300231A46012136E0CDE900435F
:1024D00000231A46202130E000F0D9FE00207CBD08
:1024E00039B10129FBD1CDE9004300231A46082167
:1024F0001CE0CDE9004300231A4602211DE039B15A
:102500000129ECD1CDE9004300231A4689020DE0F0
:10251000CDE9004300231A4604210EE041B1012910
:10252000DDD1CDE9004300231A46C9023046D3E786
:10253000CDE9004300231A4608212846CCE72DE9BF
:10254000FC418C460200734D744E4FF006004FF074
:1025500001034FF003044FF4007108D04F00012A2B
:102560001BD0022A2AD0032A3BD0052035E7BCF134
:10257000000F07D0BCF1010FF8D1CDE900430023D3
:102580001A463AE0CDE9004300231A464FF4807121
:102590003BE000F07CFE00201FE7BCF1000F08D0FC
:1025A000BCF1010FE2D1CDE9004300231A463946C0
:1025B00023E0CDE9004300231A4626E0BCF1000FDA
:1025C00009D0BCF1010FD1D1CDE9004300231A4657
:1025D0004FF4005111E0CDE9004300231A4639467B
:1025E00013E0BCF1000F0AD0BCF1010FBED1CDE960
:1025F000004300231A464FF480413046C9E7CDE935
:10260000004300231A464FF400612846C1E70B46F9
:1026100000684349884202D1114618468FE7B0F15D
:10262000804F05D03F49884205D111461846C0E683
:102630001146184626E73C49884202D11146184601
:1026400060E63A49884202D111461846E6E5384923
:10265000884202D1114618468BE53649884202D19C
:102660001146184654E53449884202D111461846AD
:1026700031E53249884202D1114618460EE530490B
:10268000884202D111461846D3E42E49884202D12D
:1026900011461846B0E42C49884202D1114618462A
:1026A0008DE40420704730B504464068154685B077
:1026B000A84202D8032005B030BD70200222ADF838
:1026C0000000ADF80C20012004EB81020295ADF86A
:1026D000020055610A1E00FA01F0C0B206D00129BD
:1026E00037D0022947D0032A68D156E094F8241045
:1026F00001420AD1014384F8241069462068FEF79C
:1027000019FB08212068FEF756FC1FE00004024078
:10271000000C02400000024000080240001002408D
:10272000000001400004004000080040000C004090
:1027300000040140004001400044014000480140C5
:1027400000180040001C0040002000402068456345
:1027500034E094F8241001420AD1014384F8241093
:1027600069462068FEF712FB08212068FEF729FC65
:102770002068856322E094F8241001420AD10143C5
:1027800084F8241069462068FEF73CFB0821206885
:10279000FEF721FC2068C56310E094F82410014284
:1027A0000AD1014384F8241069462068FEF764FBCF
:1027B00008212068FEF715FC2068056400207AE7F0
:1027C00010EE102A144B9A4201DD426805E0B5EE86
:1027D000C00AF1EE10FA01D8002264E74268521EE6
:1027E00000EE902A6423F8EE600A20EE800ABCEE28
:1027F000C00A10EE102AB2FBF3F2EEE730B4036920
:10280000934202D230BC032070474468641E544394
:10281000B4FBF3F230BC46E70000C8427FB5044683
:102820000D466846FDF75CFE4FF6FF70A860B4F1F8
:10283000804F02D0AC498C4205D1039828604FF0FC
:10284000FF30686028E0A9498C420BD0A8498C422F
:1028500008D0A8498C4205D0A7498C4202D0A7498C
:102860008C4201D1019915E0A5498C4211D0A549AE
:102870008C420ED0A4498C420BD0A4498C4208D083
:10288000A3498C4205D0A3498C4202D0A2498C4274
:1028900005D10399C5E90010002004B070BD0220E5
:1028A000FBE72DE9F04704462DED028BB0EE408AA0
:1028B000F0EE608A0025006802F01DFB53EC182B37
:1028C00002F02CFB07D22561E56003206561BDECB9
:1028D000028BBDE8F0879FED910B51EC180B53EC88
:1028E000102B02F09FFA03D12561E560656124E0B9
:1028F0006068B0F5803F01D2401C60602561D4E97A
:1029000001862768A946761C6D1CB7FBF5F002F01E
:10291000F2FA53EC182B02F02DF902F0BFFAC4E9D9
:102920000305404501D9B542EED9B54207D9C4F8EF
:102930001090C4F80C90C4F814900420C7E751EC30
:10294000180B02F0ABFA60610020C0E76749754AD6
:10295000884203D1116841F0010111607149091FDA
:10296000B0F1804F55D0664B984203D10B6843F0CD
:1029700002030B60634B984203D10B6843F00403DE
:102980000B60594B984203D10B6843F008030B606E
:102990005D4B984203D10B6843F010030B605B4B17
:1029A000984203D10B6843F020030B60504B9842D0
:1029B00003D1136843F0020313604E4B984203D1D6
:1029C000136843F4803313604B4B984203D1136870
:1029D00043F400331360494B984203D1136843F426
:1029E000802313604A4A904203D10A6842F04002B1
:1029F0000A60484A904203D10A6842F080020A60A5
:102A0000454A904203D1086840F480700860002075
:102A10007047086840F00100F8E73449414A8842AD
:102A200003D1116821F0010111603E49091FB0F185
:102A3000804F55D0324B984203D10B6823F00203EC
:102A40000B60304B984203D10B6823F004030B60FA
:102A5000254B984203D10B6823F008030B602A4BE7
:102A6000984203D10B6823F010030B60274B984268
:102A700003D10B6823F020030B601D4B984203D158
:102A8000136823F0020313601A4B984203D11368B2
:102A900023F480331360184B984203D1136823F456
:102AA00000331360154B984203D1136823F480233D
:102AB0001360174A904203D10A6822F040020A606C
:102AC000144A904203D10A6822F080020A60124A36
:102AD000904203D1086820F480700860002070479D
:102AE000086820F00100F8E7000C004000000140F9
:102AF0000004014000400140004401400048014002
:102B00000004004000080040001000400014004095
:102B100000180040001C00400020004000000000A1
:102B20000000000044380240FE4A0146904200D1B5
:102B30000020FD4A914200D10120FC4A914200D17F
:102B40000220FB4A914200D10420FA4A914200D16E
:102B50000520F94A914200D10620704770471CB504
:102B60000822032140B101280DD0032803D10821F8
:102B7000F148FFF7F3FF1CBDCDE90012012300224D
:102B8000C021EE4806E0CDE90012012300224FF4F7
:102B90008441EB4800F07BFB1CBD7CB530B10328C1
:102BA00003D10821E348FFF7D9FF7CBD08250324A2
:102BB000012300221903E148CDE9004500F067FB3D
:102BC000012300220421DF48CDE9004500F05FFB2E
:102BD0007CBD1CB50822032140B101280DD003287B
:102BE00003D10821D248FFF7B9FF1CBDCDE900127F
:102BF000012300220321D44806E0CDE9001201237D
:102C000000224FF44061CD4800F041FB1CBD1CB5D3
:102C100007220323990250B101280ED0022812D0B6
:102C2000032803D10721C148FFF798FF1CBDCDE958
:102C3000003201230022C5480CE0CDE90032012317
:102C40000022BE4806E0CDE90032012300224FF405
:102C50004071BC4800F01BFB1CBD1CB507220321C2
:102C600040B101280DD0032803D10721AE48FFF75A
:102C700075FF1CBDCDE90012012300220C21B248D2
:102C800005E0CDE90012012300226021AD4800F0EB
:102C9000FEFA1CBD1CB50722032140B101280ED04D
:102CA000032803D107219F48FFF758FF1CBDCDE93A
:102CB0000012012300224FF4C061A34805E0CDE9D2
:102CC000001201230022C021A04800F0E0FA1CBD40
:102CD000944A0146904200D19D48934A914201D1C5
:102CE0009B481030914A914201D199482030904A36
:102CF000914201D1964830308E4A914201D1944898
:102D000040308D4A914201D19148503070472DE9B1
:102D1000FF4F87B09A46DDE914B913460446DDF843
:102D20005C80FFF7D5FF05467E488A4F01938442B9
:102D300009D1386840F0100038600898FFF7AAFF02
:102D400025208DF80000834E7748361F844209D134
:102D5000306840F4003030600898FFF77EFF26208E
:102D60008DF800007148844209D1306840F4802019
:102D700030600898FFF74BFF27208DF800006C4863
:102D8000844209D1306840F4002030600898FFF791
:102D900020FF34208DF800006648844209D1306855
:102DA00040F4801030600898FFF7F7FE35208DF86A
:102DB00000006148844209D1386840F02000386042
:102DC0000898FFF7CCFE47208DF800002046FDF75D
:102DD000F5FC01268DF8036006208DF801002046E1
:102DE000FFF7A2FE8DF802006846FDF752FA16982A
:102DF000ADF80A00ADF80EB0ADF810A0ADF80C902B
:102E0000ADF808800020287340F6FF700590411E41
:102E1000059101D30846FAE701A92046FDF713FD05
:102E2000A08940F02000A0812E73A08940F40050BA
:102E3000A0810BB0BDE8F08F2DE9FF410446394871
:102E400000250C2617468846844206D1CDE9006548
:102E5000029500230395FFF75AFF3348844208D1B7
:102E6000CDE90065029500233A4641460395FFF7F8
:102E70004EFF2E48844208D1CDE90065029500231B
:102E80003A4641460395FFF742FF2948844208D15C
:102E9000CDE90065029500233A4641460395FFF7C8
:102EA00036FF2448844208D1CDE90065029500230D
:102EB0003A4641460395FFF72AFF1F48844208D14E
:102EC000CDE90065029500233A4641460395FFF798
:102ED0001EFFBDE8FF812DE9FF470446114800258C
:102EE0000C261F4690468946844205D1CDE90065EF
:102EF00002950395FFF70BFF0B48844208D1CDE9FB
:102F0000006502953B46424649460395FFF7FFFEA2
:102F10000648844223D1CDE9006502953B464246EE
:102F2000494619E0001001400044004000480040BC
:102F3000004C0040005000400014014000080240D6
:102F400000180240000C0240000002400004024051
:102F500024000020443802400395FFF7D8FE94482F
:102F6000844208D1CDE9006502953B464246494678
:102F70000395FFF7CCFE8F48844208D1CDE9006568
:102F800002953B46424649460395FFF7C0FE8A48F4
:102F9000844208D1CDE9006502953B464246494648
:102FA0000395FFF7B4FEBDE8FF8710B50023FFF7D8
:102FB0008FFEC18819B902894489A2420DD0428985
:102FC00083889A4201D100224281036892B29B56C3
:102FD000521C428109B1491EC180D8B210BD10B542
:102FE0000C46FFF775FEC38842890DE08188914247
:102FF00000D100220168895CA14201D1012010BDED
:10300000521C5B1E92B29BB2002BEFD1002010BD70
:10301000F0B516460F4684460024FFF759FE0546D4
:10302000C08840B1697B6046FFF7D9FF78B9E8886E
:10303000A98888420BD00020F0BD6046FFF7B5FF9D
:103040003855697B884205D0641CA4B200E0761E26
:10305000B442F2DB0021641CA0B23954F0BD00B5CB
:10306000FFF736FEC18829B901894089814201D123
:10307000012000BD002000BD00B5FFF729FEC1887A
:103080008088814201D1012000BD002000BD00B533
:10309000FFF71EFE0021C1800181418100BD00B506
:1030A0000B46FFF715FE437300BD10B50C460346F3
:1030B000FFF70EFE007B00280BD007E019880906F9
:1030C000FCD59880641C18880006FCD52078002860
:1030D000F4D110BD70B515460E460446FFF7F8FD55
:1030E000007B00280DD0002309E020880006FCD5D5
:1030F000F05CA08020880006FCD55B1C9BB2AB4234
:10310000F3D370BDC388828893420DD20389934262
:1031100001D10022028103890268D1540189491C2E
:103120000181C188491CC1807047244801888906F3
:1031300003D58088C1B22248E4E77047214800885F
:10314000800606D51F48001D0088C1B21C481030FB
:10315000D8E770471C480088800606D51A48001D2D
:103160000088C1B216482030CCE77047104800886C
:10317000800606D50E48001D0088C1B210483030C8
:10318000C0E770470B480188890604D58088C1B222
:103190000B484030B6E7704707480088800606D5E0
:1031A0000548001D0088C1B205485030AAE77047A5
:1031B000004C00400050004000140140001001404D
:1031C000240000200044004000480040A349084477
:1031D000C0F38F2070472DE9F04F9A46DDE909B81A
:1031E00089460346FFF7F2FFC5B200204FF0030EF9
:1031F0000121814011EA090F28D0994E36F8154077
:103200000C4326F81540DF6844000EFA04F6B74375
:103210000BFA04FC47EA0C07DF601F6802FA04FCA3
:10322000B74347EA0C071F60012A01D0022A0DD1DB
:103230005F6889B28F430AFA00F189B20F435F6079
:10324000996808FA04F4B14321439960401CC0B264
:103250001028CDD3BDE8F08F00B5FFF7B7FF0121EF
:103260008140804802681143016000BDFCB51646EC
:10327000DDE907C50C00074608D0FFF7EDFFCDE9F3
:1032800000C5324621463846FFF7A5FFFCBD2DE9B3
:10329000FC4F9946DDE90BB792460D00064622D059
:1032A000FFF7DAFF002201214FF00F0C01FA02F0C4
:1032B00028420DD0D00806EB8003186A5407E40EAC
:1032C0000CFA04F820EA080007FA04F42043186214
:1032D000521C102AEAD3CDE9009B5346022229460C
:1032E0003046FFF778FFBDE8FC8FF0B50E46054687
:1032F000FFF76CFF00225A49C4B24FF0010C0327BC
:103300000CFA02F333420CD028684FEA420E07FA57
:103310000EFE40EA0E00286031F81400984321F8B0
:103320001400521CD2B2102AEAD3F0BDF0B500222C
:103330000125032605FA02F30B4205D00468570065
:1033400006FA07F39C430460521CD2B2102AF1D350
:10335000F0BDF0B500220127032607FA02F33C4630
:103360000B4208D00568530006FA03FC25EA0C0559
:103370009C4025430560521CD2B2102AEDD3F0BD0B
:10338000F0B500220125032605FA02F30B4205D011
:103390000468570006FA07F31C430460521CD2B2BB
:1033A000102AF1D3F0BDF0B5002201260324022734
:1033B00006FA02F30B4209D00568530004FA03FC35
:1033C00025EA0C0507FA03F31D430560521CD2B22F
:1033D000102AEDD3F0BDF0B500230127032507FA2D
:1033E00003F40C4209D0C6685C0005FA04FC26EA26
:1033F0000C0602FA04F42643C6605B1CDBB2102BF9
:10340000EDD3F0BD41F48032C261C161C261C169D6
:10341000C0697047002102E0491C89B240080128B8
:10342000FAD80846704700B5FFF7D0FE0121814069
:103430000C4802688A43026000BD00B5FFF7C6FE73
:10344000074931F8100000BD00B5FFF7BFFE044981
:1034500031F81000C04380B200BD00000000FEBF84
:1034600070010020303802402DED048BCAB09FED72
:10347000729ADFED729ACDED419A9FED710A0121AA
:103480008DED420AB3EE040A8DED430A3BA800F02D
:10349000CBF900F05AF9FEF757F8FEF7E9F84FF4C8
:1034A000E13201216748FFF7C7FC9FED670B31A9A7
:1034B0004FF08040FEF70AFD0122002131A8FFF7FE
:1034C000A6F8B0EE490A002131A8FFF779F94022A9
:1034D0005F492CA8FEF742FB00242CA8FEF752FC03
:1034E00044AE09E006EBC4012CA8FEF7C4FC641C42
:1034F000E4B22CA8FEF74FFC0028F3D1022C04D034
:1035000054A15048FFF7D1FDFEE7002506EBC501A9
:103510000C222CA8FEF7C2F96D1CEDB2A542F5D322
:103520002CA8FEF703F9DFF858A14FF4805B2CA814
:10353000FEF70EFB0028FAD048AA44A92CA8FEF7F3
:1035400003F949AA46A92CA8FEF7FEF82CA8FEF715
:10355000EDF89DED490ADDED480AB4EEE00AF1EE22
:1035600010FA06DD4648801EA0F800B04FF48040F7
:1035700006E008D242484FF48041801E0180584640
:10358000AAF8000003E04FF47041AAF8001070EEB2
:10359000608ADDED3C0A9DED3E0A9DED3B1ADDEDB6
:1035A0003F1A60EE800A374941EE280A9DED3D1A28
:1035B00041EE210A9DED401A8DED3F0ACDED3E8A88
:1035C00030EE818A18EE100A8DED408A884202DDC5
:1035D000B0EE698A06E0B5EEC08AF1EE10FA01D2CB
:1035E000B0EE498A0021B0EE480A31A8FFF7E8F8AA
:1035F00018EE100A01F022FD8046894618EE900A66
:1036000001F01CFD06460F46499801F017FD0446DF
:103610000D46489801F012FD8DE8F00341EC100BC7
:10362000194953EC102B06A800F070F906A90548BB
:10363000FFF73BFD7BE70000000000000000C842F0
:10364000CDCCCC3C001001400000000000408F4079
:103650000000024057652065787065637420322051
:1036600064657669636573206F6E20312D776972AA
:10367000652E2051756974696E67210A000000008B
:103680001A0C02400000C842C05100087047FEE713
:10369000FEE7FEE7FEE7704770477047704710B5DA
:1036A000FDF726FF10BD00000CB500225449009222
:1036B0000192086840F4803008604FF4A043086825
:1036C00000F4003001900098401C0090019810B95F
:1036D00000989842F3D10868800334D50120019006
:1036E00047484030026842F0805202604548026814
:1036F00042F44042026042480830026802600268B8
:1037000042F400420260026842F4A0520260031FC9
:103710003D4A1A600A6842F080720A600A689201A3
:10372000FCD53A4940F205720A60016821F00301B4
:103730000160016841F0020101600168C1F381018B
:103740000229FAD10CBD01920CBD314810B50168B7
:1037500041F4700101602A48016841F001010160F3
:10376000274A00210832116002682A4B1A40026081
:10377000031D294A1A60026822F480220260204850
:103780000C300160FFF790FF21494FF00060803955
:10379000086010BD70B51A4D083528681F4B2049C8
:1037A00010F00C0004D01F4E042803D0082803D0CA
:1037B0000B601BE00E6019E0114A121D1068C0F387
:1037C0008054106800F03F0014B1B6FBF0F001E047
:1037D000B3FBF0F013681268C3F388135843C2F3C5
:1037E0000142521C5200B0FBF2F0086028680C4AFB
:1037F000C0F30310121D105C0A68C2400A6070BD5D
:10380000003802400070004008544007003C02406D
:1038100088ED00E0FFFFF6FE103000240024F400E5
:103820008400002040787D01D0ED060A90ED070A63
:10383000002930EE801A90ED080A31EE001A80ED72
:10384000001AB0EE001A50EE410AC0ED010A80EDF8
:10385000020A03D00021C16001614161704770B567
:10386000064600F019F9056806F10B0020F0070480
:10387000B4429CBF002070BD2B466A68BAB1106884
:10388000A04210D304F1080188423CBF5068586040
:1038900007D35168101941601168091B0160586015
:1038A0001460101D70BD13465268002AE7D12146EE
:1038B000284600F0F9F80028DED170BD70B5044646
:1038C000051F00F0E9F80068002C14BF446870BDC3
:1038D000002C18BFAC423CBF20466468F8D3016896
:1038E0000A18AA4218BF456003D12A680546114448
:1038F000016028684119A1421CBF6C6070BD6168FD
:10390000696021680844286070BD00000FB41CB5D0
:10391000074B06AA7B4469460090059800F023FBFC
:103920000020694600F032FB1CBC5DF814FB00006F
:103930007506000070B5044685690068C10601D5AA
:10394000302600E02026C00707D070BDD4E9012151
:1039500030469047206A401C20626D1EF6D570BD2F
:1039600070B5044685690078C00707D170BDD4E9F9
:10397000012120209047206A401C20626D1EF6D550
:1039800070BD2DE9F0474FF0000A89460446C0F8A3
:1039900020A02046E1688847002876D0252806D058
:1039A000D4E901219047206A401C2062F1E7E168D8
:1039B000204600258847C4F81CA006460027C4F806
:1039C00018A02A2E09D0304601F0AAF838B304EB2B
:1039D0008708303EC8F8186019E059F8041B2046E3
:1039E00004EB87029161E1688847012F064618D1F0
:1039F000E069002820DA25F020051DE0D8F818003D
:103A000000EB800006EB40003038C8F81800204674
:103A1000E1688847064601F083F80028EED1012FBF
:103A20000AD02E2E08D12046E16888477F1C064622
:103A3000022F45F02005C4DBA069002803DA4042CC
:103A400045F00105A061E80701D025F01005B6B1E9
:103A5000A6F14100192802D8203645F400654A46EF
:103A60003146204625604D46FCF7C8FB58B1012879
:103A700006D0ED1D25F0070000F1080989E704E0F4
:103A800005F1040985E730468AE7206ABDE8F0873A
:103A90007047704770470000004870479001002051
:103AA000704770477047704738B504460A46002093
:103AB0006946AFF30080002808BF38BD0246009970
:103AC000204600F071FA012038BD012000F07EBBD5
:103AD000F8B5AFF30080054600200C46102000BF6B
:103AE0000646A819A0420DD9324669460020AFF318
:103AF0000080070008BF00F069FB0098A04218BFD3
:103B00000546C419FFF7C8FF05600746F01D20F001
:103B100007004619284600F00AF8B44208BFF8BD6D
:103B2000A21B31463868BDE8F84000F03DBA0021DC
:103B30000160C0E9011070471020704770472DE9FF
:103B4000FF4F0C461E464FF0FF378BB0D2E9000105
:103B5000DDF860800A908A46C1F30A5505B93D46F2
:103B6000002108464FF00000BAF1000F00F44000B9
:103B700005DA00EB80004FF4400101EA50004FEA03
:103B80009059B9F1010F00DDB9460A9850EA4A0090
:103B90000ED044F61050A5F2FF3545432F14B8F16E
:103BA000000F1ED07542291E1EDDC9F100021CE067
:103BB000B8F1010F4FF0000001D0302103E0F243D3
:103BC00005E02154401CB042FBDB304600220021BE
:103BD00021540B99C1F80880C1E900200FB0BDE85D
:103BE000F08FBD1B6D1CDEE74A4600DA694206A86D
:103BF00000F07AFA06AB93E8070003AB83E807000E
:103C000050460A9900F0ACFB8DE80700A0F5005083
:103C10001F3800900398002D0ADD42F21F014A462A
:103C20000844002303A90390684600F015FE09E04C
:103C3000A0F500504A461F38002303A903906846A8
:103C400000F01FFE8DE807000004000C03D04FF0C9
:103C5000FF30410800E01046B8F1000F03D0002209
:103C6000009215461EE0751E05D400F0B7F93032FB
:103C700062556D1EF9D5B3460122084302D00022D9
:103C80007F1C04E02078302801D100227F1E002A0A
:103C9000099784D01DE0112D07DA00F09FF930322A
:103CA00062556D1C50EA0102F5D1084302D000981C
:103CB000C8B10EE00021681E05E0235C625C63541D
:103CC0002254401E491C8142F7DBAB46A81B401E14
:103CD0000990002004F80B000B98099AC0F808809E
:103CE000C0E9002B7AE711264FF0000857E72DE9CD
:103CF000F04F88460446D21D22F0070191B0D1E969
:103D00000001CDE90A0100F0F3FE02460B98C00F56
:103D100001D02D2007E02068810701D52B2002E08B
:103D2000202101EAC000032A099001D0072A05DBFF
:103D300003464146204600F097F90BE120788006C3
:103D400001D5E06900E00620B8F1650F814606D094
:103D5000B8F1660F18D0B8F1670F70D131E00020CC
:103D6000B9F1110F009001DB112301E009F101030A
:103D70000AAA01A90CA8FFF7E2FEDDE90C700026F3
:103D800009F10105834647E001204B4600904FF0C2
:103D900000470AAA01A90CA8FFF7D1FEDDE90DB082
:103DA0000C995D46002610B909F101000D18B9EB18
:103DB000050003D4C0F1FF3609F10105A5EB0900A8
:103DC0002BE0B9F1010F01DA4FF001090020B9F140
:103DD000110F0090484601DD112300E003460AAAB6
:103DE00001A90CA8FFF7ABFEDDE90C704D460026DB
:103DF0008346207800070AD4AB4500DA5D4601A867
:103E0000012D04DD411911F8011C302907D04F455F
:103E100002DA17F1040F04DA012082460FE06D1E6A
:103E2000EEE7002F02DCED1B3E4403E0781CA842C5
:103E300000DD7D1CB81B00F1010A4FF0004720781F
:103E4000000703D4AA4501DB4FF0FF3A0021B7F188
:103E5000004F0DF143088DF8431024D002202B238E
:103E6000002F01DA7F422D230A21021EA0F101005A
:103E700000DC5FB197FBF1FC97FBF1F201FB1C7CCE
:103E800017460CF1300C08F801CDEEE7A8F101005F
:103E900003702188090501D5452100E06521A0F1C5
:103EA000010800F8011C09980FA9A1EB0807FF1DE4
:103EB00000B10120411901EBEA70A1693844081AE8
:103EC000401EA0612078C00602D42046FFF732FDD4
:103ED000099828B1D4E901219047206A401C20624A
:103EE0002078C00622D52046FFF724FD1EE0002ED4
:103EF00004DBB34502DD01A8805D00E03020D4E999
:103F000001219047206A401C2062761CAAF1010022
:103F10005FEA000A0AD100F043F8C0680168405C1B
:103F2000D4E901219047206A401C2062281EA5F197
:103F30000105DCDC07E0D4E9012118F8010B90470A
:103F4000206A401C2062381EA7F10107F3DC2046DE
:103F5000FFF706FD032011B041E6000001694A1C8D
:103F600002610878704700B58FB0CDE901310021BA
:103F7000059105497944CDE9031011466846FFF7DC
:103F800000FD0FB000BD0000E5FFFFFF0A6802F86A
:103F9000010B0A607047000000487047880100204C
:103FA00000487047A8010020034640688C4600285E
:103FB00018BF88423CBF03464068F8D318681844CD
:103FC000884207D00CF1030020F00700001D411AC1
:103FD000521A0146081D0A60FFF770BC30B5B0F1F7
:103FE0000A024FEA900E71F100034EEA817EB0EBB7
:103FF0000E0061EB91014FEA101E4EEA017E10EBBC
:104000000E0041EB11114FEA102E4EEA016E10EB3B
:104010000E0041EB11214FEA104E4EEA014E10EB1B
:104020000E0041EB1141401841F100014FEAD00070
:1040300040EA41704FEAD10110EB80054FEA81045C
:1040400044EA907444EB01046D1944EB0404521BE0
:10405000A3414FF0000348BF0A3200D530BD401CD9
:1040600041F1000130BD00002DE9F0411F4604463A
:1040700003260168072A01F4006004DB08B116A5D5
:1040800005E016A503E008B115A500E015A521F08F
:1040900010002060A069C01EA0610FB1401EA06189
:1040A0002046FFF747FC4FB1D4E90121384690473D
:1040B000206A401C2062C01C206206E0206AFAE7E9
:1040C000D4E9012115F8010B9047761EF8D220465D
:1040D000FFF746FCBDE8F0814E414E006E616E0078
:1040E000494E4600696E66002DE9F0478146164646
:1040F0008AB0354878440DC88DE80D0032487844C0
:10410000801C03AC0DC884E80D0041F69B300844C8
:10411000372190FBF1F290FBF1F5A5F1800501FB51
:1041200012041B3C02D56442012000E00020DFF8AD
:1041300098A080460027FA44AAF1BE0A0EE0E007E4
:104140000AD03246684607EB470101230AEB81019A
:1041500000F097FB8DE8070064107F1C002CEED167
:10416000194F7F44AE3F19E0E80715D007EB041064
:104170000DF1180A90E80E008AE80E00C068F042BF
:1041800001D1981908903246012306A903A800F02E
:1041900078FB03AB83E807006D10641C002DE3D1AE
:1041A0004FF0010332466946B8F1000F03A802D070
:1041B00000F052FB01E000F064FBC9E90001C9F81E
:1041C00008200AB0BDE8F087B010000010B500F07C
:1041D00039F8BDE8104000F02FB870477546FFF77A
:1041E000DBFEAE4605006946534620F007008546D3
:1041F00018B020B5FCF736F8BDE820404FF00006B7
:104200004FF000074FF000084FF0000B21F00701BE
:10421000AC46ACE8C009ACE8C009ACE8C009ACE801
:10422000C0098D46704710B50446AFF300802046A4
:10423000BDE81040FCF702B8002801D000F06AB8D1
:104240007047000010B5012805D0002103A000F040
:1042500067F8012010BD09A1F8E700005349475253
:10426000544D454D3A204F7574206F662068656146
:1042700070206D656D6F7279000000003A2048650E
:104280006170206D656D6F727920636F72727570E9
:10429000746564004FF0013C50F8042B51F8043B66
:1042A0009A4221D1A2EB0C03934313EACC1317D10A
:1042B00050F8042B51F8043B9A4215D1A2EB0C03A1
:1042C000934313EACC130BD150F8042B51F8043B61
:1042D0009A4209D1A2EB0C03934313EACC13DBD02F
:1042E0004FF00000704700BFD01A01BAB1FA81F157
:1042F00001F0180122FA01F0CB40C1F12001DBB23C
:10430000C0B2C01A2CFA01F3D11A914311EAC311B9
:10431000E6D1704701491820ABBEFEE72600020037
:1043200070B505460C460A2000E06D1C00F011F83F
:1043300035B128780028F8D102E0641C00F009F8B3
:1043400014B120780028F8D1BDE870400A20AFF3FE
:10435000008008B569468DF800000320ABBE08BD9B
:104360005FEA400C08BF91F0000F4FEA8C234FEA40
:10437000C12243EA51514FEA1C5018BF00F5F040EA
:104380004FEA300018BF41F000415FEA6C5C00F07A
:104390002980BCF1FF3F08BF40F080407047130CFC
:1043A00006BF12044FF0100C4FF0000C130E04BFA8
:1043B00012020CF1080C130F04BF12010CF1040CD3
:1043C000930F04BF92000CF1020CD30F04BF5200F4
:1043D0000CF1010C11464FF00002A0F11F00A0EB00
:1043E0000C00704711F0004F08BF704731F00041DA
:1043F0003FF4D5AF0B0C06BF09044FF0100C4FF083
:10440000000C0B0E04BF09020CF1080C0B0F04BFCB
:1044100009010CF1040C8B0F04BF89000CF1020C94
:10442000CB0F04BF49000CF1010CCCF12003A0EB31
:104430000C0022FA03F302FA0CF241EA030100F144
:104440000100704720F07F4C80EA030023F07F4793
:10445000ACEB070303F57C5300F0004003F1FF03CE
:104460002DE980494FEA154B09B44FEA144325EA78
:104470000B4E24EA03480FF2042606EB13274908E3
:104480003E785FEA320203FB0667C7F5000707FBC9
:1044900006F64FEA54374FEAD64606F1020607FB06
:1044A000066CCCF1005C4FEA1C472CEA074C07FB7A
:1044B00006F40CFB06F504EB15464FEA961634BFDE
:1044C00000204FF000404FEAD13706FB07FC4FEACF
:1044D0001C4C0CFB0BF7D21B03FB0CF761EB070129
:1044E0000CFB0EF7B0EB074072EB17420CFB08F722
:1044F00034BFA2EB0742B2EB074261EB17414FEA30
:104500000C444FEA910706FB07FC4FEA1C4C0CFBDE
:104510000BF7B0EBC74072EB573203FB0CF734BF1D
:10452000A2EBC742B2EBC74261EB57310CFB0EF76F
:10453000B0EBC70072EB57720CFB08F734BFA2EB6D
:10454000C702B2EBC70261EB5771039F4FEA81616B
:1045500041EA921104EBCC044FEAD1374FEA826270
:1045600006FB07FC42EA90124FEA80604FEA1C4CBF
:104570000CFB0BF7D21B03FB0CF761EB07010CFBE9
:104580000EF7B0EB074072EB17420CFB08F734BF95
:10459000A2EB0742B2EB074261EB17414FEA8C55A1
:1045A0004FEA910704EB9C2406FB07FC4FEA1C4CE6
:1045B0000CFB0BF7B0EBC74072EB573203FB0CF769
:1045C00034BFA2EBC742B2EBC74261EB57310CFBE1
:1045D0000EF7B0EBC70072EB57720CFB08F734BF55
:1045E000A2EBC702B2EBC70261EB577115EB4C258A
:1045F0004FEA816141EA92114FEA82624FEAD13774
:1046000042EA901206FB07FC44F100044FEA806086
:104610004FEA1C4C0CFB0BF7D21B03FB0CF761EBB6
:1046200007010CFB0EF7B0EB074072EB17420CFBD7
:1046300008F734BFA2EB0742B2EB074261EB174128
:1046400015EB1C154FEA813141EA92414FEA823263
:1046500042EA90424FEA80304FEA0C7644F100047F
:1046600048EA03434EEA0B484FF0000EB2EB080C49
:1046700071EB030724BF624639464EEB0E0E4FF036
:10468000000B0018524149414BEB0B0BB2EB080CED
:1046900071EB03077BF1000B24BF624639464EEBFA
:1046A0000E0E4FF0000B0018524149414BEB0B0B23
:1046B000B2EB080C71EB03077BF1000B24BF6246E1
:1046C00039464EEB0E0E51EA020718BF46F00106BE
:1046D00016EB0E7655F1000254F1000103D5BDE84A
:1046E0008901BDE80088BDE88901BDE80048B61928
:1046F000524141EB0101A3F10103704780807F7EAD
:104700007D7C7B7A79787776767574737271717047
:104710006F6E6E6D6C6C6B6A6A69686867666665F9
:104720006464636362616160605F5F5E5E5D5D5C87
:104730005C5B5B5A5A5959585857575656555555F8
:104740005454535352525251515050504F4F4F4E58
:104750004E4D4D4D4C4C4C4B4B4B4A4A4A494949A6
:1047600048484847474747464646454545444444E8
:10477000444343434342424242414141002B9C4611
:1047800030D477002BD01CB54FEA370703B44FF075
:1047900010004FF01001BAF1000F06D0BCF1000F6D
:1047A000DCBF40F0080040F008014FF000000FBCF3
:1047B000BDE810400BF1010BBBF1010F08BF5FEA30
:1047C000170722BF12F1010211F101014FF0004160
:1047D00043F1000300F0004043EA00007047F9D3C2
:1047E0005708D0E746EA064613F1400F4FEA16464F
:1047F0001FDD13F1200FDFBF16430A4600212033CF
:104800005B42BED0C3F1200746EA064602FA07F72C
:104810004FEA164646EA0706C3F1200722FA03F2DA
:1048200001FA07F721FA03F14FF0000342EA070209
:10483000A7E746EA020646EA06464FEA164646EA71
:104840000106BCBF46EA0646360C4FF000034FF0A7
:1048500000024FF0000194E72DE9804C9A46934600
:1048600070B491E8380007C831EA400C48BF34EA18
:10487000430C03D5FFF7E6FDFFF780FFF0BCBDE872
:10488000008C2DE9804C9A46934670B491E838002C
:1048900007C810F0804F08BF13F0804F03D100F01D
:1048A00005F8FFF76BFFF0BCBDE8008C20F07F47F8
:1048B00080EA030023F07F4C07EB0C03A3F57C5345
:1048C00000F00040A3F1FE0392F0000F00F0B3806F
:1048D00095F0000F00F077802DE901494FEA114073
:1048E0004FEA144621EA004800FB06FC24EA06478A
:1048F00008FB06F607FB08F800FB07F718EB06486D
:104900004CEB164C4FEA124B18EB07484FEA154692
:104910004CEB174022EA0B4E0BFB06FC25EA064740
:104920000EFB06F607FB0EFE0BFB07F71EEB064E13
:104930004CEB164C4FF000061EEB074E4CEB174BA2
:1049400018EB0B0840F1000018EB0E0B58EB0008B9
:1049500040F100008F1A4FF000013CBFC943661BB5
:1049600014BFB5EB040C00213CBFC943F61B4FEA52
:1049700017444EEA8E0E27EA04454FEA1C4704FB13
:1049800007622CEA074C05FB07F70CFB05F604FB56
:104990000CFC16EB074642EB174216EB0C4642EBBB
:1049A0001C421BEB060658EB0202414146EA9E06FA
:1049B00001D5BDE80189B619524141EB0101A3F1CE
:1049C0000103BDE801894FEA14454FEA114724EA83
:1049D000054621EA074C05FB07F406FB07F70CFB2D
:1049E00006F105FB0CFC11EB074144EB17444FEAC1
:1049F000124711EB0C4144EB1C4422EA074C05FB27
:104A000007F206FB07F70CFB06F605FB0CFC16EBA2
:104A1000074642EB174216EB0C4642EB1C456A1860
:104A200054F1000148BF7047B619524141EB0101F2
:104A3000A3F10103704795F0000F37D04FEA114200
:104A40004FEA144721EA024624EA074C02FB07F129
:104A500006FB07F70CFB06F402FB0CFC14EB074407
:104A600041EB17414FEA154714EB0C4441EB1C4155
:104A700025EA074C02FB07F506FB07F70CFB06F6D9
:104A800002FB0CFC16EB074645EB174516EB0C46F4
:104A900045EB1C42121951F1000148BF7047B6198D
:104AA000524141EB0101A3F1010370474FEA144564
:104AB0004FEA114724EA054621EA074C05FB07F1B6
:104AC00006FB07F70CFB06F24FF0000605FB0CFC9B
:104AD00012EB074241EB174112EB0C4251EB1C4128
:104AE00048BF7047921841EB0101A3F101037047E1
:104AF00003B401984100009850EAC12018BF042077
:104B00004A0D18BF40F0010040F2FF72B2EB515F56
:104B100008BF40F00200012808BF052002B070471E
:104B200030380A2801D20120704700207047000069
:104B300010B500290AD00878002807D00548784425
:104B4000FFF7A8FB002801D0002010BD02487844E0
:104B500010BD0000FA060000F2060000491058BF20
:104B6000C1F140415B1058BFC3F140438B42EFF3AA
:104B7000008070472DE9C04130B4DFF8A0C23CEAA4
:104B8000111418BF3CEA131400F0EC8081EA03050D
:104B90001CEA111444EAD57418BF1CEA131500F07E
:104BA000C780A4EB05044FF0004545EAC12145EA62
:104BB000C32341EA505143EA525304F17F749942AE
:104BC00004F500344FEAC0204FEAC22208BF9042E9
:104BD00000F09C804FEA13650FF24016765D4FEAB5
:104BE000134506FB05F7C7F1807706FB07F74FEA89
:104BF000D737A7FB03687642C8F58038A7FB06CEF7
:104C000038BFA8F1010807FB08E64FF0000EA6FB2D
:104C1000028CE6FB03CEDCF1000CCEF1004E38BF77
:104C2000AEF1010EA6FB0C584FF000074FF0000547
:104C3000E6FB0E87A1FB08C6A0FB07CE16EB0E060F
:104C400045F10005E1FB076515F1E04E7EBFA4F5D7
:104C500080345FEA46066D4116F1800745F1000594
:104C60004FEA17274FEA066647EA0567A6F1DE46D0
:104C7000B6F1805F4FEA15251FD9384624F0010CA4
:104C800005EBC471BCF1FE6F01EB0C1102D8F0BC56
:104C9000BDE8008124425CBF01F5801E9EEAC47F0E
:104CA00002D4F0BCBDE80081244238D4F0BCA1F1AC
:104CB000C041BDE8004100F0BBB94FEAD22242EA50
:104CC00043524FEAD323A7FB02864FEAD02040EAA3
:104CD000415007FB03661EEA0E0F4FEAD12105FB88
:104CE000026658BFA6EB0056B6EB00564FEA520ECE
:104CF0004EEAC37E18EB0E0E56EB530EBDD518EBE5
:104D000002085E417F1C55F10005B6E74FF480159F
:104D10004FF000074FF000064FF00008ADE7F0BC81
:104D20004FF0000001F1C04101F00041BDE80081F9
:104D300011EA0C1F0CEA131500D00CE013EA0C1F4B
:104D400000F025804FF00000F0BC81EA030101F083
:104D50000041BDE80081F0BCBDE8004181EA0301EB
:104D600000F066B9F0BCBDE8004170B500F012F982
:104D7000097EFC3E00F007B881EA03014FF0000015
:104D800001F00041704781EA030100F051B9F0BC25
:104D9000BDE800414FF0000021497047FFFDFBF9DD
:104DA000F7F5F4F2F0EEEDEBE9E8E6E4E3E1E0DE5E
:104DB000DDDBDAD8D7D5D4D3D1D0CFCDCCCBCAC8D0
:104DC000C7C6C5C4C2C1C0BFBEBDBCBBBAB9B8B7F7
:104DD000B6B5B4B3B2B1B0AFAEADACABAAA9A8A8EA
:104DE000A7A6A5A4A3A3A2A1A09F9F9E9D9C9C9BB8
:104DF0009A99999897979695959493939291919063
:104E00008F8F8E8E8D8C8C8B8B8A898988888787F3
:104E10008685858484838382828181800000FF0768
:104E20000000F87F51EA030C17D41CF5801F58BF0F
:104E3000BCF5801F00F10680994218BF704708BF7B
:104E40009042704707D711F5801F58BF13F5801F98
:104E500019D499427047894270471CF5801F08D5C4
:104E6000BCF5801FF7D58B4218BF704708BF824240
:104E700070474FF4001C1CEB410F38BF1CEB430F75
:104E800001D28B42704770B500F084F8922449003B
:104E90004FF000514FF08053FFF760BE4FEA1153BF
:104EA000A3F58063D3F11E03A8BFD3F1200C08DB68
:104EB0004FF0004242EAC12252EA505232FA03F065
:104EC000704709420BD4102BC4BF0020704703F574
:104ED000787CBCF1FF3F05D04FF0FF3070474FF0BA
:104EE0000000704770B500F055F800BF499224806B
:104EF00000207047F0E7B0FA80F310FA03F10AD00F
:104F0000C3F11D0303F580634FEA41504FEA03529A
:104F100002EBD12170474FF00000704751EA030CBB
:104F200017D41CF5801F58BFBCF5801F00F1068008
:104F3000994218BF704708BF9042704707D711F5D4
:104F4000801F58BF13F5801F19D4994270478942BA
:104F500070471CF5801F08D5BCF5801FF7D58B4224
:104F600018BF704708BF824270474FF4001C1CEB0B
:104F7000410F38BF1CEB430F01D28B42704770B515
:104F800000F008F8922449004FF000514FF0805390
:104F9000FFF7E4BD0EF1020E2EF0030E5EF8046B77
:104FA000364205D4012A43EB030515F5001F12D83C
:104FB000012841EB010C1CF5001F0CD80ED14FEA63
:104FC000D17C15F5001F0CEB4C0C0CF1020C08BF4A
:104FD0004CEBD37C04E04FF0080C01E04FEAD37CAB
:104FE0000CEB4C0526FA05F606F00706B6F1040CA4
:104FF00006D20EEB860CBDE870404CF0010C604709
:10500000DFE80CF0090B02024FF000414FF0000006
:10501000A1F5002170BD19461046012851EB01048D
:1050200018BFD4F5001484BF002001F0004170BD0A
:105030000808A0F500114FEA3101704743004FEA1C
:10504000D30C4FEA3C0C43401FBF40070CF16051AA
:1050500013F0FE4F70471CF0006F03D100200CF0DE
:10506000004170470CF0004343EA507010B540EA2D
:10507000CC0000F00EF800BF000000924FEA0001E3
:10508000FFF7D6BF4FF000414FF00000A1F500211F
:1050900070470EF1020E2EF0030E5EF8044B244210
:1050A00004D44FEA4102B2F17F4F11D84FEA4003D6
:1050B000B3F17F4F0CD80ED14FEAD07CB2F17F4FC5
:1050C0000CEB4C0C0CF1020C08BF4CEBD17C04E057
:1050D0004FF0080C01E04FEAD17C0CEB4C0324FAB2
:1050E00003F404F00704B4F1040C06D20EEB840CB4
:1050F000BDE810404CF0010C6047DFE80CF00708F9
:1051000002024FF00040A0F5800010BD08464200AA
:1051100018BFD2F1807288BF00F0004010BD4FF080
:105120004070E1EE100A7047FEF7E1BD024000005A
:10513000000000A00000000005400000000000C8C2
:10514000000000000C4000000000409C0000000037
:10515000194000000020BCBE0000000034400000E8
:10516000BFC91B8E00000004B5400000504BCFD0DB
:105170006607E2CF010000006C4100003E8251AAA8
:10518000DFEEA73401000000D9420000DCB5A0E248
:105190003A301F97FFFFFFFFB4450000FD25A0C870
:1051A000E9A3C14FFFFFFFFFFF3F000000000080A9
:1051B00000000000FF3F0000000000800000000031
:1051C00045787065637465643A20202025322E335B
:1051D0006620430A41637475616C3A2020202020C8
:1051E00025322E336620430A4572726F723A2020B0
:1051F0002020202025322E336620430A44757479FE
:10520000206379636C653A2025352E32662025258A
:105210000A2D2D2D2D0A00005452000800000020F8
:1052200098000000C4010008EC520008980000201B
:1052300050070000E00100081C00000043000000CF
:10524000F8FFFFFF0C0000000E0000000F00000040
:105250002E0000000000000001020304010203040C
:105260000607080900000000000000000000000020
:105270000000000000000000B0000020200000003E
:1052800000000000000A0000D00000202000000004
:1052900000000000000A0000F000002020000000D4
:1052A00000000000000A00001001002020000000A3
:1052B00000000000000A0000300100202000000073
:1052C00000000000000A0000500100202000000043
:1052D00000000000000A0000007A030A000000003D
:0C52E0000000000001020304060708099A
:040000050800018965
:00000001FF
