:020000040800F2
:10000000B8040020AD010008C3180008F51400086A
:10001000C1180008B9020008D71E0008000000003F
:10002000000000000000000000000000791B000834
:10003000BB02000800000000611900087B1B0008DB
:10004000C7010008C7010008C7010008C701000870
:10005000C7010008C7010008C7010008C701000860
:10006000C7010008C7010008C7010008C701000850
:10007000C7010008C7010008C7010008C701000840
:10008000C7010008C7010008C70100080000000000
:10009000000000000000000000000000C701000890
:1000A000C7010008C7010008C7010008C701000810
:1000B000C7010008C7010008C7010008C701000800
:1000C000C7010008C7010008C7010008C7010008F0
:1000D000C7010008C7010008C701000800000000B0
:1000E000C7010008C7010008C701000800000000A0
:1000F000000000000000000000000000C701000830
:1001000000000000C7010008C7010008C70100087F
:1001100000000000000000000000000000000000DF
:10012000C7010008C7010008C7010008C70100088F
:10013000C7010008000000000000000000000000EF
:10014000000000000000000000000000C5180008CA
:10015000C7010008C7010008C7010008C70100085F
:10016000C7010008C70100080000000000000000EF
:10017000000000000000000000000000000000007F
:1001800000000000C701000800000000000000009F
:10019000C7010008C7010008DFF80CD000F07AF8AA
:1001A00000480047551F0008B80400200648804753
:1001B00006480047FEE7FEE7FEE7FEE7FEE7FEE74C
:1001C000FEE7FEE7FEE7FEE7211C000899010008B4
:1001D0002DE9F05F0546002092469B46884606467C
:1001E000814640241BE0284641464746224600F00F
:1001F00041F853465A46C01A914110D31146184649
:10020000224600F028F82D1A67EB01084F462246D7
:100210000120002100F01FF817EB00094E41201EBD
:10022000A4F10104DFDC484631462A464346BDE8D6
:10023000F09FD2B201E000F8012B491EFBD27047BB
:100240000022F6E710B513460A4604461946FFF7A2
:10025000F0FF204610BD202A04DB203A00FA02F10C
:10026000002070479140C2F1200320FA03F31943A4
:1002700090407047202A04DB203A21FA02F0002146
:10028000704721FA02F3D040C2F1200291400843A6
:1002900019467047064C074D06E0E06840F0010340
:1002A00094E8070098471034AC42F6D3FFF778FF84
:1002B00094200008B4200008FEE7704770B50D4692
:1002C0002DED028B9FED0C8A01F04CFB0446284675
:1002D00001F048FB44EA002000B200EE100AB8EE3C
:1002E000C00A20EE080ABDEC028BBDEEC00A10EE7B
:1002F000100A00B270BD0000295C0F3C70B50D46BD
:100300000646144629212820FFF7D8FF30802B21EC
:100310002A20FFF7D3FF28802D212C20FFF7CEFFC6
:10032000208070BD70B501F0CFFA4FF480440A4DC3
:1003300006E02146284600F0E7F8322000F00EF8EB
:100340000F2001F00FFBD428F3D1BDE870400F213E
:10035000202001F0C1BD0000000C024070B5044631
:1003600000F0DEF80546601C02D004480078044422
:1003700000F0D6F8401BA042FAD370BD1000002058
:100380002DE9F84FDFF860B100224FF001084FF07F
:10039000030A4FF00F090BF1040E00BF0B6808FAB7
:1003A00002F42340A3426ED14D68022D01D0122DDC
:1003B0000ED1D50800EB850CDCF820505607F70E5F
:1003C00009FA07F6B5430E69BE402E43CCF820600B
:1003D000066855000F790AFA05FC07F0030726EABC
:1003E0000C06AF40374307604E68012E05D0022E41
:1003F00003D0112E01D0122E0ED18668CF6826EAC6
:100400000C06AF40374387604668A6430C79C4F3B7
:100410000014944034434460C6688C6826EA0C0695
:10042000AC403443C4604C68E40056D52F4C25687A
:1004300045F480452560246822F0030504F48044D7
:1004400000942B4C2E19D6F8084895072F0F09FA5F
:1004500007F5AC43274DA84201D1002515E0264DF4
:10046000A84201D1012510E0244DA84201D1022566
:100470000BE0234DA84201D1032506E0214DA842FF
:1004800002D1042501E028E00725BD402543C6F838
:100490000858DBF800405D464E689C43F60300D5E3
:1004A0001C432C60DEF8004075464E689C43B60342
:1004B00000D51C432C600C4D08352C684E689C43BD
:1004C000F60200D51C432C60074D0C352C684E6895
:1004D0009C43B60200D51C432C60521C102AFFF42A
:1004E0005DAFBDE8F88F0000003C01404438024099
:1004F00000300140000002400004024000080240B9
:10050000000C024000100240426931EA020200D1B0
:100510000904816170470AB1816170470904FBE7F2
:100520000148806870470000100000200248816880
:100530000278114481607047100000200B4810B50C
:10054000016841F400710160016841F4806101605B
:10055000016841F480710160032000F063F800201D
:1005600000F006F800F024F8002010BD003C024026
:1005700070B50D4D04464FF47A712878B1FBF0F058
:100580000A490968B1FBF0F000F019FE48B9102CD7
:1005900007D200222146501E00F024F800206C6093
:1005A00070BD012070BD0000100000201C00002064
:1005B0000B4882B0016841F480410160006800F49A
:1005C000804000900648001F016841F080510160A2
:1005D000006800F080500090072002B000F022B8C0
:1005E00044380240F0B40E4B1B680C46C3F30223A0
:1005F000C3F10705042D00D90425191D072901D2CF
:10060000002300E0DB1E012606FA05F1491E214009
:1006100099409E40761E16403143F0BC01F07ABCF2
:100620000CED00E0064900F0070208684FF6FF03F2
:10063000184040EA0220034A104308607047000057
:100640000CED00E00000FA052DE9F84304460068CF
:100650004FF00109C1074FF0000601D1400729D52D
:10066000DFF82081C8F86860FFF75AFF0746464D5B
:1006700005E000BFFFF754FFC01B022859D82868C7
:100680000001F7D4A068217B800140EA0170616815
:1006900008433D4984310860C8F86890FFF740FF7F
:1006A000074604E0FFF73CFFC01B022841D828683A
:1006B0000001F7D52078800752D5334840300168D3
:1006C00041F0805101600068304D00F08050009092
:1006D000286840F480702860FFF722FF074604E096
:1006E000FFF71EFFC01B022823D82868C005F7D5D6
:1006F000254D7035286810F4407020D0218A01F40F
:10070000407181421BD02868214920F44070C1F813
:1007100000900E6028602868C00710D0FFF700FF27
:10072000064641F2883707E0FFF7FAFE801BB84221
:1007300002D90320BDE8F88328688007F4D5216931
:100740001148C1F301220830032A12D0016821F4B4
:10075000F81101602868218AC1F30B010843286061
:100760002078000703D50B49207DC1F8E001002067
:10077000E0E70268084B22F4F81219400A430260CD
:10078000E8E70000000047420038024000700040E7
:10079000400E474200104742FFFCFF0F2DE9F04793
:1007A0000E46050065D0DFF81481D8F80000F7B2D6
:1007B00000F00F00B04207D288F80070D8F80000AF
:1007C00000F00F00B04254D128683D4C810712D58B
:1007D000400703D5206840F4E050206028780007E7
:1007E00003D5206840F4604020602068A96820F0AC
:1007F000F000084320602878C0072DD03049686891
:100800000839012812D0022813D0032811D0096812
:10081000890700292DDA216821F0030101432160B5
:10082000FFF77EFE814641F2883A0EE009688903AF
:10083000EFE709688901ECE7FFF772FEA0EB090119
:10084000514502D90320BDE8F0872068696800F0AF
:100850000C00B0EB810FEFD1D8F80010404601F04A
:100860000F01B14207D90770006800F00F00B042D5
:1008700001D00120E7E72878400705D52068E9681E
:1008800020F4E050084320602878000706D520684F
:10089000296920F4604040EAC100206000F016F8A9
:1008A0002168084AC1F30311515CC8400649086039
:1008B0000020FFF75DFE0020C5E70000003C02407D
:1008C00008380240842000081C000020154810B59C
:1008D000006810F00C02144813D04110042A0FD005
:1008E000082A0ED10F4C241F2268236802F03F0211
:1008F0005B0207D52068C0F38810A0FB010106E069
:10090000084610BD2168C1F38811A1FB0001002336
:10091000FFF75EFC2168C1F30141491C4900B0FBAF
:10092000F1F010BD083802400024F4002DE9F84F22
:10093000050076D02878DFF8F8B2BE4CC00749D061
:10094000DBF800105846C1F38101012908D0006886
:10095000C0F3810002280AD1201D0068400206D59C
:100960002068800336D568680028E2D032E06868E5
:10097000B0F5803F10D0B0F5A02F206810D020F443
:1009800080302060206820F4802020606868A0B15A
:10099000FFF7C6FD06460CE0206840F48030F4E71F
:1009A00040F480202060F7E7FFF7BAFD801B642841
:1009B00073D820688003F7D50CE0FFF7B1FD064639
:1009C00005E000BFFFF7ACFD801B6428F0D820686D
:1009D0008003F7D42878DFF8608280074FF00009A1
:1009E0003ED5DBF80010584611F00C0F09D0006816
:1009F000C0F3810002280BD18D48001F006840021F
:100A000006D42068800715D5E868012809D111E0CF
:100A1000E868B8B10120C8F80000FFF781FD06467C
:100A200005E002E1FFF77CFD801B0228C0D82068AA
:100A30008007F7D52068296920F0F80040EAC10056
:100A400020600DE0C8F80090FFF76AFD064604E05C
:100A5000FFF766FD801B02281FD820688007F7D4A7
:100A60002878000722D5724E744869696C3671B1D6
:100A700001210160FFF754FD074604E0FFF750FD38
:100A8000C01B022809D830688007F7D50EE0C0F8EF
:100A90000090FFF745FD074605E083E0FFF740FDC6
:100AA000C01B02287ED830688007F7D4287840071A
:100AB00068D5DFF87CA100270AF1380ADAF80000CF
:100AC000C0000BD4DAF8001041F08051CAF80010D1
:100AD000DAF80000012700F080500090584E30688E
:100AE000C00510D4306840F480703060FFF718FD06
:100AF000009005E0FFF714FD0099401A022851D834
:100B00003068C005F6D54A4EA868683601280FD06F
:100B10000528306810D020F001003060306820F0E7
:100B200004003060A868B8B1FFF7FAFC00900FE04D
:100B3000306840F00100F4E740F004003060F7E76F
:100B4000FFF7EEFC0099411A41F28830814264D8E7
:100B500030688007F4D50EE0FFF7E2FC009007E074
:100B6000FFF7DEFC0099411A41F28830814254D8E7
:100B700030688007F4D42FB1DAF8001021F08051EA
:100B8000CAF80010A869C0B3DBF80010C1F38101F6
:100B900002294AD00228484607D0C8F86000FFF76B
:100BA000BFFC00E039E005463AE04746C8F860007F
:100BB000FFF7B6FC064604E0FFF7B2FC801B0228F4
:100BC0002BD820688001F7D4D5E907010843A96A2A
:100BD0001C4A490802EB01416A6A41EA8211084352
:100BE00095F82C1040EA01611148001F01600120B6
:100BF0003866FFF795FC054605E014E0FFF790FC2A
:100C0000401B022809D820688001F7D50BE000BFFF
:100C1000FFF786FC401B022802D90320BDE8F88FAD
:100C200020688001F4D40020F8E70120F6E70000F6
:100C3000083802400038024000004742800E474218
:100C4000007000400000FFFF70B5040005D00025D3
:100C5000A56294F8510010B106E0012070BD84F83F
:100C60005050204600F030F8022084F851002068EF
:100C7000016821F040010160D4E901010843D4E991
:100C800003121143084361690843218B01F4007189
:100C90000843E1690843216A0843A16A08432168BF
:100CA0000860A069042101EA1040616A08432168D4
:100CB00048602068C16921F40061C1616565012057
:100CC00084F85100002070BD10B586B00446142190
:100CD0006846FFF7B5FA13492068884220D11248C8
:100CE0000021026842F480520260006800F48050E3
:100CF00005900D481438026842F001020260006855
:100D000000F001000590E02000900220CDE90101F3
:100D1000032003900520049069460448FFF730FB48
:100D200006B010BD003001404438024000000240CF
:100D30002DE9F84F044640680025984616460F46B0
:100D40004FF0040BB0F5827F01D1A06888B194F810
:100D50005000012818D0012084F85000FFF7E0FB74
:100D6000814694F851004FF0000A01280ED0022568
:100D70007DE084F851B013460A462046CDF8008045
:100D800000F02CF9BDE8F88F0220FBE7002F6DD0B2
:100D9000002E6BD084F851B0C4F854A0A763A68786
:100DA000E687C4F830A0A4F834A0A4F836A0C4F8AC
:100DB00040A0C4F844A0A068B0F5004F04D120685A
:100DC000016821F48041016020680168490603D46C
:100DD000016841F040010160E068D8B139E0206865
:100DE0008168C90709D0007BA16B0870A06B401C0B
:100DF000A063E08F401EE0870CE0FFF791FBA0EBC3
:100E00000901414503D3B8F1FF3F03D036E0B8F103
:100E1000000F33D0E08F0028E1D11DE02068816809
:100E2000C90709D0C068A16B0880A06B801CA063B3
:100E3000E08F401EE0870CE0FFF772FBA0EB09019A
:100E4000414503D3B8F1FF3F03D017E0B8F1000FDD
:100E500014D0E08F0028E1D14A464146204600F0F8
:100E6000E7FD08B120206065606D00B1012501201B
:100E700084F8510084F850A0284683E70325F6E75C
:100E80002DE9F84F044690F8500000271D461646FD
:100E9000894601280DD04FF0010B84F850B0FFF7C0
:100EA0003FFB804694F85100BA46012804D002273F
:100EB0008EE00220BDE8F88FB9F1000F7DD0002E42
:100EC0007BD0032084F85100C4F854A0C4F83090BB
:100ED000A686E686C4F838A0A4F83CA0A4F83EA0F4
:100EE000C4F844A0C4F840A0A068B0F5004F04D1F5
:100EF0002068016841F4804101602068016849066A
:100F000003D4016841F040010160E068B0F5006F72
:100F1000606803D030B3012E24D040E008B1012E28
:100F20001CD1206B21680088C86006E020688168B9
:100F3000890709D5216B0988C160206B801C20635B
:100F4000E08E401EE08609E0FFF7EAFAA0EB080019
:100F5000A84202D3681C01D031E07DB3E08E0028A6
:100F6000E4D11FE0206B21680078087306E0206858
:100F70008168890709D5216B09780173206B401CB2
:100F80002063E08E401EE08609E0FFF7C9FAA0EB7F
:100F90000800A84202D3681C01D010E075B1E08EB1
:100FA0000028E4D142462946204600F06FFD08B1F2
:100FB00020206065A06820B107E008E0FFE7032774
:100FC00006E02068C16880680090606D00B101276C
:100FD00084F851B084F850A038466BE72DE9F84FFB
:100FE000044690F8500000270A9E1D4692468B4604
:100FF0004FF0010901280ED0012084F85000FFF7BE
:101000008FFA804694F85100616801280CD0B1F540
:10101000827F07D102E00220BDE8F88FA16809B9FC
:10102000042801D00227C2E0BBF1000F27D0BAF19B
:10103000000F24D01DB394F85100042802D00520DD
:1010400084F8510000206065C4F838A0E587A587C2
:10105000C4F830B0E586A586206460642068016825
:10106000490603D4016841F040010160E068B0F531
:10107000006F606805D0E8B3012D46D07FE00127FE
:1010800095E008B1012D39D1206B21680088C86036
:10109000206B801C2063E08E401EE0862EE02068DE
:1010A000816889070FD5E18E69B1B9F1010F0AD1C5
:1010B000216B0988C160206B801C2063E08E401E7C
:1010C000E0864FF0000920688168C9070CD0E18FE5
:1010D00051B1C068A16B0880A06B801CA063E08F39
:1010E000401EE0874FF00109FFF71AFAA0EB080055
:1010F000B04200E009E001D3701C50D1E08E00281E
:10110000CDD1E08F0028CAD13FE0206B2168007864
:101110000873206B401C2063E08E401EE0862EE0AA
:101120002068816889070FD5E18E69B1B9F1010F97
:101130000AD1216B09780173206B401C2063E08E7B
:10114000401EE0864FF0000920688168C9070CD076
:10115000E18F51B1C068A16B0870A06B401CA06307
:10116000E08F401EE0874FF00109FFF7D9F9A0EBAF
:101170000800B04202D3701C01D010E07EB1E08EB6
:101180000028CDD1E08F0028CAD142463146204602
:1011900000F07CFC28B101272020606507E00327D0
:1011A00005E0A06818B92068C16880680090012037
:1011B00084F85100002084F8500038462CE710B520
:1011C000401EB0F1807F01D3012010BD4FF0E0241C
:1011D00060610F21601700F09DFE0020A0610720D4
:1011E0002061002010BD70B590F83C20012A19D074
:1011F000012400F83C4F0222427050F83C3C5A68EF
:101200009D6822F070060A684968324325F080051F
:1012100029435A6050F83C2C9160447000210170C1
:10122000084670BD022070BD10B5040003D094F8CC
:101230003D0010B107E0012010BD002084F83C0003
:10124000204600F00DF8022084F83D00211D2068A2
:1012500000F010FD012084F83D00002010BD0000CA
:1012600008B500680649884208D10648016841F07F
:1012700004010160006800F00400009008BD000057
:10128000000800404038024070B5044690F83C0029
:10129000012817D0012584F83C50022084F83D0035
:1012A0002068826822F0770222F47F428260086818
:1012B000502830D00DDC20284DD005DC98B3102804
:1012C0003BD148E0022070BD302844D0402834D1C2
:1012D00039E0602828D0702806D0B0F5805F2CD087
:1012E000B0F5005F29D10AE0CB68D1E9012120687F
:1012F00000F019FD2068816841F0770109E0CB68B2
:10130000D1E90121206800F00EFD2068816841F4D8
:101310008041816011E0CA684968206800F0B8FD2A
:101320005021206807E016E0CA684968206800F08C
:10133000C0FD6021206800F000FD84F83D500020D1
:1013400084F83C0070BDCA684968206800F0A0FDC0
:1013500040212068EFE7226801461046EBE70000D5
:1013600010B586B0044614216846FEF769FF0E49A1
:101370002068884215D10D480021026842F0080219
:101380000260006800F0080005904FF47040009083
:101390000220CDE90101CDE9031069460448FEF7BA
:1013A000EFFF06B010BD00000008004030380240DA
:1013B000000C024070B5044690F83C000D46012830
:1013C0000DD0012684F83C60022084F83D0042B133
:1013D000042A18D0082A2AD00C2A4DD139E002203C
:1013E00070BD206800F0B2FC2068816941F00801FE
:1013F00081612068816921F004018161206881692F
:101400002A69114311E0206800F0C8FC2068816956
:1014100041F4006181612068816921F4806181610A
:10142000206881692A6941EA0221816124E02068FB
:1014300000F0E0FC2068C16941F00801C16120684A
:10144000C16921F00401C1612068C1692A691143A1
:1014500011E0206800F0FAFC2068C16941F40061E5
:10146000C1612068C16921F48061C1612068C169DE
:101470002A6941EA0221C16184F83D60002084F8B4
:101480003C0070BD10B5040003D094F83D0010B1CD
:1014900007E0012010BD002084F83C00204600F049
:1014A0000CF8022084F83D00211D206800F0E2FBCA
:1014B000012084F83D00002010BD704710B504469F
:1014C0000068012200F022FC09492068884203D10B
:1014D000416C41F4004141642068816801F00701DA
:1014E000062903D0016841F001010160002010BD10
:1014F00000000140FEE710B5142000F0BEF88007A0
:1015000005D10321BDE81040142000F0D8B810BD6B
:101510007CB50446002529460D2000F066F993208D
:1015200020702020607001A82346009002221946F6
:101530000C2000F0D0F8010009D1225C401C55407D
:10154000C0B20428F9D3205CA84200D0022108468A
:101550007CBD2DE9F0410E460746154604210520C5
:1015600000F036F880210A2000F0A9F8002405E0F8
:10157000395D092000F039F9641CE4B2B442F7D3B4
:101580000321012000F031F9FF24052000F075F857
:10159000641E14F0FF0401D04007F6D5222000F0AD
:1015A0006CF82870212000F068F86870BDE8F081C0
:1015B00070B505460146262000F066F8040003D108
:1015C0002846FFF7A5FF044600F01CF8204670BD32
:1015D00070B50C46054600F050F820EA0401284694
:1015E000BDE8704000F001B910B50022835C8C5C4E
:1015F000A34201D0022010BD521CD2B2052AF5D35D
:10160000002010BD0EB550208DF8040000208DF88C
:1016100005000DF10602022101A8FFF79AFF02A8BA
:1016200001AB0090042219460C2000F054F80EBDC6
:1016300010B500F06FF900F03EF88D212A2000F07F
:10164000D4F83E212B2000F0D0F81E212D2000F0F0
:10165000CCF800212C2000F0C8F87021262000F0E2
:10166000C4F84021152000F0C0F83D21112000F001
:10167000BCF8BDE81040FFF73EBF7E2101EA400004
:1016800040F0800000F0A4B913B50C4682B00721E9
:101690000D2000F0AAF801A800902346012202A91B
:1016A0000C2000F018F818B9BDF80410102900D06B
:1016B000022004B010BD0F21012000F096B870B5D3
:1016C0000C460546FFF7D9FF40EA04012846BDE86D
:1016D000704000F08AB82DE9FF5F00270226DDF890
:1016E00038A015468B468146B8460C2805D0B9F17E
:1016F0000E0F05D11227102001E0772730208046F9
:1017000047F08001022000F070F880210420FFF7EC
:101710005FFF80210A20FFF7D2FF0021012000F0A7
:1017200064F8002406E01BF80410092000F05DF8BE
:10173000641CA4B2AC42F6D34946012000F055F82F
:10174000B9F10C0F03D180210D20FFF7B8FF40F64F
:10175000C4150420FFF791FF6D1E2D0404462D0CC7
:1017600004D0E00702D114EA080FF2D080210D2046
:10177000FFF72EFF35B10620FFF77FFF10F01B0F9C
:1017800004D0022604B03046BDE8F09F00263C405D
:10179000E00700D00126B9F10C0FF3D10A20FFF7C2
:1017A0006CFF04460C20FFF768FF10F007004FEABB
:1017B000C40104D008390844AAF8000001E0AAF8DE
:1017C000001024B1102C04D91024002503E00124BA
:1017D000FBE7002506E00920FFF74FFF0399485576
:1017E0006D1CADB2A542F6D3CCE77E2202EA4000E2
:1017F00000F006B90B480A494FF4007201604FF43B
:101800008271416000218160C1600161C0E90512FF
:10181000C1610162416281620A21C162FFF714BAAB
:10182000003001402000002010B58EB00024079445
:10183000089409940A940B941C2168460C94FEF7B2
:10184000FFFC1E481C4901601521C0E901144FF43A
:10185000C871C0E903148461FFF7E6FC4FF48050BF
:10186000079007A91548FFF70FFD1448FFF70AFE78
:101870000B940BA911480C94FFF7B5FC6020CDE93F
:1018800000040294002269460C480494FFF792FD7C
:10189000042269460948FFF78DFD0822694607487A
:1018A000FFF788FD0C2269460448FFF783FD0348D3
:1018B000FFF756FD0EB010BD000800407800002074
:1018C000FEE770477047000030B587B014216846C6
:1018D000FEF7B6FC0D480024016841F010010160DC
:1018E00000680B4D00F010000590224608212846A4
:1018F000FEF711FE082000900120CDE901046946A1
:1019000028460394FEF73CFD07B030BD3038024056
:101910000010024010B586B014216846FEF790FC16
:101920000D48016841F00101016000680B4C00F0B6
:1019300001000590002210212046FEF7ECFD10204A
:101940000121CDE900010320CDE9021069462046BE
:10195000FEF716FD06B010BD303802400000024010
:101960007047000011B5104C81B0002208212046BC
:10197000FEF7D1FD9DF80400012340F080008DF8B2
:1019800004001A4601A90948FFF77AFA01231A460A
:1019900069460648FFF7CCF9012208212046FEF7E8
:1019A000BAFD9DF800001CBD001002402000002080
:1019B0000EB501238DF804000A20009002AA01A9A7
:1019C0000248FFF70BFB9DF808000EBD2000002029
:1019D00070B50A4D0446002210212846FEF79BFDF3
:1019E0002046FFF7E5FF0020FFF7E2FF0446012253
:1019F00010212846FEF78FFD204670BD00000240F2
:101A000070B50A4C0E460546002210212046FEF70E
:101A100082FD2846FFF7CCFF3046FFF7C9FF20467E
:101A2000BDE8704001221021FEF775BD00000240A4
:101A3000F8B5044640684FF48273984221D1A068FB
:101A40004FF48065B0F5004F01D0A8420AD120685C
:101A5000066826F0400606606068984211D1A068CA
:101A6000A8420ED000920B4600228021204600F0B2
:101A700039F8002804D0606D40F020006065032034
:101A8000F8BD00920B4600220121EFE738B504466D
:101A90001248134B0068B0FBF3F04FF47A735843CD
:101AA00000906068B0F5827F0DD10B460092002255
:101AB0008021204600F016F870B1606D40F02000E3
:101AC0006065032038BD009830B1401E009020684A
:101AD0008068C0430006F6D5002038BD1C000020F9
:101AE00000366E012DE9F0411D4617460E460446AC
:101AF000DDF8188008E0681C06D0FEF711FDA0EBA9
:101B00000800A8420BD255B12068806836EA000070
:101B100030D00020B842EED10020BDE8F08120682E
:101B2000416821F0E00141606068B0F5827F0BD12F
:101B3000A068B0F5004F02D0B0F5806F04D12068E6
:101B4000016821F040010160A06AB0F5005F09D191
:101B50002068016821F4005101602068016841F4A7
:101B600000510160012084F85100002084F85000E9
:101B70000320D2E70120CDE77047FEF7D7BC000075
:101B800070B598B030216846FEF75AFB14210CA8B6
:101B9000FEF756FB182111A8FEF752FB1E48002540
:101BA000016841F080510160006800F0805017909A
:101BB0001A48016841F4404101600068012600F4C0
:101BC000404017904FF4A020CDE90060022460054A
:101BD000CDE906400420C021CDE908010A90082083
:101BE0000B906846FEF7A2FE0CA90F2081E8310099
:101BF0004FF4A050CDE90F0503210CA8FEF7CEFD50
:101C0000C820139005201494CDE9116011A8FEF7A7
:101C10001BFD18B070BD000040380240007000404D
:101C20001048016841F4700101600F48016841F0FB
:101C3000010101600C4A00210832116002680B4B5F
:101C40001A400260031D0A4A1A60026822F48022C8
:101C5000026005480C30016002495806803908606E
:101C60007047000088ED00E000380240FFFFF6FEFC
:101C700010300024F0B502681D4B1E4C9F031E4D12
:101C80001E4E984207D0B84205D0A04203D0A842C9
:101C900001D0B04204D122F0700C4A6842EA0C0232
:101CA000984210D0B8420ED0A0420CD0A8420AD020
:101CB000B04208D0124CA04205D0124CA04202D033
:101CC000114CA04203D122F44074CA6822434C69EB
:101CD00022F08002224302608A68C2620A6882623D
:101CE000984201D10969016301214161F0BD000001
:101CF000000001400004004000080040000C0040CB
:101D000000400140004401400048014010B501F08E
:101D10001F030121046A99408C430462016A9A40BE
:101D20001143016210BD10B5846842EA032224F415
:101D30007F440A432243826010BD826822F0700211
:101D40000A4342F0070181607047000030B5026A23
:101D500022F001020262026A4368846924F073057A
:101D60000C682C4322F002058A682A430A4DA842D7
:101D70000BD122F00805CA6823F440732A434D6949
:101D800022F004021D438B692B4343608461496840
:101D90004163026230BD00000000014030B5026ABC
:101DA00022F010020262026A436884690D6824F41A
:101DB000E64444EA05248D6822F0200242EA051236
:101DC0000B4DA8420ED1CD6822F0800242EA0512E6
:101DD0004D6923F4406343EA85038D6922F0400294
:101DE00043EA85034360846149688163026230BDD0
:101DF0000000014030B5026A22F480720262036A78
:101E00004268C46923F4007324F073050C682C4302
:101E10008D6843EA05230C4DA8420ED1CD6823F40A
:101E2000006343EA05234D6922F4405242EA051259
:101E30008D6923F4806342EA05124260C4614968F7
:101E4000C163036230BD00000000014030B5026A8A
:101E500022F480520262046A4268C3690D6823F466
:101E6000E64343EA05238D6824F4005444EA05342C
:101E7000064DA84204D14D6922F4804242EA8512FF
:101E80004260C36149680164046230BD00000140E2
:101E900010B5036A046A24F001040462846924F022
:101EA000F00444EA021423F00A020A438461026245
:101EB00010BD10B5036A23F0100303628369046A3E
:101EC00023F4704343EA023224F0A00343EA0111F1
:101ED0008261016210BDFEE713B50C4C002208219F
:101EE0002046FEF718FB01231A4669460848FEF70C
:101EF000C7FF01231A4601A90548FEF7C1FF0122C9
:101F000008212046FEF707FB1CBD00000010024020
:101F1000200000200907090E002804DB00F1E02062
:101F200080F80014704700F00F0000F1E02080F806
:101F3000141D704702E008C8121F08C1002AFAD118
:101F400070477047002001E001C1121F002AFBD139
:101F50007047000086B0FEF7F1FAFFF711FE14217A
:101F60006846FEF76DF943480025016841F0080115
:101F700001600068404E00F008004FF47044059086
:101F80002A4621463046FEF7C6FA01200094CDE9E4
:101F90000105694630460395FEF7F2F9FFF72AFC82
:101FA000FFF742FC00213548FFF788FA0421334847
:101FB000FFF784FA08213148FFF780FA0C212F48F7
:101FC000FFF77CFAFEF7AEF9FFF732FB4FF47A78B1
:101FD0004046FEF7C3F92A4E284C4FF4C877284AEA
:101FE000121D911E881EFEF789F9B6F9000000281F
:101FF00001DD014600E0002122685163B6F90210BC
:10200000002901DD0B4600E000232268136400284C
:1020100001DA404200E00020D063002901DA4842A2
:1020200000E00020216888630520FEF797F9144836
:102030000B30FFF7BDFA002820680BD0456310492C
:1020400000200B310D54401C0528FBDB0520FEF75A
:1020500085F9C4E7C7630A49891D481DFFF7C4FA1B
:102060000028F3D1206847634046FEF777F92068DF
:102070004563EBE730380240000C02407800002056
:102080000000002000000000000000000102030426
:1020900006070809B4200008000000202000000006
:1020A000341F0008D42000082000002098040000FD
:1020B000441F0008000000000000B9A9337D5E0045
:1020C00000000000010000001000000000000000FF
:0420D0000024F400F4
:040000050800019955
:00000001FF
